:10000000B1C20000CCC20000E4C20000C8C20000BF
:10001000C6C20000C4C20000C2C20000C0C20000CC
:10002000BEC200000C94CF1A0C94761EB8C2000019
:10003000B6C20000B4C20000B2C20000B0C20000EC
:10004000AEC20000ACC20000AAC20000A8C20000FC
:10005000A6C200002B0014001A00080015001700AB
:100060001C0018000C00120013002A0029000400D4
:100070001600070009000A000B000D000E000F001B
:1000800033002800E1001D001B00060019000500D8
:10009000110010003600370038003432E000C3523F
:1000A000E300E200C1522C002C00C252500051006B
:1000B00052004F0035003A003B003C003D003E003E
:1000C00001002400250026000100010001003F007E
:1000D000400041004200430057002100220023005D
:1000E0002D00010001004400450046004700480083
:1000F00055001E001F00200038002E0001000100E6
:1001000001000100615201000100270027003700B3
:100110003600290035021E021F022002210222029F
:10012000230224022502260227024C000100490076
:100130004A004B00010001001D011B0106011901CD
:100140002D02010001004C004D004E000100010095
:100150002F0230022F003000310031020100010077
:100160000100010001000100010062524A004E003E
:100170004B004D0000000000CD00D90000002078A9
:100180000000217823782578277829780000CF008F
:10019000CE00D000000000000000227824782678ED
:1001A00028782A78000000000000DA000000000033
:1001B00000000000BC00AE00AD00BB0000006352B8
:1001C0000000D300D100D20000000000AC00AA0063
:1001D000A900AB001E0F0500047F3F1F64321464AA
:1001E0003214783C1E1E140A052223252628292AAB
:1001F0002C2D2F3032333536383A3B3D3E4042438A
:100200004547494A4C4E5051535557595A5C5E60C8
:1002100062646668696B6D6F71737577797B7D7FDA
:1002200081838587898A8C8E90929496989A9C9ED9
:100230009FA1A3A5A7A8AAACAEAFB1B3B4B6B8B9F5
:10024000BBBCBEBFC1C2C3C5C6C7C9CACBCCCDCE5D
:10025000D0D1D2D2D3D4D5D6D7D7D8D9D9DADADB40
:10026000DBDBDCDCDCDCDCDDDDDDDDDCDCDCDCDCCC
:10027000DBDBDBDADAD9D9D8D7D7D6D5D4D3D2D20B
:10028000D1D0CECDCCCBCAC9C7C6C5C3C2C1BFBEF3
:10029000BCBBB9B8B6B4B3B1AFAEACAAA8A7A5A35E
:1002A000A19F9E9C9A98969492908E8C8A8987851D
:1002B00083817F7D7B79777573716F6D6B696866FC
:1002C0006462605E5C5A5957555351504E4C4A49CE
:1002D00047454342403E3D3B3A3836353332302F76
:1002E0002D2C2A292826252322FFAA7F55400000ED
:1002F00000000000000000000001010203040506E8
:10030000080A0C0F1114181C2024292E33393F46DB
:100310004C535B626A7179818A929AA2AAB2B9C17E
:10032000C8CFD5DCE1E7EBF0F4F7FAFCFDFEFFFE09
:10033000FDFCFAF7F4F0EBE7E1DCD5CFC8C1B9B2C8
:10034000AAA29A928A8179716A625B534C463F39BC
:10035000332E2924201C1814110F0C0A080605043A
:100360000302010100000000000000000000000185
:100370000101010101010101020202020202020265
:100380000203030303030303030404040404040437
:1003900005050505050606060606070707070708FB
:1003A000080808090909090A0A0A0B0B0B0C0C0CAE
:1003B0000D0D0D0E0E0E0F0F0F1010111111121248
:1003C00013131414151516161717181819191A1AC5
:1003D0001B1B1C1D1D1E1E1F202021222223242426
:1003E000252626272829292A2B2C2D2D2E2F303162
:1003F0003232333435363738393A3B3C3D3E3F4074
:100400004142434445464748494A4C4D4E4F50515E
:100410005354555658595A5B5D5E5F616264656618
:1004200068696B6C6D6F7072737577787A7B7D7E9F
:100430008082838587888A8C8E8F91939596989AEF
:100440009C9EA0A2A3A5A7A9ABADAFB1B3B5B7BA07
:10045000BCBEC0C2C4C6C9CBCDCFD1D4D6D8DBDDDB
:10046000DFE2E4E7E9EBEEF0F3F5F8FAFDFF09026D
:100470003B00020100A03209040000010301010059
:100480000921010100012244000705810308000140
:1004900009040100010300000009210101000122FB
:1004A000320007058303080001120110010000005B
:1004B00008504B400000020102000114034A004AA8
:1004C000003400300020007200650076003100002A
:1004D0000016034B0050007200650070007500624A
:1004E000006C0069006300000004030904050109B1
:1004F00080A101850319012AB700150126B70095CF
:100500000175108100C0050C0901A10185041901C4
:100510002AA002150126A002950175108100C005D0
:10052000010906A101050719E029E7150025019534
:1005300008750181029501750881030507190029D5
:10054000FF150026FF0095067508810005081901B2
:100550002905150025019505750191029501750381
:100560009103C00011241FBECFE5D8E0DEBFCDBF90
:1005700011E0A0E6B0E0E6E1F9E402C005900D92DA
:10058000A034B107D9F722E0A0E4B1E001C01D9288
:10059000A738B207E1F70E94BC120C94422430CD78
:1005A000A82FB92F80E090E041E050EA609530E05C
:1005B00009C02D9182279795879510F0842795275C
:1005C000305EC8F36F5FA8F30895EADF8D939D93C3
:1005D0000895CF93CFB7CF93C395839BE9F7839BC0
:1005E0000EC0839B0CC0839B0AC0839B08C0839B67
:1005F00006C0C0915E02C395C0935E02A6C0DF93A1
:10060000C0915D02DD27CB59DD4F839B02C0DF9196
:10061000E6CF2F930F931F9300B32FEF03FB20F927
:100620004F933F9310B34FEF012703FB21F93BE0BA
:1006300031C04E7F012F10B3216028C0102F4D7F95
:100640002260000000B329C04B7F2460012F00000E
:1006500010B32BC010B3477F28602AC04F7E00B371
:1006600020612CC04F7D10B320622FC04F7B00B3A0
:10067000206432C0422700B349934FEF0000102797
:1006800013FB20F910B31C70C9F1297F91F20127E7
:1006900003FB21F900B3237F89F2315058F1102771
:1006A00013FB22F910B3277E79F2012703FB23F90C
:1006B0002F7C81F200B3102713FB24F92F7971F2FC
:1006C00000C010B3012703FB25F92F7359F200C0B6
:1006D00000B3102713FB26F9223040F200C010B3FC
:1006E000012703FB27F9243028F64F77206810B341
:1006F0000000F9CF10E81ABF00271CC03B5031950D
:10070000C31BD04010E81ABF0881033C11F10B3421
:1007100001F120915A021981110F1213EDCF4A8174
:10072000441F093669F10D3211F0013E29F74F706F
:1007300009F0042F009363023F914F911F910F9195
:100740002F91DF91CAB7C7FD47CFCF91CFBFCF91D0
:10075000189520916302222379F3109161021123ED
:1007600009F044C034300AF443C03093610220934E
:100770005C0210915D023BE0311B30935D0238C09A
:1007800000916102013094F50AE54F7049F430910F
:100790008A0034FD2FC000938A00C7E3D2E02EC048
:1007A000433059F0443091F03091420234FD22C080
:1007B00000934202C3E4D2E021C030917B0234FDB9
:1007C00019C000937B02CCE7D2E018C030914E02F2
:1007D00034FD10C000934E02CFE4D2E00FC0279545
:1007E000A8F45150A9F4220F0000F9CF4AE503C044
:1007F00042ED01C0432FC4E1D0E032E011B31C60F0
:10080000939A11BB02B320E41CE05F93012756E0EA
:1008100002BB279520F4515021F4220FF9CF012774
:1008200056E000003B5A02BBD0F2279528F4515005
:1008300029F4220F0000F9CF012756E0279502BBCB
:1008400020F4515021F4220FF9CF012756E02991CD
:10085000332302BB21F6037F10916202110FC651B0
:10086000D04002BB11F010935A0210E81ABF086082
:1008700011B3137F402F437F5F9100C000C002BBC4
:1008800011BB42BB59CF8430B8F46430A8F44C306B
:1008900098F450E09CE0699F400D511D1124FA012D
:1008A00090E3899FE00DF11D1124EE0FFF1FEC5A1C
:1008B000FF4F85919491089581E090E00895E3CFF2
:1008C000089581E00895FDCF0895FBCF089581E05C
:1008D0000895F7CF0895F5CF0895FDCF08950895B1
:1008E0000895FDCF089508950895A6E0B0E0EBE7E0
:1008F000F4E00C94042349835A839E83309147018A
:1009000089819A81311117C03E81332389F02223D6
:1009100079F017D5182F682F89819A81F1D46981D0
:100920007A81812F0E94A80F2696E3E00C94202361
:10093000F8D4182FF4CF05D569817A81F3CFFC0163
:10094000262F408151816281738184819581CDCF31
:10095000CF93DF93EC0161E0F2DFBE01B4DF8823C7
:1009600049F061E0CE01EBDFBE01AFDF8170DF91C6
:10097000CF91089580E0FACF0F931F93CF93DF9329
:10098000EC0160E0DCDF8C01BE01AADFBE01C80122
:10099000A8DFDF91CF911F910F91089521E030E002
:1009A000A90102C0440F551F8A95E2F7CA01E1C3AD
:1009B000CF93C82F81E090E00C2E02C0880F991FC2
:1009C0000A94E2F70E949D0D8C2FE8DFCF910895E5
:1009D00081E00895FDCF0895FBCF0895CF93C82FF0
:1009E00080D38C2FF7DF8C2FF7DF2FEB87E299E096
:1009F000215080409040E1F700C00000CF91089561
:100A000081E0ECDF0C949A1E80E0E8DF0C94A71ED6
:100A10000F931F93CF93DF938C0161E090DFEC0184
:100A2000F801858181110E941A19B801CE0151DFA8
:100A3000811106C080E0DF91CF911F910F91089541
:100A4000B801CE014ADF8823A9F3B801CE010E9484
:100A50001A1A882379F3B801CE010E94DD1C88237D
:100A600049F3B801CE010E94A41B882319F3B801F1
:100A7000CE010E947C1B8823E9F2B801CE010E94BE
:100A8000D3128823B9F2B801CE010E94A81088239E
:100A900089F2F8018581882361F0C330FCE7DF0724
:100AA000D1F050F4C115ECE7DE0799F0C130DC4716
:100AB000A1F0C8010CDFBFCFCB358CE7D80789F098
:100AC000CC35ECE7DE0759F0CA35DC4791F7F9D7AA
:100AD000F0CF96DFAFCF0E94950D96DFABCFE9D771
:100AE000E8CFF1D7E6CFFFDE0E94241E80E00E940F
:100AF000FD1919C00E94521918D0F6DE0C94281E58
:100B000081E008950895CF93DF93D82FF9DFC82FA0
:100B1000882311F08D2FF6DF8C2FDF91CF91089570
:100B20000895F1CF089580E0FCCF0E94241DF9CFF5
:100B3000CF930E94241DC82F809142018C1771F021
:100B4000C09342010E946A1E609343017093440166
:100B500080934501909346018C2FE3DFCF91089558
:100B6000ADE0B0E0E6EBF5E00C940523488759874B
:100B70006A877B878C879D87911105D71F8286E0C6
:100B8000FE013896DE01119601900D928A95E1F7EB
:100B90008D8181110CC029813A814B815C816D81ED
:100BA0007E818F8140D62D96E2E00C942123CE01E8
:100BB0000196CEDE8111EFCFF6CFFC0124812130EA
:100BC00019F480819181EEC30895CF93C82F8823B3
:100BD00089F08CEF8C0F813A78F48C2F0E949F1D46
:100BE000882321F08C2F0E94E01D21D78C2F0E949A
:100BF000DA1D1DD7CF91089580E28C0F883040F424
:100C0000C77081E001C0880FCA95EAF79FD6F1CF7F
:100C1000EBE5EC0FE33040F4F0E0EF53FF4F808161
:100C200090E00E94401DE6CFC85ACB3118F7EC2F58
:100C3000F0E0EE0FFF1FE557FF4F808191810E948A
:100C4000651DD8CF882319F19CEF980F913A18F4BD
:100C50000E94E01DECC690E2980F983048F487702F
:100C600091E001C0990F8A95EAF7892F75D6F2CFE6
:100C70009BE5980F933020F490E080E00C94401DA9
:100C8000885A8B3120F490E080E00C94651D089523
:100C90001F93CF93DF93182FEB0197DF209731F449
:100CA000812FD0DFDF91CF911F91089587EB9BE0DB
:100CB0000197F1F700C000002197F0CF70E060E0ED
:100CC000893311F460E570E0E3CF882311F03ED65C
:100CD000AEC60895882311F03FD6A9C60895B0E0A6
:100CE000A0E0E5E7F6E00C94FE226C01D62FC72FBA
:100CF000FC011581068102950F701ED6E82E88230F
:100D0000E9F0E12E1123D1F08C2F807F803461F047
:100D100080E28D0F8830F8F08C2F807E803221F4B5
:100D2000D230C8F00023B9F080910A0282FF13C0CC
:100D300082E099D601D691E0E82EE926BC2EB29445
:100D40009FE0B922FBE0FB1580F1EB2DF0E0EC5BBE
:100D5000FB4D0C94C422E12CF1CF0C2F0F70C07FFF
:100D600011F00295007F112381F0002349F080E209
:100D70008D0F883010F0D11105C0802FE7D557D6E0
:100D80008D2F40C0802FF2D5FACF8D2F5BDF00234F
:100D900061F080E28D0F883010F0D11103C0802FF8
:100DA000DBD502C0802FE8D542D6EB2DE850FF0BF3
:100DB000349708F048C10E94241DB3DECDB7DEB7DA
:100DC000E9E00C941A232C2F2F70F22EC07FC03232
:100DD00019F0F29480EFF822DD2341F0D13081F157
:100DE000112309F439C00023C9F0CACF80910A0247
:100DF00082FD10C0112341F0FF2019F08F2DA6D5E0
:100E000016D680E0E2DED1CF80E01CDFFF2069F261
:100E10008F2DC6CF112359F0011103C08F2D55DF3F
:100E2000C4CF013009F0C1CF8F2DC1D5BECF011184
:100E3000BCCF8F2D4FDF8F2DC5D58F2DAAD5B5CF28
:100E4000112321F0063008F0B0CFE8CF053008F0CC
:100E5000ACCF8F2D3FDFA9CF0023D9F3D93349F48D
:100E60003FEF8DEE92E0315080409040E1F700C0BE
:100E700000008D2FE7DE99CF8C2F869586958370A5
:100E800069F0813009F091CF8D2F9C2F9370111153
:100E900002C080E090E00E94651D87CF8D2F9C2FBF
:100EA0009370111102C080E090E00E94401D7DCF40
:100EB0008C2F837081F5111178CF4D2F4295469577
:100EC0004770440F440F2D2F2F7030E0042E02C0C6
:100ED000220F331F0A94E2F790E080E0D4FF09C0AC
:100EE0008FE090E002C0880F991F4A95E2F7809545
:100EF0009095C695C695C370822B932BC23039F05E
:100F000040F4C13011F03ED150CF35D14ECF41D158
:100F10004CCF2FD14ACF8695112311F08C2F8170A1
:100F2000882309F442CF4D2F429546954770440FD0
:100F3000440F2D2F2F7030E0042E02C0220F331FDC
:100F40000A94E2F790E080E0D4FF09C08FE090E0DF
:100F500002C0880F991F4A95E2F780959095C69533
:100F6000C695C370822B932BC23039F040F4C13048
:100F700011F063D11ACF5AD118CF66D116CF16D13E
:100F800014CFCF70112321F08C2F24D18D2F47CF78
:100F90008D2FA0DE8C2F2CD108CFD23F39F160F4F9
:100FA000D03FB9F0D13F81F0112309F43CC00111C9
:100FB000E7CE8C2F8F711EC0D33FF1F0D43FA1F745
:100FC00080910A0282FD20C08C2F8F71112319F3AA
:100FD00011C0112339F0053008F0E7CE8C2F8F7146
:100FE00017D1E3CE063008F0E0CEF8CF8C2F8F710A
:100FF0001111D1CFEFD0D9CE112321F08C2F8F71C9
:10100000DFD0D3CEDAD0D1CE112329F063E08C2FFC
:101010008F7112D5CACE81E026D5023008F4C5CE34
:1010200082E021D5C2CE002359F0D93309F021CF77
:10103000EFEFFDEE22E0E150F0402040E1F717CF66
:101040008C2F8F71A8CFEE2009F4B8CE71D480FD1B
:10105000B5CEF601158266D4BDD0C60117D062D4D4
:10106000C7D0ACCE0F931F93CF93DF93EC01688171
:1010700079818D81A0D18C01EED07AD0B801CE01DA
:101080002EDEDF91CF911F910F910895CF93DF93C3
:10109000EC018C81882381F0CE01BADC81110FC074
:1010A0004BD4882349F08D81882331F080910A0246
:1010B00082FF02C082E0D7D4DF91CF910895CE01A4
:1010C000D1DFCE0159DCF8CF90E080E00E94401DD6
:1010D00090E080E00E94651D56D4A9C40E94E61DE0
:1010E000F3CF41D4FBCF92959F70963091F058F496
:1010F000925F9F70923058F4803F19F030F4883E30
:1011000030F481E008959A5FF4CF843FD1F380E01A
:101110000895883EB0F3813FD1F7F3CFFC012481DD
:10112000222321F0808191813DD1DDCF80E008959F
:10113000A6E0B0E0EEE9F8E00C9405232696E2E0A4
:101140000C942123A7E0B0E0E8EAF8E00C94052332
:101150002796E2E00C9421230895FECF0895FDCF59
:101160000895FADFFCDF9093630180936201089594
:101170000895F7CF08952091620130916301822B89
:10118000932BEFCF2091620130916301822393234F
:10119000E8CF209162013091630182279327E1CF4C
:1011A000DBCF0895FDCF0895D7CF0895FDDFFADF97
:1011B0009093610180936001089590E080E0F6CF04
:1011C00021E030E0A90102C0440F551F8A95E2F7E3
:1011D000CA01ECCF21E030E002C0220F331F8A9514
:1011E000E2F78091600190916101822B932BDECF19
:1011F00021E030E002C0220F331F8A95E2F72095EC
:101200003095809160019091610182239323CECF2C
:1012100021E030E002C0220F331F8A95E2F780916F
:1012200060019091610182279327C0CF20916001D6
:1012300030916101822B932BB9CF209160013091C5
:10124000610182239323B2CF20916001309161012B
:1012500082279327ABCF0895262F277091E001C0F6
:10126000990F2A95EAF723E0769567952A95E1F795
:10127000660F771F660F771FFA01E60FF71F50E022
:1012800040E0682F70E08191DF0111979B01042EEF
:1012900002C0369527950A94E2F7217021952827F8
:1012A000292328272C934F5F5F4F4430510559F76E
:1012B0000895A82FA77023E0969587952A95E1F7C2
:1012C000880F991F880F991FFB01E80FF91F50E045
:1012D00040E080E0219130E00A2E02C0369527954B
:1012E0000A94E2F721703327042E01C0220F0A94DA
:1012F000EAF7822B4F5F5F4F4430510559F708954D
:10130000262F943068F48C3058F4682F70E08CE00D
:10131000989F600D711D112448E451E0822F9CCFED
:101320000895292F943058F48C3048F490E068E404
:1013300071E03CE0239F800D911D1124BACF80E025
:101340000895B0E0A0E0E7EAF9E00C94FE227C0109
:10135000009160011091610180916201909163019F
:10136000082B192BCFE0D0E0CC24C394D12CBC2E79
:10137000C6010C2E02C0880F991F0A94E2F7802341
:101380009123892B49F4219790F7B12C8B2DCDB760
:10139000DEB7E9E00C941A23B7018C2FE4D501974E
:1013A00091F3F4CFCF93DF93EC01CBDFBE01DBD51C
:1013B000DF91CF9108951F93CF93DF93EB0190912D
:1013C0004701992331F0CB01EDDFDF91CF911F91E0
:1013D0000895882351F0CB01B4DF182F682FCE0178
:1013E0008FDFBE01812FBFD5F0CFCB019ADF182F41
:1013F000F8CF1F93CF93DF93C091640117E08091E2
:1014000065018C1304C0DF91CF911F910895D0E046
:101410001C9FF0011D9FF00D1124EA59FE4F208101
:101420003181428153816481758186818BDE219671
:10143000C770E5CF20919E0130919F014091A0019E
:101440005091A1016091A2017091A3018091A4012A
:1014500079CECF93DF938091A401807F09F04BC0B8
:101460008091A301882309F446C0E0916401509162
:101470006501C0919F01D0919E016091A001709182
:10148000A10147E05E17B9F18E2F90E0E49FF001D3
:101490001124EA59FE4F2481222381F1489FF00153
:1014A000499FF00D1124DF01AA59BE4F11962C91CE
:1014B00011972C1323C02C912D1320C015962C911D
:1014C000159721111BC012962D913C91261B370BAD
:1014D000283C310598F48091A4018F70806180933D
:1014E000A401E459FE4F80818F70806180838EE972
:1014F00091E0CCDD7EDFDF91CF910895FC01319644
:10150000E770C0CF482F209164019091650157E0AA
:10151000291302C080E0089530E0529FF001539FEC
:10152000F00D1124EA59FE4F8181681306C08081B5
:10153000481303C085818111EECF2F5F3F4F277085
:10154000E7CFA4E1B0E0E7EAFAE00C94FB228C01DB
:1015500086E0F801DE011F9601900D928A95E1F771
:10156000F8018481E5809EE9A92E91E0B92E909141
:10157000A20191111AC08823A9F0EE2089F0C801B8
:10158000CDDDF82E882361F087E0F801D5010190C8
:101590000D928A95E1F7C50110DB5BDF4BDF59C087
:1015A000C80174DDFF24F39454C0C080D1808280D0
:1015B0009380F090A3012091A0013091A101A4019A
:1015C000421B530BFF2009F4E9C0483C510508F0C9
:1015D0009CC0882309F43DC090919F018091A40193
:1015E000282F207F09F056C09D1114C090919E01B4
:1015F000C91210C0E11048C08F7080618093A401AF
:1016000019DF8EE991E042DD8091A401F801868323
:10161000F12C1FC0E11038C06D2D8C2D73DF6D2DA6
:101620008C2D70DFE82E8111F3CFCF86D88A8F857D
:101630009889B8DE292F22952F70243078F49F7076
:101640002230A0F09923B1F0F8019681907F91F4B7
:10165000FE2C8F2D6496ECE00C9417232A5F2F70DC
:10166000223060F0C80112DDEF2CF2CF992311F087
:10167000882371F3805E883058F3F4CF803F40F3C5
:10168000815F833078F7E4CF8091A40181608093FB
:10169000A401BECF9D1112C090919E01C9120EC02F
:1016A000E1100CC08683C801F1DC87E0F801AEE9E7
:1016B000B1E001900D928A95E1F770CFC8012EDD5F
:1016C000882309F46DCFEE2009F46ACF8091A4013C
:1016D000803280F020919E0130919F0139872887C8
:1016E0009B868A869091A2019C871D868E87CE015B
:1016F0000896CCDC87E0F801AEE9B1E001900D92EC
:101700008A95E1F7A6DE96DE4DCF9091A401292FB0
:10171000207F89F4682D9A8A898AA6017A899E2D6C
:1017200007DD8EE991E0B2DC87E0F50111928A9540
:10173000E9F780DE6DCF882309F48BCF80919F017C
:101740008D110FC080919E01C8120BC0E11009C01D
:101750009683C8019BDC87E0F50111928A95E9F731
:1017600078CFC801DBDC882309F41ACFEE2009F416
:1017700017CF8091A401803208F4BCCF20919E0144
:1017800030919F013A8329839C828B829091A201A0
:101790009D831E828F83CE010196ABCF483C5105BD
:1017A000A8F5882309F4FECEFE2CEE2009F4F8CE2D
:1017B00080919F018D111EC080919E01C8121AC098
:1017C0008091A40180FD0DC0982F907F51F08683F9
:1017D000903F09F468CF982F907F905F8F70892B8E
:1017E00061CF87E0F801AEE9B1E001900D928A95F2
:1017F000E1F72FCFC80192DC81117CCF8091A40149
:1018000081608093A401C80141DC23CF682D9A8AAE
:10181000898AA6017A899E2D8BDC87E0F5011192D9
:101820008A95E9F7BBCEAEE0B0E0E9E1FCE00C94CC
:101830000423288739874A875B876C877D878E8753
:10184000CE0108967EDE8823A9F06C85662339F0E8
:10185000288539854A855B857D858E8573DC17E013
:10186000809164019091650189133BC02E96E3E05D
:101870000C94202387E0FE013896DE01119601903A
:101880000D928A95E1F78C85882349F320916501B3
:1018900030E0C9010196877099274091640148178B
:1018A000190691F097E0929FD001939FB00D1124FB
:1018B000AA59BE4FFE01319601900D929A95E1F71B
:1018C0008093650196DDCBCF0CDC10926501109200
:1018D000640187E0EEE9F1E0DF011D928A95E9F706
:1018E000BECF819FC00111248A599E4F2ADE8823D2
:1018F00009F4BCCFE09164011E9FF0011124EA5964
:10190000FE4F2081318142815381648175818681BE
:1019100019DC8091640190E001968770992780938B
:1019200064019ECF8091A501869586958695089540
:101930008091A501877008959091A501977081E02D
:1019400009F480E008958091B10108959091B1016A
:10195000892B8093B101089580959091B1019823CE
:101960009093B10108951092B10108959091B00142
:10197000892B8093B001089580959091B0019823B0
:101980009093B00108951092B00108950895FECF8C
:1019900008959091A601292F282329F08095892365
:1019A0008093A601F4CF08950895FECF08959091F5
:1019B000A701292F2823281721F0982B9093A701FE
:1019C000F4CF08959091A701292F282329F080951D
:1019D00089238093A701E9CF08958091A7018823E7
:1019E00021F01092A70180E0E0CF08950F931F939C
:1019F000CF930091640010916500C091B101809176
:101A0000B001C82B8091A701882329F0C82B0E9420
:101A10008A1D8111E2DFF801C083809164009091FA
:101A200065000E94331DCF911F910F910895DECF65
:101A300008950895FECF089590910A0292FF0EC076
:101A400098E0899F90011124622B6093A501C2DB6D
:101A50008091A501869586958695ECCFBBCB10929B
:101A6000A50180E0E7CF9091A5018095892380931F
:101A7000A501282F277059F4891749F090910A027F
:101A800092FF05C0869586958695B2DBE8CF0895CE
:101A900090910A0292FB222720F9281749F080FB37
:101AA00092F990930A0289E092E04BD082E0DBCF7A
:101AB000089580910A0282FB882780F991E08927A6
:101AC000E7CF81E0E5CF80E0E3CF60E070E0CB01DD
:101AD00010C460E070E0CB0106D4F7CFA4E0B0E022
:101AE000E4E7FDE00C94052345D350D31C82CE01DE
:101AF000049663D381E090E0909363018093620148
:101B000068D31A8219828A8184618A83CE01019600
:101B100071D31B82CE0103967FD34ED6DADF249693
:101B2000E2E00C942123DACF089536C3089523C34D
:101B3000089538C3089547C308954BC308954EC30D
:101B4000089558C308955DC3089566C308956AC390
:101B50000895A9C30895D3C30895A6E0B0E0E3EBC8
:101B6000FDE00C9403230E945E1E8C018091B20163
:101B70009091B3018017910781F019821A820E9417
:101B80005E1E682F49815A81792F80E090E00E9483
:101B9000B0051093B3010093B2012696E4E00C94D3
:101BA0001F230E946A1E6093C0017093C10180933D
:101BB000C2019093C3016093BC017093BD018093F7
:101BC000BE019093BF01089508950895FDCF089533
:101BD0000895FEDFFBCF0895FECF08950895FEDF40
:101BE000FBCF86EA90E1DAD4F0DFF3CF81E008950D
:101BF000FDCF0895FBCF0895089508950895FCDF63
:101C0000FCDFFCCF94DF811101C08DDF84EC91E01B
:101C100090DF89E092E093DF8EDFABDA80916001A4
:101C200090916101BFCA0E94571E20D4EBDF0E9431
:101C300090050E944D1B0E9452190E945918CFCF47
:101C4000A6E0B0E0E6E2FEE00C94F922D1DF8111DB
:101C50000BC083DF0E941B190E94BF1A0E949805C7
:101C60002696EEE00C94152313D424EB822E21E06B
:101C7000922E640110E0F601E190F1906F01812F46
:101C800049D31F5F143009F447C0E816F90699F3E9
:101C90008091C40181FD47D3ADDF782E10E066242A
:101CA0006394812F37D37C01F401A190B1904F014F
:101CB0008A159B0561F100E0CC24C394D12CAE249D
:101CC000BF24C5018C219D21892BC1F07720B1F063
:101CD00009831A830E945E1E9C838B836D8221E0A0
:101CE000C7018C219D21892B09F420E049815A816B
:101CF0006B817C818D81922F0E94B0050F5FCC0C8F
:101D0000DD1C0C30F1F6F4013297F182E0821F5FA6
:101D1000143039F646DF9ECFE816F90609F0B8CF41
:101D200098CF1F93CF93DF9320D1EC01C11580E5AD
:101D3000D807F0F5C11580E4D80708F09AC0C03E76
:101D4000D10520F5CD3CD10508F082C0C83AD105B7
:101D500078F4C53AD10508F073C0C130D10519F146
:101D6000209709F1C430D105F0F4D0E0C0E01BC0E9
:101D7000C33CD105D0F7C85AD0E0CC0FDD1FCC53FF
:101D8000DF4F0990D881C02DD4640DC0C11580E209
:101D9000D80708F0CDC0C11581E0D80708F05AC0B7
:101DA000C83ED10510F7CE01DF91CF911F91089564
:101DB000C03682E5D80718F5C03482E5D80708F0A8
:101DC00068C0C03282E5D80708F05CC0C11582E562
:101DD000D80708F493C02C2F2695269580E2289FDB
:101DE000900111248C2F8370C1E0D0E002C0CC0F91
:101DF000DD1F8A95E2F7C22BD32BDD68D4CFC03A22
:101E000082E5D80760F4C03882E5D80708F456C0E8
:101E1000CF71D0E0DC2FCC27C46FD06AC4CFC03CD8
:101E200082E5D80708F45FC0C03E82E5D80708F015
:101E30009CCFDC2FCC27CC27DF71C06FD06AB3CF0B
:101E4000C55AD0E0C650DF4FC881D0E0D064ABCFD8
:101E5000D065A9CF8D2F2BD1182FCE01992785D0F2
:101E6000C12FD0E0DC2FCC27CC27DF71C82BD92B9A
:101E70009ACFCE01992779D0CC27DF70C82BD92BE8
:101E8000D06A91CFCF71D0E0DC2FCC27C16FD06A60
:101E90008ACF2C2F26952695277080E2289F9001C7
:101EA00011248C2F8370C1E0D0E002C0CC0FDD1F65
:101EB0008A95E2F7C22BD32BDC6875CF2C2F2695A1
:101EC0002695277080E2289F900111248C2F837023
:101ED000C1E0D0E002C0CC0FDD1F8A95E2F7C22B33
:101EE000D32BDA6860CF8C2F8F71E1D0C82FD0E070
:101EF000DC2FCC27CC27DF71D06255CF8C2F8F7190
:101F0000D6D055E0D695C7955A95E1F7CF70D0E079
:101F1000DC2FCC27282F30E084FF06C044E0220FBE
:101F2000331F4A95E1F73327C22BD32BD0693BCF20
:101F30008D2F8F71BCD0182FCE01992716D0C12FAD
:101F4000D0E0DC2FCC27CC27DF71C82BD92BD4CF06
:101F5000462F743028F46C3018F4672F0C945F040B
:101F600090E080E00895F4DFDCCE82389105B9F18D
:101F7000B0F48133910509F47DC048F489329105AC
:101F800009F46DC08A32910509F47BC00895853348
:101F9000910509F45FC08933910509F10895833EE5
:101FA0009105D9F138F4803E910529F1823E9105E1
:101FB00079F10895863E9105D9F1873E910509F49E
:101FC0003EC0843E910541F520910A0221FF24C0C4
:101FD0008091090284FD19C087EE90E00895209158
:101FE0000902237009F05AC020910A0223FF14C08D
:101FF00089E290E008952091090220FD38C03091D7
:102000000A0230FF09C024FF43C090E080E0089539
:102010002091090222FDF7CF08952091090222FDA7
:102020003AC030910A0230FD39C024FFF5CFEDCF20
:102030002091090223FFF0CF24FDE7CFCDCF2091DF
:10204000090223FD2EC030910A0231FFEECF84EE4B
:1020500090E008952091090225FFDECFC9CF20919D
:10206000090225FD21C020910A0223FFD5CF89E373
:1020700090E0D2CF2091090226FFCECF8AE290E0F5
:1020800008952091090226FFC7CF81E390E00895CB
:1020900083EE90E0089582EE90E0089580EE90E067
:1020A000089586EE90E0089585E390E0089590917C
:1020B000090292FF10C041E0282F2471243009F05A
:1020C00040E031E0282F2871283009F030E0431734
:1020D00011F02CE0822793FF10C041E0282F2471DB
:1020E000243109F040E031E0282F2871283109F02F
:1020F00030E0431711F02CE0822730910A0230FFC4
:1021000010C051E0282F2171213009F050E041E04A
:10211000282F2871283009F040E0541711F029E0E9
:10212000822731FF10C041E0282F2171213109F0B1
:1021300040E031E0282F2871283109F030E04317C2
:1021400011F029E0822794FD877E089580E00895AC
:10215000CF939C01205E3245C1E02032310538F436
:10216000FB01C581C11103C08F710E94D8048C2F5F
:10217000CF910895089590E080E00E94E72321E048
:10218000833E9E4F09F020E0822F089563EE7EEF9C
:1021900090E080E00C9405246FEF7FEF90E080E00A
:1021A0000C940524CF93DF93EC0182E090E00E9431
:1021B000DA238883DF91CF910895FC01608182E06A
:1021C00090E00C94EC2383E090E00E94DA2390E00E
:1021D0000895682F83E090E00C94EC23CF93DF9375
:1021E000EC0184E090E00E94E72399838883DF91EB
:1021F000CF910895FC016081718184E090E00C949E
:102200000524CF93DF93EC0186E090E00E94DA236F
:102210008883DF91CF910895FC01608186E090E092
:102220000C94EC234F925F926F927F928F929F92C9
:10223000AF92BF920F93CF93DF93EC0188E090E0D1
:102240000E94E2232B013C01688359828A837B82AE
:102250001C821D821E821F8283E290E00E94DA238C
:10226000282F30E040E050E060E070E080E090E057
:1022700000E20E942C232429352946295729288346
:1022800039834A835B836C837D838E839F83DF9155
:10229000CF910F91BF90AF909F908F907F906F9054
:1022A0005F904F9008950F93CF93DF93EC01488197
:1022B00059816A817B8188E090E00E94FD2328811A
:1022C00039814A815B816C817D818E819F8100E2B1
:1022D0000E944723622F83E290E00E94EC23DF916B
:1022E000CF910F910895AB01BC018FE090E00C9469
:1022F000FD23AB01BC0183E190E00C94FD23682F2A
:102300008EE090E00C94EC230895FECF089508959C
:10231000FECF0895E82FF0E0EE0FFF1FED5EFD4FBA
:10232000808191810895089588E78A95F1F708954D
:1023300000C00895F9CF0895F894E82FE295EF7062
:10234000F0E031A9282F2F7081E090E001C0880FC4
:102350002A95EAF7982F9095932391AB92A9892B10
:1023600082AB78940895CF93DF9380E6E5DF81E632
:10237000E3DF83E6E1DF84E6DFDFCDEFD0E08991C4
:102380008F3F09F0D9DF81E0C930D807C1F7DF916D
:10239000CF910895AF92BF92DF92EF92FF920F9389
:1023A0001F93CF93DF938C01D62EC62FD0E0CE01A2
:1023B000875F9E4F7C01FC0120812F3F09F449C0BB
:1023C000F894E22FE295EF70F0E031A92F7081E0F0
:1023D00090E001C0880F2A95EAF7932F982B91ABD4
:1023E00092A98095892382AB7894A2DFEDEFF0E08B
:1023F00041E050E0B12CA12C21912F3FA1F1A22F5F
:10240000A295AF70B0E0D0968C9190E02F7002C092
:10241000959587952A95E2F780FD25C0CA01A82ADF
:10242000B92A440F551F81E0E930F80729F7F70171
:1024300080818F3F09F080DF61E0A114B10409F4CD
:1024400060E08D2D77DFCC0FDD1FC00FD11FB9826B
:10245000A882DF91CF911F910F91FF90EF90DF90B5
:10246000BF90AF90089590E080E0D9CF7CDF88E006
:10247000E3E1F2E0DF01982F1D929A95E9F7EBE096
:10248000F2E0DF011D928A95E9F784E039D03DCF73
:10249000A8E0B0E0EEE4F2E10C9402238E010F5FBD
:1024A0001F4F88E0F80111928A95E9F7F12C6F2D02
:1024B000C80170DFF394F4E0FF12F9CF48E050E078
:1024C000B8018BE092E00E94C42321E0009709F458
:1024D00020E0892B41F088E0F801ABE0B2E0019008
:1024E0000D928A95E1F744E063E172E08BE092E0BF
:1024F00008D0182F0DDF812F2896E5E00C941E23BD
:102500000895B0E0A0E0E7E8F2E10C94FF226C014E
:102510007B01042FC22F222379F081E08093C70131
:102520000E945E1E9093C6018093C50180E0CDB7E6
:10253000DEB7E8E00C941B23D091C701DD23B1F393
:102540008091C5019091C6010E943D1E059770F3D0
:1025500010E0000F111FA801B601C7010E94C4239B
:10256000892B31F0A801B601C7010E94D123CD2FDC
:102570001092C7018C2FDBCF0E94461E0E94871F3E
:1025800030DB0E948D1F4FDB0E949D1F0E94A91F00
:102590000E94D11F0E94DC1F32DBF8CF90934101D3
:1025A0008093400108950F931F93CF938C01FB01FB
:1025B000C581CC2309F43BC0C6D98272F801E05230
:1025C000F847EB30F10530F4E05BFB4D0C94C4228E
:1025D00068D5C0E08C2FCF911F910F91089588236B
:1025E00021F053D5F6CF8823E1F343D5F2CF8823EA
:1025F00021F022D2EECF8823E1F313D2EACF882351
:1026000021F034D2E6CF8823E1F323D2E2CF88232E
:1026100021F046D2DECF8823E1F335D2DACF88230A
:1026200021F0F1D0D6CF8823E1F3DED0D2CFC1E0C4
:10263000D1CFEF92FF920F931F93CF93DF939B0124
:10264000682F31110EC0442329F0E82FF0E0E25941
:10265000FC4F6491762F862FCDB7DEB7E6E00C9461
:102660001D23C32FD0E0E82FF0E0442321F0E259EE
:10267000FC4FE491F0E046E0249FC00111240FEFED
:1026800010E0B8010E947B22AB01822F90E0880FFE
:10269000991F25E5249FB001259F700D1124861BED
:1026A000970B982F990F980FB8016C1B7D0B6E9F9D
:1026B000D0016F9FB00D7E9FB00D11248B2F939F83
:1026C00090011124232F3327B801621B730B6E9FD7
:1026D00090016F9F300D7E9F300D11247801E91A13
:1026E000F108EC9EB001ED9E700DFC9E700D112462
:1026F000672F7727061B170B0E9FE0010F9FD00D4A
:102700001E9FD00D11247D2F9E2F4230510599F030
:1027100048F44115510569F04130510581F07B2F96
:10272000832F07C04430510569F080F046305105D1
:10273000B1F7692F91CF9B2F8D2F7E2FFACF7E2F50
:10274000932FF7CF9D2F7B2F8E2FF3CF732F9B2FA0
:10275000FBCF41E06ECF0895FCCF089590916900C2
:10276000291B922FE0913A01F0913B01242F462F33
:10277000682F892F90E009950895CF93DF93762FE6
:10278000E901682F842FE8DF962F672F9E01482FDD
:10279000892FE4DFDF91CF91089580911B02982F5C
:1027A0009C7F29F48370846080931B0208958C3A87
:1027B000E8F38370886AF8CFEBE1F2E085E080838C
:1027C00011828FEF828383831482CF01C2C99091DB
:1027D0001F02933018F49F5F90931F02882319F013
:1027E0008BE192E0B6C9089581E0F1CF90911F028C
:1027F000992319F0915090931F02882319F08BE1CF
:1028000092E0A7C9089581E0F1CF0F931F93CF9372
:1028100080911B0280FF09C0E0913E01F0913F01D1
:102820000995CF911F910F910895C0916B00009170
:102830003A0110913B0180916C00C81768F78091B4
:1028400069009C2F981B892F20E040E060E090E019
:10285000F8010995CF5FEFCFEF92FF920F931F938F
:10286000CF93DF93D82F162F042F80911B0280FF68
:102870000BC0C0916B00E0903A01F0903B01809159
:102880006C00C81730F0C1DFCDB7DEB7E6E00C94BE
:102890001D23809169009C2F981B892F202F412F89
:1028A0006D2F90E0F7010995CF5FE9CF762F9091DA
:1028B0001B0290FF08C0682F842F4EDF962F672FD2
:1028C000482F892FC9CF0895CF93DF93EC01EC8176
:1028D000F0E0E751FE4F4491EBE1F2E0628181814B
:1028E000E5DF8C818F5F8C83DF91CF910895CF934B
:1028F000DF93EC01EBE1F2E0438162818C81D6DF72
:102900008C818F5F8C83DF91CF910895CF93DF937C
:10291000EC0140911E029C81892F817090FD842FD3
:10292000692F627091FD642F92FF40E095DF8C81EA
:1029300090E00196877099278C83DF91CF9108955D
:10294000B0E0A0E0E6EAF4E10C940023D82FF62EE4
:10295000042FE22E90911B0290FF21C0E92FE695F3
:10296000E695AE2FB0E0A35FBE4F8C918093EA0155
:102970009C7F9430C9F46D2F7F2D842FEDDE962F30
:10298000672F482F892F68DFD0931C02F0921D0219
:1029900000931E02EE2019F08BE192E0DAD8CDB759
:1029A000DEB7E7E00C941C23823019F400911E027C
:1029B000EBCF863019F4D0911C02E6CF8930D9F3E1
:1029C000893111F7E9518E2F8170D82EE695F0E00C
:1029D000E751FD4FC49110E060916D00161710F0A3
:1029E00014DFD2CF1C9FC001112470E00E947B2213
:1029F0008D2FD1100BC0860F20916B00210F332734
:102A0000331F402F6F2DB9DE1F5FE6CF861BF4CF3B
:102A1000EBE1F2E09181282F4381628188E0890F08
:102A20008FCF81E0F5CFEBE1F2E09181282F438158
:102A3000628188EF890F84CF81E0F5CFEBE1F2E08E
:102A4000628121E1620F08F46FEF282F43818181B9
:102A500077CF81E0F3CFEBE1F2E0628121E1621B0D
:102A600008F460E0282F438181816ACF81E0F3CFB1
:102A7000EBE1F2E0438121E1420F08F44FEF282F10
:102A8000628181815DCF81E0F3CFEBE1F2E04381B0
:102A900021E1421B08F440E0282F6281818150CF60
:102AA00081E0F3CF20E04CCFEF92FF921F93CF93C2
:102AB000DF93EC0110E0EE24EA94F12C60916D00BC
:102AC000161768F0A2DE9A818C8190FF1DC08F5F7F
:102AD0008C83DF91CF911F91FF90EF90089520910B
:102AE0006B00210F3327331F70E0C7010E948F2234
:102AF000962F8C8140911E0260911D02199F800DBE
:102B000011243BDE1F5FDACF8150E2CFB0E0A0E0BE
:102B1000ECE8F5E10C94FD22FC018281DFEF80FFFF
:102B2000D1E0C0E000913A0110913B0125E0A22ED6
:102B300080916D00C81790F068DE8091C901D13096
:102B400009F04FC0811102C080916D0081508093C7
:102B5000C901CDB7DEB7EAE00C94192380916B0070
:102B600090916900891B8C0F20E040E060E090E0CC
:102B7000F801099594E0E92EF12CB12CCC2ED12C42
:102B80008091C9018B0D863034F16A2D0E946E222E
:102B9000892F082E000C990BC816D906A9F420918C
:102BA0006B002C0D3D2D311D80911E028E9DA001CC
:102BB0008F9D500D112455954795559547956091DA
:102BC0001D0280911C02D9DDBD0EF1E0EF1AF10863
:102BD000B9F6CF5FADCF87FFDCCF90916D00890F45
:102BE000D8CF90E0019660916D0070E00E948F2236
:102BF000AECF0F931F93CF93C0916B0000913A011A
:102C000010913B0180916C00C81748F1C0E0009121
:102C10003A0110913B0160916D00C61768F1F5DD36
:102C2000209167008091C801820F8093C801909124
:102C30006800920F90936800191654F4082E000C47
:102C4000990B40916D004150550B841795071CF06E
:102C5000219520936700CF911F910F910895809146
:102C600069009C2F981B892F20E040E060E090E0F5
:102C7000F8010995CF5FC6CFEC2FF0E070E0CF01EF
:102C80000E948F2220916B00820F2091C801022E9A
:102C9000000C330BE217F3079CF020916800022E22
:102CA000000C330B2E173F075CF0282F30E04091CB
:102CB0001E0260911D0280911C025FDDCF5FABCFD1
:102CC00090916900891B20E040E060E090E0F8010D
:102CD0000995F4CFB0E0A0E0E0E7F6E10C94FB2228
:102CE000EC014C81042F10E09801D8010E94D02201
:102CF0009B01AC010E94E5224B015C01E0E2F0E0A7
:102D0000E01BF10BA5E5B0E0AC019B010E94E522C0
:102D10006B017C019F01DF010E94CA229B01AC0173
:102D20000E94EF229B01AC01280D391D4A1D5B1D3D
:102D3000C701B6010E94A222F22E822F90E039E252
:102D40003F1518F143E0249F9001112435952795F4
:102D5000122F109500E085E5E82EEF1880916D00A8
:102D6000081718F152DD9C8181E0992319F0903207
:102D700019F48FEF8093660080916600890F8C8331
:102D8000CDB7DEB7ECE00C94172325E530E0A901C0
:102D9000481B590BCA019A01220F331F280F391FF4
:102DA00037FFD4CF2F5F3F4FD1CF8E2D01FD8F2D19
:102DB00020916B00200F3327331F412F60911D029C
:102DC000DCDC0F5FCBCF0F931F93CF93DF938C018E
:102DD000D0E0C0E090916D009C171D0609F06CF4E6
:102DE00014DDF801848190E0019681709927848335
:102DF000DF91CF911F910F910895F80144812091A7
:102E00006B002C0F3D2F311D60911D0280911C0223
:102E100096959C171D0641F03CF0442339F04091F3
:102E20001E02ABDC2196D6CF4423C9F340E0F9CF94
:102E3000B0E0A0E0EEE1F7E10C94F722FC01628043
:102E4000448081E08483E9EEF1E07490E8E6F2E00A
:102E5000E491C0911E02C695C158D0E0CC0FDD1F91
:102E6000CD2FDD27812C25E0922EAA24AA94B12C07
:102E700055245A94E719EE2EF12C80916D00881696
:102E800030F0C3DCCDB7DEB7E0E10C941323C82CDF
:102E9000D12C82E0861568F09C9CF0019D9CF00D81
:102EA0001124E653FE4F80911C02808380911D0205
:102EB000818341101BC09C9CF0019D9CF00D11244E
:102EC000E653FE4F1382128220916B002C0D3D2D94
:102ED000311D9C9CF0019D9CF00D1124E653FE4F8A
:102EE00042816181808149DC8394C7CF9C9C8001B1
:102EF0009D9C100D112406531E4FF80183818823D9
:102F0000F1F081508383859DC0011124648170E0BC
:102F10000E947B22FB01FF27E751FE4F8491E82F9F
:102F2000E719E59DC0011124B7010E947B22809121
:102F30001E02689FB0011124F8017283C5CF0E9460
:102F4000A923B5010E948F228C179D070CF0BCCFDE
:102F5000F2E0F61598F40E94A923B5010E948F2291
:102F6000F80180830E94A92320911D022695622FDB
:102F700070E00E948F22280FF80121839C9CF001B1
:102F80009D9CF00D1124E653FE4F128280911E028B
:102F9000893C58F088EC9C9CF0019D9CF00D11241C
:102FA000E653FE4F848383838FCF8431A0F784E17F
:102FB000F2CFEBE1F2E080818E7F8083CF010E942F
:102FC000A90D1092EB0121CC60911B0266956695CC
:102FD00070E04BE050E08EE690E00E94B723892B32
:102FE00019F481E08093EB0169D69093E40180931A
:102FF000E301089590911B0290FF25C09370811109
:1030000023C0946090931B02662321F08BE192E031
:103010000E94A90D60911B026695669570E04BE0D9
:1030200050E08EE690E00E94B723892BA9F0109221
:10303000EB0181E08093E60140911E0260911D0248
:1030400080911C022FCD08958B3210F0986ADACF50
:10305000880F880F982BD6CFB7DFEBCF682F9091D2
:103060001B029695969581E0890F8B3208F081E0DE
:10307000C1CF81E0F3CF682F90911B029695969572
:103080008FEF890F09F48AE2B5CF81E0F4CF61E0D8
:10309000B1CFEBE1F2E080818160808386958695F7
:1030A000F6CF80911B0280FF01C083CFF2CF60E09A
:1030B000A1CF8091E90181111FC08BE192E00E94B4
:1030C000A70D80911B028C7F29F476DB8BE192E0C7
:1030D0000E94A70D62DB1092EB01E0913801F091A4
:1030E0003901099580911B0280FF03C08695869562
:1030F000DEDF81E08093E90108950F931F93CF9362
:10310000DF938091EB018823B1F18091EA01E09196
:103110001B02E695E695E81BE093E501823081F518
:10312000F0E0EB51FE4FE491CE2FD0E004E614E145
:103130008091E601882359F01092E601BFD5909363
:10314000E4018093E3011092E8011092E701B6D503
:10315000E091E301F091E4018E1B9F0B8F3F9F47AD
:1031600050F4EC0FFD1FF093E401E093E30183EED4
:1031700091E0F8010995DF91CF911F910F9108958A
:10318000863049F4F0E0EE51FE4FE491CE2FD0E0CE
:1031900007E714E1CDCF893051F4E695F0E0E15234
:1031A000FE4FE491CE2FD0E004E515E1C1CF8F3082
:1031B00051F4E695F0E0E452FE4FE491CE2FD0E0DA
:1031C00006E815E1B5CF853149F4F0E0E752FE4F4E
:1031D000E491CE2FD0E009EF15E1AACFC8E2D0E00C
:1031E0000AE616E1883109F4A3CF833239F4E7ED1A
:1031F000F1E0C591D49106E814E19ACFC4EFD1E093
:1032000003EE16E1843209F493CFC0EDD7E00BEA68
:1032100013E1853209F08CCF8E2F63E00E94622289
:10322000E92FF0E0EC52FE4FE491CE2FD0E008E120
:1032300017E17ECF089561CF089585E6809323023C
:1032400083E292E00C94A50D8091230286958695E9
:10325000869508958091230281FD08C08260809345
:10326000230283E292E00E94A50D8AC10895809115
:10327000230281FF08C08D7F8093230283E292E0C6
:103280000E94A50D87C108958091230281FF01C08E
:10329000EECFE0CF809123028695817008958091D2
:1032A0007900089583E292E00E94A30D80912302A9
:1032B00082FFC3DF80912302883620F0877080660A
:1032C0008093230290912302892F817090FF04C084
:1032D000892F86958695869537C180912302982FF0
:1032E0009695969596959C3040F49F5F990F990F0F
:1032F000990F8770892B809323028091230281602C
:103300008093230283E292E00E94A50D8091230224
:1033100086958695869518C180912302982F987F6F
:1033200089F0885080932302887F91E009F490E02F
:103330008091230290FB80F98093230283E292E044
:103340000E94A50D80912302869586958695FCC0E6
:103350008091230280FD12C081608093230281301E
:1033600019F489E08093230283E292E00E94A50D84
:1033700080912302869586958695E6C00895809172
:10338000230280FF09C08E7F8093230283E292E0B4
:103390000E94A50D80E0D8C008958091230280FF8F
:1033A00001C0EDCFD5CF90912302892F86958695C8
:1033B00086958F5F8F7197708D30E0F4880F880F3E
:1033C000880F892B8093230280912302887F91E0CC
:1033D00009F490E08091230290FB80F9809323020E
:1033E00083E292E00E94A50D809123028695869546
:1033F0008695AAC090932302E7CF8D3008F08CE029
:10340000909123029770282F220F220F220F922BC8
:1034100090932302987F21E009F420E09091230209
:1034200020FB90F9909323028FC0E7DF83E292E0C4
:103430000C94A50DFC01DB0115968C918823C1F03D
:10344000F857E730F105A8F4E55AFB4D0C94C42277
:103450008CE0EBDF80E0089580E0FBCF5DDFFACF0A
:103460003CDFF8CF9ADFF6CF9EDFF4CF0DDFF2CF4F
:1034700081E00895B0E0A0E0E0E4FAE10C94FB22E2
:103480008C0186B597B56CE070E00E947B226017D6
:10349000710758F0C80169E070E00E947B22CB01FF
:1034A000CDB7DEB7ECE00C94172386B597B5E6B43C
:1034B000F7B4C6B4D7B4C6E0D0E0BE010E947B2208
:1034C00030E020E0060F171F211D311D4801590172
:1034D00085E0880C991CAA1CBB1C8A95D1F7C701F2
:1034E000BE010E947B22F12CE12CA7019601260F40
:1034F000371F411D511DC501B4010E94A22269015F
:103500007A01E6B5F7B5CA01B901CDD79B01AC0187
:10351000DF010E94E5229B01AC01C701B601C3D7C0
:103520002FE096958795779567952A95D1F706B5FB
:1035300017B530E020E0061717072807390708F00D
:10354000AECF66B577B5ABCF8D30A8F4811114C07E
:103550009FB59F7D9FBDA6B5B7B5282F30E00E94CF
:10356000D0222CE030E040E050E0ECD7C90182DF0F
:1035700099BD88BD08958CE09FB59062EBCF08950A
:103580001092ED011092EC011092EE0189B7846067
:1035900089BF089589B78B7F89BF56DED5CF1F922B
:1035A0000F920FB60F921124EF92FF920F931F9379
:1035B0002F933F934F935F936F937F938F939F933B
:1035C000AF93BF93CF93EF93FF9380917A008130B5
:1035D000C9F08F5F80937A00FF91EF91CF91BF91F7
:1035E000AF919F918F917F916F915F914F913F919B
:1035F0002F911F910F91FF90EF900F900FBE0F90A2
:103600001F9018954CDEC82F0091EC011091ED0130
:103610000F5F1F4F44DE28E7829FB0011124C801CD
:103620006AD79093ED018093EC01C29FB001112401
:10363000660F672F661F770B71955DD767FD6FE784
:103640008091EE01823031F4603441F489B78B7F90
:1036500089BF04C0813011F46F37C1F3E62FF0E069
:10366000E251FD4FC491E6B4F7B4EEDD182F2C2FD4
:1036700030E0D70195D72FEF30E040E050E062D73F
:10368000C9016CE070E037D7169FC001179F900DFD
:103690001124F0DE99BD88BD9FCF8C9A949882E268
:1036A0008FBD89E18EBD8FEF9FEF97BD86BDFADD9F
:1036B000F1DD811165CF089597C30895FC01EE0FE8
:1036C000FF1FE80FF91FEC5DFD4F618340832283EC
:1036D0000895E4E2F2E0818360834283339692E0CE
:1036E000E333F907C1F7089524E630E04FE050E0F6
:1036F00064E272E080EBB0C3CF93DF93EB018631DD
:103700009C4701F50E94A30C9D81992391F08A7A30
:1037100091E009F490E09093EF01811108C089E2F3
:1037200049D20E94170D80E0DF91CF91089585E383
:10373000F7CF8091EF01811103C089E241D2F1CF2F
:1037400085E3FCCF81E0F0CFCF93DF93EC01FB0169
:103750008581882309F4CDC09E013057233231057D
:1037600008F0ADC089E092E00E949F0DFE01E1509B
:10377000F047E232F10518F4EE59FB4D05C7809190
:10378000090281608093090293C080910A028860D7
:1037900080930A028DC0809109028260F3CF8091EC
:1037A00009028460EFCF809109028860EBCF80919D
:1037B0000A028160EDCF80910A028260E9CF809198
:1037C00009028061DFCF809109028062DBCF8091A6
:1037D00009028064D7CF0E94710880910902806835
:1037E000D1CF809109028C60CDCF80910A02836095
:1037F000CFCF809109028E7FC5CF80910A02877F4B
:10380000C7CF809109028D7FBDCF809109028B7F48
:10381000B9CF80910902877FB5CF80910A028E7F50
:10382000B7CF80910A028D7FB3CF809109028F7E3E
:10383000A9CF809109028F7DA5CF809109028F7B4E
:10384000A1CF0E947108809109028F779BCF809150
:103850000902837F97CF80910A028C7F99CF809154
:10386000090282FB992790F921E0922790FB82F9C7
:1038700090FB83F987CF80910A02982F90959170E1
:103880008E7F892B90FB81F983CF90910902892F3C
:103890008F7B96FF806476CF0E9471089091090219
:1038A000892F97FB87F980586DCF81E00E94AB0D7F
:1038B00089E092E00E94A10D0E94710880E0DF91F2
:1038C000CF91089580E0F2CF90910902892F8F7EE9
:1038D00094FF806157CF90910902892F8E7F90FFCE
:1038E000816050CF90910A02892F877F93FF886073
:1038F0004FCF81E0E4CF0F931F93CF93DF93C42F7B
:10390000D22FFC0185818823C1F04093F201D6D1EA
:103910009093F1018093F00180E28C0F883040F4A5
:10392000C77081E001C0880FCA95EAF70E9465065A
:10393000DF91CF911F910F9108951091F20114130F
:1039400031C08091F0019091F10197D1883C9105AF
:1039500048F5C0E2CD0F1D17B9F080E2810F883025
:1039600040F4177081E001C0880F1A95EAF70E94B1
:103970006A06C83048F481E09D2F977001C0880F17
:103980009A95EAF70E946506802F0E945E06C8306D
:1039900078F6D77081E001C0880FDA95EAF70E94C7
:1039A0006A06C6CF80E28C0F883010F6C77081E0BF
:1039B00001C0880FCA95EAF7F2CF0F93DB01885157
:1039C0009C478730910590F5FC01EC57FB4DDCC519
:1039D00006E221EE41EE6AE17CE7CD018CDF80E07A
:1039E0000F91089507E225EE45EE6BE17CE7F5CFF8
:1039F00006E221EE40EE68E17CE7EFCF07E225EE3C
:103A000044EE69E17CE7E9CF06E221EE42EE6CE1AB
:103A10007CE7E3CF07E225EE46EE6DE17CE7DDCF04
:103A200008E221E045EE6EE17CE7D7CF15968C9158
:103A3000882319F01092F201D3CF81E0D1CF909377
:103A4000F8018093F7010895E091F701F091F801F2
:103A5000309739F00190F081E02D309711F0099501
:103A6000089580E00895E091F701F091F801309712
:103A700031F00280F381E02D309709F00995089527
:103A8000A3E0B0E0E5E4FDE1C0C52091F50130918F
:103A9000F60128173907B1F09093F6018093F501EC
:103AA000E091F701F091F801309761F00084F18521
:103AB000E02D309739F023E029839B838A83CE0160
:103AC000019609952396E2E0BCC5A3E0B0E0EAE6E2
:103AD000FDE19BC52091F3013091F40128173907CE
:103AE000B1F09093F4018093F301E091F701F0912C
:103AF000F801309761F00084F185E02D309739F0BE
:103B000024E029839B838A83CE010196099523961D
:103B1000E2E097C540916400509165009A012E5FE4
:103B20003F4F485F5F4F80E02417350709F4089541
:103B3000F90191919F019923B9F38F5FF5CF882304
:103B400071F02091640030916500F9013296285F90
:103B50003F4F9191981729F0E217F307D1F780E0D2
:103B6000089581E008959C01FC0132969FEF80E06A
:103B70004191461751F09F3F19F4411101C0982F10
:103B80008F5F8630A9F79F3F09F40895290F311DF3
:103B900097FD3A95F90162830895FC0132960896E3
:103BA0002191261303C0DF0111971C92E817F90732
:103BB000B9F70895682F8091640090916500D3CF84
:103BC000682F8091640090916500E7CFE0916400D8
:103BD000F0916500329686E0DF011D928A95E9F743
:103BE00008950895FECF089591E0811101C090E0FD
:103BF00090937D0060917B0070917C0080917D00AE
:103C000090917E00EFCF80917D00089580937C009D
:103C100060917B0070917C0080917D0090917E008E
:103C2000E1CF80917C00089580937B0060917B00C0
:103C300070917C0080917D0090917E00D3CF809127
:103C40007B00089508950895FECF0895089508957E
:103C5000F9CF0895CF93FADF0E944812F8DFC0E051
:103C60008C2F0E948A11892B31F4CF5FC430C1F7A9
:103C700080E0CF91089581E0FCCFCF93DF93EC01FA
:103C80001DD08C1B9D0BDF91CF91089584B7806868
:103C900084BF84B7806884BF08958091FB0181113F
:103CA0000C94730508950E9471080C947A058BE0BA
:103CB00083BF8BEB8CBF82E089BF08952FB7F89448
:103CC0008091330290913402A0913502B091360276
:103CD0002FBF08952FB7F89460913302709134028A
:103CE00080913502909136022FBF089578941F92EB
:103CF0001FB61F9211248F939F93AF93BF93809110
:103D0000330290913402A0913502B09136020196AF
:103D1000A11DB11D8093330290933402A09335020C
:103D2000B0933602BF91AF919F918F911F901FBEAC
:103D30001F90189560E081E090E06BD588E19CE0F1
:103D40000FB6F894A89581BD0FBE91BDFFCF88E155
:103D50009CE00FB6F894A89581BD0FBE91BDFFCF32
:103D6000EF92FF920F931F93CF93DF93182FEB01E6
:103D700016BE84EA86BFA2DF7C0106B607FE20C01D
:103D800081B1887F883021F081B1887F803149F509
:103D900013B984E886BF92DF8C0106B607FE1BC00C
:103DA00021B1287F90E080E0283189F081E090E027
:103DB000203411F490E080E091958195910907C03D
:103DC000C7015BDFC817D907C0F68EEF9FEFCDB7ED
:103DD000DEB7E6E032C4C80150DFC817D907E8F6FD
:103DE000F4CF8FEF9FEFF3CF11B887E080B985B3A1
:103DF000836085BB86B7846086BF86B7816086BFD7
:103E000086B7806486BF08950F931F93CF93DF9387
:103E1000EB0183B984E886BF51DF8C0106B607FE4B
:103E200010C021B1287F81E090E0283211F490E0A9
:103E300080E0919581959109DF91CF911F910F912C
:103E40000895CF3FDC0751F3C80117DFC817D90722
:103E500028F78EEF9FEFF0CFB0E0A0E0E1E3FFE1C5
:103E6000C9C3782E5B016A01890128DF4C01C1E0DA
:103E7000D0E00431110550F0C5E0D0E00F3F10074D
:103E800029F0C80164E170E036D3EB01BE01872D53
:103E900067DF7C0197FF08C00F3F1007B9F3C4012B
:103EA000ECDE0817190790F7E501CA0CDB1CCC15EE
:103EB000DD0511F0F7FE07C084E986BFC701CDB765
:103EC000DEB7EDE0B3C3B80189919EDF7C01EFCF8F
:103ED00080915E02882361F010925E02EFDE909383
:103EE000FA018093F9011092FB018091FB01089582
:103EF0008091FB018111F9CF8091F9019091FA0134
:103F0000BCDE069790F381E08093FB01EECFD6DE16
:103F10009093FA018093F9010895AAD28B9A80E0D8
:103F2000815019F48B9878940895A895E7EBFBE0FD
:103F30003197F1F700C00000F3CFABD080DD2FEB5D
:103F400084ED91E0215080409040E1F700C00000F6
:103F50000895CF93BDDFCCE081111EC0CF910895AD
:103F60009CDE78DE8823C1F0F89491B3939A892F70
:103F70008C6081BB82B38C2782BB2FE53AEE80E058
:103F8000215030408040E1F700C0000082B38C2710
:103F900082BB91BB939878949BDF8111E1CF83DE44
:103FA000DDCF7AD180916402882329F0809142028A
:103FB00084FD0C94200E08950895FF920F931F9393
:103FC000CF93DF93D82F8B01F42EC5E0D13031F0A1
:103FD000D33061F0CDB7DEB7E5E030C38091420267
:103FE00084FF0CC06F2DC80151D1F4CF80917B02AA
:103FF00084FF04C06F2DC8014CD1ECCF4DD187E9AF
:104000009AE30197F1F700C00000C150F9F6E2CF42
:10401000B0E0A0E0EDE0F0E2F2C2E82E8B01EA01B0
:104020006A0183E0D694C7948A95E1F7F12CFC14D9
:104030001D0458F0C77029F04C2F50E0B8018E2DA8
:10404000BCDFCDB7DEB7E8E0F6C248E050E0B8012B
:104050008E2DB3DF085F1F4FF394E9CF43E050E0AC
:10406000BC0183E0D5CFCF93DF93EC01CCDD48E0FA
:1040700050E0BE0181E0CCDF88E0FE01A1E0B2E0CB
:1040800001900D928A95E1F7DF91CF9108950895FF
:1040900008958FE790E00895FC018081807680325A
:1040A00041F481818330C1F130F48130F1F082300C
:1040B00041F180E008958A30A9F18B30B1F1893067
:1040C000C1F7828193818115924069F48481958141
:1040D000892B49F481E08093000286819781909337
:1040E000FF018093FE018FEF089584819581892BD4
:1040F00001F781E092E09093600280935F0288E094
:1041000008959DDD8093FD018DEF91E09093600215
:1041100080935F0281E0089576DD8093FC018CEF4F
:1041200091E0F4CF838180DDC4CF84819581892B98
:1041300009F0BFCF828158DDBCCFCF932091FE0123
:104140003091FF01232B71F0C0910002C13051F476
:10415000FC0180815BDD1092FF011092FE018C2F2B
:10416000CF910895CFEFFBCF0895FC019381933059
:1041700059F130F49130C1F09230F1F080E00895BF
:10418000913209F440C09232C9F784819581009739
:1041900009F44BC0019791F78DEE94E09093600283
:1041A00080935F0282E3089589EA94E0909360022D
:1041B00080935F0282E108958EE694E0909360021E
:1041C00080935F028BE3089582818130A1F0882380
:1041D00051F0823099F68BEB94E0909360028093DB
:1041E0005F0284E1089589EE94E0909360028093E9
:1041F0005F0284E0089581ED94E0909360028093E3
:104200005F0286E1089584819581009731F00197DE
:1042100009F0B4CF89E994E002C080E894E090937B
:10422000600280935F0289E008958FE195E09093AA
:10423000600280935F0284E408951F93CF93DF931D
:10424000E82F792F162FEA01888184FF1CC029816D
:1042500088E828272983CE010296DC012E2F372FEC
:10426000512F5E0FF90121912D939F01452F4E1B78
:104270001416C4F3612F0E94E5021C5F1883DF91BE
:10428000CF911F9108958AE58883E5CF42E452E0FB
:10429000D4CF4BE752E0D1CFCF93DF93609161024F
:1042A000635067FD11C080915D02CCE0D0E0C81B77
:1042B000D109CB59DD4F80915C02803108F053C0A9
:1042C000CE0152DF1092610280918A0084FF3EC0CD
:1042D000809189008F3FD1F1C82F893008F0C8E064
:1042E000982F9C1B909389009091370228E8922781
:1042F000909337028823E9F080915F0290916002E9
:1043000020915B0226FFABC0FC012C2FA8E3B2E09A
:1043100034913D9331962150D9F79C012F5F3F4F47
:104320008FEF8C0F820F932F911D909360028093DB
:104330005F026C2F88E392E00E94E502CC5FCC30F4
:1043400019F08FEF80938900C0938A0084E190B3C5
:104350009C7031F48150D9F71092620210925A0287
:10436000DF91CF9108958D3209F067C0683009F070
:10437000A9CF83EC809337028AE580938A0010925C
:104380005B028881807669F0CE0186DE8F3FC1F4C2
:10439000988197FD8E8190E890935B0280938900CD
:1043A00091CF2A81109240029981911111C01092EF
:1043B000410220E432E082E03093600220935F0209
:1043C0009F819111EBCF9E81981740F7892FE6CFFF
:1043D000953029F42093620220E432E0EDCF96304C
:1043E00091F49B81913019F4CE01BFDE08C0923068
:1043F000D9F39330C9F39132B9F39232A9F390E42F
:1044000090935B02C3CF983089F0993019F42093D0
:104410006402E2CF9A3071F09B30F1F69BE4909306
:10442000430290937C0290934F02D6CF24E632E071
:1044300081E0C2CF20E432E0FBCF80915B0287FFB6
:1044400041CFCE017ADE8F3F21F48EE180938A0046
:1044500039CF882309F436CF1092890033CFDC019D
:104460002C2FE8E3F2E03D9131932150E1F755CF55
:10447000CF93DF9385B7886085BF8BB780688BBF8C
:10448000C2E4D2E08BE48983ABE7B2E011968C936F
:104490001197EEE4F2E081838AE588838C93808330
:1044A000DF91CF910895DB018F939F938ED0BF91C1
:1044B000AF91A29F800D911DA39F900DB29F900D73
:1044C00011240895991B79E004C0991F961708F0EC
:1044D000961B881F7A95C9F78095089587FB082E4B
:1044E000062687FD819567FD6195ECDF0EF49195B9
:1044F00007FC81950895AA1BBB1B51E107C0AA1FA9
:10450000BB1FA617B70710F0A61BB70B881F991F74
:104510005A95A9F780959095BC01CD01089597FB18
:10452000072E16F4009406D077FD08D0E4DF07FCD0
:1045300005D03EF4909581959F4F089570956195B3
:104540007F4F0895A1E21A2EAA1BBB1BFD010DC0CF
:10455000AA1FBB1FEE1FFF1FA217B307E407F50733
:1045600020F0A21BB30BE40BF50B661F771F881F0F
:10457000991F1A9469F760957095809590959B01A5
:10458000AC01BD01CF010895EE0FFF1F0590F4911E
:10459000E02D099405D0332312F48A1B9B0B10C025
:1045A000A29FB001B39FC001A39F700D811D112474
:1045B000911DB29F700D811D1124911D0895F0DF92
:1045C000B7FF0895821B930B0895EADFA59F900D16
:1045D000B49F900DA49F800D911D11240895B7FFE5
:1045E000F4CFF3DF821B930B08952F923F924F92EB
:1045F0005F926F927F928F929F92AF92BF92CF9273
:10460000DF92EF92FF920F931F93CF93DF93CDB77B
:10461000DEB7CA1BDB0B0FB6F894DEBF0FBECDBFF3
:1046200009942A88398848885F846E847D848C84C4
:104630009B84AA84B984C884DF80EE80FD800C81CD
:104640001B81AA81B981CE0FD11D0FB6F894DEBFB0
:104650000FBECDBFED010895002E083090F0982FC9
:10466000872F762F652F542F432F322F2227085064
:10467000F4CF220F331F441F551F661F771F881F5B
:10468000991F0A95B2F7002D089597FD1094002EFA
:10469000083098F00850232F342F452F562F672FBE
:1046A000782F892F912DF4CF15949795879577952D
:1046B000679557954795379527950A95AAF7112439
:1046C000002D08958F929F92AF92BF92CF92DF926A
:1046D000EF92FF92CF93DF93EC01688179818A8119
:1046E0009B81611571058105910521F464E279EDE5
:1046F0008BE597E02DE133EF41E050E0A7D0490191
:104700005A019B01AC01A7EAB1E45FDF6B017C01B8
:10471000ACEEB4EFA501940164DFDC01CB018C0D9C
:104720009D1DAE1DBF1DB7FF03C00197A109B04875
:1047300088839983AA83BB839F77DF91CF91FF9072
:10474000EF90DF90CF90BF90AF909F908F900895A3
:10475000B9CF80E690E0B6CFB0E0A0E080936000F3
:1047600090936100A0936200B09363000895FC01F0
:104770004150504030F001900616D1F73197CF01EB
:104780000895882799270895FB01DC0104C08D91C5
:104790000190801921F441505040C8F7881B990BB3
:1047A0000895FB01DC0102C001900D924150504080
:1047B000D8F70895E199FECF9FBB8EBBE09A992769
:1047C0008DB30895A6E1B0E044E050E031C0A8E127
:1047D000B0E042E050E02CC0262FE199FECF9FBB15
:1047E0008EBBE09A01970DB2021631F02DBB0FB6C9
:1047F000F894E29AE19A0FBE08950396272FEDDF11
:10480000EBDF252FEADF242FE8CF0196272FE5DF06
:10481000E3CF262FE199FECF9FBB8EBB2DBB0FB6FA
:10482000F894E29AE19A0FBE01960895DC01CB015B
:10483000FC01E199FECF06C0FFBBEEBBE09A3196CA
:104840000DB20D9241505040B8F70895052E97FBD8
:1048500016F400940FD057FD05D074DE07FC02D08B
:1048600046F408C050954095309521953F4F4F4FE5
:104870005F4F089590958095709561957F4F8F4F0C
:104880009F4F0895F894FFCFAD06AD06E306E3060B
:104890003C07D506D506D5065807C107CD07CD0775
:1048A000E812EF12F312F712FB12FF1203130713B1
:1048B0000B130F131313281A2C1A321A2E1A301A2C
:1048C000341A361AF91B6B1C011CCB1BCF1B051CA1
:1048D000D31B091C151CDF1B641CE31B191CE71BE5
:1048E0001D1C451CEB1B211C4C1CF11B271C2F1CE9
:1048F000D71B0D1CDB1B111CF51B2B1C3B1C551C5B
:10490000621CC51BFD1B721CF81CFE1CE81CF21C63
:06491000041D0A1D101D2C
:1049160001000000A80101010200050005050119BA
:104926001A1B1C1D1E1F202122060100000100115A
:104936001E3320482047202E20FF5AE200E900EAD5
:1049460000B500B600B700CD008301CC008A019205
:104956000194012102230224022502260227022AAB
:1049660002B300B4006F0070009F01CB019F02A04C
:1049760002818283E200E900EA00B500B600B700D2
:10498600CD008301CC008A01920194012102230209
:1049960024022502260227022A02B300B4006F0071
:1049A60070009F01CB019F02A002818283343536BD
:1049B6003794959697939291906061636400010293
:1049C6000202020606060909090909090F0F0F0F57
:1049D6000F0F151515181919191919191919191962
:1049E60023242525252525255C1B5E1B691B741B99
:00000001FF
