:100000000C9456000C9473000C9473000C947300C1
:100010000C9473000C9473000C9473000C94730094
:100020000C9473000C9473000C9473000C94730084
:100030000C9473000C9473000C9473000C94730074
:100040000C9473000C9434020C9473000C947300A1
:100050000C9473000C9473000C9473000C94730054
:100060000C9473000C9473000C9473000C94730044
:100070000C9473000C9473000C9473000C94730034
:100080000C9473000C9473000C9473000C94730024
:100090000C9473000C9473000C9473000C94730014
:1000A0000C9473000C9473000C94730011241FBE05
:1000B000CFEFDAE0DEBFCDBF11E0A0E0B1E0ECE1D0
:1000C000F5E002C005900D92AA30B107D9F721E002
:1000D000AAE0B1E001C01D92A933B207E1F70E9486
:1000E0001E020C948C020C940000E4E1F1E020E884
:1000F00090E480E2DF0115972C9311962C931196D2
:100100009C9311969C9311968C938083369631E044
:10011000EE33F30779F708956F927F928F929F9253
:10012000AF92BF92CF92DF92EF92FF920F931F9305
:10013000CF93DF9300910A0110910B0120910C01E4
:1001400030910D01E82FF0E041E050E060E070E018
:10015000082E04C0440F551F661F771F0A94D2F75C
:1001600040955095609570954023512362237323E9
:1001700040930A0150930B0160930C0170930D01A1
:1001800093E0899FD0011124A050BF4F0C9100959E
:10019000802F8770682E712C8FEF681A780A00778D
:1001A00002950F7010E00F5F1F4F11968C91119701
:1001B0008095982F9770E92EF12C9FEFE91AF90A94
:1001C000807782958F70C82ED12C8FEFC81AD80AED
:1001D00012968C918095982F9770A92EB12C9FEF35
:1001E000A91AB90A807782958F70882E912C8FEF8B
:1001F000881A980AEE0FFF1FEF01C05FDE4FE15F24
:10020000FE4F20E030E02F5F3F4FC901B8010E9450
:100210006402482FC901B3010E94640290818823BF
:1002200011F09F7E01C0906190838881442311F07A
:100230008F7E01C080618883C901B6010E9464027B
:10024000482FC901B7010E9464029081882311F0F0
:100250009D7F01C0926090838881442311F08D7F3F
:1002600001C082608883C901B4010E946402482FE2
:10027000C901B5010E9464029081882311F09E7F1C
:1002800001C0916090838881442311F08E7F01C06A
:1002900081608883269636962730310509F0B3CFE2
:1002A000DF91CF911F910F91FF90EF90DF90CF9052
:1002B000BF90AF909F908F907F906F900895CF9355
:1002C000DF93D82F90910E01C92FC17090FD1AC0F5
:1002D000892F869563E00E94580240910A0150914F
:1002E0000B0160910C0170910D01092E04C07695EF
:1002F0006795579547950A94D2F740FF03C0892F19
:100300000E948C005FB7F89441B330B3E0910E01C6
:10031000F0E0E15FFE4F2081922F937F3C70932BA2
:10032000DD23A9F0322F33714C7ECC2321F0822FB4
:100330008095837101C0832F842B311101C09F717F
:100340008F71C11101C02095207E282B03C0242F5E
:100350002C709C7021BB90BB5FBF80910E018F5FA2
:100360008A3218F480930E0102C010920E01DF91C0
:10037000CF910895CF93C0910901C0FF04C081E0DF
:10038000CF910C945F01C1FF06C080E00E945F0125
:10039000CD7FC0930901CF910895F89461152DE7A1
:1003A00072078105910530F42AE020938100660FE1
:1003B000771F35C0603920ED720723E08207910571
:1003C00068F42BE020938100DC01CB0142E0B6957C
:1003D000A795979587954A95D1F720C0603422E478
:1003E00072072FE08207910568F42CE020938100CA
:1003F000DC01CB0134E0B695A795979587953A95A2
:10040000D1F70CC02DE020938100DC01CB0126E068
:10041000B695A795979587952A95D1F7BC01615018
:100420007109709389006093880082E080936F0067
:100430001092850010928400789408950E947500AF
:1004400064E670E080E090E00E94CD013F9A88B1C0
:10045000805888B92FEF89E698E12150804090407C
:10046000E1F700C00000F3CF1F920F920FB60F927A
:1004700011242F933F934F935F936F937F938F93A9
:100480009F93AF93BF93EF93FF930E94BA01FF91A5
:10049000EF91BF91AF919F918F917F916F915F91FC
:1004A0004F913F912F910F900FBE0F901F90189575
:1004B000991B79E004C0991F961708F0961B881FB6
:1004C0007A95C9F78095089597FB072E16F4009446
:1004D00007D077FD09D00E94780207FC05D03EF4D2
:1004E000909581959F4F0895709561957F4F0895E0
:1004F000AA1BBB1B51E107C0AA1FBB1FA617B7074A
:1005000010F0A61BB70B881F991F5A95A9F7809565
:0C0510009095BC01CD010895F894FFCF38
:0A051C00FF000000000000000001D5
:00000001FF
