:100000000C941C020C943B020C943B020C943B029B
:100010000C943B020C943B020C943B020C943B026C
:100020000C943B020C943B020C9402230C94D823B6
:100030000C94101E0C943B020C943B020C943B025B
:100040000C943B020C943B020C943B020C943B023C
:100050000C943B020C94691E0C943B020C943B02E2
:100060000C943B020C943B020C943B020C943B021C
:100070000C943B020C943B020C943B020C943B020C
:100080000C943B020C943B020C943B020C943B02FC
:100090000C943B020C943B024513451377137713E2
:1000A000C413E21303150315ED1382149314931470
:1000B000F31403150315FC14B115B115C315C315BD
:1000C000BA15C315C315C315B115B115BF15C315A1
:1000D000C315BF1549247024682570246825BC24E5
:1000E000DF246825362545252C00130000002C0050
:1000F000120000002B0014001A0008001500170061
:100100001C0018000C00120013002A002900040033
:100110001600070009000A000B000D000E000F007A
:1001200033002800E1001D001B0006001900050037
:10013000110010003600370038003462E000035828
:10014000E300E20001582C422C00E4005000510072
:1001500052004F0035003A003B003C003D003E009D
:1001600001002400250026000100010001003F00DD
:1001700040004100420043002E02210022002300E3
:100180002D000100010044004500460047004800E2
:1001900025021E001F00200038002E000100010073
:1001A0000100010001530100010027002700370072
:1001B0003600290035021E021F02200221022202FF
:1001C000230224022502260227024C0001004900D6
:1001D0004A004B00010001005000510052004F0046
:1001E0002D02010001004C004D004E0001000100F5
:1001F0002F0230022F0030003100310201000100D7
:100200000100010001000100010002534A004E00FC
:100210004B004D0001000100ED00F900010001005C
:100220000100010001000100010004530100EF0082
:10023000EE00F000010001000100010001000100DA
:1002400001000100010001000100FA0001000100AD
:100250000100010001000100010001000100035341
:1002600001000100F100F2000100F300AB00AA0060
:10027000A900AE002B00005C1A0008001500170052
:100280001C003A003B003C003D00045329000400E0
:10029000C05CC15C09000A000B001E001F002000AA
:1002A00021000100E1001D00C35CC45C19000500D1
:1002B00011001000360037003800E100E000E200D5
:1002C000E300E6002C002C002C002C005000510014
:1002D00052004F000E037400650065006E0073004D
:1002E000790000000A03720077006B0062000000D2
:1002F0000403090409023B00020100A032090400C2
:100300000001030101000921110100012240000741
:1003100005810308000A0904010001030000000927
:10032000211101000122B6000705820320000A12F4
:1003300001100100000008EDFE60600100010200F4
:100340000105010902A10185020901A100050919A0
:10035000012908150025019508750181020501098B
:100360003009311581257F950275088106093815F8
:1003700081257F950175088106050C0A38021581D3
:10038000257F950175088106C0C005010980A1017E
:10039000850319012AB700150126B70095017510CC
:1003A0008100C0050C0901A101850419012AA002E0
:1003B000150126A002950175108100C005010906EE
:1003C000A1018505050719E029E715002501950814
:1003D000750181020507190029EF1500250195F027
:1003E000750181020508190129059505750191021C
:1003F000950175039101C005010906A101050719C1
:10040000E029E71500250195087501810295017520
:100410000881010507190029FF150026FF00950630
:1004200075088100050819012905950575019102D6
:10043000950175039101C00011241FBECFEFD0E2DA
:10044000DEBFCDBF12E0A0E0B1E0E2E2FCE400E0FC
:100450000BBF02C007900D92A43BB107D9F724E06F
:10046000A4EBB2E001C01D92A037B207E1F70E94F1
:100470003D200C940F260C940000FC0190E3A0E0BA
:10048000B1E001900D929A95E1F78091B6029091BA
:10049000B702A091B802B091B9028F6F9F6FAF6F92
:1004A0008093B6029093B702A093B802B093B902BA
:1004B000089520E3829FC00111248F5C9E4F0C940D
:1004C0003D02EBEBF2E087E090E050E140E231E00A
:1004D00020E810821382518354831282158216827F
:1004E00011864783428710861386148617861586E1
:1004F000108A3687318B128A158A238B268B148AB1
:10050000178A01977896009721F781E391E00C9480
:100510003D022F923F924F925F926F927F928F9205
:100520009F92AF92BF92CF92DF92EF92FF920F9382
:100530001F93CF93DF93CDB7DEB7A1970FB6F89493
:10054000DEBF0FBECDBF0091B6021091B702209161
:10055000B8023091B90241E050E060E070E0082E4E
:1005600004C0440F551F661F771F0A94D2F74095A9
:1005700050956095709540235123622373234093D7
:10058000B6025093B7026093B8027093B9022CE0A0
:10059000829FD0011124A050BF4F2C912095422F53
:1005A000477050E0BA016F5F7F4F7A83698320778D
:1005B00022952F7030E0A9014F5F5F4F5C834B8322
:1005C00011962C9111972095422F477050E0BA0157
:1005D0006F5F7F4F7E836D83207722952F7030E091
:1005E000A9014F5F5F4F58874F8312962C91129746
:1005F0002095422F477050E0BA016F5F7F4F7A8796
:100600006987207722952F7030E0A9014F5F5F4FF7
:100610005C874B8713962C9113972095422F477038
:1006200050E0BA016F5F7F4F7E876D8720772295FC
:100630002F7030E0A9014F5F5F4F588B4F871496A2
:100640002C9114972095422F477050E0BA016F5FAC
:100650007F4F7A8B698B207722952F7030E0A9012C
:100660004F5F5F4F5C8B4B8B15962C9115972095A8
:10067000422F477050E0BA016F5F7F4F7E8B6D8BCA
:10068000207722952F7030E0A9014F5F5F4F588F80
:100690004F8B16962C9116972095422F477050E05D
:1006A000BA016F5F7F4F7A8F698F207722952F7005
:1006B00030E0A9014F5F5F4F5C8F4B8F17969C9185
:1006C00017979095292F277030E0A9014F5F5F4F52
:1006D0005E8F4D8F9077292E22949FE02922312C16
:1006E0005FEF251A350A18969C9118979095292F37
:1006F0002770422E512C6FEF461A560A9077692EBA
:1007000062942FE06222712C7FEF671A770A1996A4
:100710009C91199790959F8F9770C92ED12C2FEF90
:10072000C21AD20A3F8D307732953F70432F50E086
:100730004F5F5F4F59A348A31A960C911A970095E3
:10074000902F9770A92EB12C6FEFA61AB60A0077DA
:1007500002950F7010E00F5F1F4F1B969C919095B4
:10076000292F2770822E912C7FEF871A970A907776
:10077000E92EE2943FE0E322F12C9FEFE91AF90A17
:1007800026E0829FF0011124E554FD4F20E030E087
:100790002F5F3F4FC9016B817C810E949C25482FB0
:1007A000C90169817A810E949C25882319F0818181
:1007B000877F02C08181886081838481442311F016
:1007C000877F01C088608483C9016F8178850E941A
:1007D0009C25482FC9016D817E810E949C2588231C
:1007E00019F082818D7F02C082818260828385813F
:1007F000442311F08D7F01C082608583C9016B8520
:100800007C850E949C25482FC90169857A850E94B4
:100810009C25882319F081818D7F02C081818260AF
:1008200081838481442311F08D7F01C082608483A1
:10083000C9016F8578890E949C25482FC9016D8563
:100840007E850E949C25882319F081818E7F02C0BD
:100850008181816081838481442311F08E7F01C076
:1008600081608483C9016B897C890E949C25482F03
:10087000C90169897A890E949C25882319F08081A1
:100880008F7702C08081806880838381442311F048
:100890008F7701C080688383C9016F89788D0E943A
:1008A0009C25482FC9016D897E890E949C2588233B
:1008B00019F080818F7B02C0808180648083838176
:1008C000442311F08F7B01C080648383C9016B8D49
:1008D0007C8D0E949C25482FC901698D7A8D0E94CC
:1008E0009C25882319F080818F7D02C080818062E1
:1008F00080838381442311F08F7D01C080628383D4
:10090000C901B1010E949C25482FC9016D8D7E8DC2
:100910000E949C25882319F080818F7E02C08081EF
:10092000806180838381442311F08F7E01C08061C8
:100930008383C901B3010E949C25482FC901B201DC
:100940000E949C25882319F08081877F02C08081C6
:10095000886080838381442311F0877F01C0886091
:100960008383C90168A179A10E949C25482FC901F0
:10097000B6010E949C25882319F080818B7F02C0DC
:100980008081846080838381442311F08B7F01C048
:1009900084608383C901B8010E949C25482FC90146
:1009A000B5010E949C25882319F080818D7F02C0AB
:1009B0008081826080838381442311F08D7F01C018
:1009C00082608383C901B7010E949C25482FC90119
:1009D000B4010E949C25882319F080818E7F02C07B
:1009E0008081816080838381442311F08E7F01C0E8
:1009F0008160838378962730310509F0C9CEA196AE
:100A00000FB6F894DEBF0FBECDBFDF91CF911F911F
:100A10000F91FF90EF90DF90CF90BF90AF909F909D
:100A20008F907F906F905F904F903F902F900895A0
:100A3000CF93DF93D82F8091BA02C82FC17080FD69
:100A400015C0869583704091B6025091B7026091AF
:100A5000B8027091B902082E04C076956795579533
:100A600047950A94D2F740FD0E948902AFB7F894E7
:100A700081B380B3E091BA02F0E0CF01880F991FF3
:100A8000E80FF91FE554FD4FB08128B157B131810E
:100A90005474832F8B7B582B8EB14DB162814C7F68
:100AA000962F9370492BDD2389F1EB2FC111E0952F
:100AB000732F7B70247FCC2321F0932F90959B7014
:100AC00001C0972F292B962F9270792B7B2B8D7F2E
:100AD000CC2319F0962F90959270892B711101C03B
:100AE0005F74922F9F74232FC11101C02095207B2A
:100AF000292B711101C04E7F982F9E7F6170C1110B
:100B000002C081E06827862F892B06C024745474A4
:100B10008C7F4C7FB0E0E0E0E1BB28B98EB9B0BB80
:100B200057B94DB9AFBF8091BA028F5F883318F4BF
:100B30008093BA0202C01092BA02DF91CF91089559
:100B4000CF93C0913001C0FF04C081E0CF910C94DD
:100B50001805C1FF06C080E00E941805CD7FC09334
:100B60003001CF9108950C9461020C94A005CF92AE
:100B7000DF92EF92FF926B017C0162FD08C0DC0105
:100B8000CB01B695A79597958795817001C082E0B6
:100B9000C3FC83E0C4FC84E00E945902C701B60193
:100BA000FF90EF90DF90CF900895009719F0019794
:100BB00031F00895662349F086E091E004C0662391
:100BC00021F089E191E00C943F0608959C013A954B
:100BD00021153F4138F5DC01AA27B270AC0144274A
:100BE00054709C012227387094FF0FC090FF02C000
:100BF00080E101C080E0AB2B09F08062452B09F059
:100C00008064232B69F080680BC0892F8170AB2B27
:100C100009F08260452B09F08460232B09F088607D
:100C2000FB0109940895CF93DF93EC01805E910955
:100C3000089710F0209719F464E073E102C067E7A9
:100C400075E1CE010E94E6058C2FDF91CF910C94C7
:100C50005A12CF93DF93EC010E94B012CE01805E56
:100C60009109089710F0209719F46BE073E102C026
:100C70006EE775E1CE01DF91CF910C94E605CF933D
:100C8000DF93EC010E941306CE01DF91CF910C940B
:100C9000290681E0089581E008950C944B0608959B
:100CA0000C944F061F93CF93DF9300D000D01F9278
:100CB000CDB7DEB749835A836B833091A503898111
:100CC0009A81311114C0662359F0222349F00E9401
:100CD000EA1A182F682F89819A810E94931A03C0FB
:100CE0000E94BE1A182F69817A81812F04C00E9448
:100CF000EA1A69817A810F900F900F900F900F90F0
:100D0000DF91CF911F910C941E07FC01262F40818B
:100D100051816281738184810C945206CF93DF9359
:100D2000EC0160E00E948506BE01DF91CF910C943A
:100D300050060E9429090C94B3050E94560F0C948A
:100D4000B50508950E949F150E94A1062FEF84E328
:100D50009CE0215080409040E1F700C000000C94DE
:100D60008F1E0F931F93CF93DF938C0161E00E943E
:100D70008506EC01B8010E944D06882309F444C0A1
:100D8000B801CE010E94830F8823F1F1B801CE0192
:100D90000E94880D8823C1F1B801CE010E94DA0DAE
:100DA000882391F1B801CE010E94050F882361F1DB
:100DB000F8018281882309F1CB358DE5D807C1F090
:100DC00050F4C115FCE5DF0781F0CF3DDC45A9F407
:100DD0000E94F51C19C0CC35EDE5DE0761F0CD357C
:100DE000DD4559F40E947D1B08C00E94A2060CC07C
:100DF0000E94861B02C00E94891BC801DF91CF910F
:100E00001F910F910C94490680E0DF91CF911F91C3
:100E10000F91089508950C940A0781E008950C94A9
:100E20000D07CF93C82F0E940B078C2F0E940F072E
:100E3000CF91089580E090E00895089520E3829F87
:100E4000C0011124FC012CE0729FE00DF11D112462
:100E5000E60FF11DEE0FFF1FEC50FF4F85919491AF
:100E60000895880F991FFC01EC52FD4F85919491D4
:100E70000895CF93DF930E941E070E945108EC0152
:100E80008115904508F041C0C11580E4D80708F0ED
:100E9000D1C0C83ED10510F5C03ED10508F0FDC057
:100EA000C83AD10578F4C53AD10508F0A2C0C130DE
:100EB000D10509F4F2C008F4EEC0C430D10508F041
:100EC000ECC0E9C0CF3BD10508F49BC0C03CD105C4
:100ED00008F4E1C0CE01805C91099EC0C11590E28A
:100EE000D90758F4C11521E0D20708F0D6C0CD3E8D
:100EF000D10508F4D0C0D065D0C0C11580E3D807B3
:100F000008F08EC0CE019F7087C0C11595E5D90746
:100F100008F043C0C11524E5D20708F0A2C0C115EE
:100F200082E5D80708F5C11591E5D90708F085C015
:100F3000CE0174E0969587957A95E1F783709C2FA2
:100F4000937021E030E002C0220F331F9A95E2F740
:100F50003C68382BCF70C695C69580E2C89FE001EB
:100F60001124C22BD32B99C09E01237033278C2FC1
:100F700086958695C115D34508F064C0C1E0D0E0E0
:100F800002C0CC0FDD1F2A95E2F720E2829FC0014C
:100F90001124C82BD92BDC6880C0C11529E5D207E4
:100FA000A0F4C11588E5D80708F060C0C11596E522
:100FB000D90708F070C08C2F0E94E5088F71C82FE8
:100FC000D0E0DC2FCC27D06268C0C1152AE5D2075B
:100FD00008F451C0CE0190568115904208F05BC0D4
:100FE0008D2F8F710E94E508DD27D0628F71D82B7D
:100FF00054C0C55AD0E0C159DD4FC881D0E0D0649B
:101000004CC0C85AD0E0CC0FDD1FCF5BDD4F09903C
:10101000D881C02DD46441C00E943107EC013DC08D
:10102000CE019927D3FF03C0EC01D86C36C0EC0188
:10103000D06C33C0DF70D06A30C0DC2FCC27C16FDA
:10104000D06A2BC0C1E0D0E002C0CC0FDD1F2A95D2
:10105000E2F720E2829FC0011124C82BD92BDA6865
:101060001CC0DC2FCC27C46FD06A17C0DC2FCC2764
:10107000C06FD06A12C08C2F8F700E94E50894E078
:10108000D695C7959A95E1F7CF70D0E0DC2FCC27A5
:10109000D069C82B02C0C0E0D0E0CE01DF91CF9173
:1010A00008958238910569F1B0F48133910509F40E
:1010B0006DC048F48932910509F463C08A32910504
:1010C00009F469C008958533910509F455C0893341
:1010D0009105B9F00895833E910569F138F4803E99
:1010E0009105B1F0823E910509F10895863E910582
:1010F000A9F1873E9105B9F1843E910509F064C0DC
:1011000023C020914D0420FD4FC021FD4DC0089506
:1011100080914D0480FD44C080914E0480FF44C006
:1011200080914D0484FD42C083EE4DC080914D04FA
:1011300082FF38C0F5CF80914D0482FD33C080918D
:101140004E0480FD31C0ECCF80914E0481FF32C04F
:1011500080914D0484FD2AC087EE35C080914D04F6
:1011600083FF26C0F5CF80914D0483FD21C080917F
:101170004E0481FD1FC0ECCF80914D0485FD1CC045
:101180001DC080914D0485FD19C016C080914D048D
:1011900086FD16C017C080914D0486FD13C010C097
:1011A00089E311C082EE0FC080EE0DC080E00BC05D
:1011B00086EE09C084EE07C089E205C085E303C05E
:1011C0008AE201C081E390E0089590914D0492FF7E
:1011D0000DC0282F2871283019F4877F846006C03D
:1011E000282F2471243011F48B7F886093FF0DC069
:1011F000282F2871283119F4877E846106C0282F92
:101200002471243111F48B7E886120914E0420FFDB
:101210000DC0382F3871383019F4877F816006C0CF
:10122000382F3171313011F48E7F886021FF0DC06D
:10123000282F2871283119F4877E816106C0282F54
:101240002171213111F48E7E886194FD877E08958D
:1012500008950E944D1C811102C00E94F51C0E943D
:10126000581C809329040E94601C90934E04809324
:101270004D040E9428090E945C1C682F70E080E0E9
:1012800090E00E9495196091FC037091FD0380919C
:10129000FE039091FF030C94CD19E82FF0E0EE0FC0
:1012A000FF1FE95AFB4F808191810895089580EADC
:1012B0008A95F1F7089500C008950C945709F894A1
:1012C000E82FE295EF70F0E031A1282F2F7081E038
:1012D00090E001C0880F2A95EAF7982F9095932304
:1012E00091A392A1892B82A3789408950F931F93C1
:1012F000CF93DF9384E90E945F0985E90E945F092B
:1013000086E90E945F0987E90E945F09C2E7D2E08F
:101310000EE712E089910E945F090C171D07D1F7B3
:101320001092500410924F041092580410925704D7
:10133000109252041092510410925A0410925904BF
:10134000109254041092530410925C0410925B04A7
:10135000109256041092550410925E0410925D048F
:1013600084E00E94470ADF91CF911F910F910C9466
:1013700099067F928F929F92AF92BF92CF92DF9207
:10138000EF92FF920F931F93CF93DF93CEE7D2E0BC
:101390008FE4A82E84E0B82E97E5E92E94E0F92E8C
:1013A000712C01E010E06E018881F894E82FE2953D
:1013B000EF70F0E021A18F70A80102C0440F551F0B
:1013C0008A95E2F7CA01922F982B91A392A180955A
:1013D000892382A378940E945B09E2E7F2E020E08F
:1013E00030E0812C912C4191A42FA295AF70B0E0F8
:1013F00090968C9190E04F7002C0959587954A9594
:10140000E2F780FD08C0C801022E02C0880F991FB4
:101410000A94E2F702C080E090E0882A992A2F5FC0
:101420003F4F2C303105F9F62196F60180810E945C
:101430005F090E945D09F5018081918188169906F6
:1014400021F09182808281E001C080E0782AF2E080
:10145000AF0EB11CEA14FB0409F0A5CF272D44E020
:1014600067E574E08FE494E00E94480A0E949D06BC
:10147000872DDF91CF911F910F91FF90EF90DF901B
:10148000CF90BF90AF909F908F907F9008950895D8
:10149000FF920F931F93CF93DF93F82E092F162FF0
:1014A000D72FC42F222349F081E0809365030E9447
:1014B000421E9093640380936303809165038823A5
:1014C000D9F080916303909164030E945A1E06979D
:1014D00098F0EF2DF02FA12FBD2F80E090E04C2F42
:1014E00050E08417950734F4219131912D933D9369
:1014F0000196F7CF10926503DF91CF911F910F9165
:10150000FF90089580916C0380FF0BC060913002C2
:1015100085E0689FB001112475956795759567956D
:101520002BC081FF09C06091300285E0689FB00147
:1015300011247595679520C082FF07C06091300225
:1015400085E0689FB001112417C090916B03992327
:10155000D1F060912F02961788F72091300285E034
:10156000289F90011124929FA001939F500D112458
:1015700070E0CA010E949C256038710540F4611535
:10158000710519F406C065E070E0862F08958FE7B5
:10159000089581E0089580916C0380FF08C06091F8
:1015A0002C0270E0759567957595679521C081FF50
:1015B00006C060912C0270E07595679519C082FF96
:1015C00004C060912C0270E010C090916A039923CE
:1015D00099F060912B029617A0F780912C02899FB9
:1015E000C001112470E00E949C256038710540F410
:1015F0006115710519F406C061E070E0862F089549
:101600008FE7089581E008958D3E21F40E94820ABB
:10161000819504C08E3E29F40E94820A8093700353
:1016200008958F3E21F40E94820A819504C0803F74
:1016300029F40E94820A80936F030895893F19F468
:101640000E94CB0A05C08A3F31F40E94CB0A8195E3
:101650008093710308958B3F21F40E94CB0A8195FA
:1016600004C08C3F29F40E94CB0A80937203089532
:101670009FE0980F983078F421E030E0A90102C093
:10168000440F551F9A95E2F7CA0190916E03892B7A
:1016900080936E0308958D3F21F480916C038160E7
:1016A0000BC08E3F21F480916C03826005C08F3F98
:1016B00029F480916C03846080936C0308958D3EBF
:1016C00039F49091700397FF35C01092700359C0A0
:1016D0008E3E29F4909170031916BCF32BC09091A3
:1016E0006F038F3E29F497FF25C010926F0349C006
:1016F000803F19F41916CCF31DC090917103893FF6
:1017000029F41916BCF4109271033BC08A3F19F4F6
:1017100097FF10C0F8CF8B3F39F49091720397FF79
:1017200009C0109272032DC08C3F21F49091720376
:101730001916BCF39FE0980F983080F421E030E058
:10174000A90102C0440F551F9A95E2F7CA0180957E
:1017500090916E03892380936E0313C08D3F21F413
:1017600080916C038E7F0BC08E3F21F480916C03BF
:101770008D7F05C08F3F29F480916C038B7F809310
:101780006C0380916F03811106C0809170038111F9
:1017900002C010926B0380917103811106C0809189
:1017A0007203811102C010926A0308950E94421EC2
:1017B00020916F03211104C020917003222321F096
:1017C000909369038093680320917103211104C0F1
:1017D00020917203222321F0909367038093660384
:1017E0008DE693E00C94F110EF92FF920F931F930C
:1017F000CF93DF9300D000D000D0CDB7DEB786E026
:10180000EDE6F3E0DE01119601900D928A95E1F785
:10181000E0906F03F09070030091710310917203D8
:1018200010926F0310927003109271031092720362
:10183000E11003C0FF2009F45DC08091680390911E
:1018400069030E945A1EAC0190916B03992339F0F1
:101850002091310230E02417350758F04BC0209119
:1018600032028AE0289F900111242417350718F0CE
:1018700041C09F3F19F09F5F90936B03EE2061F092
:101880000E94820A1E1414F09FEF01C091E0989FFD
:10189000902D112490936F03FF2061F00E94820A23
:1018A0001F1414F09FEF01C091E0989F902D112418
:1018B0009093700330916F033323E1F02091700314
:1018C0002223C1F045EB3403C0011124992319F000
:1018D00090936F0303C081E080936F0335EB230384
:1018E000C0011124992319F09093700303C081E083
:1018F00080937003011103C0112309F45DC080912E
:101900006603909167030E945A1EAC0190916A038E
:10191000992339F020912D0230E02417350758F033
:101920004BC020912E028AE0289F90011124241799
:10193000350718F041C09F3F19F09F5F90936A03ED
:10194000002361F00E94CB0A101614F09FEF01C033
:1019500091E0989F902D112490937103112361F0D1
:101960000E94CB0A111614F09FEF01C091E0989FDE
:10197000902D112490937203309171033323E1F081
:10198000209172032223C1F045EB3403C0011124DE
:10199000992319F09093710303C081E08093710340
:1019A00035EB2303C0011124992319F0909372039E
:1019B00003C081E08093720380916F0381110BC09B
:1019C00080917003811107C080917103811103C060
:1019D0008091720381110E94D60BEB82FC820D83F1
:1019E0001E8386E0FE013196ADE6B3E001900D92D4
:1019F0008A95E1F726960FB6F894DEBF0FBECDBFED
:101A0000DF91CF911F910F91FF90EF900895EDE638
:101A1000F3E086E0DF011D928A95E9F710926B03EF
:101A200010926A0310926C0308950F931F93CF9343
:101A3000DF93C42FD22FFC0182818823C9F0409309
:101A400075030E94421E909374038093730380E297
:101A50008C0F883008F057C0C77081E001C0880F34
:101A6000CA95EAF7DF91CF911F910F910C9404135F
:101A700080917503481330C0809173039091740373
:101A80000E945A1E883C910538F510E21D0FCD17B3
:101A9000B9F080E28C0F883040F4C77081E001C05B
:101AA000880FCA95EAF70E940B13183028F581E0D9
:101AB0009D2F977001C0880F9A95EAF70E94041332
:101AC000802F0E94FB121830F0F4D77081E001C023
:101AD000880FDA95EAF70AC080E28C0F883098F414
:101AE000C77081E001C0880FCA95EAF7DF91CF91F6
:101AF0001F910F910C940B13802FDF91CF911F91A9
:101B00000F910C94FB12DF91CF911F910F910895CB
:101B10000F939C01CB01243F4CE5340731F188F44D
:101B2000293DFCE53F07D9F02A3D4CE5340779F122
:101B3000283D3C45A9F506E221EE41EE68ED7CE545
:101B40002BC0263FFCE53F07E1F0A8F0273F3C45CE
:101B500039F507E225EE46EE67EF7CE51DC007E2AA
:101B600025EE45EE69ED7CE517C006E221EE40EE7C
:101B700064EF7CE511C007E225EE44EE65EF7CE5FD
:101B80000BC006E221EE42EE66EF7CE505C008E2FE
:101B900021E045EE6AED7CE50E94150D80E008C06D
:101BA000FC018281882319F01092750301C081E045
:101BB0000F910895CF93DF93EC01FB01828188237D
:101BC00009F41FC1C230FCE5DF0708F41BC1C631B0
:101BD0009CE5D90738F09E012B5F3C452930310543
:101BE00008F010C10E94601C90934E0480934D0435
:101BF000C031ECE5DE0709F4C3C008F041C0C830CD
:101C00008CE5D80709F49AC0F0F4C430ECE5DE079F
:101C100009F487C068F4C2308CE5D80709F477C0AE
:101C2000C330DC4509F0E3C080914D04826076C08A
:101C3000C630ECE5DE0709F46EC008F07BC0809189
:101C40004D0488606BC0CC308CE5D80709F485C0A2
:101C500068F4CA30ECE5DE0709F474C008F079C016
:101C60000E949F1580914D04806858C0CE308CE54D
:101C7000D80709F476C008F07FC080914D048BC06E
:101C8000CC3FECE5DE0709F44FC018F5C3318CE515
:101C9000D80709F47DC078F4C131ECE5DE0709F41A
:101CA00073C0C231DC4509F0A2C00E949F1580912B
:101CB0004D048F7733C0C5318CE5D80709F472C065
:101CC00008F486C0CB3FDC4509F091C080914E04FA
:101CD0003EC0C115FDE5DF0709F45FC058F4CE3FF3
:101CE0009CE5D90709F444C008F43FC080914E0434
:101CF00082602DC0C230FDE5DF0709F475C008F42D
:101D00005DC0C330DD4509F072C080E06EC08091D7
:101D10004D04816003C080914D04806180934D0427
:101D200066C080914D0411C080914E048260809302
:101D30004E045DC080914D048062F0CF80914D04CF
:101D40008064ECCF80914D0488608460E7CF81602F
:101D5000EECF80914D048E7FE1CF80914D048D7F39
:101D6000DDCF80914D04877FD9CF80914E0418C07C
:101D700080914E048D7FDBCF80914D048F7ECECF3E
:101D800080914D048F7DCACF80914D048F7BC6CF4B
:101D900080914D04877F8B7FC1CF80914E048D7FD2
:101DA0008E7FC5CF80914D0482FB222720F991E0E0
:101DB000922790FB82F990FB83F9B0CF80914E047B
:101DC000982F909591708E7F892B90FB81F9AFCFE2
:101DD0000E949F1580914D0487FB222720F991E0F6
:101DE000922790FB87F99ACF81E00E94F71C80919F
:101DF0004D0490914E040E94711C0E949F1580E03A
:101E000001C081E0DF91CF910895CF93DF938631B8
:101E10009C4541F5EB010E948C1B982F8A812091F3
:101E2000340230913502882379F09A7A81E009F4FE
:101E300080E080937603911102C069E201C065E3FE
:101E4000C9010E94921D0AC080917603811102C0CF
:101E500069E201C065E3C9010E949D1D0E94DE1B6D
:101E600080E001C081E0DF91CF910895CF93909100
:101E700087039923C9F0882311F0C0E003C01092B2
:101E8000870312C080918703C817C8F7EC2FF0E0D2
:101E9000EE0FFF1FE958FC4F808191810E941306CD
:101EA0000E94DE1BCF5FEECFCF9108958091330269
:101EB0008823A1F080918803882381F080918C038E
:101EC00090918D03009751F00E945A1E893C910514
:101ED00028F01092880381E00C94360F0895109238
:101EE00088031092330210928D0310928C0381E0CC
:101EF0000C94360F8091330281110C946F0F81E0A6
:101F00008093330208955F926F927F928F929F9297
:101F1000AF92BF92CF92DF92EF92FF920F931F93F7
:101F2000CF93DF938C016B0110928903083F8CE5FE
:101F3000180741F4FB01C281CC23D1F081E08093EA
:101F4000330213C1093FFCE51F0739F4FB01C281CD
:101F5000CC2371F00E946F0F08C10A3FFCE51F07F8
:101F600039F4FB01C281CC2319F00E947A0FFDC025
:101F700080913302882309F4F7C010928B031092EA
:101F80008A03AA24A394B12C95E0992EC1E0D0E055
:101F900088248394E0908A03F0908B03F2E0EF169C
:101FA000F10408F0A3C09E9CF0019F9CF00D112449
:101FB000EF5DFD4F9081418177247A9480E0E92F95
:101FC000F42FE80FF11DE80FF11D25913491021750
:101FD000130709F4782E232B11F08F5FF0CFFFEF5A
:101FE0007F1202C0612C65C050908803F6016280A8
:101FF000662069F19E9CF0019F9CF00D1124EF5D1D
:10200000FD4F9E0101C0220F7A94EAF79481292B9B
:102010002483552039F3AE0102C0440F551F8A9521
:10202000E2F741505109822F90E04817590709F013
:1020300040C082819381009719F00E94130604C06A
:1020400061E0C7010E94D5058092890332C09E01DC
:1020500002C0220F331F8A95E2F7215031099E9C5E
:10206000F0019F9CF00D1124EF5DFD4F848190E005
:102070002817390761F482819381009719F00E9433
:10208000290606C060E0C7010E94D50501C0512C99
:102090009E9CF0019F9CF00D1124EF5DFD4FCE0141
:1020A00001C0880F7A94EAF780959481892384830C
:1020B000652CB628AA2069F09E9CF0019F9CF00D2B
:1020C0001124EF5DFD4F91E08481811190E0892F13
:1020D00001C080E08170A82E80918A0390918B03CB
:1020E000019690938B0380938A0354CF8091890348
:1020F000882351F00E94421E90938D0380938C039D
:1021000080E00E94360F2CC0B1100DC081E00E940B
:10211000360FAA2029F110928D0310928C0381E0D2
:10212000809388031DC0F60182818823C9F08091C5
:1021300088038823A9F00E94421E90938D03809308
:102140008C03E0918703E83058F481E08E0F809390
:102150008703F0E0EE0FFF1FE958FC4F1183008367
:1021600081E0CB2DC82701C0C1E08C2FDF91CF913A
:102170001F910F91FF90EF90DF90CF90BF90AF90A5
:102180009F908F907F906F905F90089590939303AE
:10219000809392030895E0919203F0919303309716
:1021A00021F00190F081E02D099480E00895E09104
:1021B0009203F0919303309799F0209140022223EB
:1021C00059F020914D0427FF07C0DC012C91119696
:1021D0002C93119725E02C930280F381E02D099434
:1021E0000895E0919203F0919303309739F022E043
:1021F000DC012C930480F581E02D09940895209151
:102200009003309191032817390771F0909391034F
:1022100080939003E0919203F0919303309721F023
:102220000680F781E02D0994089520918E03309166
:102230008F032817390771F090938F0380938E03D3
:10224000E0919203F0919303309721F00084F1859F
:10225000E02D099408950E944E1E6093A10370938F
:10226000A2038093A3039093A40360939D037093B0
:102270009E0380939F039093A003089585B7806881
:1022800085BF85B7806885BF089581E008950C9467
:10229000451108950C9449110C9449110C944C115A
:1022A0000C9449110C9450110C9449110E943E1148
:1022B0008BE49CE10E94C11E0E9454110C945211A7
:1022C0000E944A110C9449110E94391E0E947609FD
:1022D0000C944E116F927F928F929F92AF92BF9209
:1022E000CF92DF92EF92FF920F931F93CF93DF93E2
:1022F000CDB7DEB72A970FB6F894DEBF0FBECDBFBD
:102300000E94B90981110E942B1135E9832E33E017
:10231000932E00E010E0C02E802F0E944D095C013A
:10232000F401619071904F0168267926611471045F
:10233000B1F40F5F1F4F0430110569F78FEF8983E8
:102340008A831B820E94421E8160782F9D838C832A
:1023500049815A816B818D810E9420123AC08091FF
:10236000290481FD0E945609D12CEE24E394F12C1E
:10237000C3018E219F21892B29F10E9447118823B7
:10238000A9F0DE82CF82AE20BF2081E0AB2809F425
:1023900080E088870E94421E8160782F9A87898713
:1023A0004E815F8168858A850E942012000F111F6F
:1023B000F801EB56FC4F80819181E826F926F182E5
:1023C000E08207C0D394EE0CFF1CFCE0DF12D0CFFC
:1023D000B0CF0E94F40B0E94CB1090919403891708
:1023E000D1F00E94CB10809394032A960FB6F894F4
:1023F000DEBF0FBECDBFDF91CF911F910F91FF9038
:10240000EF90DF90CF90BF90AF909F908F907F9094
:102410006F900C9411072A960FB6F894DEBF0FBE8A
:10242000CDBFDF91CF911F910F91FF90EF90DF9083
:10243000CF90BF90AF909F908F907F906F900895B6
:10244000DF92EF92FF920F931F93CF93DF93CDB75D
:10245000DEB72B970FB6F894DEBF0FBECDBFF42EBC
:10246000052F162FE72ED82E61110E94AC1BFE01FE
:10247000319686E0DF011D928A95E9F77E2D4F2D7A
:10248000502F612F8D2D9E810E9458182B960FB6CC
:10249000F894DEBF0FBECDBFDF91CF911F910F919A
:1024A000FF90EF90DF900895FC01808191810E9460
:1024B0002C1B0895CF93882309F450C0C82F8CEFAC
:1024C0008C0F813AD0F46C2F8091340290913502B8
:1024D0000E94121D882349F06C2F80913402909144
:1024E00035020E949D1D0E94DE1B6C2F80913402DC
:1024F000909135020E94921D0CC080E28C0F8830B2
:1025000058F4C77081E001C0880FCA95EAF70E94AD
:102510008F1BCF910C94DE1BEBE5EC0FE33040F406
:10252000F0E0E055FD4F808190E0CF910C94FF10DA
:10253000E8E5EC0FE73150F4F0E0EE0FFF1FEE5747
:10254000FD4F80819181CF910C941511CD3E30F0DB
:102550008C2F0E94040BCF910C94D60BCF91089531
:10256000882389F19CEF980F913A40F4682F80916D
:102570003402909135020E949D1D0DC090E2980F8B
:10258000983058F4877091E001C0990F8A95EAF766
:10259000892F0E94951B0C94DE1B9BE5980F9330AE
:1025A00020F480E090E00C94FF1098E5980F9731AC
:1025B00020F480E090E00C9415118D3E20F00E94F4
:1025C0005F0B0C94D60B08951F93CF93DF93182FB6
:1025D000EB010E945A12209741F08FE99FE001978A
:1025E000F1F700C000002197F6CF812FDF91CF9146
:1025F0001F910C94B012893319F060E070E002C0B2
:1026000060E570E00C94E412882321F00E948F1B97
:102610000C94DE1B0895882321F00E94951B0C94D6
:10262000DE1B0895CF92DF92EF92FF920F931F93DC
:10263000CF93DF937C01062FC72FFC01D281158138
:1026400012951F700E94641B882399F0DD2389F086
:102650008C2F807F803421F080E2800F883048F01A
:1026600082E00E942E1C0E94641B91E0D82ED92685
:1026700001C0D12CCC2EC2948FE0C8228C2D90E0CA
:10268000FC01E45BFF4F0C94B0258C2F807FCF7052
:10269000882311F0C295C07FDD2399F0CC2309F483
:1026A0008DC180E2800F883010F0011104C08C2FA2
:1026B0000E948F1B03C08C2F0E949F1B0E94DE1B59
:1026C0007DC1802F0E94B012CC2309F49CC180E20E
:1026D000800F883010F0011104C08C2F0E94951BD0
:1026E00003C08C2F0E94A51B0E94DE1B8CC18C2F67
:1026F000807FCF70803211F0C295C07F002319F027
:102700000130C9F022C0DD2371F0112341F01130F6
:1027100031F40E94BF1B8C2B0E94C71B74C10E9406
:10272000BF1B8C2B1DC0112319F0113009F46BC194
:102730000E94D41B25C0DD2321F0133008F063C1B3
:102740000EC0123008F05FC11BC0DD2361F0112301
:1027500031F0F701858180FF31C18F7085838C2F27
:102760000E94041350C1112359F0093309F037C1F5
:10277000FFEF27EE83E0F15020408040E1F72DC1CC
:102780008C2F0E940B133FC18C2F869586958370EA
:1027900019F0813061F037C1DD2321F0802F9C2FAB
:1027A000937002C080E090E00E94FF1034C1DD23EE
:1027B00021F0802F9C2F937002C080E090E00E9457
:1027C000151129C1802FDD2319F00E94040B02C0CE
:1027D0000E945F0B0E94D60B1EC18C2F837009F0E4
:1027E00045C0D11114C1402F429546954770440F02
:1027F000440F602F6F70862F90E0A0E0B0E0042EB1
:1028000004C0880F991FAA1FBB1F0A94D2F704FFA8
:1028100010C00FE010E020E030E004C0000F111FF6
:10282000221F331F4A95D2F70095109520953095B9
:1028300003C000E010E09801C695C695C370BC01C6
:10284000CD01602B712B822B932BC23049F058F4B1
:10285000C13019F00E94A919DAC00E949719D7C097
:102860000E94BB19D4C00E949519D1C0DD2319F074
:102870008C2F817001C08695882309F4C8C0402F31
:10288000429546954770440F440F602F6F70862F16
:1028900090E0A0E0B0E0042E04C0880F991FAA1FAA
:1028A000BB1F0A94D2F704FF10C00FE010E020E035
:1028B00030E004C0000F111F221F331F4A95D2F7CA
:1028C000009510952095309503C000E010E0980128
:1028D000C695C695C370BC01CD01602B712B822BB0
:1028E000932BC23049F058F4C13019F00E946E1A8F
:1028F0008EC00E945C1A8BC00E94801A88C00E9401
:10290000CF1985C0CF70DD2339F08C2F0E94F519C7
:10291000802F0E9404137BC0802F0E940B138C2FEA
:102920000E94161A74C0023F01F128F4003F41F0E2
:10293000013FA1F03FC0033FF9F0043F39F13AC035
:10294000DD2341F0123008F05EC08C2F8F710E94A1
:102950003B1A59C0133008F056C0F7CFDD2339F0C9
:102960008C2F8F710E94F5194EC0DD23C9F38C2F77
:102970008F710E94161A47C0DD2329F08C2F8F71AA
:102980000E94E01940C00E94DB193DC0DD2349F0E0
:10299000CF718C2F0E94F51963E08C2F0E94131CBD
:1029A00032C081E00E942E1C123068F182E00E9449
:1029B0002E1C29C0DD2331F0112391F2802F0E94BB
:1029C0005A1221C0112399F2093349F49FEFE7EE1F
:1029D000F3E09150E040F040E1F700C00000802FAC
:1029E0000E94B01210C04C2F4F70602FC7010E9480
:1029F0001A070E9406190FC04C2F4F70602FC70195
:102A00000E941D0708C088EF8C0D843020F40E94BE
:102A1000CB100E941107DD20C9F00E94601B80FDD1
:102A200015C0F70112820E945A1B0E94F519C701B6
:102A30000E9447150E945A1BDF91CF911F910F9161
:102A4000FF90EF90DF90CF900C94161ADF91CF910A
:102A50001F910F91FF90EF90DF90CF9008950F930B
:102A60001F93CF93DF93EC01688179818A810E9463
:102A7000371B8C010E94921A0E948319B801CE0163
:102A80000E941213DF91CF911F910F910895CF9360
:102A9000DF93EC01988189812B813C81232B31F0DC
:102AA0008F3F31F481E09F3F19F403C081E001C002
:102AB00080E080FD19C0CE010E94B10681110CC0DA
:102AC0000E94641B882381F08A81882369F082E058
:102AD000DF91CF910C942E1CCE010E942F15CE01B8
:102AE000DF91CF910C948E06DF91CF9108958823CA
:102AF00021F00E949F1B0C94DE1B0895882321F077
:102B00000E94A51B0C94DE1B089580E090E00E94BB
:102B1000FF1080E090E00E9415110E94AC1B0E9403
:102B2000BC1B0E94DE1B0E94070D0C94D60B8091EB
:102B30003402909135020E94A81D0C9485150E94C4
:102B40009C1B0C949715E92FE295EF704E2F50E0E7
:102B5000FA013297EE30F105B0F4E45AFF4F0C94CD
:102B6000B025803F91F018F4883E68F40EC0843F91
:102B700051F40BC0883E48F0813F29F406C093FB16
:102B8000882780F9089580E0089581E008950E94E3
:102B90002C1B0E94A3150895CF93DF9300D000D083
:102BA0001F92CDB7DEB70F900F900F900F900F9040
:102BB000DF91CF910895CF93DF9300D000D000D064
:102BC000CDB7DEB726960FB6F894DEBF0FBECDBFE9
:102BD000DF91CF9108951F93CF93DF93C091A60308
:102BE00016E08091A703C81799F0D0E01C9FF00170
:102BF0001D9FF00D1124E855FC4F408151816281E9
:102C00007381848195810E94DB152196C770E9CF7D
:102C1000DF91CF911F9108954091D8035091D9032E
:102C20006091DA037091DB038091DC039091DD0306
:102C30000C94DB150F931F93CF93DF938091DD03EB
:102C400082958F7009F05DC08091DA03882309F4C2
:102C500058C08091A6031091A7036091D80370918A
:102C6000D903C091DB03D091DC0391E06F3F09F001
:102C700090E0292F06E0811709F443C0209721F046
:102C80007F3F21F030E003C031E001C0322F90E0FF
:102C900030FD34C0089FF001099FF00D1124DF01C1
:102CA000A855BC4F11963C911197371327C03C9102
:102CB000361324C012963C91129731111FC01396FF
:102CC0004D915C9114974C1B5D0B483C5105B0F441
:102CD0008091DD038F7080618093DD03E355FC4FAD
:102CE00080818F708061808388ED93E00E9447151A
:102CF000DF91CF911F910F910C94EB150196877086
:102D0000BACFDF91CF911F910F9108959F92AF920B
:102D1000BF92CF92DF92EF92FF920F931F93CF93C8
:102D2000DF93CDB7DEB761970FB6F894DEBF0FBE65
:102D3000CDBF8C0185E0F801DE011D9601900D925A
:102D40008A95E1F7F80140815181E2809091D803A2
:102D50006091D9032091DB033091DC03211531050B
:102D600031F06F3F31F481E09F3F19F403C081E0FF
:102D700001C080E0F82FF1709F2E80FD46C1F80160
:102D8000A380B48088EDC82E83E0D82EF090DA03BB
:102D9000F501E21BF30BFF2009F4DFC08091DD0396
:102DA000E83CF10508F09BC0282F207F09F052C0B5
:102DB000561313C0491311C0FE2CE1100EC08F70C2
:102DC00080618093DD030E940C16C6010E944715A6
:102DD0008091DD03F801858358C1AB2831F05F3F56
:102DE00031F481E04F3F19F403C081E001C080E07D
:102DF00080FD03C081E08E2502C080E090E0F82FC6
:102E0000F170FF2E80FF1CC08091A6032091A703C4
:102E100036E0821709F417C190E0389FF001399F1E
:102E2000F00D1124E855FC4F6181561306C06081F6
:102E3000461303C06281E61203C001968770E9CF92
:102E4000FE2CEE2009F421C18091DD038160809386
:102E5000DD035AC0561306C0491304C0E11002C076
:102E6000F8019FC04D875E878D859E850E94C7159E
:102E7000882379F1EE2069F12091DD03822F82957C
:102E80008F7090E0029774F08091D8039091D903ED
:102E900098878F831986BB86AA862C87CE010796D2
:102EA0000E94471586E0F801A8EDB3E001900D926D
:102EB0008A95E1F70E941A160E940C160DC056174B
:102EC00029F14D875E878D859E850E94C7158111EA
:102ED0002CC0C8010E944715FF24F394D6C0282FA8
:102EE000207F69F77A2DB98AA88A6E2D89890E9478
:102EF000CC1588ED93E00E94471586E0F60111920B
:102F00008A95E9F70E940C16F12CBFC04913D9CF5E
:102F1000E110D7CFF8018583C8010E94471586E0EC
:102F2000F60111928A95E9F7B0C0EE2091F2209156
:102F3000DD03822F82958F7090E002970CF4B2CF60
:102F40008091D8039091D9039A8389831B82BD8293
:102F5000AC822E83CE010196A3CFE83CF10508F0A8
:102F600047C0FE2CEE2009F4B4CF561330C04913ED
:102F70002EC02091DD0320FD21C0822F82958F700D
:102F8000482F50E041155105C9F0F80125834F3015
:102F9000510541F08F5F982F9295907F822F8F700F
:102FA000892B8583C8010E94471586E0F801A8EDAA
:102FB000B3E001900D928A95E1F742C086E0F801F6
:102FC000A8EDB3E001900D928A95E1F75EC04D87C0
:102FD0005E878D859E850E94C715811163CF809184
:102FE000DD0381608093DD03C8010E9447154DC059
:102FF0007A2DB98AA88A6E2D89890E94CC1586E01F
:10300000F60111928A95E9F71BC0EE2009F461CF11
:103010004D875E878D859E850E94C715F82E882373
:1030200009F457CF86E0F801A8EDB3E001900D92C6
:103030008A95E1F788ED93E00E9454120E941A16D7
:103040000E940C1622C04D875E878D859E850E944A
:103050002C1B292F22952F70223028F49F7039F0D5
:10306000811105C00BC0243028F49F7049F4805EA4
:10307000883020F0C8010E9447159F2CF92C05C00C
:10308000F8019581907F99F7F9CF8F2D61960FB652
:10309000F894DEBF0FBECDBFDF91CF911F910F918E
:1030A000FF90EF90DF90CF90BF90AF909F900895EA
:1030B0001F93CF93DF93CDB7DEB72C970FB6F8945D
:1030C000DEBF0FBECDBF4F83588769877A878B8756
:1030D0009C87CE0107960E9486168823D1F09F8197
:1030E00088852A853B85232B31F08F3F31F481E0A1
:1030F0009F3F19F403C081E001C080E080FD47C01C
:103100004F81588569857A858B859C850E94DB1562
:103110003EC086E0FE013796DE01119601900D92C9
:103120008A95E1F7FF81E8856A857B8561157105E0
:1031300031F0EF3F31F481E0FF3F19F403C081E04B
:1031400001C080E080FD23C02091A70330E0C901C9
:103150000196877099274091A60350E08417950740
:10316000F1F1F983EA837D836C8396E0929FD0012D
:10317000939FB00D1124A855BC4FFE0131960190CC
:103180000D929A95E1F78093A7030E94EB1516E044
:103190008091A6039091A703891771F1189FC00130
:1031A000112488559C4F0E948616882329F1E091AE
:1031B000A6031E9FF0011124E855FC4F4081518168
:1031C00062817381848195810E94DB158091A603C1
:1031D00090E00196877099278093A603D9CF0E942B
:1031E0009F151092A7031092A603E8EDF3E086E086
:1031F000DF011D928A95E9F72C960FB6F894DEBF91
:103200000FBECDBFDF91CF911F910895EF92FF9236
:103210000F931F93CF93DF938C01892B09F46CC01C
:10322000F12CEE24E394E8012196F801849184378F
:1032300040F4843008F051C0813081F0823019F1BF
:103240005BC0853709F444C0A8F19CE7980F90371C
:1032500008F052C08F770E94B01241C00E5F1F4F1E
:10326000FE01849190E2980F983050F48770FE2D03
:1032700001C0FF0F8A95EAF78F2F0E94AF1B14C081
:103280000E945A122DC00E5F1F4FFE01849190E2E2
:10329000980F983060F48770FE2D01C0FF0F8A955B
:1032A000EAF78F2F0E94B51B0E94DE1B19C00E94F7
:1032B000B01216C00E5F1F4FFE01C491CC2381F0E7
:1032C0008FE99FE00197F1F700C00000C150F6CFF1
:1032D0000E5F1F4FFE01F49003C00E945A128E0130
:1032E0008F2D882309F49FCFEFE9FFE03197F1F7A5
:1032F00000C000008150F5CFDF91CF911F910F9159
:10330000FF90EF900895089508950C9484190C94FB
:1033100085190E94871960930004709301048093BB
:103320000204909303040C9485150C9489190F934F
:103330001F93009100041091010420910204309128
:103340000304602B712B822B932B1F910F910C94F4
:1033500089190F931F93009100041091010420918B
:1033600002043091030460237123822393231F916D
:103370000F910C9489190F931F93009100041091E1
:1033800001042091020430910304602771278227F1
:1033900093271F910F910C9489190C94B7050E94E3
:1033A000CD196093FC037093FD038093FE0390930B
:1033B000FF030C94851560E070E0CB010C94CF19ED
:1033C0000F931F9341E050E060E070E08A019B01A1
:1033D00004C0000F111F221F331F8A95D2F7C901A5
:1033E000B8011F910F910C94CF190F931F9341E0D7
:1033F00050E060E070E004C0440F551F661F771F67
:103400008A95D2F78091FC039091FD03A091FE0371
:10341000B091FF038A019B01082B192B2A2B3B2B10
:10342000C901B8011F910F910C94CF190F931F93ED
:1034300041E050E060E070E004C0440F551F661F9B
:10344000771F8A95D2F74095509560957095809139
:10345000FC039091FD03A091FE03B091FF038A014C
:103460009B01082319232A233B23C901B8011F917B
:103470000F910C94CF190F931F9341E050E060E03F
:1034800070E004C0440F551F661F771F8A95D2F75E
:103490008091FC039091FD03A091FE03B091FF0386
:1034A0008A019B01082719272A273B27C901B80150
:1034B0001F910F910C94CF190F931F930091FC0350
:1034C0001091FD032091FE033091FF03602B712BBF
:1034D000822B932B1F910F910C94CF190F931F9355
:1034E0000091FC031091FD032091FE033091FF0336
:1034F00060237123822393231F910F910C94CF1982
:103500000F931F930091FC031091FD032091FE0384
:103510003091FF0360277127822793271F910F9116
:103520000C94CF1908952CE0929F800D1124E82F60
:10353000E695E695E695877051E001C0550F8A95AE
:10354000EAF785E0E89FF0011124E252FC4F20E009
:1035500030E070E04081CB01022E02C09695879545
:103560000A94E2F7817081958427852384278193CB
:103570002F5F3F4F2530310569F708952CE0929F6A
:10358000800D1124682F669566956695982F977023
:1035900085E0689FB001112440E050E080E0FB012D
:1035A000E40FF51FE252FC4F208130E0092E02C0EB
:1035B000369527950A94E2F721703327042E01C02F
:1035C000220F0A94EAF7822B4F5F5F4F4530510577
:1035D00031F70895BF92CF92DF92EF92FF920F934F
:1035E0001F93CF93DF938C01C090FC03D090FD0319
:1035F000E090FE03F090FF0380910004909101049D
:10360000A0910204B0910304C82AD92AEA2AFB2A0D
:10361000CFE1D0E0D701C6010C2E04C0B695A79526
:10362000979587950A94D2F780FD04C0219790F76B
:10363000B12C07C0BC2EB8018C2F0E94390701970E
:10364000A9F38B2DDF91CF911F910F91FF90EF90F8
:10365000DF90CF90BF900895CF93DF93EC010E944D
:10366000EA1ABE010E943907DF91CF9108951F9396
:10367000CF93DF93EB019091A503992321F0CB0128
:103680000E942C1B13C0882349F0CB010E94EA1A28
:10369000182F682FCE010E94931A04C0CB010E94FC
:1036A000BE1A182FBE01812F0E943907DF91CF91DA
:1036B0001F910895809104048595859585950895B9
:1036C000809104048770089590910404977081E0BC
:1036D00009F480E0089590914E0492FB222720F98E
:1036E000281751F080FB92F990934E0480914D047D
:1036F00090914E040C94711C089580914E0482FBAD
:10370000882780F991E089270C946B1B81E00C9449
:103710006B1B80E00C946B1B8091280408959091A2
:103720002804892B8093280408958095909128047B
:103730008923809328040895109228040895909175
:103740002704892B8093270408958095909127045E
:103750008923809327040895109227040895909157
:103760002604892B80932604089580959091260441
:103770008923809326040895109226040895809149
:103780000504089508950C94C21B0C94C31B9091DA
:103790004E0492FD08C090910504981721F0809383
:1037A00005040C94C51B089580910504882329F015
:1037B0001092050480E00C94C51B0895E09134023A
:1037C000F0913502809128048083E0913402F091D9
:1037D0003502908180912704892B8083E091340207
:1037E000F0913502908180912604892B808380910D
:1037F0000504882381F0E0913402F0913502908134
:10380000892B808380913402909135020E94FC1CA8
:1038100081110E94D41B80913402909135020C9446
:10382000D7100C94C21B90914E0492FD10C098E0EA
:10383000899F90011124262B209304040E94F519DE
:10384000809104048595859585950C94111C0C94A4
:10385000F5191092040480E00C94111C20910404CA
:103860008095822380930404982F977041F430E070
:10387000482F082E000C550B2417350721F4909182
:103880004E0492FF07C08595859585950E94161A6E
:103890000C94291C089580E0089580E090E00E9437
:1038A000D52521E08A3E9E4F09F020E0822F089521
:1038B00082E090E00C94CD2583E090E00C94CD253F
:1038C000CF9384E090E00E94CD25C82F82E290E063
:1038D0000E94CD252C2F30E0A901582BCA01CF9191
:1038E0000895CF93C92F682F84E090E00E94DB25D4
:1038F0006C2F82E290E0CF910C94DB25AB01BC01F0
:103900008FE090E00C94ED25AB01BC0183E190E0E9
:103910000C94ED2560E070E0CB010C94841C60E019
:1039200070E0CB010E947E1C0C948A1C6AEE7EEF34
:1039300080E090E00E94F92560E082E090E00E9443
:10394000DB2560E083E090E00E94DB25109200041C
:1039500010920104109202041092030460E084E0CB
:1039600090E00E94DB2560E082E290E00E94DB258F
:1039700060E085E090E00E94DB2560E086E090E07A
:103980000E94DB256FEF87E090E00E94DB2540E09E
:1039900050E0BA0188E090E00E94ED2560E08DE003
:1039A00090E00E94DB2540E050E0BA0188E190E021
:1039B0000E94ED2560E087E190E00E94DB2540E079
:1039C00050E0BA018CE190E00E94ED2560E070E0EB
:1039D00080E290E00E94F92540E050E0BA0188E1E1
:1039E00090E00E94ED250C948F1C0C94961C682F7F
:1039F0008EE090E00C94DB25FC0132968091400231
:103A0000882331F080914D0487FF02C09EE101C000
:103A100096E080E0915028F021912223D9F38F5F26
:103A2000F9CF0895662351F1209140022223E9F055
:103A300020914D0427FF19C0462F4695469546957F
:103A40004E31E0F4677021E030E002C0220F331FF6
:103A50006A95E2F7FC01E40FF11D828190E02823D2
:103A6000392381E0232B69F409C0FC0132960896C2
:103A70002191621729F0E817F907D1F780E008953E
:103A800081E008959C01FC0132969FEF80E0419116
:103A9000461789F09F3F19F4411101C0982F8F5F9D
:103AA0008630A9F79F3F39F0F901E90FF11D97FD25
:103AB000FA956283089508959C012A5F3F4FFC01A7
:103AC0004281461301C01282019682179307B9F70B
:103AD0000895262F2695269526952E3168F4FC010B
:103AE000E20FF11D677021E030E001C0220F6A95FE
:103AF000EAF78281282B22830895262F2695269582
:103B000026952E3170F4FC01E20FF11D677021E063
:103B100030E001C0220F6A95EAF7209582812823C0
:103B20002283089520914002222329F020914D0400
:103B300027FD0C94691D0C94421D20914002222304
:103B400029F020914D0427FD0C947D1D0C945C1DE3
:103B500020914002FC013296222331F080914D04E5
:103B600087FF02C08EE101C086E0DF011D928A95C9
:103B7000E9F7089508950C94BA1D0C94BA1DCF93DB
:103B80000E94BD1D0E94B9090E94BB1DC0E08C2F80
:103B90000E944D09892B29F4CF5FC430C1F780E022
:103BA00001C081E0CF9108950C94BA1D0C94D41DEE
:103BB00080916704843049F10E94D61D80E00E9404
:103BC000110710922A0420E488E190E00FB6F894DF
:103BD000A895809360000FBE2093600083B7817F1B
:103BE000846083BF83B7816083BF7894889583B7EF
:103BF0008E7F83BF0FB6F894A8958091600088618E
:103C000080936000109260000FBE08950C94BA1D5E
:103C10000E949F150E94CB100E9411070C94061E53
:103C20001F920F920FB60F9211248F939F93AF9311
:103C3000BF9380912A04811113C080915F049091F9
:103C40006004A0916104B09162044196A11DB11D70
:103C500080935F0490936004A0936104B093620426
:103C6000BF91AF919F918F910F900FBE0F901F90BA
:103C7000189582E084BD93E095BD9AEF97BD80933F
:103C80006E0008952FB7F89480915F0490916004BE
:103C9000A0916104B09162042FBF08952FB7F894EA
:103CA00060915F047091600480916104909162045E
:103CB0002FBF08959C014FB7F89480915F049091B5
:103CC0006004A0916104B09162044FBF821B930B0A
:103CD000089578941F920F920FB60F9211248F932C
:103CE0009F93AF93BF9380915F0490916004A091E4
:103CF0006104B09162040196A11DB11D80935F041F
:103D000090936004A0936104B0936204BF91AF915B
:103D10009F918F910F900FBE0F901F901895F89460
:103D200081E08093E00080E28093D800E9ECF0E04D
:103D300010828FE19EE40197F1F700C000001DBAE8
:103D4000109268001CBC10BE1FBA10927A0010922C
:103D50006E0010926F00109270001092710010822D
:103D60001092BC0011B814B817B81AB81DB810BA20
:103D700012B815B818B81BB81EB811BA0C9400FECA
:103D800008959093B5028093B402089580914B04F6
:103D90000895CF93DF9300D01F92CDB7DEB79091F7
:103DA0006704943019F589837B836A8382E080936A
:103DB000E9008FEF9091E800815095FD06C095EDE8
:103DC0009A95F1F700008111F5CF8091E80085FF09
:103DD0000DC040E050E063E070E0CE0101960E942B
:103DE000F7208091E8008E778093E8000F900F9085
:103DF0000F90DF91CF910895BC0184E00C94C91E0F
:103E0000BC0183E00C94C91E22E02093E9002FEF4F
:103E10003091E800215035FD06C035ED3A95F1F7B7
:103E200000002111F5CF2091E80025FF0BC040E0F4
:103E300050E066E070E00E94F7208091E8008E7705
:103E40008093E8000895CF93DF93209140022223CE
:103E500039F020914D0427FF03C060E222E002C048
:103E600068E021E02093E9002FEF3091E800215035
:103E700035FD06C035ED3A95F1F700002111F5CF7B
:103E80002091E80025FF1DC0EC01809140028111C6
:103E900005C040E050E068E070E003C070E040E042
:103EA00050E0CE010E94F7208091E8008E77809349
:103EB000E80080E2FE01ABE2B4E001900D928A9549
:103EC000E1F7DF91CF91089580916604811109C0D7
:103ED0000E9484220E94E6228091E2008460809306
:103EE000E2000895109266040895089508950895D3
:103EF00042E061EC81E00E94FD2142E261EC82E05F
:103F00000C94FD2180916904833009F45EC030F483
:103F1000813071F0823009F497C008958A3009F435
:103F200083C08B3009F469C0893009F0A5C020C076
:103F300080916804813A09F09FC08091E800877FF2
:103F40008093E80080916C0490916D04892B21F49A
:103F500060E28BE294E003C060E080E090E070E01B
:103F60000E9442218091E8008B778093E8000895B9
:103F700080916804813209F07FC080916C04909137
:103F80006D04029708F078C08091E800877F8093E5
:103F9000E8008091E80082FD05C0809167048111EE
:103FA000F8CF6AC08091F2009091F300029729F453
:103FB0008091F1008B7F813021F48091F10080931A
:103FC0004B048091E8008B7753C080916804813A5C
:103FD00009F052C080916C0490916D04892B09F016
:103FE0004BC08091E800877F8093E8008091E800D3
:103FF00080FFFCCF8091400236C0809168048132FE
:10400000D9F580916C0490916D04892BA9F580916C
:10401000E800877F8093E8000E94322280916A0442
:10402000809340020C949F1580916804813221F5A1
:104030008091E800877F8093E8000E94322280917F
:104040006B0480934C04089580916804813AA1F434
:104050008091E800877F8093E8008091E80080FFEE
:10406000FCCF80914C048093F1008091E8008E7722
:104070008093E8000C943222089584B7877F84BF30
:104080000FB6F894A89580916000886180936000D5
:10409000109260000FBE90E080E80FB6F894809315
:1040A0006100909361000FBE0E9456110E9484220D
:1040B0000E94E6228091E20084608093E20078947E
:1040C0000E9481250E94641186E392E00E94C6103E
:1040D000809167048530A9F480916704853079F474
:1040E0000E94D81D809165048823B1F30E94BF1DF2
:1040F000882391F30E94E1200E949F15EDCF0E943A
:10410000081E0E946A110E946011E2CF0C94882060
:10411000292F332723303105C9F060F421303105D0
:1041200081F02230310509F044C08BE390E024EFA8
:1041300032E043C021323105E1F02232310549F14C
:1041400038C082E190E02FE233E037C09927813018
:10415000910549F028F0029761F5E4EDF2E005C021
:10416000E0EFF2E002C0E4EEF2E0849190E09F0123
:1041700024C06115710541F061307105D1F489E009
:1041800090E02FE133E019C089E090E026E033E0D1
:1041900014C06115710541F06130710551F486EB71
:1041A00090E021E433E009C080E490E027EF33E0C1
:1041B00004C080E090E020E030E0FA013183208309
:1041C000089584E189BD86E189BD09B400FEFDCF73
:1041D0008091D8008F7D8093D8008091E00082602C
:1041E0008093E0008091E00081FDFCCF0895CF92A4
:1041F000DF92EF92FF920F931F93CF93DF93EC0127
:104200008B017A010E945122811133C0E114F10423
:1042100039F0F70180819181081B190BC80FD91F54
:10422000C12CD12C0115110519F18091E80085FDF3
:1042300016C08091E8008E778093E800E114F104C5
:1042400049F0F70180819181C80ED91ED182C082C8
:1042500085E00FC00E945122882321F30AC0899172
:104260008093F10001501109FFEFCF1ADF0ADACF76
:1042700080E0DF91CF911F910F91FF90EF90DF9041
:10428000CF90089520916E0430916F042617370760
:1042900048F06115710539F42091E8002E772093DC
:1042A000E80001C0B901FC0120E06115710569F168
:1042B000809167048823E1F18530E1F18091E80085
:1042C00083FD3AC08091E80082FD2CC08091E80017
:1042D00080FFEBCF8091F2009091F30061157105A2
:1042E00051F08830910538F421912093F10061500C
:1042F00071090196F3CF21E0089709F020E0809141
:10430000E8008E778093E800D0CF2111D1CF0AC08A
:1043100080916704882361F0853061F08091E80026
:1043200083FD0AC08091E80082FFF2CF80E008950B
:1043300082E0089583E0089581E0089520916E045D
:1043400030916F042617370748F06115710539F46D
:104350002091E8002E772093E80001C0B901FC010C
:1043600020E06115710581F180916704882309F4CB
:104370003EC0853009F43DC08091E80083FD3BC01C
:104380008091E80082FD2DC08091E80080FFE9CF98
:104390008091F2009091F3006115710559F0883019
:1043A000910540F424912093F100319661507109F8
:1043B0000196F2CF21E0089709F020E08091E80013
:1043C0008E778093E800CDCF2111CECF0AC08091A7
:1043D0006704882361F0853061F08091E80083FDF7
:1043E0000AC08091E80082FFF2CF80E0089582E069
:1043F000089583E0089581E00895982F973068F537
:104400009093E900981739F07091EC002091ED003D
:104410005091F00003C0242F762F50E021FD02C000
:104420009F5FECCF3091EB003E7F3093EB003091FB
:10443000ED003D7F3093ED003091EB003160309323
:10444000EB007093EC002093ED005093F00020916E
:10445000EE0027FDE5CF80E008958F708093E9009E
:1044600081E008958091680487FF11C08091E80081
:1044700082FD05C0809167048111F8CF11C0809141
:10448000E8008B770BC080916704882349F0809106
:10449000E80080FFF8CF8091E8008E778093E800F5
:1044A00008952091E4003091E50095E64091EC00FC
:1044B000842F817040FF23C08091E80080FD1DC0E3
:1044C00080916704882399F0853099F08091EB0002
:1044D00085FD11C04091E4005091E5002417350797
:1044E00029F3915011F09A01E1CF84E0089582E020
:1044F000089583E0089581E0089580E00895409153
:10450000E80042FFDDCF08950E94F5220E94FD22BF
:10451000E0EEF0E0808181608083E8EDF0E0808172
:104520008F77808319BCA7EDB0E08C918E7F8C9340
:1045300080818F7E80831092660408950F931F936D
:10454000CF93DF930E94F5220E94FD22C8EDD0E0B8
:1045500088818F77888388818068888388818F7D30
:104560008883E7EDF0E080818068808319BC109239
:10457000670410926304109265041092640400EEC4
:1045800010E0F80180818B7F80838881816088833F
:1045900042E060E080E00E94FD21E1EEF0E08081F9
:1045A0008E7F8083E2EEF0E0808181608083808175
:1045B00088608083F80180818E7F8083888180611C
:1045C0008883DF91CF911F910F910895E8EDF0E07E
:1045D00080818F7E8083E7EDF0E080818160808341
:1045E00081E0809366040C949E22E8EDF0E08081E7
:1045F0008C7F80831092E20008951092DA0010926E
:10460000E10008951F920F920FB60F9211240BB67E
:104610000F922F933F934F935F936F937F938F935B
:104620009F93AF93BF93EF93FF938091E10082FF3D
:104630000BC08091E20082FF07C08091E1008B7F78
:104640008093E1000E9480258091DA0080FF1FC0E6
:104650008091D80080FF1BC08091DA008E7F80930C
:10466000DA008091D90080FF0DC084E189BD86E128
:1046700089BD09B400FEFDCF81E0809367040E94EC
:10468000641F05C019BC109267040E94721F8091BC
:10469000E10080FF19C08091E20080FF15C0809189
:1046A000E2008E7F8093E2008091E200806180933F
:1046B000E2008091D80080628093D80019BC85E028
:1046C000809367040E94761F8091E10084FF30C0D0
:1046D0008091E20084FF2CC084E189BD86E189BD20
:1046E00009B400FEFDCF8091D8008F7D8093D80063
:1046F0008091E1008F7E8093E1008091E2008F7EC7
:104700008093E2008091E20081608093E2008091DA
:104710006304882311F084E007C08091E30087FDE3
:1047200002C081E001C083E0809367040E94771F8C
:104730008091E10083FF29C08091E20083FF25C0C2
:104740008091E100877F8093E10082E0809367049D
:10475000109263048091E1008E7F8093E10080914C
:10476000E2008E7F8093E2008091E200806180937E
:10477000E20042E060E080E00E94FD218091F000D4
:1047800088608093F0000E94751FFF91EF91BF91A8
:10479000AF919F918F917F916F915F914F913F91D9
:1047A0002F910F900BBE0F900FBE0F901F9018957A
:1047B0001F920F920FB60F9211240BB60F922F93E8
:1047C0003F934F935F936F937F938F939F93AF9399
:1047D000BF93CF93DF93EF93FF93C091E900CF7026
:1047E0008091EC00D82FD17080FDD0E81092E900C4
:1047F0008091F000877F8093F00078940E942024BD
:104800001092E9008091F00088608093F000CD2B39
:10481000CF70C093E900FF91EF91DF91CF91BF91ED
:10482000AF919F918F917F916F915F914F913F9148
:104830002F910F900BBE0F900FBE0F901F901895E9
:104840001F93CF93DF93CDB7DEB7AA970FB6F89437
:10485000DEBF0FBECDBFE8E6F4E08091F1008193AA
:1048600024E0E037F207C9F70E94821F8091E80038
:1048700083FF2EC18091680490916904492F50E014
:104880004A30510508F024C1FA01E659FF4F0C9453
:10489000B025803821F0823809F01AC108C0809113
:1048A000640490916504992389F082600FC080911F
:1048B0006C048F70873008F00BC18093E900809101
:1048C000EB0085FB882780F91092E9009091E800C1
:1048D000977F9093E8008093F1001092F100D1C08F
:1048E000282F2D7F09F0F4C0882319F0823061F061
:1048F000EFC080916A04813009F0EAC0933009F07A
:1049000080E0809365042EC080916A0481112AC0E2
:1049100080916C048F702FEF280F263008F0D8C0DC
:104920008093E9002091EB0020FF1CC0933021F41C
:104930008091EB00806214C09091EB0090619093A5
:10494000EB0021E030E0A90102C0440F551F8A9519
:10495000E2F74093EA001092EA008091EB00886051
:104960008093EB001092E9008091E800877F8093AC
:10497000E8000E943222ACC08111AAC010916A04E2
:104980001F778091E3008078812B8093E3008091F2
:10499000E800877F8093E8000E9432228091E8003F
:1049A00080FFFCCF8091E30080688093E3001111C9
:1049B00002C082E001C083E08093670489C0805810
:1049C000823008F085C080916A0490916B048C3D20
:1049D00053E0950779F583E08A838AE289834FB7AC
:1049E000F894DE01139620E03EE051E2E32FF0E080
:1049F00050935700E49120FF03C0E295EF703F5FB2
:104A0000EF708E2F90E0EA3010F0C79601C0C0968C
:104A10008D939D932F5F243149F74FBF8091E8001C
:104A2000877F8093E8006AE270E0CE0101960E94E1
:104A3000422116C060916C0470916D04AE014F5F0D
:104A40005F4F0E948620BC01892B09F441C09091E0
:104A5000E800977F9093E80089819A810E949E21C7
:104A60008091E8008B778093E80032C0803881F530
:104A70008091E800877F8093E800809163048093B1
:104A8000F1008091E8008E7772CF811121C0809172
:104A90006A0490916B0499270297D4F48091E800FE
:104AA000877F8093E80080916A04809363040E946A
:104AB000322280916304811106C08091E30087FD5A
:104AC00002C081E001C084E0809367040E94781FE7
:104AD0008091E80083FF0AC08091E800877F80937F
:104AE000E8008091EB0080628093EB00AA960FB6FD
:104AF000F894DEBF0FBECDBFDF91CF911F91089517
:104B00000895CF93809167048823A1F0C091E900B4
:104B1000CF709091EC00892F817090FD80E8C82BB8
:104B20001092E9008091E80083FD0E942024CF705C
:104B3000C093E900CF91089597FB072E16F40094D7
:104B400007D077FD09D00E94B92507FC05D03EF4B7
:104B5000909581959F4F0895709561957F4F089529
:104B6000EE0FFF1F0024001C0BBE0790F691E02DF6
:104B70000994AA1BBB1B51E107C0AA1FBB1FA617A4
:104B8000B70710F0A61BB70B881F991F5A95A9F7F6
:104B900080959095BC01CD010895F999FECF92BD05
:104BA00081BDF89A992780B50895A8E1B0E042E068
:104BB00050E00C940126262FF999FECF92BD81BDBD
:104BC000F89A019700B4021639F01FBA20BD0FB64B
:104BD000F894FA9AF99A0FBE08950396272F0E9427
:104BE000DC250E94DB25252F0E94DC25242F0C9438
:104BF000DC250196272F0E94DC250C94DB25DC01A7
:104C0000CB01FC01F999FECF06C0F2BDE1BDF89AD7
:104C1000319600B40D9241505040B8F70895F89481
:024C2000FFCFC4
:104C2200FF00000000000000000000000000000083
:104C32000000000000000000000000000000000072
:104C42000000000000000000000000000000000062
:104C520001FFFFFFFFFFFFFFFFFFFFFFFFFFFFFF60
:104C6200FFFFFFFF00FFFFFFFFFFFFFFFFFFFFFF51
:104C7200FFFFFFFFFFFFFFFFFFFFFFFFFFFFFFFF42
:104C8200FFFFFFFFFFFFFFFF0F0F0FFFFFFFFFFF02
:104C9200FFFFFFFF0F0F0FFFFFFFFFFFFFFFFFFFF2
:104CA2000F0F0FFFFFFFFFFFFFFFFFFF0FFFFFFFD2
:104CB200FFFFFFFFFFFFFFFFFFFFFFFFFFFFFFFF02
:104CC200FFFFFF0F0F0F0FFFFFFFFFFFFFFFFFFFB2
:104CD200FFFFFFFFFFFFFFFFFFFFFFFFFFFFFFFFE2
:104CE200FFFFFF0FFFFFFFFFFFFFFFFF0FFF0F0F92
:104CF2000FFF0FFFFFFFFFFFFFFFFFFFFFFFFFFFA2
:104D0200FFFFFFFFFFFF0FFFFFFFFFFFFF0F0F0F71
:104D12000FFFFF0FFFFFFFFF0F0F0F0F0FFF0F0F11
:104D22000FFFFFFF0F0F0F0FFFFFFFFFFFFFFFFF41
:104D3200FFFFFFFFFFFFFFFFFFFFFFFFFFFFFFFF81
:104D4200FFEE00000000E8000000002808641E14C6
:104D52000A321E010604C61E231F041F001FFC1E6A
:104D620001E200E900EA00B500B600B700CD008319
:104D720001CC008A0192019401210223022402251E
:104D820002260227022A02B300B4006F00700081DB
:104D92008283939291903736353433323130949501
:104DA2009697E200E900EA00B500B600B700CD0030
:104DB2008301CC008A019201940121022302240280
:104DC2002502260227022A02B300B4006F007000F7
:044DD2008182830057
:00000001FF
