:100000000C94F8020C943C030C9457030C943C039E
:100010000C943C030C943C030C943C030C943C0364
:100020000C943C030C94B31D0C9443220C943C039D
:100030000C943C030C943C030C943C030C943C0344
:100040000C943C030C943C030C943C030C943C0334
:100050000C943C03B906B906EB06EB0638076C08AE
:100060006C086C085607EB07FC07FC075C086C087B
:100070006C086508080908091A091A0911091A09FA
:100080001A091A090809080916091A091A09160984
:100090001E1D201D251D281D2B1D2E1D311D2B0055
:1000A00014001A000800150017001C0018000C00AE
:1000B000120013002A00290004001600070009009E
:1000C0000A000B000D000E000F0033002800E100B5
:1000D0001D001B000600190005001100100036006D
:1000E000370038003462E0000358E300E2000158B2
:1000F0002C422C0041595000510052004F00350055
:100100003A003B003C003D003E0001002400250079
:1001100026000100010001003F00400041004200B4
:1001200043002E022100220023002D0001000100C7
:100130004400450046004700480025021E001F00FD
:10014000200038002E0001000100010001000153D1
:100150000100010027002700370036002900350282
:100160001E021F0220022102220223022402250273
:10017000260227024C00010049004A004B00010002
:1001800001005000510052004F002D0201000100FB
:100190004C004D004E00010001002F0230022F00E4
:1001A00030003100310201000100010001000100B6
:1001B0000100010002534A004E004B004D000100B7
:1001C0000100ED00F9000100010001000100010043
:1001D0000100010001000100EF00EE00F00001004D
:1001E0000100010001000100010001000100010007
:1001F00001000100FA0001000100010001000100FE
:100200000100010001000100035301000100F100A1
:10021000F2000100F300AB00AA00A900AE0001004B
:1002200001000100010001000100010001000100C6
:10023000060019001B00010001000100010001007F
:1002400001000100010001000100010001000100A6
:100250000100010001000100010001000100010096
:100260000100010001000100010001000100010086
:100270000100010001000100010001000100000473
:100280007F3F1F643214643214783C1E1E140A052A
:100290002223252628292A2C2D2F30323335363893
:1002A0003A3B3D3E4042434547494A4C4E505153EC
:1002B0005557595A5C5E6062646668696B6D6F7110
:1002C000737577797B7D7F81838587898A8C8E9012
:1002D000929496989A9C9E9FA1A3A5A7A8AAACAE1B
:1002E000AFB1B3B4B6B8B9BBBCBEBFC1C2C3C5C65B
:1002F000C7C9CACBCCCDCED0D1D2D2D3D4D5D6D704
:10030000D7D8D9D9DADADBDBDBDCDCDCDCDCDDDD41
:10031000DDDDDCDCDCDCDCDBDBDBDADAD9D9D8D731
:10032000D7D6D5D4D3D2D2D1D0CECDCCCBCAC9C7D3
:10033000C6C5C3C2C1BFBEBCBBB9B8B6B4B3B1AF0A
:10034000AEACAAA8A7A5A3A19F9E9C9A98969492AA
:10035000908E8C8A89878583817F7D7B7977757381
:10036000716F6D6B6968666462605E5C5A5957555F
:100370005351504E4C4A4947454342403E3D3B3A1B
:100380003836353332302F2D2C2A292826252322A2
:10039000FFAA7F55400000000000000000000000A0
:1003A00001010203040506080A0C0F1114181C2091
:1003B00024292E33393F464C535B626A7179818A16
:1003C000929AA2AAB2B9C1C8CFD5DCE1E7EBF0F4AA
:1003D000F7FAFCFDFEFFFEFDFCFAF7F4F0EBE7E1B7
:1003E000DCD5CFC8C1B9B2AAA29A928A8179716AC2
:1003F000625B534C463F39332E2924201C181411BC
:100400000F0C0A08060504030201010000000000A9
:1004100000000000000001010101010101010102D1
:1004200002020202020202020303030303030303A4
:10043000040404040404040505050505060606066F
:1004400006070707070708080808090909090A0A2B
:100450000A0B0B0B0C0C0C0D0D0D0E0E0E0F0F0FCF
:10046000101011111112121313141415151616175A
:1004700017181819191A1A1B1B1C1D1D1E1E1F20C8
:1004800020212222232424252626272829292A2B15
:100490002C2D2D2E2F30313232333435363738393A
:1004A0003A3B3C3D3E3F4041424344454647484934
:1004B0004A4C4D4E4F50515354555658595A5B5D06
:1004C0005E5F616264656668696B6C6D6F707273A4
:1004D0007577787A7B7D7E8082838587888A8C8E0B
:1004E0008F91939596989A9C9EA0A2A3A5A7A9AB3D
:1004F000ADAFB1B3B5B7BABCBEC0C2C4C6C9CBCD2F
:10050000CFD1D4D6D8DBDDDFE2E4E7E9EBEEF0F3E0
:10051000F5F8FAFDFF09023B00020100A0320904D0
:100520000000010301010009210101000122400036
:100530000705810308000109040100010300000010
:10054000092101010001223200070583030800018F
:100550001201100100000008504B4000000201028F
:1005600000010A034A004A003400300000000A0378
:10057000720077006B0062000000040309040501AB
:100580000980A101850319012AB700150126B700CA
:10059000950175108100C0050C0901A101850419A0
:1005A000012AA002150126A002950175108100C044
:1005B00005010906A101050719E029E71500250134
:1005C00095087501810295017508810305071900D9
:1005D00029FF150026FF00950675088100050819FA
:1005E000012905950575019102950175039103C0D7
:1005F00011241FBECFE5D8E0DEBFCDBF04B603FE99
:1006000024C08091CA029091CB02A091CC02B091FB
:10061000CD028730904BA740B04BB9F41092CA027C
:100620001092CB021092CC021092CD0214BE84B76D
:10063000877F84BF0FB6F894A89581B5886181BD86
:1006400011BC0FBEE0E0F8E3099511E0A0E6B0E0D0
:10065000E6E3FDE402C005900D92AA31B107D9F797
:1006600022E0AAE1B1E001C01D92AA3CB207E1F785
:100670000E94EC140C9499260C940000A82FB92F1A
:1006800080E090E041E050EA609530E009C02D91B3
:1006900082279795879510F084279527305EC8F3B9
:1006A0006F5FA8F30895EADF8D939D930895CF932C
:1006B000CFB7CF93C395839BE9F7839B0EC0839BF2
:1006C0000CC0839B0AC0839B08C0839B06C0C0915B
:1006D000A102C395C093A102A6C0DF93C091A0025E
:1006E000DD27C855DD4F839B02C0DF91E6CF2F93F6
:1006F0000F931F9300B32FEF03FB20F94F933F930A
:1007000010B34FEF012703FB21F93BE031C04E7FCF
:10071000012F10B3216028C0102F4D7F22600000F0
:1007200000B329C04B7F2460012F000010B32BC001
:1007300010B3477F28602AC04F7E00B320612CC0D1
:100740004F7D10B320622FC04F7B00B3206432C0B6
:10075000422700B349934FEF0000102713FB20F905
:1007600010B31C70C9F1297F91F2012703FB21F915
:1007700000B3237F89F2315058F1102713FB22F97F
:1007800010B3277E79F2012703FB23F92F7C81F236
:1007900000B3102713FB24F92F7971F200C010B3B6
:1007A000012703FB25F92F7359F200C000B310276E
:1007B00013FB26F9223040F200C010B3012703FBDF
:1007C00027F9243028F64F77206810B30000F9CFBE
:1007D00010E81ABF00271CC03B503195C31BD04006
:1007E00010E81ABF0881033C11F10B3401F120918C
:1007F0009D021981110F1213EDCF4A81441F093652
:1008000069F10D3211F0013E29F74F7009F0042F04
:100810000093A6023F914F911F910F912F91DF916D
:10082000CAB7C7FD47CFCF91CFBFCF9118952091C1
:10083000A602222379F31091A402112309F044C0E7
:1008400034300AF443C03093A40220939F021091E5
:10085000A0023BE0311B3093A00238C00091A402FB
:10086000013094F50AE54F7049F43091810034FD70
:100870002FC000938100CAE7D2E02EC0433059F068
:10088000443091F03091850234FD22C000938502FE
:10089000C6E8D2E021C03091BE0234FD19C00093F9
:1008A000BE02CFEBD2E018C03091910234FD10C0EF
:1008B00000939102C2E9D2E00FC02795A8F45150ED
:1008C000A9F4220F0000F9CF4AE503C042ED01C0B0
:1008D000432FC4E1D0E032E011B31C60939A11BB06
:1008E00002B320E41CE05F93012756E002BB27958A
:1008F00020F4515021F4220FF9CF012756E00000D7
:100900003B5A02BBD0F2279528F4515029F4220F0C
:100910000000F9CF012756E0279502BB20F4515083
:1009200021F4220FF9CF012756E02991332302BB8E
:1009300021F6037F1091A502110FC651D04002BBD2
:1009400011F010939D0210E81ABF086011B3137FD5
:10095000402F437F5F9100C000C002BB11BB42BB70
:1009600059CF81E0089581E008950C94B30408956F
:100970000C94B7041F93CF93DF9300D000D01F9245
:10098000CDB7DEB749835A836B8330911C018981CF
:100990009A81311114C0662359F0222349F00E9434
:1009A000AC0A182F682F89819A810E94550A03C0CA
:1009B0000E94800A182F69817A81812F04C00E94C9
:1009C000AC0A69817A810F900F900F900F900F9071
:1009D000DF91CF911F910C944711FC01262F40818C
:1009E00051816281738184810C94BA0481E00895FD
:1009F000CF93DF93EC0160E00E94ED04BE01DF9134
:100A0000CF910C94B8040E9456130E9484050E9452
:100A10001E1E0C9493130C948F1308950E94F608D5
:100A20000E940D052FEB87E299E021508040904015
:100A3000E1F700C000000C9469220F931F93CF933D
:100A4000DF938C0161E00E94ED04EC01B8010E948B
:100A5000B504882309F44BC0B801CE010E940F1DD4
:100A6000882309F444C0B801CE010E94C11E882326
:100A7000F1F1B801CE010E94131F8823C1F1B80122
:100A8000CE010E943E20882391F1B801CE010E9440
:100A9000291B882361F1F8018281882309F1CB3574
:100AA0008DE5D807C1F050F4C115FCE5DF0781F0F2
:100AB000CF3DDC45A9F40E94411019C0CC35EDE5CD
:100AC000DE0761F0CD35DD4559F40E94CB0E08C03C
:100AD0000E940E050CC00E94D40E02C00E94D70EC8
:100AE000C801DF91CF911F910F910C94B10480E068
:100AF000DF91CF911F910F91089508950C947D057A
:100B000081E008950C9480050895CF93C82F0E942A
:100B10007E058C2F0E948205CF910895CF93DF939D
:100B2000CDB7DEB72B970FB6F894DEBF0FBECDBFA3
:100B30004F83588769877A878B8761110E94FA0EE5
:100B40009E012F5F3F4F86E0F90111928A95E9F7E8
:100B500085E0FE013796D90101900D928A95E1F763
:100B600089819A814C815D81452B31F09F3F31F421
:100B700091E08F3F19F403C091E001C090E090FF35
:100B800009C049815A816B817C818D819E810E943F
:100B9000FA0D05C0C9010E94F6048111F2CF2B960F
:100BA0000FB6F894DEBF0FBECDBFDF91CF91089591
:100BB000FC01808191810E94EE0A0895CF938823E1
:100BC00009F448C0C82F8CEF8C0F813AD0F46C2FF9
:100BD00080916000909161000E949C21882349F0DF
:100BE0006C2F80916000909161000E94D4210E943E
:100BF0002C0F6C2F80916000909161000E94D22197
:100C00000CC080E28C0F883058F4C77081E001C0BE
:100C1000880FCA95EAF70E94DD0ECF910C942C0F35
:100C2000EBE5EC0FE33040F4F0E0E055FF4F80815E
:100C300090E0CF910C946421C85AC73158F4EC2F3E
:100C4000F0E0EE0FFF1FEE57FF4F80819181CF91B3
:100C50000C947A21CF910895882349F1682F8CEF65
:100C6000860F813A38F480916000909161000E9473
:100C7000D4210CC080E2860F883050F4677081E088
:100C800001C0880F6A95EAF70E94E30E0C942C0FBE
:100C90008BE5860F833020F480E090E00C94642193
:100CA000685A673120F480E090E00C947A2108952E
:100CB0001F93CF93DF93182FEB010E94DE0520973F
:100CC00041F087EB9BE00197F1F700C0000021970E
:100CD000F6CF812FDF91CF911F910C942C06893391
:100CE00019F060E070E002C060E570E00C94580616
:100CF000882321F00E94DD0E0C942C0F0895882388
:100D000021F00E94E30E0C942C0F0895CF92DF92F5
:100D1000EF92FF920F931F93CF93DF937C01062FE7
:100D2000C72FFC01D281158112951F700E94B20E4F
:100D3000882399F0DD2389F08C2F807F803421F087
:100D400080E2800F883048F082E00E947C0F0E9491
:100D5000B20E91E0D82ED92601C0D12CCC2EC2944F
:100D60008FE0C8228C2D90E0FC01E65DFF4F0C94D3
:100D7000E8258C2F807FCF70882311F0C295C07F2B
:100D8000DD2399F0CC2309F482C180E2800F883002
:100D900010F0011104C08C2F0E94DD0E03C08C2FB7
:100DA0000E94ED0E0E942C0F72C1802F0E942C0613
:100DB000CC2309F491C180E2800F883010F001113A
:100DC00004C08C2F0E94E30E03C08C2F0E94F30EF0
:100DD0000E942C0F81C18C2F807FCF70803211F048
:100DE000C295C07F002319F00130C9F022C0DD2375
:100DF00071F0112341F0113031F40E940D0F8C2B52
:100E00000E94150F69C10E940D0F8C2B1DC011236C
:100E100019F0113009F460C10E94220F25C0DD23B2
:100E200021F0133008F058C10EC0123008F054C140
:100E30001BC0DD2361F0112331F0F701858180FFB4
:100E400026C18F7085838C2F0E94780645C111239F
:100E500059F0093309F02CC1FFEF2DEE82E0F1507B
:100E600020408040E1F722C18C2F0E947F0634C1D0
:100E70008C2F86958695837019F0813061F02CC196
:100E8000DD2321F0802F9C2F937002C080E090E042
:100E90000E94642129C1DD2321F0802F9C2F9370B3
:100EA00002C080E090E00E947A211EC18C2F8370E6
:100EB00009F045C0D11114C1402F429546954770A5
:100EC000440F440F602F6F70862F90E0A0E0B0E0D9
:100ED000042E04C0880F991FAA1FBB1F0A94D2F7C3
:100EE00004FF10C00FE010E020E030E004C0000F6D
:100EF000111F221F331F4A95D2F700951095209598
:100F0000309503C000E010E09801C695C695C37007
:100F1000BC01CD01602B712B822B932BC23049F089
:100F200058F4C13019F00E946B09DAC00E945909C7
:100F3000D7C00E947D09D4C00E945709D1C0DD23CB
:100F400019F08C2F817001C08695882309F4C8C0E0
:100F5000402F429546954770440F440F602F6F70A5
:100F6000862F90E0A0E0B0E0042E04C0880F991F07
:100F7000AA1FBB1F0A94D2F704FF10C00FE010E0B5
:100F800020E030E004C0000F111F221F331F4A95DC
:100F9000D2F7009510952095309503C000E010E041
:100FA0009801C695C695C370BC01CD01602B712B0D
:100FB000822B932BC23049F058F4C13019F00E94B3
:100FC000300A8EC00E941E0A8BC00E94420A88C04E
:100FD0000E94910985C0CF70DD2339F08C2F0E94CB
:100FE000B709802F0E9478067BC0802F0E947F0661
:100FF0008C2F0E94D80974C0023F01F128F4003FF1
:1010000041F0013FA1F03FC0033FF9F0043F39F147
:101010003AC0DD2341F0123008F05EC08C2F8F7192
:101020000E94FD0959C0133008F056C0F7CFDD23E8
:1010300039F08C2F8F710E94B7094EC0DD23C9F3A0
:101040008C2F8F710E94D80947C0DD2329F08C2F87
:101050008F710E94A20940C00E949D093DC0DD23FE
:1010600049F0CF718C2F0E94B70963E08C2F0E944A
:10107000610F32C081E00E947C0F123068F182E083
:101080000E947C0F29C0DD2331F0112391F2802FC3
:101090000E94DE0521C0112399F2093349F49FEF24
:1010A000EDEEF2E09150E040F040E1F700C00000CA
:1010B000802F0E942C0610C04C2F4F70602FC7014C
:1010C0000E9443110E941C0B0FC04C2F4F70602FC9
:1010D000C7010E94461108C088EF8C0D843020F4AF
:1010E0000E944D210E948505DD20C9F00E94AE0EB0
:1010F00080FD15C0F70112820E94A80E0E94B70958
:10110000C7010E94B0080E94A80EDF91CF911F91E5
:101110000F91FF90EF90DF90CF900C94D809DF9162
:10112000CF911F910F91FF90EF90DF90CF90089596
:101130000F931F93CF93DF93EC01688179818A81AC
:101140000E94F90A8C010E94540A0E944509B801C4
:10115000CE010E948606DF91CF911F910F910895D5
:10116000CF93DF93EC01988189812B813C81232BE4
:1011700031F08F3F31F481E09F3F19F403C081E0EB
:1011800001C080E080FD19C0CE010E941D058111C3
:101190000CC00E94B20E882381F08A81882369F0F6
:1011A00082E0DF91CF910C947C0FCE010E949808D1
:1011B000CE01DF91CF910C94F804DF91CF91089587
:1011C00080E090E00E94642180E090E00E947A211B
:1011D0000E94FA0E0E940A0F0C942C0F809160005E
:1011E000909161000E94D6210C94E0080E94EA0EC2
:1011F0000C94EE08E92FE295EF704E2F50E0FA01C3
:101200003297EE30F105B0F4E65CFF4F0C94E82520
:10121000803F91F018F4883E68F40EC0843F51F48A
:101220000BC0883E48F0813F29F406C093FB882715
:1012300080F9089580E0089581E00895FC0180819F
:1012400091810E94EE0A0E94FA080895CF93DF93DD
:1012500000D000D01F92CDB7DEB70F900F900F9047
:101260000F900F90DF91CF910895CF93DF9300D02F
:1012700000D000D0CDB7DEB726960FB6F894DEBF0B
:101280000FBECDBFDF91CF910895089508950C94BE
:1012900046090C9447090E94490960933F017093E5
:1012A000400180934101909342010C94E0080C941A
:1012B0004B090F931F9300913F0110914001209122
:1012C000410130914201602B712B822B932B1F9196
:1012D0000F910C944B090F931F9300913F011091B4
:1012E000400120914101309142016023712382230A
:1012F00093231F910F910C944B090F931F9300910F
:101300003F0110914001209141013091420160273D
:101310007127822793271F910F910C944B090C94EE
:1013200046090E948F0960933B0170933C018093B2
:101330003D0190933E010C94E00860E070E0CB0129
:101340000C9491090F931F9341E050E060E070E02E
:101350008A019B0104C0000F111F221F331F8A95B1
:10136000D2F7C901B8011F910F910C9491090F9305
:101370001F9341E050E060E070E004C0440F551F4F
:10138000661F771F8A95D2F780913B0190913C01AF
:10139000A0913D01B0913E018A019B01082B192BC0
:1013A0002A2B3B2BC901B8011F910F910C94910975
:1013B0000F931F9341E050E060E070E004C0440FE1
:1013C000551F661F771F8A95D2F7409550956095F7
:1013D000709580913B0190913C01A0913D01B091AD
:1013E0003E018A019B01082319232A233B23C901BB
:1013F000B8011F910F910C9491090F931F9341E035
:1014000050E060E070E004C0440F551F661F771F76
:101410008A95D2F780913B0190913C01A0913D01CA
:10142000B0913E018A019B01082719272A273B27F3
:10143000C901B8011F910F910C9491090F931F934B
:1014400000913B0110913C0120913D0130913E0102
:10145000602B712B822B932B1F910F910C94910970
:101460000F931F9300913B0110913C0120913D018E
:1014700030913E0160237123822393231F910F91AA
:101480000C9491090F931F9300913B0110913C0123
:1014900020913D0130913E016027712782279327DB
:1014A0001F910F910C94910908952CE0929F800D4B
:1014B0001124E82FE695E695E695877051E001C086
:1014C000550F8A95EAF785E0E89FF0011124E35E65
:1014D000FE4F20E030E070E04081CB01022E02C0E0
:1014E000969587950A94E2F78170819584278523E4
:1014F000842781932F5F3F4F2530310569F7089589
:101500002CE0929F800D1124682F66956695669554
:10151000982F977085E0689FB001112440E050E05B
:1015200080E0FB01E40FF51FE35EFE4F208130E019
:10153000092E02C0369527950A94E2F721703327C9
:10154000042E01C0220F0A94EAF7822B4F5F5F4FEF
:101550004530510531F70895BF92CF92DF92EF9257
:10156000FF920F931F93CF93DF938C01C0903B01A9
:10157000D0903C01E0903D01F0903E0180913F0110
:1015800090914001A0914101B0914201C82AD92A0D
:10159000EA2AFB2ACFE1D0E0D701C6010C2E04C015
:1015A000B695A795979587950A94D2F780FD04C0C4
:1015B000219790F7B12C07C0BC2EB8018C2F0E9448
:1015C00077120197A9F38B2DDF91CF911F910F9186
:1015D000FF90EF90DF90CF90BF900895CF93DF936F
:1015E000EC010E94AC0ABE010E947712DF91CF91FC
:1015F00008951F93CF93DF93EB0190911C019923E2
:1016000021F0CB010E94EE0A13C0882349F0CB01E0
:101610000E94AC0A182F682FCE010E94550A04C000
:10162000CB010E94800A182FBE01812F0E947712E1
:10163000DF91CF911F910895EF92FF920F931F9327
:10164000CF93DF938C01892B09F46CC0F12CEE242D
:10165000E394E8012196F8018491843740F48430C2
:1016600008F051C0813081F0823019F15BC08537BC
:1016700009F444C0A8F19CE7980F903708F052C0D5
:101680008F770E942C0641C00E5F1F4FFE01849190
:1016900090E2980F983050F48770FE2D01C0FF0F34
:1016A0008A95EAF78F2F0E94FD0E14C00E94DE0576
:1016B0002DC00E5F1F4FFE01849190E2980F98306D
:1016C00060F48770FE2D01C0FF0F8A95EAF78F2F17
:1016D0000E94030F0E942C0F19C00E942C0616C0F6
:1016E0000E5F1F4FFE01C491CC2381F087EB9BE07E
:1016F0000197F1F700C00000C150F6CF0E5F1F4FF9
:10170000FE01F49003C00E94DE058E018F2D882318
:1017100009F49FCFE7EBFBE03197F1F700C0000041
:101720008150F5CFDF91CF911F910F91FF90EF90F6
:1017300008951F93CF93DF93C091430116E08091EA
:101740004401C81799F0D0E01C9FF0011D9FF00DD7
:101750001124EB5BFE4F4081518162817381848152
:1017600095810E9435092196C770E9CFDF91CF910D
:101770001F91089540917501509176016091770114
:10178000709178018091790190917A010C943509DA
:101790000F931F93CF93DF9380917A0182958F707F
:1017A00009F05DC080917701882309F458C08091C9
:1017B0004301109144016091750170917601C091CF
:1017C0007801D091790191E06F3F09F090E0292FE5
:1017D00006E0811709F443C0209721F07F3F21F0F4
:1017E00030E003C031E001C0322F90E030FD34C062
:1017F000089FF001099FF00D1124DF01AB5BBE4F84
:1018000011963C911197371327C03C91361324C091
:1018100012963C91129731111FC013964D915C9115
:1018200014974C1B5D0B483C5105B0F480917A0134
:101830008F70806180937A01E65BFE4F80818F70AC
:101840008061808385E791E00E94B008DF91CF91AD
:101850001F910F910C94990B01968770BACFDF916D
:10186000CF911F910F9108959F92AF92BF92CF9207
:10187000DF92EF92FF920F931F93CF93DF93CDB739
:10188000DEB761970FB6F894DEBF0FBECDBF8C01F7
:1018900085E0F801DE011D9601900D928A95E1F731
:1018A000F801E280909175016091760120917801B4
:1018B000309179012115310531F06F3F31F481E02C
:1018C0009F3F19F403C081E001C080E0F82FF17060
:1018D0009F2E80FD3FC1F80140815181A380B480DB
:1018E00085E7C82E81E0D82EF0907701F501E21B44
:1018F000F30BFF2009F4D9C080917A01E83CF1058F
:1019000008F095C0282F207F09F052C0561313C04D
:10191000491311C0FE2CE1100EC08F7080618093BE
:101920007A010E94BA0BC6010E94B00880917A0128
:10193000F80185834CC1AB2831F05F3F31F481E081
:101940004F3F19F403C081E001C080E080FD03C077
:1019500081E08E2502C080E090E0F82FF170FF2E2C
:1019600080FF1CC0809143012091440136E0821722
:1019700009F40BC190E0389FF001399FF00D11245C
:10198000EB5BFE4F6181561306C06081461303C0B6
:101990006281E61203C001968770E9CFFE2CEE202B
:1019A00009F415C180917A01816080937A0154C055
:1019B000561306C0491304C0E11002C0F80199C0D3
:1019C000C8010E941E09882361F1EE2051F1209187
:1019D0007A01822F82958F7090E0029774F0809147
:1019E00075019091760198878F831986BB86AA86A8
:1019F0002C87CE0107960E94B00886E0F801A5E783
:101A0000B1E001900D928A95E1F70E94C80B0E9407
:101A1000BA0B0AC0561711F1C8010E941E098111A4
:101A20002CC0C8010E94B008FF24F394D0C0282F16
:101A3000207F81F77A2DB98AA88A6E2D89890E9424
:101A4000260985E791E00E94B00886E0F601119230
:101A50008A95E9F70E94BA0BF12CB9C04913DCCF83
:101A6000E110DACFF8018583C8010E94B00886E052
:101A7000F60111928A95E9F7AAC0EE2091F2209121
:101A80007A01822F82958F7090E002970CF4B5CF87
:101A900080917501909176019A8389831B82BD8222
:101AA000AC822E83CE010196A6CFE83CF10508F06A
:101AB00044C0FE2CEE2009F4B4CF561330C04913B5
:101AC0002EC020917A0120FD21C0822F82958F7037
:101AD000482F50E041155105C9F0F80125834F30DA
:101AE000510541F08F5F982F9295907F822F8F70D4
:101AF000892B8583C8010E94B00886E0F801A5E71C
:101B0000B1E001900D928A95E1F73CC086E0F801C2
:101B1000A5E7B1E001900D928A95E1F758C0C801A0
:101B20000E941E09811169CF80917A0181608093A2
:101B30007A01C8010E94B0084AC07A2DB98AA88AE1
:101B40006E2D89890E94260986E0F60111928A95F8
:101B5000E9F718C0EE2009F464CFC8010E941E09FD
:101B6000F82E882309F45DCF86E0F801A5E7B1E0FF
:101B700001900D928A95E1F785E791E00E94D805E2
:101B80000E94C80B0E94BA0B22C04D875E878D85CC
:101B90009E850E94EE0A292F22952F70223028F46C
:101BA0009F7039F0811105C00BC0243028F49F705C
:101BB00049F4805E883020F0C8010E94B0089F2C54
:101BC000F92C05C0F8019581907F99F7F9CF8F2DF9
:101BD00061960FB6F894DEBF0FBECDBFDF91CF91F7
:101BE0001F910F91FF90EF90DF90CF90BF90AF903B
:101BF0009F9008951F93CF93DF93CDB7DEB72C97B7
:101C00000FB6F894DEBF0FBECDBF4F8358876987EC
:101C10007A878B879C87CE0107960E94340C882395
:101C2000D1F09F8188852A853B85232B31F08F3F1A
:101C300031F481E09F3F19F403C081E001C080E0EE
:101C400080FD47C04F81588569857A858B859C8545
:101C50000E9435093EC086E0FE013796DE011196EE
:101C600001900D928A95E1F7FF81E8856A857B8571
:101C70006115710531F0EF3F31F481E0FF3F19F458
:101C800003C081E001C080E080FD23C020914401B9
:101C900030E0C9010196877099274091430150E0D7
:101CA00084179507F1F1F983EA837D836C8396E0CD
:101CB000929FD001939FB00D1124AB5BBE4FFE01EC
:101CC000319601900D929A95E1F7809344010E941C
:101CD000990B16E08091430190914401891771F1AD
:101CE000189FC00111248B5B9E4F0E94340C8823E7
:101CF00029F1E09143011E9FF0011124EB5BFE4F9F
:101D00004081518162817381848195810E9435096E
:101D10008091430190E00196877099278093430159
:101D2000D9CF0E94F6081092440110924301E5E7D2
:101D3000F1E086E0DF011D928A95E9F72C960FB657
:101D4000F894DEBF0FBECDBFDF91CF911F910895F4
:101D500080917B01859585958595089580917B017E
:101D60008770089590917B01977081E009F480E07D
:101D700008959091500292FB222720F9281751F0E4
:101D800080FB92F99093500280914F029091500203
:101D90000C94BD0F08958091500282FB882780F932
:101DA00091E089270C94B90E81E00C94B90E80E083
:101DB0000C94B90E80918701089590918701892B29
:101DC000809387010895809590918701892380935E
:101DD0008701089510928701089590918601892BBB
:101DE0008093860108958095909186018923809340
:101DF0008601089510928601089590918501892B9E
:101E00008093850108958095909185018923809321
:101E10008501089510928501089580917C010895AF
:101E200008950C94100F0C94110F9091500292FD94
:101E300008C090917C01981721F080937C010C944C
:101E4000130F089580917C01882329F010927C0162
:101E500080E00C94130F0895E0916000F091610010
:101E6000809187018083E0916000F0916100908112
:101E700080918601892B8083E0916000F091610060
:101E8000908180918501892B808380917C018823BA
:101E900081F0E0916000F09161009081892B808356
:101EA00080916000909161000E94902181110E94B8
:101EB000220F80916000909161000C9459210C9444
:101EC000100F9091500292FD10C098E0899F9001F0
:101ED0001124262B20937B010E94B70980917B015E
:101EE0008595859585950C945F0F0C94B709109294
:101EF0007B0180E00C945F0F20917B018095822311
:101F000080937B01982F977041F430E0482F082E82
:101F1000000C550B2417350721F49091500292FFC5
:101F200007C08595859585950E94D8090C94770FF3
:101F3000089580E090E00E94532621E0893E9E4F64
:101F400009F020E0822F089582E090E00C9445266D
:101F500083E090E00C944526CF9384E090E00E94CB
:101F60004526C82F82E290E00E9445262C2F30E0C3
:101F7000A901582BCA01CF910895CF93C92F682F7B
:101F800084E090E00E9459266C2F82E290E0CF918D
:101F90000C945926AB01BC018FE090E00C946A26AA
:101FA000AB01BC0183E190E00C946A2660E070E034
:101FB000CB010C94D00F60E070E0CB010E94CA0FFF
:101FC0000C94D60F69EE7EEF80E090E00E947626BA
:101FD00060E082E090E00E94592660E083E090E0BB
:101FE0000E94592610923F01109240011092410127
:101FF0001092420160E084E090E00E94592660E087
:1020000082E290E00E94592660E085E090E00E9424
:10201000592660E086E090E00E9459266FEF87E045
:1020200090E00E94592640E050E0BA0188E090E03C
:102030000E946A2660E08DE090E00E94592640E010
:1020400050E0BA0188E190E00E946A2660E087E1F2
:1020500090E00E94592640E050E0BA018CE190E007
:102060000E946A2660E070E080E290E00E9476269E
:1020700040E050E0BA0188E190E00E946A260C94AA
:10208000DB0F0C94E20F682F8EE090E00C94592641
:102090000E94282260939501709396018093970186
:1020A00090939801609391017093920180939301B2
:1020B00090939401089584B7806884BF84B7806842
:1020C00084BF089581E008950C94621008950C94E3
:1020D00066100C9466100C9469100C9466100C94A5
:1020E0006D100C9466100E945B1083E593E10E94D2
:1020F00082220E9471100C946F100E9467100C9441
:1021000066100E9415220E9444140E94331C0E94F3
:10211000481A0C946B106F927F928F929F92AF929D
:10212000BF92CF92DF92EF92FF920F931F93CF93C4
:10213000DF93CDB7DEB72A970FB6F894DEBF0FBE98
:10214000CDBF0E94661481110E94481039E8832E89
:1021500031E0932E00E010E0C02E802F0E947A1311
:102160005C01F401619071904F0168267926611439
:102170007104B1F40F5F1F4F0430110569F78FEF41
:1021800089838A831B820E941C228160782F9D8311
:102190008C8349815A816B818D810E948E053AC062
:1021A0008091990181FD0E948313D12CEE24E39448
:1021B000F12CC3018E219F21892B29F10E946410EB
:1021C0008823A9F0DE82CF82AE20BF2081E0AB2839
:1021D00009F480E088870E941C228160782F9A870A
:1021E00089874E815F8168858A850E948E05000FF0
:1021F000111FF801E757FE4F80819181E826F926EB
:10220000F182E08207C0D394EE0CFF1CFCE0DF12E9
:10221000D0CFB0CF0E947B1A0E94A11D0E944D21F9
:10222000909188018917D1F00E944D2180938801F7
:102230002A960FB6F894DEBF0FBECDBFDF91CF91C7
:102240001F910F91FF90EF90DF90CF90BF90AF90D4
:102250009F908F907F906F900C9485052A960FB673
:10226000F894DEBF0FBECDBFDF91CF911F910F91CC
:10227000FF90EF90DF90CF90BF90AF909F908F90A6
:102280007F906F90089580E090E00895089520E396
:10229000829FC0011124FC012CE0729FE00DF11D12
:1022A0001124E60FF11DEE0FFF1FE256FF4F85913F
:1022B00094910895880F991FFC01E258FD4F859174
:1022C00094910895CF93DF930E947C12EC018115C5
:1022D00020E5920708F041C0811540E4940708F01A
:1022E000CBC0803E910520F5803C910508F0B8C038
:1022F000883A910570F4853A910508F0A8C08130BC
:10230000910509F4A1C008F4EBC0049708F0EBC0F4
:10231000E7C08F3B910508F0E3C0885AC82FD0E092
:10232000CC0FDD1FCD54DF4F888199819464DCC0D0
:10233000811550E2950750F4C11581E0D80708F0E7
:10234000D2C0C83ED10508F4CEC0CAC0811520E372
:10235000920708F08AC09F7085C0811545E59407F3
:1023600008F046C0811554E5950708F09DC0C115D9
:1023700082E5D80718F5C11521E5D20708F07FC01E
:10238000CE01F4E096958795FA95E1F7282F237012
:102390003C2F337081E090E002C0880F991F3A957E
:1023A000E2F79C68922B2C2F2F702695269540E201
:1023B000249F90011124822B932B96C09E012370A1
:1023C00033279C2F96959695C115D34508F05CC090
:1023D00041E050E002C0440F551F2A95E2F780E229
:1023E000989F90011124CA01822B932B9C687CC07A
:1023F000811559E5950798F4C11588E5D80708F0C7
:1024000058C0C11526E5D20708F06AC08C2F0E947B
:1024100010138F7190E0982F8827906265C0811506
:102420004AE5940708F44AC090568115904208F096
:1024300057C08D2F8F710E9410139E013327306279
:102440008F71A901582B4AC081E090E04DC0855A98
:10245000C82FD0E0CF51DF4F888190E0906444C016
:10246000805C91090E945A113FC09927D3FF02C096
:10247000986C3AC0906C38C09F70906A35C09C2FA1
:102480008827816F906A30C041E050E002C0440F5D
:10249000551F2A95E2F780E2989F90011124CA0106
:1024A000822B932B9A6820C0982F8827846F906A7C
:1024B0001BC09C2F8827806F906A16C08F700E9467
:1024C00010139E0194E0369527959A95E1F72F70A9
:1024D00030E0322F22273069A901482BCA0104C0FD
:1024E00080E090E001C0CE01DF91CF9108950E947D
:1024F00047110E94621108958238910569F1B0F484
:102500008133910509F46DC048F48932910509F4CD
:1025100063C08A32910509F469C008958533910535
:1025200009F455C089339105B9F00895833E9105AA
:1025300069F138F4803E9105B1F0823E910509F1D0
:102540000895863E9105A9F1873E9105B9F1843E33
:10255000910509F064C023C020914F0220FD4FC0B7
:1025600021FD4DC0089580914F0280FD44C08091AF
:10257000500280FF44C080914F0284FD42C083EE30
:102580004DC080914F0282FF38C0F5CF80914F023D
:1025900082FD33C08091500280FD31C0ECCF80912C
:1025A000500281FF32C080914F0284FD2AC087EE25
:1025B00035C080914F0283FF26C0F5CF80914F0236
:1025C00083FD21C08091500281FD1FC0ECCF80911E
:1025D0004F0285FD1CC01DC080914F0285FD19C0B2
:1025E00016C080914F0286FD16C017C080914F0221
:1025F00086FD13C010C089E311C082EE0FC080EECB
:102600000DC080E00BC086EE09C084EE07C089E2F1
:1026100005C085E303C08AE201C081E390E008952C
:1026200090914F0292FF0DC0282F2871283019F485
:10263000877F846006C0282F2471243011F48B7F9B
:10264000886093FF0DC0282F2871283119F4877EE8
:10265000846106C0282F2471243111F48B7E886197
:102660002091500220FF0DC0382F3871383019F4F6
:10267000877F816006C0382F3171313011F48E7F31
:10268000886021FF0DC0282F2871283119F4877E1A
:10269000816106C0282F2171213111F48E7E88615D
:1026A00094FD877E089580E0089508950E94990F13
:1026B000811102C00E9441100E94A40F80939901D1
:1026C0000E94AC0F9093500280934F020E945513CA
:1026D0000E94A80F682F70E080E090E00E945709E8
:1026E00060913B0170913C0180913D0190913E01D0
:1026F0000C948F09E82FF0E0EE0FFF1FE75AFD4F13
:10270000808191810895089588E78A95F1F7089569
:1027100000C008950C94841308950C948C130C94A9
:102720008D130C948C130C949113F894E82FE2956C
:10273000EF70F0E031A9282F2F7081E090E001C008
:10274000880F2A95EAF7982F9095932391AB92A939
:10275000892B82AB789408950F931F93CF93DF93C7
:10276000C0EFD0E089918F3F11F00E94951380E077
:10277000C43FD807B9F7C4EED0E000EF10E089916C
:102780008F3F11F00E9495130C171D07C1F7DF91C1
:10279000CF911F910F910895AF92BF92CF92DF9288
:1027A000EF92FF920F931F93CF93DF938C01C62F6D
:1027B000D0E0CE0180519F4F6C01DC019C919F3F86
:1027C00009F457C0B62EF894E92FE295EF70F0E0C7
:1027D00081A99F7021E030E001C0220F9A95EAF7AD
:1027E000822B81AB82A92095282322AB78940E946A
:1027F0008813E4EEF0E020E030E0E12CF12C41E041
:1028000050E081918F3FC1F0A82FA295AF70B0E04A
:10281000D0966C9170E08F70DB0102C0B595A795E2
:102820008A95E2F7A0FD08C0CA01022E02C0880FF7
:10283000991F0A94E2F702C080E090E0E82AF92AA2
:102840002F5F3F4F2C303105E1F6F60180818F3F3D
:1028500011F00E94951361E0E114F10409F460E0C5
:102860008B2D0E948A13CC0FDD1FC00FD11FF98260
:10287000E882DF91CF911F910F91FF90EF90DF9051
:10288000CF90BF90AF9008950E94AC13A1E5B2E045
:1028900011961C921E92E9E5F2E0118210821396C5
:1028A0001C921E9212971382128215961C921E92EF
:1028B00014971582148217961C921E9216971782EF
:1028C000168284E00E94B1140C940305FF920F93CA
:1028D0001F93CF93DF93CDB7DEB728970FB6F89449
:1028E000DEBF0FBECDBF8E010F5F1F4F88E0F80126
:1028F00011928A95E9F7F12C6F2DC8010E94CC1333
:10290000F394F4E0FF12F8CF48E050E0B80181E51D
:1029100092E00E943826FF24F394009709F4F12CEA
:10292000892B41F088E0F801A1E5B2E001900D9219
:102930008A95E1F72F2D44E069E572E081E592E0A8
:102940000E94B2140E940B058F2D28960FB6F894A2
:10295000DEBF0FBECDBFDF91CF911F910F91FF90D2
:1029600008950895FF920F931F93CF93DF93F82E4E
:10297000092F162FD72FC42F222349F081E08093EF
:102980009C010E941C2290939B0180939A0180914C
:102990009C018823D9F080919A0190919B010E941B
:1029A0003422059798F0EF2DF02FA12FBD2F80E056
:1029B00090E04C2F50E08417950734F42191319129
:1029C0002D933D930196F7CF10929C01DF91CF910B
:1029D0001F910F91FF9008950E94DD210E94872290
:1029E0000E948F220E94AF220E947D10FBCFEF92A7
:1029F000FF920F931F93CF93DF938B01682F1111D9
:102A00000AC0442329F0E82FF0E0EB5EFB4F64910D
:102A1000762F862F75C0212F30E0E82FF0E0442379
:102A200021F0EB5EFB4FE491F0E046E0049FC00133
:102A30001124CFEFD0E0BE010E949E254BEA460351
:102A4000C001479F900D1124800F911D800F911D93
:102A5000982F990F890FAE01421B530B4E9FD00147
:102A60004F9FB00D5E9FB00D11249B2F189FA001AA
:102A70001124452F55278E01041B150B0E9FA00115
:102A80000F9F500D1E9F500D11247E01E81AF10872
:102A9000E29E8001E39E100DF29E100D1124212F65
:102AA0003327C21BD30BCE9F9001CF9F300DDE9FEB
:102AB000300D112462307105A9F048F461157105DB
:102AC00069F061307105C9F48B2F752F0DC064302A
:102AD000710581F058F06630710579F47E2F8B2FE7
:102AE000932F0DC0832F7B2F9E2F09C08E2F7B2FFE
:102AF000952F05C08E2F732F02C07E2F852F692F33
:102B0000DF91CF911F910F91FF90EF90089541E0D9
:102B10000E94F714089508950E9487150895CF9391
:102B2000DF93762FE901682F842F0E948C1579831B
:102B300068838A83DF91CF91089580916102282F65
:102B4000269530E02115310519F48170826005C0A9
:102B50002532310524F081708864809361020895E4
:102B600088E090E00C944D26CF92DF92EF92FF9296
:102B70006B017C010E949D15B701A60188E090E0E1
:102B8000FF90EF90DF90CF900C946A26E1E6F2E0A0
:102B900083E0808311828FEF82838383148260813C
:102BA0007181828193810C94B4158091610280FFC0
:102BB00002C08695089580E0089590916502933053
:102BC00018F49F5F90936502882351F06091610231
:102BD0007091620280916302909164020C94B4152A
:102BE000089581E00C94DD1590916502992319F008
:102BF000915090936502882351F060916102709129
:102C0000620280916302909164020C94B41508955D
:102C100081E00C94F41570E00C94301E6091660015
:102C20008091610280FF0AC08091650023E0829F4D
:102C3000C00111248A599D4F0C940B168091670096
:102C400090916800891780F7E82FF0E09F01220F2C
:102C5000331FE20FF31FEA59FD4F118210821282D7
:102C60008F5FF0CF9091610290FF16C09091670046
:102C700020916800921770F4E92FF0E0DF01AA0FAD
:102C8000BB1FEA0FFB1FEA59FD4F8183608342831C
:102C90009F5FF0CF0C940E160895CF93DF9300D072
:102CA0001F92CDB7DEB79091610290FF0AC09E01DE
:102CB0002F5F3F4F0E948F154B8169818A810E944F
:102CC00032160F900F900F90DF91CF910895CF9310
:102CD000DF93EC01EC81F0E0E057FD4F4491E1E639
:102CE000F2E0628181810E944D168C818F5F8C831E
:102CF000DF91CF910895CF93DF93EC01E1E6F2E00D
:102D0000438162818C810E944D168C818F5F8C8300
:102D1000DF91CF9108950F931F93CF93DF9300D04E
:102D20001F92CDB7DEB78C0180919D0181110AC041
:102D30009E012F5F3F4F4FEF6FEF0E948F158A81EB
:102D400080939D01F8018481813051F028F0823018
:102D500061F440919D010AC080919D0140E007C04F
:102D600060919D0140E080E003C040E080E060E0D1
:102D70000E943216F801848190E0019663E070E0D1
:102D80000E94B22584830F900F900F90DF91CF9116
:102D90001F910F910895AF92BF92CF92DF92EF9261
:102DA000FF920F931F93CF93DF9300D01F92CDB765
:102DB000DEB7182FF62E042FE22E9091610290FFBD
:102DC0006DC0E92FE695AE2FB0E0AC50BF4F8C91AF
:102DD0008093A7019E7F923061F49E012F5F3F4F49
:102DE000812F0E948F154B8169818A810E94321642
:102DF00043C0823019F4009164023EC0863019F459
:102E00001091620239C08930D9F38931A9F5E951AD
:102E10008E2F8170D82EE695F0E0E057FC4FA590FC
:102E2000B490C12CBB2460916900C61618F52C2DF6
:102E300030E0A29EC001A39E900DB29E900D112481
:102E400070E00E949E25812FD11002C0860F01C024
:102E5000861B90916700290F311DA901440F551F52
:102E6000240F351F2A593D4F402F6F2D0E948F157B
:102E7000C394D9CF0E940E1610936202F09263029F
:102E800000936402EE2051F0609161027091620241
:102E900080916302909164020E94B4150F900F908C
:102EA0000F90DF91CF911F910F91FF90EF90DF90E6
:102EB000CF90BF90AF900895E1E6F2E09181282F86
:102EC0004381628188E0890F0C94CB1681E00C94D9
:102ED0005C17E1E6F2E09181282F4381628188EF5F
:102EE000890F0C94CB1681E00C946917E1E6F2E0AF
:102EF000628121E1620F08F46FEF282F4381818105
:102F00000C94CB1681E00C947617E1E6F2E0628136
:102F100021E1621B08F460E0282F438181810C9439
:102F2000CB1681E00C948517E1E6F2E0438121E1C4
:102F3000420F08F44FEF282F628181810C94CB1649
:102F400081E00C949417E1E6F2E0438121E1421B19
:102F500008F440E0282F628181810C94CB1681E037
:102F60000C94A31720E00C94CB16FF920F931F93A1
:102F7000CF93DF93EC01F12C0FEF10E0609169002B
:102F8000F616F0F4809167002F2D30E0280F311DE8
:102F9000C901880F991F280F391F2A593D4F70E02A
:102FA000C8010E94B225962F8C81409164026091E5
:102FB0006302F99E800D11240E948F15F394DECFD9
:102FC0000E940E169A818C8190FF02C08F5F01C013
:102FD00081508C83DF91CF911F910F91FF900895C5
:102FE000AF92BF92CF92DF92EF92FF920F931F9317
:102FF000CF93DF93FC01828180FF02C00FEF01C0FD
:1030000001E010E045E0A42E80916900181708F057
:1030100043C080916700C12ED12CE601C80FD11D9D
:10302000CE01880F991FC80FD91FCA59DD4F1982C9
:1030300018821A8234E0E32EF12CB12C80919F018A
:103040008B0D86302CF06A2D0E949025892F05C0AB
:1030500087FF03C090916900890F082E000C990B1F
:10306000C816D90691F4809164028E9DA0018F9DAF
:10307000500D112455954795559547959E016091A2
:103080006302809162020E948F15B00EF1E0EF1A88
:10309000F108A1F61F5FB8CF0E940E1680919F0124
:1030A000013031F4811102C080916900815007C064
:1030B00090E001966091690070E00E94B2258093D3
:1030C0009F01DF91CF911F910F91FF90EF90DF90C3
:1030D000CF90BF90AF900895CF938091670090916B
:1030E0006800891770F4E82FF0E09F01220F331F6A
:1030F000E20FF31FEA59FD4F1182108212828F5F97
:10310000F0CFC0E060916900C617C0F5EC2FF0E089
:1031100070E0CF010E94B22520916700820F2091BC
:103120009E01022E000C330B90E0E217F307CCF067
:1031300020916400022E000C330B2E173F078CF0F9
:103140009C01220F331F820F931F9C012A593D4F70
:103150004091640260916302809162020E948F1527
:103160000BC0FC01EE0FFF1F8E0F9F1FFC01EA59E1
:10317000FD4F118210821282CF5FC4CF0E940E16C3
:103180002091630080919E01820F80939E01909117
:103190006400920F9093640019165CF4082E000CE2
:1031A000990B4091690050E04150510984179507EF
:1031B0001CF0219520936300CF9108958F929F92E8
:1031C000AF92BF92CF92DF92EF92FF920F931F9335
:1031D000CF93DF938C01FC014481C42FD0E09E018A
:1031E000DE010E94F6259B01AC010E940C266B01BA
:1031F0007C01E0E2F0E0EC1BFD0BA5E5B0E09B01FB
:10320000AC010E940C264B015C019F01DF010E9472
:10321000EE259B01AC010E9417269B01AC012C0DF1
:103220003D1D4E1D5F1DC501B4010E94C625C22F64
:10323000D22F2A3228F4F3E02F9F900111240DC0E1
:1032400025E530E02C1B3109C901880F991F280F93
:10325000391F37FF02C02F5F3F4F35952795C22F8B
:10326000C095F12C85E5E82EED1A80916900F816DD
:10327000C8F4F1FC02C08E2D01C08D2F9091670023
:103280002F2D30E0290F311DA901440F551F240FA8
:10329000351F2A593D4F4C2F609163020E948F15B4
:1032A000F394E3CF0E940E16F8018481811102C0CD
:1032B00091E003C0803219F49FEF909362009091E7
:1032C0006200890FF8018483DF91CF911F910F91E4
:1032D000FF90EF90DF90CF90BF90AF909F908F9036
:1032E00008950F931F93CF93DF93EC0100E010E05C
:1032F00080916900282F30E00217130724F5909180
:1033000067009801290F311DA901440F551F240F93
:10331000351F2A593D4F869590E04C8108171907B3
:103320001CF4442331F002C0411103C040916402F7
:1033300001C040E060916302809162020E948F159B
:103340000F5F1F4FD5CF0E940E168C8190E0019623
:10335000817099278C83DF91CF911F910F910895F0
:10336000E1E6F2E080818E7F8083608171818281DD
:1033700093810E94B4151092A8012FEB84ED91E087
:10338000215080409040E1F700C000000C940E16E0
:1033900060916102669570E04BE050E08AE690E053
:1033A0000E942B26892B19F481E08093A8010E94AA
:1033B0001C229093A1018093A00108959091610235
:1033C00090FF35C09170811102C0926006C08532B5
:1033D00010F0986402C0880F982B909361026623C6
:1033E00051F060916102709162028091630290914C
:1033F00064020E94B41560916102669570E04BE032
:1034000050E08AE690E00E942B26892B19F010925A
:10341000A80102C00E94C81981E08093A3014091D5
:10342000640260916302809162020C94B217089565
:10343000682F90916102969581E0890F853208F09E
:1034400081E00C94DE1981E00C94181A682F909199
:10345000610296958FEF890F09F484E20C94DE19CE
:1034600081E00C94261A61E00C94DE19E1E6F2E0AA
:1034700080818160808386950C94331A80916102EB
:1034800080FD0C94B0190C94361A60E00C94DE198F
:103490008091A60181112EC00E94990F811104C054
:1034A0000E9441100E94C6150E94B01560936102EF
:1034B0007093620280936302909364026E7F61F462
:1034C0000E94C6150E94B01560936102709362025B
:1034D00080936302909364020E949D151092A8014C
:1034E0008091610280FF03C086950E94451A81E0A9
:1034F0008093A60108950F931F93CF93DF9380913C
:10350000A801882309F485C08091A701E091610298
:10351000E695E81BE093A201823049F4F0E0E4571D
:10352000FD4FE491CE2FD0E007E616E149C086308A
:1035300049F4F0E0E757FD4FE491CE2FD0E00BE7E0
:1035400016E13EC0893051F4E695F0E0EA57FD4FB0
:10355000E491CE2FD0E005EB17E132C08F3051F46B
:10356000E695F0E0ED57FD4FE491CE2FD0E000EF6F
:1035700017E126C0853149F4F0E0E058FD4FE491B1
:10358000CE2FD0E00CE618E11BC0883181F08332E9
:1035900039F4EEE7F2E0C591D4910BE816E110C0E2
:1035A000843251F4C4EFD1E001E719E109C0C8E267
:1035B000D0E00EED18E104C0C0EDD7E00BE815E156
:1035C0008091A301882361F01092A3010E941C2224
:1035D0009093A1018093A0011092A5011092A401E3
:1035E0000E941C22E091A001F091A1018E1B9F0B73
:1035F0008F3F9F4770F4EC0FFD1FF093A101E09304
:10360000A00180EA91E0F801DF91CF911F910F9125
:103610000994DF91CF911F910F910895882311F0A4
:10362000FA0101C0FB010994CF93DF93C82FD62F75
:103630000E94D5158C1740F00E94D5158D1720F4E7
:10364000DF91CF910C94231A8C2FDF91CF910C94A2
:10365000331A1F93CF93DF93FB011281112309F4D7
:10366000BCC0EC010E94DA0E8272CD3CFCE5DF07A3
:1036700009F497C008F043C0C73CECE5DE0709F445
:103680007CC0D8F4C43C9CE5D90709F46AC038F47E
:10369000C33CDC4509F0A4C00E943E1AA0C0C53C52
:1036A0009CE5D90709F462C0C63CDC4509F098C026
:1036B00043E757E166E677E15DC0CA3CFCE5DF071A
:1036C00009F465C070F4C83CECE5DE0709F45AC0A3
:1036D000C93CDC4509F084C042E857E161E977E183
:1036E00049C0CB3C9CE5D90709F456C0CC3CDC452D
:1036F00009F076C048E056E161EF75E13BC0C23D9C
:10370000FCE5DF0709F45AC098F4CF3C9CE5D907E3
:1037100009F44EC008F44AC0C03DFCE5DF0709F4D7
:103720004AC0C13DDC4509F05BC06EE089E04EC097
:10373000C53D9CE5D90709F447C050F4C33DFCE5FD
:10374000DF07F9F1C43DDC4509F04AC088E142C019
:10375000C63D9CE5D907E9F1CE35DD4509F43FC00A
:103760003FC040E35AE163E27AE104C043E25AE138
:1037700060E37AE10E940E1B32C046E657E163E740
:1037800077E1F8CF41E957E162E877E1F3CF4FEA1B
:1037900057E160EA77E1EECF40EA57E16FEA77E17F
:1037A000E9CF41EF55E168E076E1E4CF81E012C076
:1037B00065E082E00BC068E086E008C064E18FE06D
:1037C00005C067E185E102C062E289E10E94141B45
:1037D00006C083E20E94331A02C011E001C010E06B
:1037E000812FDF91CF911F91089586E090E00C9496
:1037F0004526682F86E090E00C945926809175024A
:1038000084708166809375020C94F91B8091750217
:1038100086958695869508958091750281FD07C0ED
:103820008260809375020E94F91B0C94A21D08957A
:103830008091750281FF07C08D7F809375020E9481
:10384000F91B0C94AC1D08958091750281FD0C94B8
:10385000181C0C940C1C809175028695817008953B
:103860008091750008950E94990F811104C00E94F3
:1038700041100E94FE1B0E94F51B80937502282FA9
:1038800026952695269530E02D30310524F0877059
:103890008066809375028091750280FF04C08695D2
:1038A0008695869501C080E00C94771D2091750265
:1038B000822F869586958695482F50E04C3051058D
:1038C00054F48F5F982F990F990F990F822F87705B
:1038D000892B8093750280917502816080937502B7
:1038E0000E94F91B809175028695869586950C94A9
:1038F000771D80917502982F969596959695A1F0D3
:10390000915E990F990F990F8770892B809375029B
:10391000887F91E009F490E08091750290FB80F936
:10392000809375020E94F91B809175028695869599
:1039300086950C94771D8091750280FD13C081607F
:1039400080937502813019F489E08093750280912B
:1039500075020E94F91B8091750286958695869561
:103960000C94771D08958091750280FF08C08E7FAA
:10397000809375020E94F91B80E00C94771D0895D6
:103980008091750280FD0C94B31C0C949B1C90914B
:103990007502892F8695869586958F5F8F719770B2
:1039A0008D3038F4880F880F880F892B809375022B
:1039B00002C09093750280917502887F91E009F4AE
:1039C00090E08091750290FB80F9809375020E94CF
:1039D000F91B809175028695869586950C94771DC6
:1039E0008D3008F08CE0909175029770282F220F8F
:1039F000220F220F922B90937502987F21E009F4F9
:103A000020E09091750220FB90F9909375020C9440
:103A1000771D0E94F01C809175020C94F91BFC012B
:103A2000DB0112968C918823F9F0EC5BFC45E730C2
:103A3000F105D8F4E85BFF4F0C94E8258CE001C059
:103A400080E00E94091D80E008950E94791CFBCF50
:103A50000E94561CF8CF0E94C01CF5CF0E94C71CC4
:103A6000F2CF0E94241CEFCF81E008958C9A9498A5
:103A7000089594980895CF92DF92EF92FF928C3739
:103A800024E1920728F469E070E00E949E2529C095
:103A9000A0E0B0E08A50974DAF4FBF4F6627782F18
:103AA000892F9A2F25EF38E241E050E00E94C62589
:103AB00069017A01CA01B9010E9480259B01AC010C
:103AC000C701B6010E948025BB27A92F982F872FF9
:103AD000009721E0A207B10511F0BC0102C06FEF11
:103AE0007FEFCB01FF90EF90DF90CF900895CF93C1
:103AF000C82F8D3040F4811107C08FB58F7D8FBDE9
:103B00000E94391D04C0CCE08FB580628FBD2C2F80
:103B100030E0AFEFBFEF0E94F6252CE030E040E050
:103B200050E00E94C625B42FA32F922F8827892FFB
:103B30009A2FAB2FBB270E943B1D99BD88BDCF910B
:103B4000089508951092AA011092A9011092AB0154
:103B500089B7846089BF089589B78B7F89BF0E9428
:103B6000061C0C94771D1F920F920FB60F92112412
:103B70002F933F934F935F936F937F938F939F9375
:103B8000AF93BF93CF93EF93FF930E94301C40916C
:103B9000A9015091AA014F5F5F4F94EF899F900157
:103BA0001124CA01B9010E949E259093AA01809315
:103BB000A901B901660F672F661F770B71950E94E7
:103BC0009E256F778091AB01823019F4603441F407
:103BD00004C0813029F46F3719F489B78B7F89BF0E
:103BE000E62FF0E0EB56FC4FC4910E94061C282FF4
:103BF00041E051E0C49FC001C59F900D11246CE0CD
:103C000070E00E949E25269FC001279F900D1124E1
:103C10000E943B1D99BD88BDFF91EF91CF91BF914F
:103C2000AF919F918F917F916F915F914F913F9154
:103C30002F910F900FBE0F901F9018950E94361D68
:103C400082E28FBD89E18EBD8FEF9FEF97BD86BD6C
:103C50000E94331C0E942B1C81110C94A21D0895FC
:103C60000F931F93CF93DF938C01EB018091AC01F5
:103C7000811105C00E946F2081E08093AC01AE01EC
:103C8000440F551F4C0F5D1F24E630E0B80180EB58
:103C9000DF91CF911F910F910C9422210F931F93CD
:103CA000CF93DF93C42FD22FFC0182818823C9F0E8
:103CB0004093AF010E941C229093AE018093AD010E
:103CC00080E28C0F883008F057C0C77081E001C0D7
:103CD000880FCA95EAF7DF91CF911F910F910C944D
:103CE00078068091AF01481330C08091AD0190916A
:103CF000AE010E943422883C910538F510E21D0F78
:103D0000CD17B9F080E28C0F883040F4C77081E0A5
:103D100001C0880FCA95EAF70E947F06183028F57F
:103D200081E09D2F977001C0880F9A95EAF70E9455
:103D30007806802F0E946F061830F0F4D77081E06B
:103D400001C0880FDA95EAF70AC080E28C0F88304C
:103D500098F4C77081E001C0880FCA95EAF7DF9137
:103D6000CF911F910F910C947F06802FDF91CF91FF
:103D70001F910F910C946F06DF91CF911F910F91BE
:103D800008950F939C01CB01243F4CE5340731F19A
:103D900088F4293DFCE53F07D9F02A3D4CE534077E
:103DA00079F1283D3C45A9F506E221EE41EE68EDAA
:103DB0007CE52BC0263FFCE53F07E1F0A8F0273F5C
:103DC0003C4539F507E225EE46EE67EF7CE51DC080
:103DD00007E225EE45EE69ED7CE517C006E221EE2F
:103DE00040EE64EF7CE511C007E225EE44EE65EF9E
:103DF0007CE50BC006E221EE42EE66EF7CE505C0F5
:103E000008E221E045EE6AED7CE50E944E1E80E06E
:103E100008C0FC018281882319F01092AF0101C013
:103E200081E00F910895CF93DF93EC01FB01828134
:103E3000882309F41FC1C230FCE5DF0708F41BC169
:103E4000C6319CE5D90738F09E012B5F3C452930EF
:103E5000310508F010C10E94AC0F9093500280937E
:103E60004F02C031ECE5DE0709F4C3C008F041C0E1
:103E7000C8308CE5D80709F49AC0F0F4C430ECE5FA
:103E8000DE0709F487C068F4C2308CE5D80709F46E
:103E900077C0C330DC4509F0E3C080914F028260F7
:103EA00076C0C630ECE5DE0709F46EC008F07BC0D2
:103EB00080914F0288606BC0CC308CE5D80709F444
:103EC00085C068F4CA30ECE5DE0709F474C008F078
:103ED00079C00E94F60880914F02806858C0CE30A9
:103EE0008CE5D80709F476C008F07FC080914F02B6
:103EF0008BC0CC3FECE5DE0709F44FC018F5C331A9
:103F00008CE5D80709F47DC078F4C131ECE5DE0713
:103F100009F473C0C231DC4509F0A2C00E94F60862
:103F200080914F028F7733C0C5318CE5D80709F4F3
:103F300072C008F486C0CB3FDC4509F091C0809187
:103F400050023EC0C115FDE5DF0709F45FC058F41B
:103F5000CE3F9CE5D90709F444C008F43FC08091E6
:103F6000500282602DC0C230FDE5DF0709F475C044
:103F700008F45DC0C330DD4509F072C080E06EC05A
:103F800080914F02816003C080914F0280618093D5
:103F90004F0266C080914F0211C080915002826032
:103FA000809350025DC080914F028062F0CF80917B
:103FB0004F028064ECCF80914F0288608460E7CF2D
:103FC0008160EECF80914F028E7FE1CF80914F02D2
:103FD0008D7FDDCF80914F02877FD9CF80915002B6
:103FE00018C0809150028D7FDBCF80914F028F7E71
:103FF000CECF80914F028F7DCACF80914F028F7BB1
:10400000C6CF80914F02877F8B7FC1CF80915002B6
:104010008D7F8E7FC5CF80914F0282FB222720F9B2
:1040200091E0922790FB82F990FB83F9B0CF8091C9
:104030005002982F909591708E7F892B90FB81F97B
:10404000AFCF0E94F60880914F0287FB222720F90C
:1040500091E0922790FB87F99ACF81E00E9443106C
:1040600080914F02909150020E94BD0F0E94F6086D
:1040700080E001C081E0DF91CF910895CF93DF937D
:1040800086319C4541F5EB010E94DA0E982F8A811A
:104090002091600030916100882379F09A7A81E064
:1040A00009F480E08093B001911102C069E201C07F
:1040B00065E3C9010E94D2210AC08091B00181113B
:1040C00002C069E201C065E3C9010E94D4210E94D7
:1040D0002C0F80E001C081E0DF91CF91089511B8ED
:1040E00087E080B985B3836085BB86B7846086BF6F
:1040F00086B7816086BF86B7806486BF08959F9229
:10410000AF92BF92CF92DF92EF92FF920F931F93E5
:10411000CF93DF93B82EEB010E941C226C01C431B7
:10412000D10558F0CF3F8FEFD80759F0CE0164E1A9
:1041300070E00E949E257B0107C0EE24E394F12CE1
:1041400003C025E0E22EF12C84E8A82E94EA992EF3
:1041500016BE96BE0E941C228C0106B607FC08C043
:104160000E941C22801B910B8E159F05B0F324C06A
:1041700081B1887F883039F081B1887F803119F032
:104180000FEF1FEF1BC0B3B8A6BE0E941C228C010C
:1041900006B607FC08C00E941C22801B910B8E15DE
:1041A0009F05B0F309C081B1887F883111F0803458
:1041B00039F700E010E00DC00EEF1FEFCF3F8FEF9B
:1041C000D80731F2C6010E9434228C179D0708F4EB
:1041D000BFCFC801DF91CF911F910F91FF90EF905A
:1041E000DF90CF90BF90AF909F9008950F931F9353
:1041F000CF93DF93EB0183B984E886BF0E941C2232
:104200008C0106B607FC0EC0CF3F8FEFD807C9F36D
:104210000E941C22801B910B8C179D0790F38EEF40
:104220009FEF0BC021B1287F81E090E0283211F48C
:1042300080E090E0919581959109DF91CF911F9158
:104240000F910895CF92DF92EF92FF920F931F93F9
:10425000CF93DF936B018A017901B9010E947F201E
:10426000E6010C0D1D1DC017D10759F424E926BF26
:10427000DF91CF911F910F91FF90EF90DF90CF9042
:10428000089597FDF3CFB70189910E94F620EBCFF7
:104290009093B6018093B5010895E091B501F09136
:1042A000B601309721F00190F081E02D099480E073
:1042B0000895E091B501F091B601309721F00280A8
:1042C000F381E02D099408952091B3013091B40158
:1042D0002817390771F09093B4018093B301E091EE
:1042E000B501F091B601309721F00680F781E02DFD
:1042F000099408952091B1013091B201281739072E
:1043000071F09093B2018093B101E091B501F09109
:10431000B601309721F00084F185E02D09940895CD
:10432000FC01329697E080E0915029F02191222300
:10433000D9F38F5FF9CF0895662349F0FC013296D7
:1043400008962191621729F0E817F907D1F780E064
:10435000089581E008959C01FC0132969FEF80E072
:104360004191461789F09F3F19F4411101C0982FE0
:104370008F5F8630A9F79F3F39F0F901E90FF11DF2
:1043800097FDFA956283089508959C012A5F3F4F37
:10439000FC014281461301C01282019682179307E5
:1043A000B9F708950C94AB210C94C521029626E030
:1043B000FC0111922A95E9F70895089508950C9447
:1043C000DE210C94DE21CF930E94E1210E9466142D
:1043D0000E94DF21C0E08C2F0E947A13892B29F4E0
:1043E000CF5FC430C1F780E001C081E0CF91089574
:1043F0000C94DE210C94F8218091B901882341F0BE
:104400000E94FA2180E00E94771D80E00C948505CF
:1044100008950C94DE210E94F6080E94331C0E942D
:104420004D210E9485050C9409228BE083BF8BEB04
:104430008CBF82E089BF08952FB7F89480917602EF
:1044400090917702A0917802B09179022FBF0895E0
:104450002FB7F8946091760270917702809178027C
:10446000909179022FBF08959C014FB7F8948091E5
:10447000760290917702A0917802B09179024FBFB5
:10448000821B930B089578941F920F920FB60F9290
:1044900011248F939F93AF93BF9380917602909155
:1044A0007702A0917802B09179020196A11DB11D09
:1044B0008093760290937702A0937802B09379026A
:1044C000BF91AF919F918F910F900FBE0F901F9052
:1044D000189560E081E090E00E947C2687E090EBF8
:1044E000DC018093CA029093CB02A093CC02B093DC
:1044F000CD029CE088E10FB6F894A89581BD0FBE6F
:1045000091BDFFCF90931B0180931A0108950E94E3
:104510001C229093B8018093B7010C9473100E94F1
:1045200065258B9A80E0815041F0A895E7EBFBE090
:104530003197F1F700C00000F6CF8B9878940E9475
:1045400081100E948D230E944821FFEB24ED81E021
:10455000F15020408040E1F700C0000008958091B4
:10456000A102882389F01092A1020E941C2290933C
:10457000B8018093B7018091B9018823D1F11092DD
:10458000B9010E940B2211C08091B901811111C0A3
:104590008091B7019091B8010E943422069728F0CB
:1045A00081E08093B9010E94FC218091B9018823A8
:1045B00001F10E94FC210E94E321882339F1F89443
:1045C00021B3939A822F8C6081BB92B38CE09827A1
:1045D00092BB3FE54AEE90E0315040409040E1F719
:1045E00000C0000092B3892782BB21BB93987894C6
:1045F00008950E946E248091A702882329F080915B
:10460000850284FD0E948B100C94342308958091C0
:104610004E0208959091BF01981307C02091BD01EB
:104620003091BE0126173707A9F08093BF01709320
:10463000BE016093BD018093BA017093BC01609389
:10464000BB018091BE0284FF05C063E08AEB91E06C
:104650000C946A240895BC0184E00C940A23BC01E4
:1046600083E00C940A230895CF93DF93CAE0D0E04F
:104670008091850284FF18C08091CB019091CC017C
:104680009817E1F028E0829FC001112468E083536D
:104690009E4F0E9466248091CB0190E001968F701E
:1046A00099278093CB010AC00E946E2487EB9BE080
:1046B0000197F1F700C000002197D1F6DF91CF916B
:1046C0000895CF93DF93EC01A091CC01B0E0CD0130
:1046D00001968F7099272091CB01281779F093E0EC
:1046E000AA0FBB1F9A95E1F7A353BE4F98E0FE01B6
:1046F00001900D929A95E1F78093CC010E946E246F
:104700000E94342388E0FE01A3ECB1E001900D92F9
:104710008A95E1F7DF91CF91089586E790E00895BB
:10472000FC01808180768032A1F58181813061F445
:1047300084819581892B69F583EC91E09093A302A4
:104740008093A20288E00895823041F48DE492E0E3
:104750009093A3028093A20281E008958A3021F40D
:10476000838180934D0215C0893099F482819381B1
:104770008115924081F484819581892B61F481E0D7
:104780008093C201868197819093C1018093C0017B
:1047900002C080E008958FEF08952091C00130910C
:1047A000C101232B71F02091C201213051F4FC0191
:1047B000808180934E021092C1011092C00181E06D
:1047C00008958FEF08950895FC0193819330D9F0F7
:1047D00068F4913081F0923009F054C085E195E0A1
:1047E0009093A3028093A2028BE30895913221F16A
:1047F000923291F147C080E595E09093A3028093B7
:10480000A20282E108958281813071F028F0823025
:10481000C9F582E695E00AC08AE795E09093A30285
:104820008093A20284E008958EE695E09093A3021F
:104830008093A2028AE008958281882329F0813042
:1048400009F580E495E002C087E295E09093A30229
:104850008093A20289E0089584819581009751F0A8
:10486000019781F48EE795E09093A3028093A202D2
:1048700082E3089580EB95E09093A3028093A202D7
:1048800080E4089580E008951F93CF93DF93162F5F
:10489000EA01288124FF05C0398128E823272983DC
:1048A00002C02AE52883212FFC01CE010296DC01FB
:1048B00031913D9321501216DCF3612F0E94530376
:1048C0001C5F1883DF91CF911F91089545E852E056
:1048D0000C9444244EEB52E00C944424CF93DF9389
:1048E0006091A402635067FD93C08091A002CCE068
:1048F000D0E0C81BD109C855DD4F80919F0280319F
:1049000020F4CE010E94E32381C08D3209F06EC0F5
:10491000683009F07BC083EC80937A028AE580934B
:10492000810010929E028881807621F0CE010E9443
:10493000902349C09A81109283028981811106C017
:104940001092840223E832E082E038C0853019F406
:104950009093A50230C08630A1F48B81813041F064
:10496000823031F0833021F0813211F0823221F433
:10497000CE010E94E42301C080E090E490939E0267
:1049800022C0883089F0893019F49093A70213C0AF
:104990008A3069F08B3079F48BE4809386028093BF
:1049A000BF028093920207C027EA32E002C023E8E8
:1049B00032E081E003C023E832E080E03093A302DC
:1049C0002093A20209C08F3F39F4988197FD8E8110
:1049D00090E890939E0207C09F81911104C09E8130
:1049E000981708F4892F8093800010C080919E0250
:1049F00087FF0CC0CE010E94CD238F3F21F48EE1B2
:104A00008093810003C08111109280001092A40253
:104A10008091810084FF4CC0809180008F3F09F419
:104A200047C0C82F893008F0C8E08C1B80938000F5
:104A300090917A0288E8892780937A02CC2359F1F1
:104A40008091A2029091A30220919E0226FF12C0A3
:104A5000AAE7B2E02C2FAC014A575240FA01EA0F04
:104A6000FB1FE4911196EC9311972150119621119F
:104A7000F5CF08C0EBE7F2E0DC012C2F3D9131933C
:104A80002150E1F701962FEF2C0F820F911D90938B
:104A9000A3028093A2026C2F8BE792E00E94530343
:104AA000CC5FCC3019F08FEF80938000C0938100F1
:104AB00084E190B39C7031F48150D9F71092A50233
:104AC00010929D02DF91CF910895CF93DF9385B728
:104AD000886085BF8BB780688BBFC5E8D2E08BE468
:104AE0008983AEEBB2E011968C931197E1E9F2E085
:104AF00081838AE588838C938083DF91CF910895A9
:104B0000DB018F939F930E940C26BF91AF91A29FD0
:104B1000800D911DA39F900DB29F900D11240895BB
:104B200087FB082E062687FD819567FD61950E940B
:104B30001F260EF4919507FC81950895AA1BBB1BB7
:104B400051E107C0AA1FBB1FA617B70710F0A61B8D
:104B5000B70B881F991F5A95A9F780959095BC01AE
:104B6000CD01089597FB072E16F4009407D077FD2A
:104B700009D00E949E2507FC05D03EF490958195B2
:104B80009F4F0895709561957F4F0895A1E21A2E69
:104B9000AA1BBB1BFD010DC0AA1FBB1FEE1FFF1FE1
:104BA000A217B307E407F50720F0A21BB30BE40B31
:104BB000F50B661F771F881F991F1A9469F7609578
:104BC0007095809590959B01AC01BD01CF01089532
:104BD000EE0FFF1F0590F491E02D09940E94F62539
:104BE000332312F48A1B9B0B0C940726A29FB0015F
:104BF000B39FC001A39F700D811D1124911DB29F11
:104C0000700D811D1124911D08950E94F625B7FF96
:104C10000895821B930B08950E94F625A59F900D81
:104C2000B49F900DA49F800D911D11240895B7FF8E
:104C30000C940C260E940C26821B930B0895991B42
:104C400079E004C0991F961708F0961B881F7A9583
:104C5000C9F780950895FC014150504030F0019013
:104C60000616D1F73197CF0108958827992708951F
:104C7000FB01DC0104C08D910190801921F44150A9
:104C80005040C8F7881B990B0895E199FECF9FBB50
:104C90008EBBE09A99278DB30895A6E1B0E044E079
:104CA00050E00C948B26A8E1B0E042E050E00C9478
:104CB0008B26262FE199FECF9FBB8EBBE09A0197F2
:104CC0000DB2021631F02DBB0FB6F894E29AE19ABC
:104CD0000FBE08950396272F0E945A260E94592638
:104CE000252F0E945A26242F0C945A260196272FEE
:104CF0000E945A260C945926262FE199FECF9FBB7D
:104D00008EBB2DBB0FB6F894E29AE19A0FBE0196C6
:104D10000895DC01CB01FC01E199FECF06C0FFBB89
:104D2000EEBBE09A31960DB20D9241505040B8F76B
:064D30000895F894FFCF86
:104D36007D01010102000500050501191A1B1C1D54
:104D46001E1F202122060723612333232F232B2313
:104D5600FF5AE200E900EA00B500B600B700CD0050
:104D66008301CC008A0192019401210223022402CC
:104D76002502260227022A02B300B4006F00700043
:104D8600818283E200E900EA00B500B600B700CDF3
:104D9600008301CC008A019201940121022302249E
:104DA600022502260227022A02B300B4006F007011
:104DB60000818283343536379495969793929190F5
:104DC600606163640001020202020606060909091F
:104DD6000909090F0F0F0F0F0F15151518191919B6
:0A4DE60019191919191919232400CD
:00000001FF
