:10000000B2C20000CDC20000E5C20000C9C20000BB
:10001000C7C20000C5C20000C3C20000C1C20000C8
:10002000BFC200000C94A21A0C94901EB9C200002A
:10003000B7C20000B5C20000B3C20000B1C20000E8
:10004000AFC20000ADC20000ABC20000A9C20000F8
:10005000A7C200002B0014001A00080015001700AA
:100060001C0018000C00120013002A0029000400D4
:100070001600070009000A000B000D000E000F001B
:1000800033002800E1001D001B00060019000500D8
:10009000110010003600370038003432E000C3523F
:1000A000E300E200C1522C002C00C252500051006B
:1000B00052004F0035003A003B003C003D003E003E
:1000C00001002400250026000100010001003F007E
:1000D000400041004200430057002100220023005D
:1000E0002D00010001004400450046004700480083
:1000F00055001E001F00200038002E0001000100E6
:1001000001000100615201000100270027003700B3
:100110003600290035021E021F022002210222029F
:10012000230224022502260227024C000100490076
:100130004A004B00010001001D011B0106011901CD
:100140002D02010001004C004D004E000100010095
:100150002F0230022F003000310031020100010077
:100160000100010001000100010062524A004E003E
:100170004B004D0000000000CD00D90000002078A9
:100180000000217823782578277829780000CF008F
:10019000CE00D000000000000000227824782678ED
:1001A00028782A78000000000000DA000000000033
:1001B00000000000BC00AE00AD00BB0000006352B8
:1001C0000000D300D100D20000000000AC00AA0063
:1001D000A900AB001E0F0500047F3F1F64321464AA
:1001E0003214783C1E1E140A052223252628292AAB
:1001F0002C2D2F3032333536383A3B3D3E4042438A
:100200004547494A4C4E5051535557595A5C5E60C8
:1002100062646668696B6D6F71737577797B7D7FDA
:1002200081838587898A8C8E90929496989A9C9ED9
:100230009FA1A3A5A7A8AAACAEAFB1B3B4B6B8B9F5
:10024000BBBCBEBFC1C2C3C5C6C7C9CACBCCCDCE5D
:10025000D0D1D2D2D3D4D5D6D7D7D8D9D9DADADB40
:10026000DBDBDCDCDCDCDCDDDDDDDDDCDCDCDCDCCC
:10027000DBDBDBDADAD9D9D8D7D7D6D5D4D3D2D20B
:10028000D1D0CECDCCCBCAC9C7C6C5C3C2C1BFBEF3
:10029000BCBBB9B8B6B4B3B1AFAEACAAA8A7A5A35E
:1002A000A19F9E9C9A98969492908E8C8A8987851D
:1002B00083817F7D7B79777573716F6D6B696866FC
:1002C0006462605E5C5A5957555351504E4C4A49CE
:1002D00047454342403E3D3B3A3836353332302F76
:1002E0002D2C2A292826252322FFAA7F55400000ED
:1002F00000000000000000000001010203040506E8
:10030000080A0C0F1114181C2024292E33393F46DB
:100310004C535B626A7179818A929AA2AAB2B9C17E
:10032000C8CFD5DCE1E7EBF0F4F7FAFCFDFEFFFE09
:10033000FDFCFAF7F4F0EBE7E1DCD5CFC8C1B9B2C8
:10034000AAA29A928A8179716A625B534C463F39BC
:10035000332E2924201C1814110F0C0A080605043A
:100360000302010100000000000000000000000185
:100370000101010101010101020202020202020265
:100380000203030303030303030404040404040437
:1003900005050505050606060606070707070708FB
:1003A000080808090909090A0A0A0B0B0B0C0C0CAE
:1003B0000D0D0D0E0E0E0F0F0F1010111111121248
:1003C00013131414151516161717181819191A1AC5
:1003D0001B1B1C1D1D1E1E1F202021222223242426
:1003E000252626272829292A2B2C2D2D2E2F303162
:1003F0003232333435363738393A3B3C3D3E3F4074
:100400004142434445464748494A4C4D4E4F50515E
:100410005354555658595A5B5D5E5F616264656618
:1004200068696B6C6D6F7072737577787A7B7D7E9F
:100430008082838587888A8C8E8F91939596989AEF
:100440009C9EA0A2A3A5A7A9ABADAFB1B3B5B7BA07
:10045000BCBEC0C2C4C6C9CBCDCFD1D4D6D8DBDDDB
:10046000DFE2E4E7E9EBEEF0F3F5F8FAFDFF09026D
:100470003B00020100A03209040000010301010059
:100480000921010100012244000705810308000140
:1004900009040100010300000009210101000122FB
:1004A0003400070583030800011201100100000059
:1004B00008504B400000020102000114034A004AA8
:1004C000003400300020007200650076003100002A
:1004D0000016034B0050007200650070007500624A
:1004E000006C0069006300000004030904050109B1
:1004F00080A10185031A81002A8F00168100268FB2
:1005000000950175108100C0050C0901A101850449
:1005100019012AA002150126A0029501751081007B
:10052000C005010906A101050719E029E715002505
:100530000195087501810295017508810305071968
:100540000029FF150026FF009506750881000508A3
:1005500019012905150025019505750191029501DF
:1005600075039103C00011241FBECFE5D8E0DEBFA4
:10057000CDBF11E0A0E6B0E0ECE8F8E402C00590E1
:100580000D92AA33B107D9F722E0AAE3B1E001C086
:100590001D92A938B207E1F70E949C120C94FD232A
:1005A0002FCDA82FB92F80E090E041E050EA609570
:1005B00030E009C02D9182279795879510F0842708
:1005C0009527305EC8F36F5FA8F30895EADF8D9337
:1005D0009D930895CF93CFB7CF93C395839BE9F7AE
:1005E000839B0EC0839B0CC0839B0AC0839B08C067
:1005F000839B06C0C0916002C395C0936002A6C0F1
:10060000DF93C0915F02DD27C959DD4F839B02C094
:10061000DF91E6CF2F930F931F9300B32FEF03FBD0
:1006200020F94F933F9310B34FEF012703FB21F9BC
:100630003BE031C04E7F012F10B3216028C0102F46
:100640004D7F2260000000B329C04B7F2460012F42
:10065000000010B32BC010B3477F28602AC04F7E24
:1006600000B320612CC04F7D10B320622FC04F7BA0
:1006700000B3206432C0422700B349934FEF00001B
:10068000102713FB20F910B31C70C9F1297F91F2D8
:10069000012703FB21F900B3237F89F2315058F180
:1006A000102713FB22F910B3277E79F2012703FBF1
:1006B00023F92F7C81F200B3102713FB24F92F7943
:1006C00071F200C010B3012703FB25F92F7359F213
:1006D00000C000B3102713FB26F9223040F200C0FF
:1006E00010B3012703FB27F9243028F64F77206841
:1006F00010B30000F9CF10E81ABF00271CC03B5010
:100700003195C31BD04010E81ABF0881033C11F19A
:100710000B3401F120915C021981110F1213EDCFFE
:100720004A81441F093669F10D3211F0013E29F763
:100730004F7009F0042F009365023F914F911F9174
:100740000F912F91DF91CAB7C7FD47CFCF91CFBF90
:10075000CF91189520916502222379F310916302BD
:10076000112309F044C034300AF443C030936302CB
:1007700020935E0210915F023BE0311B30935F02D9
:1007800038C000916302013094F50AE54F7049F4D6
:1007900030918A0034FD2FC000938A00C9E3D2E073
:1007A0002EC0433059F0443091F03091440234FD72
:1007B00022C000934402C5E4D2E021C030917D0202
:1007C00034FD19C000937D02CEE7D2E018C030910D
:1007D000500234FD10C000935002C1E5D2E00FC0BA
:1007E0002795A8F45150A9F4220F0000F9CF4AE54B
:1007F00003C042ED01C0432FC4E1D0E032E011B3A9
:100800001C60939A11BB02B320E41CE05F930127A4
:1008100056E002BB279520F4515021F4220FF9CF66
:10082000012756E000003B5A02BBD0F2279528F47E
:10083000515029F4220F0000F9CF012756E02795E7
:1008400002BB20F4515021F4220FF9CF012756E0CA
:100850002991332302BB21F6037F10916402110F0B
:10086000C651D04002BB11F010935C0210E81ABFD1
:10087000086011B3137F402F437F5F9100C000C019
:1008800002BB11BB42BB59CF982F962B9430B8F4C2
:100890004C30A8F450E09CE0699F400D511D11249C
:1008A00090E3899F400D511D1124FA01EE0FFF1FA7
:1008B000EC5AFF4F85919591282F822F089521E0C2
:1008C00090E0FBCFE1CF089581E0089581E00895A5
:1008D000FBCF089581E0089581E00895FDCF08954C
:1008E00008950895FDCF089508950895A6E0B0E015
:1008F000ECE7F4E00C94FA2249835A839E8330910A
:10090000410189819A81311117C03E81311589F0E9
:10091000211579F0FED4182F682F89819A81D8D4B7
:1009200069817A81812F0E94650F2696E3E00C94FD
:100930001623DFD4182FF4CFECD469817A81F3CF5A
:10094000FC01262F408151816281738184819581D0
:10095000CDCFCF93DF93EC0161E0F2DFBE01B6DFD4
:10096000811529F061E0CE01EBDFBE01B1DFDF913F
:10097000CF9108950F931F93CF93DF93EC0160E025
:10098000DFDF8C01BE01ADDFBE01C801ABDFDF914F
:10099000CF911F910F9108950F931F93CF93DF93E2
:1009A000EC0161E0CDDF8C018D8181110E94EA189C
:1009B000BE01C8018FDF811106C080E0DF91CF91B9
:1009C0001F910F910895BE01C80188DF8115A9F319
:1009D000BE01C8010E94F219811579F3BE01C80158
:1009E0000E94BB1C811549F3BE01C8010E94801BF7
:1009F000811519F3BE01C8010E94571B8115E9F248
:100A0000BE01C8010E94B3128115B9F2BE01C8012E
:100A10000E946810811589F2BE01C8010E947A10F7
:100A2000811559F2BE01C8010E949410C7CF21E080
:100A300030E002C0220F331F8A95E2F7C90183C359
:100A4000CF93C82F81E090E00C2E02C0880F991F31
:100A50000A94E2F70E946F0D8C2FE9DFCF91089581
:100A600081E0089581E00895FBCF0895CF93C82FCA
:100A700019D38C2FF7DF8C2FF7DFCF91089581E00A
:100A8000F5DF0C94B41E80E0F1DF0C94C11E2CDF66
:100A90000E94001E80E00E94D51919C00E942219F0
:100AA00018D023DF0C94041E81E008950895CF939D
:100AB000DF93D82FF9DFC82F811511F08D2FF6DFC6
:100AC0008C2FDF91CF9108950895F1CF089580E0A4
:100AD000FCCF0E94011DF9CFCF930E94011DC82FAA
:100AE00080913C018C1771F0C0933C010E94841EE0
:100AF00060933D0170933E0180933F0190934001CC
:100B00008C2FE3DFCF910895ADE0B0E0EAE8F5E0A7
:100B10000C94FB22488759876A877B878C879D873F
:100B2000911105D71F8286E0FE0138969E012F5F46
:100B30003F4FD90101900D928A95E1F78D81811186
:100B40000CC029813A814B815C816D817E818F81CE
:100B500039D62D96E2E00C941723CE010196F9DEEA
:100B60008111EFCFF6CFFC012481213019F480816F
:100B7000918102C40895CF93C82F811581F08450CC
:100B8000813A78F48C2F0E947B1D811521F08C2FE7
:100B90000E94BD1D21D78C2F0E94B71D1DD7CF915C
:100BA00008958C2F805E883048F481E0C1FD84E098
:100BB000C0FD880FC2FD82959BD6F0CF8C2F855A41
:100BC000833030F48C2F8452990B0E941D1DE7CF87
:100BD000C85ACB3120F7EC2FF0E0EE0FFF1FE5579E
:100BE000FF4F808191810E94421DD9CF811521F153
:100BF000982F9450913A18F40E94BD1DEDC6982F7D
:100C0000905E983050F4982F81E091FD84E090FD43
:100C1000880F92FD829572D6F1CF982F955A933016
:100C200020F480E090E00C941D1D885A8B3120F454
:100C300080E090E00C94421D08951F93CF93DF93C2
:100C4000182FEB0198DF209731F4812FCFDFDF9150
:100C5000CF911F91089587EB9BE00197F1F700C0BA
:100C600000002197F0CF60E570E0893311F060E07B
:100C700070E0E3CF811511F03BD6AEC60895811523
:100C800011F03CD6A9C60895A0E0B0E0EAE4F6E091
:100C90000C94F5226C01D62FC72FFC01158106811B
:100CA00002950F701AD6E82E8115E9F0E12E111584
:100CB000D1F08C2F807F803461F08D2F805E883062
:100CC00098F18C2F807E803221F4D23068F10115AA
:100CD00059F180910C0282FF27C082E099D6FDD5A0
:100CE00091E08927E82E9C2F92959F70983009F407
:100CF000CAC068F59430D0F4923008F438C08C2F14
:100D00008F70F82EC07FC03219F0F29480EFF82275
:100D1000D13008F456C009F47EC0111509F487C01B
:100D2000011509F467C036C0E12CDDCF09F48FC08E
:100D3000E11409F4D8C0CDD580FDD5C0F6011582E7
:100D4000C2D531D2C60183D1BED53BD2CCC09930F9
:100D500009F40BC19A5F9F70923050F7D23F09F0AF
:100D600011C18C2F8F7111110BC11DD2B9C00C2F65
:100D70000F70C03110F00295007F111581F0011540
:100D800049F08D2F805E883010F0D11105C0802F82
:100D9000AFD522D68D2F21C0802FBBD5FACF8D2F76
:100DA00025DF011509F4C4CF8D2F805E883010F047
:100DB000D11103C0802FA2D502C0802FB0D50CD690
:100DC000B7CF80910C0282FD11C0111541F0F114D2
:100DD00019F08F2D8DD500D680E0CDDEA9CF80E033
:100DE00005DFF11409F4A4CF8F2DE5CF111551F0D3
:100DF000013018F48F2D3EDF9BCF09F099CF8F2D56
:100E0000AAD596CF011194CF8F2D39DF8F2DAED576
:100E10008F2D93D58DCF111521F0063008F088CF96
:100E2000E9CF053008F084CF8F2D29DF81CF011560
:100E3000D9F3D93349F48FEF9DEE22E081509040F1
:100E40002040E1F700C000008D2FD0DE71CF8C2F45
:100E5000869586958370813060F009F069CF8D2F7B
:100E60009C2F9370111102C080E090E00E94421DFF
:100E70005FCF8D2F9C2F9370111102C080E090E006
:100E80000E941D1D55CF8C2F8370C1F5111128C0F4
:100E90004D2F429546954770440F440F2D2F2F70CC
:100EA00030E0042E02C0220F331F0A94E2F780E0E4
:100EB00090E0D4FF09C08FE090E002C0880F991F36
:100EC0004A95E2F780959095C695C695C370822B9A
:100ED000932BC23079F0C33079F0C13049F03CD166
:100EE0000E94011DF2DDCDB7DEB7E8E00C941123BE
:100EF0002CD1F6CF38D1F4CF26D1F2CF111559F13C
:100F0000C0FFEECF4D2F429546954770440F440FDA
:100F10002D2F2F7030E0042E02C0220F331F0A94B1
:100F2000E2F780E090E0D4FF09C08FE090E002C0DB
:100F3000880F991F4A95E2F780959095C695C695BA
:100F4000C370822B932BC23061F0C33061F0C1308B
:100F500031F05CD1C5CF823008F4C2CFD3CF4FD1AE
:100F6000BFCF5BD1BDCF0CD1BBCFCF70111529F056
:100F70008C2F19D18D2F7EDEB3CF8D2F80DE8C2F5D
:100F800020D1AECF58F4D03FB1F0D13F79F0111558
:100F9000B9F1011591F18D2FEEDDA2CFD33FB1F064
:100FA000D43FA9F780910C0282FD18C08C2F8F715D
:100FB000111531F3DACE111539F0053008F090CF64
:100FC0008C2F8F710ED18CCF0630F8CF111521F0F8
:100FD0008C2F8F71DFD084CFDAD082CF111529F01A
:100FE00063E08C2F8F71FDD47BCF81E011D502306F
:100FF00008F476CF82E00CD573CF8C2F8F71B5CEED
:10100000011571F0D93349F48FEF9DEE22E0815044
:1010100090402040E1F700C000008D2FE7DD60CF59
:101020008C2F8F71ADCF0F931F93CF93DF93EC0174
:10103000688179818D81A9D18C01F6D083D0B801E6
:10104000CE0122DEDF91CF911F910F910895CF93B2
:10105000DF93EC018C81811581F0CE019DDC811143
:101060000FC03BD4811549F08D81811531F08091FD
:101070000C0282FF02C082E0CBD4DF91CF910895B1
:10108000CE01D1DFCE0176DCF8CF80E090E00E9487
:101090001D1D80E090E00E94421D49D49DC40E9425
:1010A000C31DF3CF33D4FBCF282F92959F7096307A
:1010B00099F060F4925F9F70923030F4203FB1F06D
:1010C00038F481E0283E38F080E008959A5FF3CF4D
:1010D00081E0243FC9F7089591E0813F09F090E055
:1010E00081E0283E08F080E0892B089581E0089592
:1010F000FC012481211521F0808191813DD1D4CF43
:1011000080E00895A6E0B0E0E8E8F8E00C94FB2267
:101110002696E2E00C941723A7E0B0E0E2E9F8E0BD
:101120000C94FB222796E2E00C9417230895FECF3F
:101130000895FDCF0895FADFFCDF80935C01909362
:101140005D0108950895F7CF089520915C013091D5
:101150005D01822B932BEFCF20915C0130915D01DB
:1011600082239323E8CF20915C0130915D01822797
:101170009327E1CFDBCF0895FDCF0895D7CF089512
:10118000FDDFFADF80935A0190935B01089580E0C0
:1011900090E0F6CF21E030E002C0220F331F8A95A5
:1011A000E2F7C901EDCF21E030E002C0220F331F8A
:1011B0008A95E2F780915A0190915B01822B932BE3
:1011C000DFCF21E030E002C0220F331F8A95E2F723
:1011D0002095309580915A0190915B018223932351
:1011E000CFCF21E030E002C0220F331F8A95E2F713
:1011F00080915A0190915B0182279327C1CF209162
:101200005A0130915B01822B932BBACF20915A0166
:1012100030915B0182239323B3CF20915A01309107
:101220005B0182279327ACCF0895CF93C1E061FD86
:10123000C4E060FDCC0F62FDC29593E076956795A2
:101240009A95E1F7660F771F660F771F460F571FB6
:10125000FA0140E050E090E06191DF019C01042E32
:1012600002C0369527950A94E2F72695220B262789
:101270002C2326272E934F5F5F4F4430510561F793
:10128000CF910895A82FA77023E0969587952A956A
:10129000E1F7880F991F880F991F680F791FFB01CD
:1012A00040E050E080E0219130E00A2E02C0369507
:1012B00027950A94E2F72170042E01C0220F0A94A8
:1012C000EAF7822B4F5F5F4F4430510561F7089575
:1012D000262F943068F48C3058F4682F70E08CE03E
:1012E000989F600D711D112442E451E0822F9DCF23
:1012F0000895292F943058F48C3048F490E062E43B
:1013000071E03CE0239F800D911D1124BBCF80E054
:101310000895CF92DF92FF920F931F93CF93DF93A5
:101320006C0100915A0110915B0180915C019091D8
:101330005D01082B192BCFE0D0E081E090E00C2E6E
:1013400002C0880F991F0A94E2F780239123892B0A
:1013500061F4219790F7F12C8F2DDF91CF911F91A0
:101360000F91FF90DF90CF900895FC2EB6018C2F47
:10137000B7D5019771F3F0CFCF93DF93EC01C9DFBD
:10138000BE01AED5DF91CF9108951F93CF93DF9328
:10139000EB0190914101911531F0CB01EDDFDF912F
:1013A000CF911F910895811551F0CB01B2DF182F15
:1013B000682FCE018DDFBE01812F92D5F0CFCB01FA
:1013C00098DF182FF8CF0F931F9300915E01809143
:1013D0005F01801303C01F910F91089587E0089F5C
:1013E000F0011124E05AFE4F208131814281538166
:1013F00064817581868190DE0F5F1F4F0770E7CF94
:10140000209198013091990140919A0150919B014E
:1014100060919C0170919D0180919E017DCE809193
:101420009E01803170F480919D01811551F0E09111
:101430005E0120915F0130919901409198012E1336
:1014400001C00895BF0187E0E89FF0011124DF018A
:10145000A05ABE4F14968C911497811549F111969C
:101460008C911197831324C08C91841321C01596FD
:101470008C91159781111CC012968D919D91A09110
:101480009A01B0919B018A1B9B0B883C910580F4CB
:1014900080919E018F70806180939E01EA59FE4F7A
:1014A00080818F708061808388E991E0D0DD8BCF6F
:1014B0006F5F7F4FFB01E770C2CFE0915E019091BB
:1014C0005F01E91302C080E008959F0157E0E59FA6
:1014D000F0011124E05AFE4F5181561306C050818D
:1014E000581303C05581541305C02F5F3F4FF901B6
:1014F000E770E7CF81E008958F929F92AF92BF92FD
:10150000DF92EF92FF920F931F93CF93DF93CDB7AC
:10151000DEB72D970FB6F894DEBF0FBECDBF8C019E
:1015200086E0F801DE01189601900D928A95E1F7A8
:10153000F801F580848198E9892E91E0992E9091A7
:101540009C01911117C0811509F4EFC0F11409F441
:101550002EC1C801CDDD811509F429C187E0F8014C
:10156000D40101900D928A95E1F7C401FCDA57DFAE
:1015700047DFDBC0E080A280B380D0909D01209146
:101580009A0130919B01A501421B530BD11409F420
:10159000CFC0483C510508F09EC0811509F4C5C074
:1015A00090919901918080919E01803108F065C0F1
:1015B000991226C0909198019E1122C0F11057C037
:1015C0008F70806180939E011BDF88E991E03FDD91
:1015D00080919E01F8018683F12C8F2D2D960FB6F8
:1015E000F894DEBF0FBECDBFDF91CF911F910F9159
:1015F000FF90EF90DF90BF90AF909F908F900895F5
:10160000F11035C040E0692D8E2D57DF40E0692D87
:101610008E2D53DFF82E8111DFCF88859985ACDEC2
:10162000292F22952F70903450F49F70223078F03B
:10163000911591F0F8019681903170F4CECF2A5F28
:101640002F70223070F0C80102DDFD2CC6CF91153D
:1016500019F0811509F4C1CF805E883008F4BDCF40
:10166000F2CF803F08F4B9CF815F8330F7CF80910C
:101670009E01816080939E01AFCF991207C0909127
:1016800098019E1103C0F11409F473C0C80130DD44
:10169000811509F48CC0F11409F489C080919E0170
:1016A000803280F0209198013091990129833A830A
:1016B000AB82BC8290919C019D831E828F83CE0160
:1016C0000196C5DC87E0F801A8E9B1E001900D9230
:1016D0008A95E1F74CCF90919E01903188F448852E
:1016E00059856A857B858C859D850CDD88E991E02F
:1016F000AEDCF40187E011928A95E9F781DE6CCFC8
:10170000811599F02091990181812813BFCF809193
:1017100098018E11BBCFF110B9CF9683C80197DC29
:10172000F40187E011928A95E9F7FF24F39455CFED
:10173000483C510508F03EC08115B9F3F114B9F1E8
:10174000909199018181981329C0809198018E11FF
:1017500025C080919E0180FD18C08031B0F0868345
:10176000807F803F39F08681982F907F905F8F70C7
:10177000892B8683C8016BDC87E0F801A8E9B1E01A
:1017800001900D928A95E1F7F3CE87E0F801A8E980
:10179000B1E001900D928A95E1F7C7CFC801A8DCAE
:1017A000811190CF80919E01816080939E01C8013C
:1017B0004EDCBBCF488559856A857B858C859D85A8
:1017C000A1DC97CFAEE0B0E0E8EEFBE00C94FA22AB
:1017D000288739874A875B876C877D878E87CE010C
:1017E00008968ADE6C85811599F0611539F0288597
:1017F00039854A855B857D858E858EDC80915E018D
:1018000090915F0189133DC02E96E3E00C9416235E
:1018100087E09E01285F3F4FF90127503109D90128
:1018200001900D928A95E1F7611541F3A0915F0156
:101830008A2F90E08395877090E0AC0120915E0143
:101840002417150691F097E09A9FD0011124A05A11
:10185000BE4F9E012F5F3F4FF90101900D929A9567
:10186000E1F740935F01AFDDC9CF1CDC10925F014F
:1018700010925E01E8E9F1E087E011928A95E9F7BC
:10188000BDCF17E0189FC0011124805A9E4F34DE4F
:10189000811509F4B9CFE0915E011E9FF00111247A
:1018A000E05AFE4F208131814281538164817581EC
:1018B000868132DC80915E0190915F010196877094
:1018C00080935E019BCF80919F018695869586953A
:1018D000089580919F018770089590919F0197705E
:1018E00081E0911101C080E008958091AB010895DD
:1018F0009091AB01982B9093AB0108958095982F10
:101900008091AB0189238093AB0108951092AB01C4
:1019100008959091AA01982B9093AA01089580951B
:10192000982F8091AA0189238093AA01089510928B
:10193000AA0108950895FECF08959091A001292F3E
:10194000282329F0809589238093A001F4CF08955E
:101950000895FECF08959091A101292F28232817DB
:1019600021F0982B9093A101F4CF08959091A101BB
:10197000292F282329F0809589238093A101E9CF7D
:1019800008958091A101811521F01092A10180E0BC
:10199000E0CF08950F931F93CF93809164009091AF
:1019A00065008C01C091AB018091AA01C82B809188
:1019B000A101811529F0C82B0E94671D8111E1DF6B
:1019C000F801C08380916400909165000E94101D11
:1019D000CF911F910F910895DDCF08950895FECF07
:1019E000089590910C0292FF0EC0982F990F990FB5
:1019F000990F962B90939F01D6DB80919F0186953E
:101A000086958695ECCFCFCB10929F0180E0E7CFF3
:101A100090919F018095892380939F01282F2770A3
:101A200059F4891749F090910C0292FF05C08695F0
:101A300086958695C6DBE8CF089590910C0292FBBF
:101A4000222720F9281749F080FB92F990930C0285
:101A50008BE092E048D082E0DBCF089580910C02C9
:101A6000002482FF0394802DE8CF81E0E6CF80E060
:101A7000E4CF80E090E0BC011CC480E090E0BC01B9
:101A800012D4F7CFA4E0B0E0E8E4FDE00C94FB2230
:101A900065D370D31C82CE01049683D381E090E09D
:101AA00080935C0110925D0188D3198284E18A835E
:101AB000CE01019693D31B82CE010396A1D34DD6BE
:101AC000DCDF2496E2E00C941723DCCF089558C3A2
:101AD000089545C308955AC3089569C308956DC311
:101AE000089570C308957AC308957FC3089588C385
:101AF00008958CC30895BEC30895E1C30895089561
:101B0000A6E0B0E0E6E8FDE00C94F9220E94781E21
:101B10008C018091AC019091AD018017910779F013
:101B200019821A820E94781EBC0149815A8180E084
:101B300090E00E9484050093AC011093AD012696BD
:101B4000E4E00C9415230E94841E6093B20170930C
:101B5000B3018093B4019093B5016093AE0170938B
:101B6000AF018093B0019093B10108950895089555
:101B7000FDCF08950895FEDFFBCF0895FECF0895B1
:101B80000895FEDFFBCF86E690E1E8D4F0DFF3CFE7
:101B900081E0089581E00895FBCF089508950895A8
:101BA0000895FCDFFCDFFCCF94DF811101C08DDFE5
:101BB00086EB91E090DF8BE092E093DF8EDFC3DA7B
:101BC00080915A0190915B01D7DA99CF0E94711EE2
:101BD0002ED4EADF0E94FF1C0E9464050E941C1B99
:101BE0000E9422190E941F18CCCFA6E0B0E0EBEFB4
:101BF000FDE00C94EF22CEDF81110DC081DF0E9449
:101C0000001D0E94EB180E94921A0E946C052696F5
:101C1000EEE00C940B231AD423E0822E22E0922EC5
:101C2000740110E0F701C080D180812F53D31F5F72
:101C3000143009F450C022E0E20EF11CC816D90697
:101C400089F38091B60181FD4ED3A6DF682E10E0A6
:101C5000812F40D37C01F401A190B1904F018A15EE
:101C60009B0599F1A826BF2400E091E0C92ED12C54
:101C7000C5018C219D21892B01F177247394C70123
:101C80008C219D21892B09F4712C611489F0602F1E
:101C9000812F0E94281E81110BC009831A830E9484
:101CA000781EBC0149815A8181E0972D0E948405EC
:101CB000472D602F812F0E943F1E0F5FCC0CDD1C33
:101CC0000C30B1F6F401F292E2921F5F143009F089
:101CD000BFCF39DF94CFC816D90609F0B2CF8ECF67
:101CE0000F931F93CF93DF93FDD0EC01D23508F013
:101CF00050C0D03508F0C8C0C03ED10530F5CD3C4D
:101D0000D10508F09DC0C83AD10578F4C53AD1058F
:101D100008F093C0C130D105B1F1CE010497813AEA
:101D2000910588F1C0E0D0E02EC0CE01885A91091B
:101D30004B97C0F7C85AD0E0CC0FDD1FCF53DF4F11
:101D40000990D881C02DD4641EC0D034A8F4D032FC
:101D500008F0ADC0C83ED105B0F0CE0191509F3122
:101D600008F78D2F62D1082F8C2F90E0BBD0D02F99
:101D7000DF71C82FD92B07C08C2F90E0B3D0DF7054
:101D8000C82FD92BD06ACE01DF91CF911F910F912F
:101D90000895C03882E5D807B8F5C03682E5D8077F
:101DA00008F056C0C03482E5D807C8F4C03282E5D6
:101DB000D80708F047C08C2F8695869520E2829F31
:101DC000C0011124C37021E030E002C0220F331F94
:101DD000CA95E2F7E901C82BD92BDD68D4CF8C2F47
:101DE00086958695877020E2829FC0011124C3707A
:101DF00021E030E002C0220F331FCA95E2F7E9016B
:101E0000C82BD92BDC68BFCFC03C82E5D80750F483
:101E10008C2F8F71C03AD24580F5982F84EF906A4D
:101E2000EC01B1CFCE01805C9245809708F07ACF6B
:101E3000DC2FDF71C0EFD06AA6CFA497D064A3CF08
:101E4000D065A1CF8C2F8F71D82FC1EFD06A9BCFD7
:101E50008C2F86958695877020E2829FC001112481
:101E6000C37021E030E002C0220F331FCA95E2F7B1
:101E7000E901C82BD92BDA6886CFD7D0982F80E01C
:101E80009F71EC01D0627FCF8C2F8F71CED053E049
:101E9000CC0FDD1F5A95E1F7DF70282F84FF04C0B7
:101EA00090E1899F90011124C22FD0696CCF8D2FB2
:101EB0008F71BBD0082F8C2F90E014D0302F3F7142
:101EC000282F392B3062E9015ECF462F743028F479
:101ED0006C3018F4672F0C94620480E090E0089551
:101EE000F4DFFECE803E9105D1F1C8F48133910537
:101EF00009F481C048F48932910509F471C08A322D
:101F0000910509F47FC0089589339105E1F0823885
:101F10009105C9F08533910509F45DC00895843EAB
:101F20009105D1F148F4823E910531F1833E91054E
:101F300041F181EE90E00895863E9105C1F1873E22
:101F40009105F1F1089520910B02237009F064C00E
:101F500020910C0223FF14C089E290E008952091A3
:101F60000B0220FD45C030910C0230FF09C024FD5A
:101F700024C083EE90E0089520910B0222FDF7CF5C
:101F8000089520910B0222FD44C030910C0230FDD7
:101F900043C024FFF5CF11C020910C0221FFF0CFE8
:101FA00080910B0284FD09C087EE90E00895209196
:101FB0000B0223FFE5CF24FFF7CF80E090E00895E8
:101FC00020910B0223FD2BC030910C0231FFE1CF99
:101FD00084EE90E0089520910B0225FFD1CFBCCF75
:101FE00020910B0225FD1EC020910C0223FFC8CFBB
:101FF00089E390E0089520910B0226FFC1CF8AE289
:1020000090E0089520910B0226FFBACF81E390E083
:10201000089582EE90E0089580EE90E0089586EEB7
:1020200090E0089585E390E0089590910B0292FF6F
:1020300010C041E0282F2471243009F040E031E045
:10204000282F2871283009F030E0431711F02CE0D8
:10205000822793FF10C041E0282F2471243109F01A
:1020600040E031E0282F2871283109F030E0431793
:1020700011F02CE0822730910C0230FF10C051E0AB
:10208000282F2171213009F050E041E0282F2871DC
:10209000283009F040E0541711F029E0822731FF81
:1020A00010C041E0282F2171213109F040E031E0DA
:1020B000282F2871283109F030E0431711F029E06A
:1020C000822794FF02C083FD877E089580E00895F3
:1020D000CF939C01205E3245C1E02032310538F4B7
:1020E000FB01C581C11103C08F710E9420058C2F97
:1020F000CF9108959C01FB018581811599F02B35C5
:102100009CE7390769F02C359CE7390721F02A351F
:102110003C4721F00895A2DC80E00895A6DCFCCFC6
:10212000A6DCFACF81E008959C01FB018581811531
:1021300099F021309CE7390761F023309CE739079B
:1021400039F021153C4749F40E943F0580E008958D
:10215000BEDC0E944305FACF81E00895089580E037
:1021600090E00E949C239C0181E0233E3E4F09F0B9
:1021700080E0089563EE7EEF80E090E00C94BA2357
:102180006FEF7FEF80E090E00C94BA23CF93DF9362
:10219000EC0182E090E00E948F238883DF91CF9151
:1021A0000895FC01608182E090E00C94A12383E01B
:1021B00090E00E948F2390E00895682F83E090E0E4
:1021C0000C94A123CF93DF93EC0184E090E00E9474
:1021D0009C2388839983DF91CF910895FC016081CE
:1021E000718184E090E00C94BA23CF93DF93EC01EB
:1021F00086E090E00E948F238883DF91CF9108953D
:10220000FC01608186E090E00C94A1238F929F9264
:10221000AF92BF92CF92DF92EF92FF920F93CF9344
:10222000DF93EC0188E090E00E9497234B015C0172
:10223000688399828A83BB821C821D821E821F82D0
:1022400083E290E00E948F239401A5018882398364
:10225000AA825B838C831D821E821F82DF91CF91B5
:102260000F91FF90EF90DF90CF90BF90AF909F9035
:102270008F9008950F93CF93DF93EC01488159819C
:102280006A817B8188E090E00E94B2236C81262FD6
:1022900060E070E0CB01622F83E20E94A123DF9116
:1022A000CF910F910895AB01BC018FE090E00C94A9
:1022B000B223AB01BC0183E190E00C94B223682F00
:1022C0008EE090E00C94A1230895FECF0895089528
:1022D000FECF0895E82FF0E0EE0FFF1FEB5EFD4FFD
:1022E000808191810895089588E78A95F1F708958E
:1022F00000C00895F9CF0895F894E82FE295EF70A3
:10230000F0E041A98F7021E001C0220F8A95EAF721
:10231000922F9095942391AB92A9822F892B82AB17
:1023200078940895CF93DF93C3E0D1E089918F3FF4
:1023300009F0E2DF81E0C730D807C1F7C7EFD0E08E
:1023400089918F3F09F0D8DF81E0C330D807C1F70A
:10235000DF91CF910895AF92BF92DF92EF92FF92FB
:102360000F931F93CF93DF935C01D62EC62FD0E03F
:102370008E010D5F1E4FF80180818F3F09F44BC025
:10238000F894E82FE295EF70F0E091A98F7021E0CA
:1023900001C0220F8A95EAF7892F822B81AB82A98F
:1023A0002095282322AB7894A3DFE7EFF0E021E02B
:1023B00030E0E12CF12C41914F3F79F0A42FA29510
:1023C000AF70A05DB0E08C9190E04F7002C0959529
:1023D00087954A95E2F780FF28C080E090E0E82AE0
:1023E000F92A220F331F81E0E330F80721F7F801C3
:1023F00080818F3F09F080DF61E0E114F10409F48E
:1024000060E08D2D77DFCC0FDD1FC5018C0F9D1F88
:10241000EC01E882F982DF91CF911F910F91FF903B
:10242000EF90DF90BF90AF900895C901D8CF7ADFC9
:10243000E5E1F2E088E011928A95E9F7EDE0F2E05B
:1024400088E011928A95E9F73CD03FCFA8E0B0E050
:10245000ECE2F2E10C94F822FE013196DF0188E013
:102460001D928A95E9F710E00E2FFF2E612F802F25
:102470009F2D71DF812F8F5F182F8430B9F748E0CF
:1024800050E0602F7F2D8DE092E00E94822341E09A
:10249000892B69F440E065E172E08DE092E012D0B2
:1024A000182F16DF812F2896E5E00C94142388E07E
:1024B000E02FFF2DADE0B2E001900D928A95E1F79B
:1024C000EACF0895EF92FF920F931F93CF93DF937C
:1024D0008C017B01C42F411579F081E08093B90113
:1024E0000E94781E8093B7019093B80180E0CDB729
:1024F000DEB7E6E00C941323D091B901D115B1F306
:102500008091B7019091B8010E94571E059770F312
:1025100048E050E0B801C7010E948223892B41F0B6
:1025200088E0F801D70101900D928A95E1F7CD2F4F
:102530001092B9018C2FDBCF0E94601E0E94AB1F4E
:1025400022DB0E94B11F42DB0E94C01F0E94CC1FF1
:102550000E94F11F0E94FC1F24DBF8CF80933A01F8
:1025600090933B010895CF93DF93EC01FB018581AC
:10257000811104C081E0DF91CF910895B6D98272B4
:10258000FE01E052F847EB30F105A0F7E150FC4DB9
:102590000C94D5224CD580E0EECF811521F03BD5AF
:1025A000FACF8115E1F32BD5F6CF811521F017D2A3
:1025B000F2CF8115E1F309D2EECF811521F029D2B6
:1025C000EACF8115E1F318D2E6CF811521F03BD295
:1025D000E2CF8115E1F32AD2DECF811521F0E8D0D8
:1025E000DACF8115E1F3D5D0D6CFA0E0B0E0EBEFA4
:1025F000F2E10C94F422062FB72EE82F71110EC0D1
:10260000411521F0F0E0E259FC4FE4916E2F7E2F4E
:102610008E2FCDB7DEB7E9E00C941023411521F0E1
:10262000F0E0E259FC4FE49186E0089FE0011124BC
:102630002FEF30E0CE01B9010E948C22AB01C8011E
:10264000880F991FF5E5F49FB001F59F700D1124D7
:10265000861B682F660F680FC9018B199109E89FC7
:10266000D001E99FB00D11248B2FB69E600111247B
:10267000CD2CD12C89010C191D096801E09F700136
:10268000E19FF00C11244330510551F18901061BE3
:102690001109B09E6001B19ED00C1124CD2CD12C1B
:1026A0002C193D09E29F8001E39F100D1124712F29
:1026B000CC3FD34050F441305105B1F04230510588
:1026C00061F47E2FEB2F812F08C04430510579F043
:1026D0004630510511F07B2F8F2D6E2FE82F98CFAC
:1026E0007F2D8E2FEB2FF9CF7E2FEF2DF6CF8E2F54
:1026F000E12F7B2FF2CF41E078CF0895FCCF0895F2
:1027000090916900291B922FE0913401F0913501DD
:10271000242F462F682F892F90E009950895CF9395
:10272000DF93762FE901682F842FE8DF962F672F3C
:102730009E01482F892FE4DFDF91CF91089580918A
:102740001D02843028F48370846080931D020895F4
:102750008C3AE8F38370886AF8CF85E080931D0295
:1027600010921E028FEF80931F028093200210921E
:1027700021028DE192E0BFC990912102933018F4BB
:102780009F5F90932102811519F08DE192E0B3C90A
:10279000089581E0F1CF90912102911519F09150A7
:1027A00090932102811519F08DE192E0A4C908955A
:1027B00081E0F1CF0F931F93CF9380911D0280FF93
:1027C00009C0E0913801F09139010995CF911F912D
:1027D0000F910895C0916B00809134019091350163
:1027E0008C0180916C00C81760F7809169009C2F64
:1027F000981B20E040E060E0892F90E0F801099507
:10280000CF5FEFCFEF92FF920F931F93CF93DF93A2
:10281000D82F162F042F80911D0280FF0CC0C0916D
:102820006B0080913401909135017C0180916C00A6
:10283000C81730F0BFDFCDB7DEB7E6E00C94132346
:10284000809169009C2F981B202F412F6D2F892F7D
:1028500090E0F7010995CF5FE9CF762F90911D02A7
:1028600090FF08C0682F842F49DF962F672F482FCD
:10287000892FC8CF0895CF93DF93EC01EC81F0E06E
:10288000E751FE4F4491EDE1F2E062818181E5DFA5
:102890008C818F5F8C83DF91CF910895CF93DF93ED
:1028A000EC01EDE1F2E0438162818C81D6DF8C8125
:1028B0008F5F8C83DF91CF910895CF93DF93EC01ED
:1028C000209120029C81892F817090FD822F692F99
:1028D000627091FD622F492F447092FD422F92DF6A
:1028E0008C81019687708C83DF91CF910895A0E051
:1028F000B0E0EDE7F4E10C94F622D82FE62EF42EAA
:10290000D22E90911D0290FF21C0092F06950695A9
:10291000E02FF0E0E95FFE4F80818093DC019C7F37
:102920009430C9F46D2F7E2D842FE8DE962F672F0B
:10293000482F892F67DFD0931E02E0921F02F0928A
:102940002002D11419F08DE192E0D5D8CDB7DEB7D1
:10295000E7E00C941223823019F4F0902002EBCFC0
:10296000863019F4D0911E02E6CF8930D9F389312F
:1029700011F70951E02FE695F0E0E751FD4FC491C2
:1029800010E060916D00161710F014DFD4CF1C9F7B
:10299000C001112470E00E948C22862F8D0F00FF51
:1029A00002C08D2F861B20916B00210F3327331F10
:1029B0004F2D6E2DB4DE1F5FE4CFEDE1F2E0282F46
:1029C000438162818181885F92CF81E0F6CFEDE122
:1029D000F2E0282F438162818181885088CF81E095
:1029E000F6CFEDE1F2E0628121E1620F08F46FEFD2
:1029F000282F438181817BCF81E0F3CFEDE1F2E0AD
:102A0000628121E1621B08F460E0282F438181810B
:102A10006ECF81E0F3CFEDE1F2E0438121E1420F9F
:102A200008F44FEF282F6281818161CF81E0F3CFDD
:102A3000EDE1F2E0438121E1421B08F440E0282F60
:102A40006281818154CF81E0F3CF20E050CF0F939A
:102A50001F93CF938C01C0E060916D00C61768F0A2
:102A6000A9DEF8018481928190FF1DC08F5FF8017B
:102A70008483CF911F910F91089520916B002C0FAB
:102A80003327331F70E08FEF90E00E94A022F801FF
:102A9000848140912002C69F800D112460911F0205
:102AA0003EDECF5FD9CF8150E2CFAF92BF92DF92AF
:102AB000EF92FF920F931F93CF93DF93FC018281DC
:102AC000D1E080FDDFEFC0E08091340190913501CD
:102AD0005C0180916D00C817B8F06CDE8091BB017D
:102AE000D13009F050C0811102C080916D00815039
:102AF0008093BB01DF91CF911F910F91FF90EF90D9
:102B0000DF90BF90AF90089580916B009091690025
:102B1000891B8C0F20E040E060E090E0F501099512
:102B200004E010E0D12CEC2EF12C8091BB018D0D36
:102B300086301CF165E00E947F22892F082E001C40
:102B400000088E150F0499F480916B009701280FEF
:102B5000311D409120020403A00111245595479591
:102B60005595479560911F0280911E02D8DDDD0EBC
:102B700001501040D1F6CF5FACCF87FFDFCF9091EF
:102B80006D00890FDBCF90E0019660916D0070E0E1
:102B90000E94A022ADCF0F931F93CF93C0916B00E3
:102BA00080913401909135018C0180916C00C8179F
:102BB00050F1C0E080913401909135018C01609119
:102BC0006D00C61768F1F6DD809167009091BA013B
:102BD000980F9093BA0120916800280F2093680005
:102BE000121654F420916D002150330B092E001C55
:102BF0000008921703061CF0819580936700CF911F
:102C00001F910F910895809169009C2F981B20E0DF
:102C100040E060E0892F90E0F8010995CF5FC5CFD3
:102C2000EC2FF0E070E0CF010E94A02220916B0019
:102C3000820F9091BA01092E001C0008E917F005D7
:102C40009CF090916800092E001C00089E170F064A
:102C50005CF0282F30E04091200260911F028091AB
:102C60001E025DDDCF5FABCF90916900891B20E034
:102C700040E060E090E0F8010995F4CFA0E0B0E01A
:102C8000E4E4F6E10C94F322EC01FC812F2F30E018
:102C9000D9010E9455229B01AC010E94E1227B01D7
:102CA0008C0180E290E08F1B9109FC01A5E5970162
:102CB000A8010E94E1225B016C019F01DF010E94DB
:102CC0004F229B010E94DB229B01AC012E0D3F1D78
:102CD000401F511FB501C6010E94B322022F30E0F0
:102CE0000A3220F5A901440F551F420F531F559575
:102CF0004795142F1095F12C85E5801BE82E8091C7
:102D00006D00F81600F156DD9C8181E0911519F0F7
:102D1000903219F48FEF8093660080916600890FDE
:102D20008C83CDB7DEB7EAE00C940F2385E590E005
:102D3000821B930BAC01440F551F480F591FBAF665
:102D40004F5F5F4FD4CF8E2DF1FC802F20916B0011
:102D50002F0D3327331F412F60911F02E0DCF394C6
:102D6000CECF0F931F93CF93DF938C01C0E0D0E0C1
:102D700090916D00C917D1055CF01CDDF8018481CC
:102D8000019681708483DF91CF911F910F910895F7
:102D9000F801448180916B009E01280F311D6091E4
:102DA0001F0280911E029695C917D1053CF441156A
:102DB00039F040912002B3DC2196DACF4115C9F3F6
:102DC00040E0F9CFA0E0B0E0E8EEF6E10C94EF22AD
:102DD000FC018281882E948081E08483E9EEF1E019
:102DE000A490E8E6F2E0E491C0912002C695C158B3
:102DF000D0E0CC0FDD1FED2EF12CB12C05E01FEF44
:102E0000EA198E2F90E03C0180916D00B81630F0E9
:102E1000D1DCCDB7DEB7EEE00C940B23CB2CD12C5C
:102E2000882D833058F40B9DF0011124E454FE4F9B
:102E300080911E02808380911F02818391101BC0AC
:102E40000C9DF0010D9DF00D1124E454FE4F1382F2
:102E5000128280916B009601280F311D0C9DF001AC
:102E60000D9DF00D1124E454FE4F4281618180815B
:102E700056DCB394C9CF0C9DE0010D9DD00D1124FB
:102E8000C454DE4F8B818115E1F081508B83189FF4
:102E9000C00111246C8170E00E948C2270E0FB0163
:102EA000E751FE4F84918A19189FC0011124B30184
:102EB0000E948C2280912002689FB00111247A83A5
:102EC000C8CF0E9469236FEF70E00E94A0228E1588
:102ED0009F050CF0BECF882D833090F00E946923AF
:102EE0006FEF70E00E94A02288830E9469232091E6
:102EF0001F022695622F70E00E94A022280F2983CE
:102F00000C9DF0010D9DF00D1124E454FE4F128232
:102F100080912002893C58F088EC0C9DF0010D9DB9
:102F2000F00D1124E454FE4F8483838392CF8431C7
:102F3000A0F784E1F2CF80911D028E7F80931D0265
:102F40008DE192E00E947B0D1092DD0133CC609107
:102F50001D026695669570E04BE050E08EE690E0CD
:102F60000E947523892B19F481E08093DD01C0D67E
:102F70008093D5019093D601089590911D0290FF02
:102F80002CC0811559F18B3258F58F73880F880F3B
:102F900090911D029370892B80931D02611521F081
:102FA0008DE192E00E947B0D60911D026695669511
:102FB00070E04BE050E08EE690E00E947523892B94
:102FC00089F01092DD0181E08093D80140912002C8
:102FD00060911F0280911E0238CD089581E0D6CF06
:102FE0008AE2D4CFB4DFEFCF682F90911D0296957F
:102FF0009695892F8F5F8B3208F081E0BECF81E0FC
:10300000F3CF682F90911D0296959695892F815048
:1030100009F48AE2B2CF81E0F4CF61E0AECF8091D3
:103020001D02816080931D0286958695F6CF809162
:103030001D0280FF01C07FCFF2CF60E09ECF809164
:10304000DB0181111FC08DE192E00E94790D80911A
:103050001D02843028F481DB8DE192E00E94790D1D
:103060006EDB1092DD01E0913201F09133010995A0
:1030700080911D0280FF03C086958695DEDF81E08A
:103080008093DB0108950F931F93CF93DF9380917B
:10309000DD01811509F43FC08091DC01E0911D0242
:1030A000E695E695E81BE093D701853109F489C0E0
:1030B00008F042C0893009F47AC090F5823009F4F2
:1030C00064C0863009F46AC0C0EDD7E00DE713E1B3
:1030D0008091D801811559F01092D80109D68093BA
:1030E000D5019093D6011092D9011092DA0100D641
:1030F0002091D5013091D601821B930B8F3F9F47C2
:1031000050F42C0F3D1F2093D5013093D60185ED4F
:1031100091E0F8010995DF91CF911F910F910895EA
:103120008F3091F6E695F0E0E452FE4FE491CE2F19
:10313000D0E005E515E1CCCFC4EFD1E001EB16E11D
:10314000843231F288F4C8E2D0E00EE316E188312F
:1031500009F4BECF833209F0B7CFE7EDF1E0C591B6
:10316000D5910DE514E1B4CF853209F0ADCF8E2FA6
:1031700063E00E947322E92FF0E0EC52FE4FE491ED
:10318000CE2FD0E002EE16E1A3CFF0E0EB51FE4FE0
:10319000E491CE2FD0E00BE314E19ACFF0E0EE51B2
:1031A000FE4FE491CE2FD0E00EE414E191CFE695EE
:1031B000F0E0E152FE4FE491CE2FD0E007E215E1BE
:1031C00087CFF0E0E752FE4FE491CE2FD0E00BEC3A
:1031D00015E17ECF089557CF089585E680932502A7
:1031E00085E292E00C94770D809125028695869574
:1031F000869508958091250281FD08C082608093A4
:10320000250285E292E00E94770D8DC1089580919C
:10321000250281FF08C08D7F8093250285E292E020
:103220000E94770D8AC108958091250281FF01C017
:10323000EECFE0CF80912502869581700895809130
:103240007900089585E292E00E94750D8091250233
:1032500082FFC3DF80912502883620F08770806668
:103260008093250290912502892F817090FF04C0E0
:10327000892F8695869586953AC190912502892F4A
:10328000869586958695903640F48F5F880F880FD7
:10329000880F9770892B8093250280912502816089
:1032A0008093250285E292E00E94770D80912502AD
:1032B0008695869586951BC180912502883088F079
:1032C00088508093250291E0883008F490E0809146
:1032D000250290FB80F98093250285E292E00E940E
:1032E000770D8091250286958695869500C18091FF
:1032F000250280FD0EC0816080932502813019F483
:1033000089E0809325028091250286958695869591
:10331000EEC008958091250280FD05C0E8DF85E2BA
:1033200092E00C94770D08958091250280FF05C0EE
:103330008E7F8093250280E0DAC008958091250277
:1033400080FF05C0F1DF85E292E00C94770D0895CF
:103350008091250280FF01C0F1CFDCCF8091250252
:103360008695869586958F5F8F718D3008F080E009
:10337000880F880F880F909125029770892B809372
:10338000250291E0883008F490E08091250290FBBE
:1033900080F98093250285E292E00E94770D80916A
:1033A0002502869586958695A2C08D3008F08CE022
:1033B000209125022770982F990F990F990F922B22
:1033C0009093250221E0983008F420E090912502A6
:1033D00020FB90F9909325028AC0E7DF85E292E016
:1033E0000C94770DFC01DB0115968C918115C1F0D1
:1033F000F857E730F105A8F4E65FFB4D0C94D522B1
:103400008CE0EBDF80E0089580E0FBCF55DFFACF62
:1034100034DFF8CF9DDFF6CFA1DFF4CF05DFF2CFA9
:1034200081E008950F931F93CF93DF93EC0186B54E
:1034300097B56CE070E00E948C226C177D0758F005
:10344000CE0169E070E00E948C22CB01DF91CF9128
:103450001F910F91089586B597B526B537B58901A7
:1034600026B537B566E070E00E948C22E0E0F0E01F
:10347000C60FD71FE11DF11D85E0CC0FDD1FEE1F2C
:10348000FF1F8A95D1F7C80166E070E00E948C2288
:1034900040E050E0260F371F411D511DBE01CF01F6
:1034A0000E94B322E901FA0186B597B58C01B901F2
:1034B000CA010E9464229B01AC01D8010E94E12252
:1034C0009B01AC01BE01CF01FFD7770FAC0177277D
:1034D0006627441F551F661F86B597B58417950745
:1034E0001606170610F446B557B5CA01AFCF8D3092
:1034F000A8F4811114C09FB59F7D9FBD26B537B537
:10350000A82FB0E0D2D72CE030E040E050E00E949D
:10351000B322C90187DF99BD88BD08958CE09FB5AE
:103520009062EBCF08951092DE011092DF011092AD
:10353000E00189B7846089BF089589B78B7F89BF0F
:1035400053DED5CF1F920F920FB60F9211240F9317
:103550001F932F933F934F935F936F937F938F931B
:103560009F93AF93BF93CF93DF93EF93FF9380919C
:103570007A008130C1F08F5F80937A00FF91EF91E4
:10358000DF91CF91BF91AF919F918F917F916F917B
:103590005F914F913F912F911F910F910F900FBE0F
:1035A0000F901F9018954BDE182FC091DE01D0911F
:1035B000DF01219644DE28E7289FB0011124CE01C7
:1035C000ABD78093DE019093DF01219FB0011124DE
:1035D000660F672F661F770B71959ED767FD6FE7A4
:1035E0008091E001823021F5603419F489B78B7F36
:1035F00089BFE62FF0E0E251FD4FC49186B597B543
:103600008C01F2DDD82F2C2F30E0D8014ED72FEFD0
:1036100040E050E0A8D7C9016CE070E07DD7D69FAC
:10362000C001D79F900D1124FDDE99BD88BDA6CFA6
:103630008130F9F66F37D9CF8C9A949882E28FBD9A
:1036400089E18EBD8FEF9FEF97BD86BDFBDDF2DD7B
:10365000811169CF0895E2C30895FC01EE0FFF1FA9
:10366000E80FF91FEA5DFD4F6183408322830895CF
:10367000FF920F931F93CF93DF93182F062FF42EF3
:10368000C0E0D0E02F2D402F612FCE01E6DF219644
:10369000C530D105B9F7CDB7DEB7E5E0C5C724E63B
:1036A00030E04FE050E066E272E080EBEEC3CF9393
:1036B000DF93EB0186319C4709F50E94750C9D81D3
:1036C000911599F08A7A91E0811101C090E0909370
:1036D000E101811541F085E34AD20E94EC0C80E0C3
:1036E000DF91CF91089589E2F7CF8091E1018115B3
:1036F00019F085E342D2F1CF89E2FCCF81E0F0CF2F
:10370000CF93DF93EC01FB018581811509F4CAC0D9
:103710009E0130572332310508F0AAC08BE092E0B9
:103720000E94710DFE01E150F047E232F10518F4FC
:10373000EF5EFB4D3AC780910B02816080930B02D4
:1037400090C080910C02886080930C028AC08091A6
:103750000B028260F3CF80910B028460EFCF8091E7
:103760000B028860EBCF80910C028160EDCF8091DD
:103770000C028260E9CF80910B028061DFCF8091E3
:103780000B028062DBCF80910B028064D7CF0E9456
:10379000520880910B028068D1CF80910B028C601F
:1037A000CDCF80910C028360CFCF80910B028E7FB2
:1037B000C5CF80910C02877FC7CF80910B028D7F90
:1037C000BDCF80910B028B7FB9CF80910B02877F99
:1037D000B5CF80910C028E7FB7CF80910C028D7F88
:1037E000B3CF80910B028F7EA9CF80910B028F7D8A
:1037F000A5CF80910B028F7BA1CF0E9452088091B0
:103800000B028F779BCF80910B02837F97CF8091A4
:103810000C028C7F99CF90910B02892F8B7F92FFA6
:103820008460877F92FF886089CF80910C02982FF7
:10383000909590FB80F990FB81F986CF90910B02D7
:10384000892F8F7B96FF806479CF0E9452089091D8
:103850000B02892F97FB87F9805870CF81E00E9477
:103860007D0D8BE092E00E94730D0E94520880E073
:10387000DF91CF91089580E0F2CF90910B02892FD4
:103880008F7E94FF80615ACF90910B02892F8E7F9B
:1038900090FF816053CF90910C02892F877F93FF17
:1038A000886052CF81E0E4CF0F931F93CF93DF93D3
:1038B000C42FD22FFC0185818115C9F04093E4010A
:1038C00017D28093E2019093E3018C2F805E8830C1
:1038D00048F481E0C1FD84E0C0FD880FC2FD8295FF
:1038E0000E943A06DF91CF911F910F910895109198
:1038F000E401141333C08091E2019091E301D7D128
:10390000883C910558F5CD2FC05E1D17C1F0812F61
:10391000805E883048F481E011FD84E010FD880F5E
:1039200012FD82950E943F06C83048F481E0D1FD27
:1039300084E0D0FD880FD2FD82950E943A06802F48
:103940000E94330681E0D1FD84E0D0FD880FD2FDD6
:103950008295C83038F60E943F06C4CF8C2F805E17
:10396000883008F0BFCF81E0C1FD84E0C0FD880F42
:10397000C2FD8295F0CF0F93FC01CB01E851FC47CB
:10398000E730F10580F5ED5CFB4D0FC606E221EE58
:1039900041EE6AE17CE788DF80E00F91089507E25D
:1039A00025EE45EE6BE17CE7F6CF06E221EE40EE38
:1039B00068E17CE7F0CF07E225EE44EE69E17CE7C1
:1039C000EACF06E221EE42EE6CE17CE7E4CF07E2CB
:1039D00025EE46EE6DE17CE7DECF08E221E045EE24
:1039E0006EE17CE7D8CFFB01858181111092E40163
:1039F00081E0D3CF8093E9019093EA01089508957F
:103A00000895E091E901F091EA01309739F00190D1
:103A1000F081E02D309711F00995089580E0089528
:103A2000E091E901F091EA01309731F00280F381F1
:103A3000E02D309709F009950895A3E0B0E0E2E2A7
:103A4000FDE1D9C52091E7013091E8012817390738
:103A5000B1F08093E7019093E801E091E901F091E2
:103A6000EA01309761F00084F185E02D309739F05C
:103A700023E029838A839B83CE01019609952396AF
:103A8000E2E0D5C5A3E0B0E0E7E4FDE1B4C52091F4
:103A9000E5013091E60128173907B1F08093E5017F
:103AA0009093E601E091E901F091EA01309761F02D
:103AB0000084F185E02D309739F024E029838A8352
:103AC0009B83CE01019609952396E2E0B0C5409113
:103AD0006400509165009A012E5F3F4F485F5F4F31
:103AE00080E0F90190812F5F3F4F91118F5F421766
:103AF0005307B9F70895811591F020916400309132
:103B00006500F9013296285F3F4F9081981731F098
:103B10003196E217F307C9F780E0089581E0089530
:103B20009C01FC01329680E09FEF4081461759F0DE
:103B300031969F3F19F4411101C0982F8F5F863055
:103B4000A1F79F3F09F40895290F311D97FD3A957C
:103B5000F90162830895FC0132960896219126139B
:103B600002C0DF011E92E817F907C1F70895682F18
:103B70008091640090916500D3CF682F809164009C
:103B800090916500E8CFE0916400F0916500329675
:103B900086E011928A95E9F708950895FECF089579
:103BA00091E0811101C090E090937D0060917B00D5
:103BB00070917C0080917D0090917E00EFCF80918C
:103BC0007D00089580937C0060917B0070917C0063
:103BD00080917D0090917E00E1CF80917C000895DE
:103BE00080937B0060917B0070917C0080917D00D0
:103BF00090917E00D3CF80917B0008950895089521
:103C0000FECF089508950895F9CF08950F931F9357
:103C1000CF93DF93F7DF0E942612F5DF0BEE11E062
:103C2000C0E0D0E08C2F0E946A119C01F8018193C2
:103C300031938F0191E0232B09F490E0D92BCF5FD2
:103C4000C43081F78D2FDF91CF911F910F9108958F
:103C5000E82FF0E0EE0FFF1FE551FE4F81E090E00E
:103C600002C0880F991F6A95E2F7BC01808191819B
:103C70006823792381E0672B09F480E008954111DE
:103C800015C0E82FF0E0EE0FFF1FE551FE4F81E079
:103C900090E002C0880F991F6A95E2F78095909591
:103CA0002081318182239323808391830895CF9350
:103CB000DF93EC011DD08C1B9D0BDF91CF910895FC
:103CC00084B7806884BF84B7806884BF089580917A
:103CD000F50181110C94470508950E9452080C9437
:103CE0004E058BE083BF8BEB8CBF82E089BF0895CC
:103CF0002FB7F8948091350290913602A091370247
:103D0000B09138022FBF08952FB7F8946091350213
:103D10007091360280913702909138022FBF08953A
:103D200078941F921FB61F9211248F939F93AF9385
:103D3000BF938091350290913602A0913702B091E5
:103D400038020196A11DB11D809335029093360271
:103D5000A0933702B0933802BF91AF919F918F919A
:103D60001F901FBE1F90189560E081E090E006D57F
:103D700088E19CE00FB6F894A89581BD0FBE91BD77
:103D8000FFCF88E19CE00FB6F894A89581BD0FBEE7
:103D900091BDFFCFEF92FF921F93CF93DF93182F28
:103DA000EB0116BE84EA86BFA3DF7C0106B607FEE0
:103DB0001FC081B1887F883021F081B1887F803138
:103DC00051F513B984E886BF93DF7C0106B607FE80
:103DD0001CC021B1287F80E090E0283181F081E093
:103DE00090E0203409F480E091958195910907C015
:103DF000C7015DDFC817D907C8F68EEF9FEFDF91C7
:103E0000CF911F91FF90EF900895C70150DFC81721
:103E1000D907E0F6F2CF8FEF9FEFF1CF11B887E02F
:103E200080B985B3836085BB86B7846086BF86B75B
:103E3000816086BF86B7806486BF08950F931F9305
:103E4000CF93DF93EB0183B984E886BF51DF8C0108
:103E500006B607FE0FC021B1287F81E090E028322E
:103E600009F480E0919581959109DF91CF911F919F
:103E70000F910895CF3FDC0759F3C80118DFC81729
:103E8000D90730F78EEF9FEFF0CFA0E0B0E0EAE483
:103E9000FFE1A6C3982E862E772E6A01790128DFCE
:103EA0005C0184E1E816F10408F18FEFE816FE04E6
:103EB00001F1C70164E170E02FD3162F072F612FA6
:103EC000702F892D67DFEC01892BA9F4082D172DA0
:103ED000C00ED11E0C151D0511F02097B1F084E91C
:103EE00086BFCE01CDB7DEB7EDE096C311E000E0AE
:103EF000E6CF15E0FCCF8FEFE816FE0401F3C50115
:103F0000D6DEE816F906D8F6E1CFB701F8018191BF
:103F10008F0194DFEC01DECF80916002811561F0AA
:103F200010926002E5DE8093F3019093F401109209
:103F3000F5018091F50108958091F5018111F9CF86
:103F40008091F3019091F401B2DE069790F381E045
:103F50008093F501EECFCCDE8093F3019093F401D2
:103F6000089584D28B9A8FEFA895E7EBFBE0319709
:103F7000F1F700C000008150B9F78B98789408954C
:103F80008BD038DD8FEB94ED21E0815090402040C4
:103F9000E1F700C000000895BFDF81111EC0089541
:103FA00096DE34DE8115C9F0F89491B3939A892F87
:103FB0008C6081BB82B32CE0822782BB8FE53AEE16
:103FC00040E0815030404040E1F700C0000082B343
:103FD000822782BB91BB939878949EDF8111E0CFBA
:103FE0007CCE5AD180916602811529F080914402DD
:103FF00084FD0C94F50D08950895089508951F9378
:10400000CF93DF93EC01DBDD15E08115C9F08091E2
:10401000440284FD23C040D187E99AE30197F1F778
:1040200000C00000115099F788E0FE01ABEFB1E04D
:1040300001900D928A95E1F7DF91CF911F9108953C
:104040008091440284FD0AC027D187E99AE3019751
:10405000F1F700C00000115099F7E6CF68E0CE01FB
:1040600015D1E2CF0F931F93CF938C01C5E08091C0
:104070007D0284FF07C063E0C8010BD1CF911F917F
:104080000F91089509D187E99AE30197F1F700C0EC
:104090000000C15061F7F2CF8FE790E00895FC0176
:1040A00080818076803251F48181893089F140F4B9
:1040B0008230E9F0833031F1813069F080E0089599
:1040C0008A30D1F18B30D1F784819581892BB1F77A
:1040D000828166DDF3CF84819581892B79F78BEF1F
:1040E00091E0809361029093620288E0089583DDFD
:1040F0008093F70187EF91E08093610290936202D1
:1041000081E008955CDD8093F60186EF91E0F4CFC5
:10411000828193818115924069F484819581892BF4
:1041200049F481E08093FA01868197818093F801B8
:104130009093F9018FEF0895838152DDBFCFCF9324
:104140002091F8013091F901232B71F0C091FA010F
:10415000C13051F4FC01808135DD1092F8011092DC
:10416000F9018C2FCF910895CFEFFBCF0895FC017B
:104170009381933051F130F49130B9F09230E9F0FD
:1041800080E00895913209F43FC09232C9F78481EA
:104190009581019708F449C099F78DEE94E08093DA
:1041A00061029093620284E3089589EA94E0809327
:1041B00061029093620282E108958EE694E080931A
:1041C0006102909362028BE308958281813061F0F5
:1041D000823091F08111D4CF89EE94E08093610216
:1041E0009093620284E0089581ED94E080936102EF
:1041F0009093620286E108958BEB94E080936102D4
:104200009093620284E1089584819581019728F05A
:1042100009F0B6CF89E994E002C080E894E0809389
:1042200061029093620289E0089581E295E08093B3
:1042300061029093620284E408951F93CF93DF9309
:10424000162FEA01288124FF1EC0298138E8232780
:104250002983AE014E5F5F4FFA019C01810F982FB9
:10426000D9012F5F3F4F8C918193892F821B09F0D9
:10427000BAF7612FCA010E94E6021C5F1883DF9122
:10428000CF911F9108952AE52883E3CF44E452E0BB
:10429000D4CF4DE752E0D1CFCF93DF93609163024B
:1042A00063508AF080915F02CCE0D0E0C81BD10956
:1042B000C959DD4F80915E02803108F054C0CE01B3
:1042C00055DF1092630280918A0084FF3FC0809185
:1042D00089008F3FD9F1C82F893008F0C8E0982FA6
:1042E0009C1B909389009091390228E89227909323
:1042F00039028115E9F0809161029091620220916A
:104300005D0226FFA7C0FC012C2F4AE352E0349146
:10431000DA013C934F5F5F4F31962150C1F7019610
:104320002C2F2150820F911D809361029093620285
:104330006C2F8AE392E00E94E6028C2F8C5FC830DB
:1043400019F09FEF9093890080938A0084E190B3E5
:104350009C7031F48150D9F71092640210925C0283
:10436000DF91CF9108958D3209F062C0683009F075
:10437000A8CF83EC809339028AE580938A0010925B
:104380005D028881807669F0CE0189DE8F3FD1F5AC
:10439000988197FD8E8190E890935D0280938900CB
:1043A00090CF9A8110924202E981EC30A0F4F0E0C3
:1043B000E65CFB4DFAC026E632E081E005C01092D3
:1043C000430222E432E082E02093610230936202F1
:1043D00019C09093640222E432E0F6CF9B819130C1
:1043E00031F4CE01C4DE90E490935D02CFCF9230E1
:1043F000C1F39330B1F39132A1F3923291F390E48F
:1044000090935D029F819111C9CF9E81981730F6DC
:10441000892FC4CF90936602DECF9BE49093450230
:1044200090937E0290935102D6CF22E432E0C5CF22
:1044300080915D0287FF45CFCE0181DE8F3F21F461
:104440008EE180938A003DCF811509F43ACF109216
:10445000890037CFDC012C2F4AE352E0FA013D916D
:1044600030834F5F5F4F2150C9F759CFCF93DF9310
:1044700085B7886085BF8BB780688BBFA5E4B2E045
:104480008BE48C93EDE7F2E08183C0E5D2E0898391
:104490008AE58E9380838883DF91CF91089505D03C
:1044A000332312F48A1B9B0B87C0A29FB001B39FDA
:1044B000C001A39F700D811D1124911DB29F700D2D
:1044C000811D1124911D0895DB018F939F9379D055
:1044D000BF91AF91A29F800D911DA39F900DB29FA0
:1044E000900D11240895992778E0880F991F961749
:1044F00008F0961B881F7A95C9F78095089587FB69
:10450000082E062687FD819567FD6195ECDF0EF488
:10451000919507FC81950895AA1BBB1B51E107C02B
:10452000AA1FBB1FA617B70710F0A61BB70B881F43
:10453000991F5A95A9F780959095BC01CD010895D2
:1045400097FB072E16F4009406D077FD08D0E4DF21
:1045500007FC05D03EF4909581959F4F0895709586
:1045600061957F4F0895A1E21A2EAA1BBB1BFD0186
:104570000DC0AA1FBB1FEE1FFF1FA217B307E40742
:10458000F50720F0A21BB30BE40BF50B661F771F9A
:10459000881F991F1A9469F760957095809590957A
:1045A0009B01AC01BD01CF010895EE0FFF1F0590E7
:1045B000F491E02D099479DFB7FF0895821B930BE6
:1045C000089573DFA59F900DB49F900DA49F800D5B
:1045D000911D112408952F923F924F925F926F92F6
:1045E0007F928F929F92AF92BF92CF92DF92EF9283
:1045F000FF920F931F93CF93DF93CDB7DEB7CA1B04
:10460000DB0B0FB6F894DEBF0FBECDBF09942A882E
:10461000398848885F846E847D848C849B84AA84D6
:10462000B984C884DF80EE80FD800C811B81AA8163
:10463000B981CE0FD11D0FB6F894DEBF0FBECDBF2E
:10464000ED010895AAE0B0E0E7E2F3E2D4CF898774
:104650009A87FC016081718182819381009770400B
:10466000604021F464E279ED8BE597E02DE133EFD2
:1046700041E050E0A0D029833A834B835C839B01C7
:10468000AC01A7EAB1E49DDF6D837E838F839887B9
:10469000ACEEB4EF29813A814B815C81AAD02D81A7
:1046A0003E814F815885260F371F481F591FC9016A
:1046B000DA01B7FF03C00197A109B048E985FA857F
:1046C00080839183A283B3839F772A96E2E0AFCF62
:1046D000B9CF80E690E0B6CF809360009093610000
:1046E00010926200109263000895FC014150504006
:1046F00030F001900616D1F73197CF010895882741
:1047000099270895FB01DC0104C08D910190801967
:1047100021F441505040C8F7881B990B0895E19946
:10472000FECF9FBB8EBBE09A99278DB30895A6E17B
:10473000B0E044E050E031C0A8E1B0E042E050E039
:104740002CC0262FE199FECF9FBB8EBBE09A01972C
:104750000DB2021631F02DBB0FB6F894E29AE19A31
:104760000FBE08950396272FEDDFEBDF252FEADF3D
:10477000242FE8CF0196272FE5DFE3CF262FE199FD
:10478000FECF9FBB8EBB2DBB0FB6F894E29AE19A89
:104790000FBE01960895DC01CB01FC01E199FECF2B
:1047A00006C0FFBBEEBBE09A31960DB20D924150B0
:1047B0005040B8F70895052E97FB16F400940FD0DB
:1047C00057FD05D0D0DE07FC02D046F408C0509556
:1047D0004095309521953F4F4F4F5F4F08959095ED
:1047E0008095709561957F4F8F4F9F4F0895B7FFCC
:1047F000E8CEE7DE821B930B0895F894FFCFCA1230
:10480000CD12D112D512D912DD12E112E512E91240
:10481000ED12F112001A041A0A1A061A081A0C1AD2
:104820000E1AD51B441CDD1BA71BAB1BE11BAF1BCA
:10483000E51BF11BBB1B3D1CBF1BF51BC31BF91B61
:104840001E1CC71BFD1B251CCD1B031C0B1CB31BF7
:10485000E91BB71BED1BD11B071C151C2E1C3B1C99
:10486000A11BD91B4B1CD51CDB1CC61CCF1CE11C7F
:10487000E71CED1CDF21EB21EB21EB21EB21E921F2
:0C488000EE21EB21DB210A2215220D2283
:10488C0001000000A201010102000500050501194B
:10489C001A1B1C1D1E1F202122060100000100ED09
:1048AC001DFF1FFE1FFD1F3220FF5AE200E900EA28
:1048BC0000B500B600B700CD008301CC008A019290
:1048CC000194012102230224022502260227022A36
:1048DC0002B300B4006F0070009F01CB019F02A0D7
:1048EC0002E200E900EA00B500B600B700CD008393
:1048FC0001CC008A01920194012102230224022599
:10490C0002260227022A02B300B4006F0070009F37
:10491C0001CB019F02A002343536379495969793BC
:10492C009291906061636400010202020206060625
:10493C000909090909090F0F0F0F0F0F1515151884
:10494C001919191919191919191923242525252586
:0A495C0025252B1B2D1B381B4F1BBC
:00000001FF
