:100000000C9416020C9435020C9435020C943502B3
:100010000C9435020C9435020C9435020C94350284
:100020000C9435020C9435020C94E2220C94B82303
:100030000C94F01D0C9435020C9435020C9435028E
:100040000C9435020C9435020C9435020C94350254
:100050000C9435020C94491E0C9435020C94350214
:100060000C9435020C9435020C9435020C94350234
:100070000C9435020C9435020C9435020C94350224
:100080000C9435020C9435020C9435020C94350214
:100090000C9435020C94350225132513571357136E
:1000A000A413C213E314E314CD1362147314731472
:1000B000D314E314E314DC1491159115A315A315BF
:1000C0009A15A315A315A315911591159F15A315A1
:1000D000A3159F15292450244825502448259C24E5
:1000E000BF244825162525252B0014001A000800DA
:1000F000150017001C0018000C00120013002A0045
:10010000290004001600070009000A000B000D007A
:100110000E000F0033002800E1001D001B00060048
:100120001900050011001000360037003800346255
:10013000E0000358E300E20001582C422C00E400E8
:100140005000510052004F0035003A003B003C0087
:100150003D003E00010024002500260001000100B2
:1001600001003F0040004100420043002E022100F8
:10017000220023002D00010001004400450046003C
:100180004700480025021E001F00200038002E00F6
:1001900001000100010001000153010001002700DE
:1001A000270037003600290035021E021F022002F8
:1001B00021022202230224022502260227024C00E9
:1001C000010049004A004B000100010050005100AD
:1001D00052004F002D02010001004C004D004E0066
:1001E000010001002F0230022F00300031003102E7
:1001F00001000100010001000100010001000253A3
:100200004A004E004B004D0001000100ED00F900D6
:100210000100010001000100010001000100045380
:100220000100EF00EE00F0000100010001000100FC
:100230000100010001000100010001000100FA00BD
:1002400001000100010001000100010001000100A6
:100250000100035301000100F100F2000100F3006E
:10026000AB00AA00A900AE002B00005C1A00080039
:10027000150017001C003A003B003C003D000453F1
:1002800029000400C05CC15C09000A000B001E00CC
:100290001F00200021000100E1001D00C35CC45CC0
:1002A0001900050011001000360037003800E10089
:1002B000E000E200E300E6002C002C002C002C0003
:1002C0005000510052004F000E037400650065009D
:1002D0006E007300790000000A03720077006B0063
:1002E000620000000403090409023B00020100A0AF
:1002F000320904000001030101000921110100017C
:100300002240000705810308000A090401000103D7
:1003100000000009211101000122B6000705820337
:1003200020000A1201100100000008EDFE606001CB
:10033000000102000105010902A10185020901A1D4
:100340000005091901290815002501950875018185
:10035000020501093009311581257F950275088153
:100360000609381581257F950175088106050C0A57
:1003700038021581257F950175088106C0C00501E9
:100380000980A101850319012AB700150126B700CC
:10039000950175108100C0050C0901A101850419A2
:1003A000012AA002150126A002950175108100C046
:1003B00005010906A1018505050719E029E71500D2
:1003C00025019508750181020507190029EF15001F
:1003D000250195F07501810205081901290595058A
:1003E00075019102950175039101C005010906A1EE
:1003F00001050719E029E715002501950875018118
:10040000029501750881010507190029FF150026CD
:10041000FF00950675088100050819012905950555
:1004200075019102950175039101C00011241FBE51
:10043000CFEFD0E2DEBFCDBF12E0A0E0B1E0E2EE50
:10044000FBE400E00BBF02C007900D92AA3AB1078F
:10045000D9F724E0AAEAB2E001C01D92A037B207A2
:10046000E1F70E941D200C94EF250C940000FC0184
:1004700090E3A0E0B1E001900D929A95E1F78091B0
:10048000AC029091AD02A091AE02B091AF028F6F1D
:100490009F6FAF6F8093AC029093AD02A093AE02BA
:1004A000B093AF02089520E3829FC00111248F5CB6
:1004B0009E4F0C943702E1EBF2E087E090E050E1D0
:1004C00040E231E020E8108213825183548312828B
:1004D00015821682118647834287108613861486FA
:1004E00017861586108A3687318B128A158A238BD8
:1004F000268B148A178A01977896009721F781E353
:1005000091E00C9437022F923F924F925F926F923C
:100510007F928F929F92AF92BF92CF92DF92EF9293
:10052000FF920F931F93CF93DF93CDB7DEB7A197C1
:100530000FB6F894DEBF0FBECDBF0091AC02109194
:10054000AD022091AE023091AF0241E050E060E098
:1005500070E0082E04C0440F551F661F771F0A94D1
:10056000D2F74095509560957095402351236223B2
:1005700073234093AC025093AD026093AE0270932C
:10058000AF022CE0829FD0011124A050BF4F2C91CC
:100590002095422F477050E0BA016F5F7F4F7A83FA
:1005A0006983207722952F7030E0A9014F5F5F4F5C
:1005B0005C834B8311962C9111972095422F4770A5
:1005C00050E0BA016F5F7F4F7E836D832077229565
:1005D0002F7030E0A9014F5F5F4F58874F8312960D
:1005E0002C9112972095422F477050E0BA016F5F0F
:1005F0007F4F7A876987207722952F7030E0A90195
:100600004F5F5F4F5C874B8713962C911397209514
:10061000422F477050E0BA016F5F7F4F7E876D8732
:10062000207722952F7030E0A9014F5F5F4F588BE4
:100630004F8714962C9114972095422F477050E0C5
:10064000BA016F5F7F4F7A8B698B207722952F706D
:1006500030E0A9014F5F5F4F5C8B4B8B15962C915F
:1006600015972095422F477050E0BA016F5F7F4F7A
:100670007E8B6D8B207722952F7030E0A9014F5F24
:100680005F4F588F4F8B16962C9116972095422FBF
:10069000477050E0BA016F5F7F4F7A8F698F207784
:1006A00022952F7030E0A9014F5F5F4F5C8F4B8F19
:1006B00017969C9117979095292F277030E0A901E4
:1006C0004F5F5F4F5E8F4D8F9077292E22949FE072
:1006D0002922312C5FEF251A350A18969C9118971C
:1006E0009095292F2770422E512C6FEF461A560AEB
:1006F0009077692E62942FE06222712C7FEF671A47
:10070000770A19969C91199790959F8F9770C92E8B
:10071000D12C2FEFC21AD20A3F8D307732953F701D
:10072000432F50E04F5F5F4F59A348A31A960C9197
:100730001A970095902F9770A92EB12C6FEFA61ADB
:10074000B60A007702950F7010E00F5F1F4F1B96DF
:100750009C919095292F2770822E912C7FEF871ADC
:10076000970A9077E92EE2943FE0E322F12C9FEF85
:10077000E91AF90A26E0829FF0011124EF54FD4F97
:1007800020E030E02F5F3F4FC9016B817C810E94E8
:100790007C25482FC90169817A810E947C258823A4
:1007A00019F08181877F02C0818188608183848183
:1007B000442311F0877F01C088608483C9016F8161
:1007C00078850E947C25482FC9016D817E810E9419
:1007D0007C25882319F082818D7F02C0828182600E
:1007E00082838581442311F08D7F01C082608583DF
:1007F000C9016B857C850E947C25482FC9016985CC
:100800007A850E947C25882319F081818D7F02C022
:100810008181826081838481442311F08D7F01C0B6
:1008200082608483C9016F8578890E947C25482F66
:10083000C9016D857E850E947C25882319F0818100
:100840008E7F02C08181816081838481442311F085
:100850008E7F01C081608483C9016B897C890E947D
:100860007C25482FC90169897A890E947C258823C3
:1008700019F080818F7702C08081806880838381B6
:10088000442311F08F7701C080688383C9016F8989
:10089000788D0E947C25482FC9016D897E890E9430
:1008A0007C25882319F080818F7B02C08081806441
:1008B00080838381442311F08F7B01C08064838314
:1008C000C9016B8D7C8D0E947C25482FC901698DE3
:1008D0007A8D0E947C25882319F080818F7D02C04B
:1008E0008081806280838381442311F08F7D01C0E9
:1008F00080628383C901B1010E947C25482FC90110
:100900006D8D7E8D0E947C25882319F080818F7EDD
:1009100002C08081806180838381442311F08F7EB7
:1009200001C080618383C901B3010E947C25482FE7
:10093000C901B2010E947C25882319F08081877F3C
:1009400002C08081886080838381442311F0877F87
:1009500001C088608383C90168A179A10E947C25B8
:10096000482FC901B6010E947C25882319F0808197
:100970008B7F02C08081846080838381442311F057
:100980008B7F01C084608383C901B8010E947C25EC
:10099000482FC901B5010E947C25882319F0808168
:1009A0008D7F02C08081826080838381442311F027
:1009B0008D7F01C082608383C901B7010E947C25BD
:1009C000482FC901B4010E947C25882319F0808139
:1009D0008E7F02C08081816080838381442311F0F7
:1009E0008E7F01C08160838378962730310509F0BE
:1009F000C9CEA1960FB6F894DEBF0FBECDBFDF9172
:100A0000CF911F910F91FF90EF90DF90CF90BF900B
:100A1000AF909F908F907F906F905F904F903F909E
:100A20002F900895CF93DF93D82F8091B002C82FD5
:100A3000C17080FD15C0869583704091AC025091C5
:100A4000AD026091AE027091AF02082E04C076959F
:100A50006795579547950A94D2F740FD0E94830207
:100A6000AFB7F89481B380B3E091B002F0E0CF016A
:100A7000880F991FE80FF91FEF54FD4FB08128B17F
:100A800057B131815474832F8B7B582B8EB14DB16C
:100A900062814C7F962F9370492BDD2389F1EB2FD8
:100AA000C111E095732F7B70247FCC2321F0932F0D
:100AB00090959B7001C0972F292B962F9270792BC0
:100AC0007B2B8D7FCC2319F0962F90959270892BDC
:100AD000711101C05F74922F9F74232FC11101C047
:100AE0002095207B292B711101C04E7F982F9E7F6E
:100AF0006170C11102C081E06827862F892B06C072
:100B0000247454748C7F4C7FB0E0E0E0E1BB28B9E2
:100B10008EB9B0BB57B94DB9AFBF8091B0028F5FEE
:100B2000883318F48093B00202C01092B002DF91B3
:100B3000CF910895CF93C0913001C0FF04C081E0F0
:100B4000CF910C941205C1FF06C080E00E941205EF
:100B5000CD7FC0933001CF9108950C945B020C942B
:100B60009A05CF92DF92EF92FF926B017C0162FDBA
:100B700008C0DC01CB01B695A79597958795817044
:100B800001C082E0C3FC83E0C4FC84E00E94530205
:100B9000C701B601FF90EF90DF90CF9008959C01C0
:100BA0003A9521153F4138F5DC01AA27B270AC0116
:100BB000442754709C012227387094FF0FC090FF87
:100BC00002C080E101C080E0AB2B09F08062452BC0
:100BD00009F08064232B69F080680BC0892F817035
:100BE000AB2B09F08260452B09F08460232B09F0C0
:100BF0008860FB0109940895CF93DF93EC01805E38
:100C00009109089710F0209719F464EE72E102C080
:100C100067E575E1CE010E94CF058C2FDF91CF9162
:100C20000C943A12CF93DF93EC010E949012CE0104
:100C3000805E9109089710F0209719F46BEE72E12D
:100C400002C06EE575E1CE01DF91CF910C94CF0526
:100C500081E0089581E008950C942A0608950C948B
:100C60002E061F93CF93DF9300D000D01F92CDB7F5
:100C7000DEB749835A836B833091A50389819A81BA
:100C8000311114C0662359F0222349F00E94CA1A78
:100C9000182F682F89819A810E94731A03C00E94BD
:100CA0009E1A182F69817A81812F04C00E94CA1A66
:100CB00069817A810F900F900F900F900F90DF91C4
:100CC000CF911F910C94FD06FC01262F408151818C
:100CD0006281738184810C943106CF93DF93EC01A0
:100CE00060E00E946406BE01DF91CF910C942F0654
:100CF0000E9408090C94AD050E94360F0C94AF05B4
:100D000008950E947F150E9480062FEF84E39CE0E7
:100D1000215080409040E1F700C000000C946F1E0D
:100D20000F931F93CF93DF938C0161E00E946406C1
:100D3000EC01B8010E942C06882309F444C0B801D4
:100D4000CE010E94630F8823F1F1B801CE010E9409
:100D5000670D8823C1F1B801CE010E94B90D882327
:100D600091F1B801CE010E94E40E882361F1F801EF
:100D70008281882309F1CB358DE5D807C1F050F485
:100D8000C115FCE5DF0781F0CF3DDC45A9F40E94E9
:100D9000D51C19C0CC35EDE5DE0761F0CD35DD455C
:100DA00059F40E945D1B08C00E9481060CC00E947D
:100DB000661B02C00E94691BC801DF91CF911F9181
:100DC0000F910C94280680E0DF91CF911F910F9135
:100DD000089508950C94E90681E008950C94EC06BA
:100DE000CF93C82F0E94EA068C2F0E94EE06CF9167
:100DF000089580E090E00895089520E3829FC00167
:100E00001124FC012CE0729FE00DF11D1124E60F6E
:100E1000F11DEE0FFF1FE851FF4F8591949108954A
:100E2000880F991FFC01E853FD4F85919491089517
:100E3000CF93DF930E94FD060E943008EC018115DC
:100E4000904508F041C0C11580E4D80708F0D1C032
:100E5000C83ED10510F5C03ED10508F0FDC0C83A26
:100E6000D10578F4C53AD10508F0A2C0C130D1054A
:100E700009F4F2C008F4EEC0C430D10508F0ECC0AB
:100E8000E9C0CF3BD10508F49BC0C03CD10508F4B4
:100E9000E1C0CE01805C91099EC0C11590E2D907E6
:100EA00058F4C11521E0D20708F0D6C0CD3ED105D7
:100EB00008F4D0C0D065D0C0C11580E3D80708F0D1
:100EC0008EC0CE019F7087C0C11595E5D90708F087
:100ED00043C0C11524E5D20708F0A2C0C11582E5C0
:100EE000D80708F5C11591E5D90708F085C0CE01EE
:100EF00074E0969587957A95E1F783709C2F9370AF
:100F000021E030E002C0220F331F9A95E2F73C68DF
:100F1000382BCF70C695C69580E2C89FE00111249A
:100F2000C22BD32B99C09E01237033278C2F86951B
:100F30008695C115D34508F064C0C1E0D0E002C079
:100F4000CC0FDD1F2A95E2F720E2829FC001112419
:100F5000C82BD92BDC6880C0C11529E5D207A0F4C5
:100F6000C11588E5D80708F060C0C11596E5D90716
:100F700008F070C08C2F0E94C4088F71C82FD0E079
:100F8000DC2FCC27D06268C0C1152AE5D20708F44F
:100F900051C0CE0190568115904208F05BC08D2F54
:100FA0008F710E94C408DD27D0628F71D82B54C086
:100FB000C55AD0E0CB59DD4FC881D0E0D0644CC0D9
:100FC000C85AD0E0CC0FDD1FC95CDD4F0990D88135
:100FD000C02DD46441C00E941007EC013DC0CE0179
:100FE0009927D3FF03C0EC01D86C36C0EC01D06C5C
:100FF00033C0DF70D06A30C0DC2FCC27C16FD06A1D
:101000002BC0C1E0D0E002C0CC0FDD1F2A95E2F773
:1010100020E2829FC0011124C82BD92BDA681CC0A2
:10102000DC2FCC27C46FD06A17C0DC2FCC27C06F51
:10103000D06A12C08C2F8F700E94C40894E0D6959D
:10104000C7959A95E1F7CF70D0E0DC2FCC27D06917
:10105000C82B02C0C0E0D0E0CE01DF91CF9108954F
:101060008238910569F1B0F48133910509F46DC0BE
:1010700048F48932910509F463C08A32910509F474
:1010800069C008958533910509F455C089339105E8
:10109000B9F00895833E910569F138F4803E9105D9
:1010A000B1F0823E910509F10895863E9105A9F1BE
:1010B000873E9105B9F1843E910509F064C023C0D3
:1010C00020914D0420FD4FC021FD4DC00895809119
:1010D0004D0480FD44C080914E0480FF44C0809147
:1010E0004D0484FD42C083EE4DC080914D0482FFCB
:1010F00038C0F5CF80914D0482FD33C080914E04FD
:1011000080FD31C0ECCF80914E0481FF32C08091D0
:101110004D0484FD2AC087EE35C080914D0483FFC5
:1011200026C0F5CF80914D0483FD21C080914E04EF
:1011300081FD1FC0ECCF80914D0485FD1CC01DC0FA
:1011400080914D0485FD19C016C080914D0486FD27
:1011500016C017C080914D0486FD13C010C089E3EE
:1011600011C082EE0FC080EE0DC080E00BC086EE95
:1011700009C084EE07C089E205C085E303C08AE2A6
:1011800001C081E390E0089590914D0492FF0DC05D
:10119000282F2871283019F4877F846006C0282FF3
:1011A0002471243011F48B7F886093FF0DC0282FA9
:1011B0002871283119F4877E846106C0282F247194
:1011C000243111F48B7E886120914E0420FF0DC0E4
:1011D000382F3871383019F4877F816006C0382F76
:1011E0003171313011F48E7F886021FF0DC0282FBE
:1011F0002871283119F4877E816106C0282F21715A
:10120000213111F48E7E886194FD877E08950895C2
:101210000E942D1C811102C00E94D51C0E94381C06
:10122000809329040E94401C90934E0480934D04A7
:101230000E9407090E943C1C682F70E080E090E04B
:101240000E9475196091FC037091FD038091FE036B
:101250009091FF030C94AD19E82FF0E0EE0FFF1F03
:10126000E95AFB4F808191810895089580EA8A951B
:10127000F1F7089500C008950C943609F894E82F0A
:10128000E295EF70F0E031A1282F2F7081E090E01F
:1012900001C0880F2A95EAF7982F9095932391A380
:1012A00092A1892B82A3789408950F931F93CF93D3
:1012B000DF9384E90E943E0985E90E943E0986E9A0
:1012C0000E943E0987E90E943E09C8E6D2E004E791
:1012D00012E089910E943E090C171D07D1F7109268
:1012E000500410924F041092580410925704109218
:1012F00052041092510410925A0410925904109200
:1013000054041092530410925C0410925B041092E7
:1013100056041092550410925E0410925D0484E00D
:101320000E94260ADF91CF911F910F910C947806AD
:101330007F928F929F92AF92BF92CF92DF92EF9265
:10134000FF920F931F93CF93DF93C4E7D2E08FE414
:10135000A82E84E0B82E97E5E92E94E0F92E712CA2
:1013600001E010E06E018881F894E82FE295EF70BB
:10137000F0E021A18F70A80102C0440F551F8A958B
:10138000E2F7CA01922F982B91A392A1809589230D
:1013900082A378940E943A09E8E6F2E020E030E087
:1013A000812C912C4191A42FA295AF70B0E0909622
:1013B0008C9190E04F7002C0959587954A95E2F721
:1013C00080FD08C0C801022E02C0880F991F0A9430
:1013D000E2F702C080E090E0882A992A2F5F3F4F11
:1013E0002C303105F9F62196F60180810E943E09E4
:1013F0000E943C09F501808191818816990621F0AF
:101400009182808281E001C080E0782AF2E0AF0E14
:10141000B11CEA14FB0409F0A5CF272D44E067E5D1
:1014200074E08FE494E00E94270A0E947C06872DD6
:10143000DF91CF911F910F91FF90EF90DF90CF90B0
:10144000BF90AF909F908F907F9008950895FF92E6
:101450000F931F93CF93DF93F82E092F162FD72FBB
:10146000C42F222349F081E080935B030E94221E57
:1014700090935A038093590380915B038823D9F09A
:101480008091590390915A030E943A1E069798F052
:10149000EF2DF02FA12FBD2F80E090E04C2F50E0DA
:1014A0008417950734F4219131912D933D93019642
:1014B000F7CF10925B03DF91CF911F910F91FF90B7
:1014C00008958091620380FF0BC06091260285E041
:1014D000689FB001112475956795759567952BC028
:1014E00081FF09C06091260285E0689FB001112448
:1014F0007595679520C082FF07C06091260285E040
:10150000689FB001112417C0909161039923D1F015
:1015100060912502961788F72091260285E0289F82
:1015200090011124929FA001939F500D112470E00F
:10153000CA010E947C256038710540F4611571056F
:1015400019F406C065E070E0862F08958FE70895CE
:1015500081E008958091620380FF08C060912202BB
:1015600070E0759567957595679521C081FF06C0F8
:101570006091220270E07595679519C082FF04C0E2
:101580006091220270E010C090916003992399F05D
:10159000609121029617A0F780912202899FC001D5
:1015A000112470E00E947C256038710540F46115BB
:1015B000710519F406C061E070E0862F08958FE789
:1015C000089581E008958D3E21F40E94610A81957D
:1015D00004C08E3E29F40E94610A80936603089538
:1015E0008F3E21F40E94610A819504C0803F29F456
:1015F0000E94610A809365030895893F19F40E944F
:10160000AA0A05C08A3F31F40E94AA0A81958093F4
:10161000670308958B3F21F40E94AA0A819504C0B4
:101620008C3F29F40E94AA0A8093680308959FE0E2
:10163000980F983078F421E030E0A90102C0440FFF
:10164000551F9A95E2F7CA0190916403892B809304
:10165000640308958D3F21F48091620381600BC083
:101660008E3F21F480916203826005C08F3F29F490
:101670008091620384608093620308958D3E39F403
:101680009091660397FF35C01092660359C08E3E55
:1016900029F4909166031916BCF32BC09091650351
:1016A0008F3E29F497FF25C01092650349C0803F03
:1016B00019F41916CCF31DC090916703893F29F4E2
:1016C0001916BCF4109267033BC08A3F19F497FFC8
:1016D00010C0F8CF8B3F39F49091680397FF09C091
:1016E000109268032DC08C3F21F490916803191665
:1016F000BCF39FE0980F983080F421E030E0A9011E
:1017000002C0440F551F9A95E2F7CA018095909147
:10171000640389238093640313C08D3F21F4809177
:1017200062038E7F0BC08E3F21F4809162038D7F18
:1017300005C08F3F29F4809162038B7F8093620301
:1017400080916503811106C080916603811102C0FA
:101750001092610380916703811106C08091680334
:10176000811102C01092600308950E94221E2091F0
:101770006503211104C020916603222321F0909378
:101780005F0380935E0320916703211104C02091C1
:101790006803222321F090935D0380935C0383E62A
:1017A00093E00C94D110EF92FF920F931F93CF937D
:1017B000DF9300D000D000D0CDB7DEB786E0E3E6FF
:1017C000F3E0DE01119601900D928A95E1F7E09029
:1017D0006503F0906603009167031091680310920F
:1017E0006503109266031092670310926803E1107C
:1017F00003C0FF2009F45DC080915E0390915F03F8
:101800000E943A1EAC0190916103992339F0209116
:10181000270230E02417350758F04BC020912802EA
:101820008AE0289F900111242417350718F041C041
:101830009F3F19F09F5F90936103EE2061F00E943B
:10184000610A1E1414F09FEF01C091E0989F902D43
:10185000112490936503FF2061F00E94610A1F1418
:1018600014F09FEF01C091E0989F902D1124909368
:101870006603309165033323E1F020916603222350
:10188000C1F045EB3403C0011124992319F0909362
:10189000650303C081E08093650335EB2303C0013A
:1018A0001124992319F09093660303C081E080937B
:1018B0006603011103C0112309F45DC080915C032C
:1018C00090915D030E943A1EAC01909160039923B0
:1018D00039F02091230230E02417350758F04BC02F
:1018E000209124028AE0289F9001112424173507B3
:1018F00018F041C09F3F19F09F5F90936003002351
:1019000061F00E94AA0A101614F09FEF01C091E046
:10191000989F902D112490936703112361F00E94EA
:10192000AA0A111614F09FEF01C091E0989F902D24
:10193000112490936803309167033323E1F02091E1
:1019400068032223C1F045EB3403C001112499231D
:1019500019F09093670303C081E08093670335EB30
:101960002303C0011124992319F09093680303C045
:1019700081E0809368038091650381110BC08091A1
:101980006603811107C080916703811103C08091B4
:10199000680381110E94B50BEB82FC820D831E83CC
:1019A00086E0FE013196A3E6B3E001900D928A95A0
:1019B000E1F726960FB6F894DEBF0FBECDBFDF91DC
:1019C000CF911F910F91FF90EF900895E3E6F3E020
:1019D00086E0DF011D928A95E9F71092610310926B
:1019E00060031092620308950F931F93CF93DF93C8
:1019F000C42FD22FFC0182818823C9F040936B034E
:101A00000E94221E90936A038093690380E28C0FE8
:101A1000883008F057C0C77081E001C0880FCA95B0
:101A2000EAF7DF91CF911F910F910C94E41280910E
:101A30006B03481330C08091690390916A030E9440
:101A40003A1E883C910538F510E21D0FCD17B9F00C
:101A500080E28C0F883040F4C77081E001C0880FAD
:101A6000CA95EAF70E94EB12183028F581E09D2F05
:101A7000977001C0880F9A95EAF70E94E412802FB0
:101A80000E94DB121830F0F4D77081E001C0880F9B
:101A9000DA95EAF70AC080E28C0F883098F4C770B4
:101AA00081E001C0880FCA95EAF7DF91CF911F91BD
:101AB0000F910C94EB12802FDF91CF911F910F911A
:101AC0000C94DB12DF91CF911F910F9108950F932A
:101AD0009C01CB01243F4CE5340731F188F4293DCA
:101AE000FCE53F07D9F02A3D4CE5340779F1283D64
:101AF0003C45A9F506E221EE41EE68ED7CE52BC000
:101B0000263FFCE53F07E1F0A8F0273F3C4539F5CB
:101B100007E225EE46EE67EF7CE51DC007E225EE05
:101B200045EE69ED7CE517C006E221EE40EE64EF7C
:101B30007CE511C007E225EE44EE65EF7CE50BC0C5
:101B400006E221EE42EE66EF7CE505C008E221E008
:101B500045EE6AED7CE50E94F40C80E008C0FC01D3
:101B60008281882319F010926B0301C081E00F91EC
:101B70000895CF93DF93EC01FB018281882309F460
:101B80001FC1C230FCE5DF0708F41BC1C6319CE56C
:101B9000D90738F09E012B5F3C452930310508F00C
:101BA00010C10E94401C90934E0480934D04C0319C
:101BB000ECE5DE0709F4C3C008F041C0C8308CE58D
:101BC000D80709F49AC0F0F4C430ECE5DE0709F454
:101BD00087C068F4C2308CE5D80709F477C0C330F9
:101BE000DC4509F0E3C080914D04826076C0C630C8
:101BF000ECE5DE0709F46EC008F07BC080914D046F
:101C000088606BC0CC308CE5D80709F485C068F4D7
:101C1000CA30ECE5DE0709F474C008F079C00E9410
:101C20007F1580914D04806858C0CE308CE5D80770
:101C300009F476C008F07FC080914D048BC0CC3F82
:101C4000ECE5DE0709F44FC018F5C3318CE5D80781
:101C500009F47DC078F4C131ECE5DE0709F473C006
:101C6000C231DC4509F0A2C00E947F1580914D046D
:101C70008F7733C0C5318CE5D80709F472C008F4FA
:101C800086C0CB3FDC4509F091C080914E043EC038
:101C9000C115FDE5DF0709F45FC058F4CE3F9CE5B0
:101CA000D90709F444C008F43FC080914E04826013
:101CB0002DC0C230FDE5DF0709F475C008F45DC032
:101CC000C330DD4509F072C080E06EC080914D04E4
:101CD000816003C080914D04806180934D0466C093
:101CE00080914D0411C080914E04826080934E0417
:101CF0005DC080914D048062F0CF80914D0480647E
:101D0000ECCF80914D0488608460E7CF8160EECF96
:101D100080914D048E7FE1CF80914D048D7FDDCF8A
:101D200080914D04877FD9CF80914E0418C0809157
:101D30004E048D7FDBCF80914D048F7ECECF80917E
:101D40004D048F7DCACF80914D048F7BC6CF80918B
:101D50004D04877F8B7FC1CF80914E048D7F8E7F16
:101D6000C5CF80914D0482FB222720F991E0922774
:101D700090FB82F990FB83F9B0CF80914E04982FAD
:101D8000909591708E7F892B90FB81F9AFCF0E9447
:101D90007F1580914D0487FB222720F991E092273F
:101DA00090FB87F99ACF81E00E94D71C80914D0467
:101DB00090914E040E94511C0E947F1580E001C04A
:101DC00081E0DF91CF910895CF93DF9386319C45D9
:101DD00041F5EB010E946C1B982F8A8120912A0209
:101DE00030912B02882379F09A7A81E009F480E01F
:101DF00080936C03911102C069E201C065E3C901DF
:101E00000E94721D0AC080916C03811102C069E2B8
:101E100001C065E3C9010E947D1D0E94BE1B80E0D8
:101E200001C081E0DF91CF910895CF9390917D0320
:101E30009923C9F0882311F0C0E003C010927D03FC
:101E400012C080917D03C817C8F7EC2FF0E0EE0FA9
:101E5000FF1FE359FC4F808191810E94FC050E9485
:101E6000BE1BCF5FEECFCF910895089580912902D8
:101E70008823A1F080917E03882381F080918203E2
:101E800090918303009751F00E943A1E893C91057E
:101E900028F010927E0381E00C94150F08951092A3
:101EA0007E0310922902109283031092820381E034
:101EB0000C94150F8091290281110C944F0F81E031
:101EC0008093290208955F926F927F928F929F92E2
:101ED000AF92BF92CF92DF92EF92FF920F931F9338
:101EE000CF93DF938C016B0110927F03083F8CE549
:101EF000180741F4FB01C281CC23D1F081E080932B
:101F0000290213C1093FFCE51F0739F4FB01C28117
:101F1000CC2371F00E944F0F08C10A3FFCE51F0758
:101F200039F4FB01C281CC2319F00E945A0FFDC085
:101F300080912902882309F4F7C01092810310923E
:101F40008003AA24A394B12C95E0992EC1E0D0E09F
:101F500088248394E0908003F0908103F2E0EF16F0
:101F6000F10408F0A3C09E9CF0019F9CF00D112489
:101F7000EC57FC4F9081418177247A9480E0E92FDF
:101F8000F42FE80FF11DE80FF11D25913491021790
:101F9000130709F4782E232B11F08F5FF0CFFFEF9A
:101FA0007F1202C0612C65C050907E03F6016280F2
:101FB000662069F19E9CF0019F9CF00D1124EC5766
:101FC000FC4F9E0101C0220F7A94EAF79481292BDD
:101FD0002483552039F3AE0102C0440F551F8A9562
:101FE000E2F741505109822F90E04817590709F054
:101FF00040C082819381009719F00E94FC0504C0C3
:1020000061E0C7010E94350F80927F0332C09E01BC
:1020100002C0220F331F8A95E2F7215031099E9C9E
:10202000F0019F9CF00D1124EC57FC4F848190E04F
:102030002817390761F482819381009719F00E9473
:10204000120606C060E0C7010E94350F01C0512C86
:102050009E9CF0019F9CF00D1124EC57FC4FCE018B
:1020600001C0880F7A94EAF780959481892384834C
:10207000652CB628AA2069F09E9CF0019F9CF00D6B
:102080001124EC57FC4F91E08481811190E0892F5D
:1020900001C080E08170A82E80918003909181031F
:1020A0000196909381038093800354CF80917F03A6
:1020B000882351F00E94221E909383038093820311
:1020C00080E00E94150F2CC0B1100DC081E00E946D
:1020D000150FAA2029F1109283031092820381E048
:1020E00080937E031DC0F60182818823C9F0809110
:1020F0007E038823A9F00E94221E9093830380937D
:102100008203E0917D03E83058F481E08E0F8093E4
:102110007D03F0E0EE0FFF1FE359FC4F11830083B6
:1021200081E0CB2DC82701C0C1E08C2FDF91CF917A
:102130001F910F91FF90EF90DF90CF90BF90AF90E5
:102140009F908F907F906F905F90089590939303EE
:10215000809392030895E0919203F0919303309756
:1021600021F00190F081E02D099480E00895E09144
:102170009203F0919303309799F020913602222335
:1021800059F020914D0427FF07C0DC012C911196D6
:102190002C93119725E02C930280F381E02D099474
:1021A0000895E0919203F0919303309739F022E083
:1021B000DC012C930480F581E02D09940895209191
:1021C0009003309191032817390771F09093910390
:1021D00080939003E0919203F0919303309721F064
:1021E0000680F781E02D0994089520918E033091A7
:1021F0008F032817390771F090938F0380938E0314
:10220000E0919203F0919303309721F00084F185DF
:10221000E02D099408950E942E1E6093A1037093EF
:10222000A2038093A3039093A40360939D037093F0
:102230009E0380939F039093A003089585B78068C1
:1022400085BF85B7806885BF089581E008950C94A7
:10225000251108950C9429110C9429110C942C111A
:102260000C9429110C9430110C9429110E941E1108
:102270008BE29CE10E94A11E0E9434110C94321149
:102280000E942A110C9429110E94191E0E945509BE
:102290000C942E116F927F928F929F92AF92BF9269
:1022A000CF92DF92EF92FF920F931F93CF93DF9322
:1022B000CDB7DEB72A970FB6F894DEBF0FBECDBFFD
:1022C0000E94980981110E940B1135E9832E33E099
:1022D000932E00E010E0C02E802F0E942C095C019C
:1022E000F401619071904F016826792661147104A0
:1022F000B1F40F5F1F4F0430110569F78FEF898329
:102300008A831B820E94221E8160782F9D838C838A
:1023100049815A816B818D810E9400123AC080915F
:10232000290481FD0E943509D12CEE24E394F12C7F
:10233000C3018E219F21892B29F10E942711882317
:10234000A9F0DE82CF82AE20BF2081E0AB2809F465
:1023500080E088870E94221E8160782F9A87898773
:102360004E815F8168858A850E940012000F111FCF
:10237000F801EB56FC4F80819181E826F926F18225
:10238000E08207C0D394EE0CFF1CFCE0DF12D0CF3C
:10239000B0CF0E94D30B0E94AB1090919403891789
:1023A000D1F00E94AB10809394032A960FB6F89454
:1023B000DEBF0FBECDBFDF91CF911F910F91FF9078
:1023C000EF90DF90CF90BF90AF909F908F907F90D5
:1023D0006F900C94F0062A960FB6F894DEBF0FBEED
:1023E000CDBFDF91CF911F910F91FF90EF90DF90C4
:1023F000CF90BF90AF909F908F907F906F900895F7
:10240000DF92EF92FF920F931F93CF93DF93CDB79D
:10241000DEB72B970FB6F894DEBF0FBECDBFF42EFC
:10242000052F162FE72ED82E61110E948C1BFE015E
:10243000319686E0DF011D928A95E9F77E2D4F2DBA
:10244000502F612F8D2D9E810E9438182B960FB62C
:10245000F894DEBF0FBECDBFDF91CF911F910F91DA
:10246000FF90EF90DF900895FC01808191810E94A0
:102470000C1B0895CF93882309F450C0C82F8CEF0C
:102480008C0F813AD0F46C2F80912A0290912B020C
:102490000E94F21C882349F06C2F80912A029091AF
:1024A0002B020E947D1D0E94BE1B6C2F80912A0270
:1024B00090912B020E94721D0CC080E28C0F88301C
:1024C00058F4C77081E001C0880FCA95EAF70E94EE
:1024D0006F1BCF910C94BE1BEBE5EC0FE33040F487
:1024E000F0E0EA55FD4F808190E0CF910C94DF1031
:1024F000E8E5EC0FE73150F4F0E0EE0FFF1FE8588D
:10250000FD4F80819181CF910C94F510CD3E30F03C
:102510008C2F0E94E30ACF910C94B50BCF910895B4
:10252000882389F19CEF980F913A40F4682F8091AD
:102530002A0290912B020E947D1D0DC090E2980FFF
:10254000983058F4877091E001C0990F8A95EAF7A6
:10255000892F0E94751B0C94BE1B9BE5980F93302E
:1025600020F480E090E00C94DF1098E5980F97310C
:1025700020F480E090E00C94F5108D3E20F00E9455
:102580003E0B0C94B50B08951F93CF93DF93182F38
:10259000EB010E943A12209741F08FE99FE00197EA
:1025A000F1F700C000002197F6CF812FDF91CF9186
:1025B0001F910C949012893319F060E070E002C012
:1025C00060E570E00C94C412882321F00E946F1B18
:1025D0000C94BE1B0895882321F00E94751B0C9457
:1025E000BE1B0895CF92DF92EF92FF920F931F933D
:1025F000CF93DF937C01062FC72FFC01D281158179
:1026000012951F700E94441B882399F0DD2389F0E6
:102610008C2F807F803421F080E2800F883048F05A
:1026200082E00E940E1C0E94441B91E0D82ED92605
:1026300001C0D12CCC2EC2948FE0C8228C2D90E00A
:10264000FC01E45BFF4F0C9490258C2F807FCF70B2
:10265000882311F0C295C07FDD2399F0CC2309F4C3
:102660008DC180E2800F883010F0011104C08C2FE2
:102670000E946F1B03C08C2F0E947F1B0E94BE1BF9
:102680007DC1802F0E949012CC2309F49CC180E26E
:10269000800F883010F0011104C08C2F0E94751B30
:1026A00003C08C2F0E94851B0E94BE1B8CC18C2FE7
:1026B000807FCF70803211F0C295C07F002319F067
:1026C0000130C9F022C0DD2371F0112341F0113037
:1026D00031F40E949F1B8C2B0E94A71B74C10E9487
:1026E0009F1B8C2B1DC0112319F0113009F46BC1F5
:1026F0000E94B41B25C0DD2321F0133008F063C114
:102700000EC0123008F05FC11BC0DD2361F0112341
:1027100031F0F701858180FF31C18F7085838C2F67
:102720000E94E41250C1112359F0093309F037C156
:10273000FFEF27EE83E0F15020408040E1F72DC10C
:102740008C2F0E94EB123FC18C2F8695869583704B
:1027500019F0813061F037C1DD2321F0802F9C2FEB
:10276000937002C080E090E00E94DF1034C1DD234E
:1027700021F0802F9C2F937002C080E090E00E9497
:10278000F51029C1802FDD2319F00E94E30A02C051
:102790000E943E0B0E94B50B1EC18C2F837009F066
:1027A00045C0D11114C1402F429546954770440F42
:1027B000440F602F6F70862F90E0A0E0B0E0042EF1
:1027C00004C0880F991FAA1FBB1F0A94D2F704FFE9
:1027D00010C00FE010E020E030E004C0000F111F37
:1027E000221F331F4A95D2F70095109520953095FA
:1027F00003C000E010E09801C695C695C370BC0107
:10280000CD01602B712B822B932BC23049F058F4F1
:10281000C13019F00E948919DAC00E947719D7C017
:102820000E949B19D4C00E947519D1C0DD2319F0F4
:102830008C2F817001C08695882309F4C8C0402F71
:10284000429546954770440F440F602F6F70862F56
:1028500090E0A0E0B0E0042E04C0880F991FAA1FEA
:10286000BB1F0A94D2F704FF10C00FE010E020E075
:1028700030E004C0000F111F221F331F4A95D2F70A
:10288000009510952095309503C000E010E0980168
:10289000C695C695C370BC01CD01602B712B822BF0
:1028A000932BC23049F058F4C13019F00E944E1AEF
:1028B0008EC00E943C1A8BC00E94601A88C00E9481
:1028C000AF1985C0CF70DD2339F08C2F0E94D51948
:1028D000802F0E94E4127BC0802F0E94EB128C2F6D
:1028E0000E94F61974C0023F01F128F4003F41F044
:1028F000013FA1F03FC0033FF9F0043F39F13AC076
:10290000DD2341F0123008F05EC08C2F8F710E94E1
:102910001B1A59C0133008F056C0F7CFDD2339F029
:102920008C2F8F710E94D5194EC0DD23C9F38C2FD7
:102930008F710E94F61947C0DD2329F08C2F8F710B
:102940000E94C01940C00E94BB193DC0DD2349F060
:10295000CF718C2F0E94D51963E08C2F0E94F31B3E
:1029600032C081E00E940E1C123068F182E00E94A9
:102970000E1C29C0DD2331F0112391F2802F0E941B
:102980003A1221C0112399F2093349F49FEFE7EE7F
:10299000F3E09150E040F040E1F700C00000802FEC
:1029A0000E94901210C04C2F4F70602FC7010E94E0
:1029B000F9060E94E6180FC04C2F4F70602FC70118
:1029C0000E94FC0608C088EF8C0D843020F40E9421
:1029D000AB100E94F006DD20C9F00E94401B80FD74
:1029E00015C0F70112820E943A1B0E94D519C70137
:1029F0000E9427150E943A1BDF91CF911F910F91E2
:102A0000FF90EF90DF90CF900C94F619DF91CF916B
:102A10001F910F91FF90EF90DF90CF9008950F934B
:102A20001F93CF93DF93EC01688179818A810E94A3
:102A3000171B8C010E94721A0E946319B801CE0103
:102A40000E94F212DF91CF911F910F910895CF93C1
:102A5000DF93EC01988189812B813C81232B31F01C
:102A60008F3F31F481E09F3F19F403C081E001C042
:102A700080E080FD19C0CE010E94900681110CC03B
:102A80000E94441B882381F08A81882369F082E0B8
:102A9000DF91CF910C940E1CCE010E940F15CE0138
:102AA000DF91CF910C946D06DF91CF91089588232B
:102AB00021F00E947F1B0C94BE1B0895882321F0F7
:102AC0000E94851B0C94BE1B089580E090E00E943C
:102AD000DF1080E090E00E94F5100E948C1B0E94A5
:102AE0009C1B0E94BE1B0E94E60C0C94B50B8091AF
:102AF0002A0290912B020E94881D0C9465150E9459
:102B00007C1B0C947715E92FE295EF704E2F50E067
:102B1000FA013297EE30F105B0F4E45AFF4F0C940D
:102B20009025803F91F018F4883E68F40EC0843FF1
:102B300051F40BC0883E48F0813F29F406C093FB56
:102B4000882780F9089580E0089581E008950E9423
:102B50000C1B0E9483150895CF93DF9300D000D003
:102B60001F92CDB7DEB70F900F900F900F900F9080
:102B7000DF91CF910895CF93DF9300D000D000D0A4
:102B8000CDB7DEB726960FB6F894DEBF0FBECDBF29
:102B9000DF91CF9108951F93CF93DF93C091A60348
:102BA00016E08091A703C81799F0D0E01C9FF001B0
:102BB0001D9FF00D1124E855FC4F40815181628129
:102BC0007381848195810E94BB152196C770E9CFDE
:102BD000DF91CF911F9108954091D8035091D9036F
:102BE0006091DA037091DB038091DC039091DD0347
:102BF0000C94BB150F931F93CF93DF938091DD034C
:102C000082958F7009F05DC08091DA03882309F402
:102C100058C08091A6031091A7036091D8037091CA
:102C2000D903C091DB03D091DC0391E06F3F09F041
:102C300090E0292F06E0811709F443C0209721F086
:102C40007F3F21F030E003C031E001C0322F90E03F
:102C500030FD34C0089FF001099FF00D1124DF0101
:102C6000A855BC4F11963C911197371327C03C9142
:102C7000361324C012963C91129731111FC013963F
:102C80004D915C9114974C1B5D0B483C5105B0F481
:102C90008091DD038F7080618093DD03E355FC4FED
:102CA00080818F708061808388ED93E00E9427157A
:102CB000DF91CF911F910F910C94CB1501968770E6
:102CC000BACFDF91CF911F910F9108959F92AF924C
:102CD000BF92CF92DF92EF92FF920F931F93CF9309
:102CE000DF93CDB7DEB761970FB6F894DEBF0FBEA6
:102CF000CDBF8C0185E0F801DE011D9601900D929B
:102D00008A95E1F7F80140815181E2809091D803E2
:102D10006091D9032091DB033091DC03211531054B
:102D200031F06F3F31F481E09F3F19F403C081E03F
:102D300001C080E0F82FF1709F2E80FD46C1F801A0
:102D4000A380B48088EDC82E83E0D82EF090DA03FB
:102D5000F501E21BF30BFF2009F4DFC08091DD03D6
:102D6000E83CF10508F09BC0282F207F09F052C0F5
:102D7000561313C0491311C0FE2CE1100EC08F7002
:102D800080618093DD030E94EC15C6010E94271527
:102D90008091DD03F801858358C1AB2831F05F3F96
:102DA00031F481E04F3F19F403C081E001C080E0BD
:102DB00080FD03C081E08E2502C080E090E0F82F06
:102DC000F170FF2E80FF1CC08091A6032091A70305
:102DD00036E0821709F417C190E0389FF001399F5F
:102DE000F00D1124E855FC4F6181561306C0608137
:102DF000461303C06281E61203C001968770E9CFD3
:102E0000FE2CEE2009F421C18091DD0381608093C6
:102E1000DD035AC0561306C0491304C0E11002C0B6
:102E2000F8019FC04D875E878D859E850E94A715FE
:102E3000882379F1EE2069F12091DD03822F8295BC
:102E40008F7090E0029774F08091D8039091D9032D
:102E500098878F831986BB86AA862C87CE01079612
:102E60000E94271586E0F801A8EDB3E001900D92CD
:102E70008A95E1F70E94FA150E94EC150DC05617CD
:102E800029F14D875E878D859E850E94A71581114A
:102E90002CC0C8010E942715FF24F394D6C0282F08
:102EA000207F69F77A2DB98AA88A6E2D89890E94B8
:102EB000AC1588ED93E00E94271586E0F60111928B
:102EC0008A95E9F70E94EC15F12CBFC04913D9CFC0
:102ED000E110D7CFF8018583C8010E94271586E04D
:102EE000F60111928A95E9F7B0C0EE2091F2209197
:102EF000DD03822F82958F7090E002970CF4B2CFA1
:102F00008091D8039091D9039A8389831B82BD82D3
:102F1000AC822E83CE010196A3CFE83CF10508F0E8
:102F200047C0FE2CEE2009F4B4CF561330C049132D
:102F30002EC02091DD0320FD21C0822F82958F704D
:102F4000482F50E041155105C9F0F80125834F3055
:102F5000510541F08F5F982F9295907F822F8F704F
:102F6000892B8583C8010E94271586E0F801A8ED0A
:102F7000B3E001900D928A95E1F742C086E0F80136
:102F8000A8EDB3E001900D928A95E1F75EC04D8700
:102F90005E878D859E850E94A715811163CF8091E4
:102FA000DD0381608093DD03C8010E9427154DC0B9
:102FB0007A2DB98AA88A6E2D89890E94AC1586E07F
:102FC000F60111928A95E9F71BC0EE2009F461CF52
:102FD0004D875E878D859E850E94A715F82E8823D4
:102FE00009F457CF86E0F801A8EDB3E001900D9207
:102FF0008A95E1F788ED93E00E9434120E94FA1559
:103000000E94EC1522C04D875E878D859E850E94AB
:103010000C1B292F22952F70223028F49F7039F035
:10302000811105C00BC0243028F49F7049F4805EE4
:10303000883020F0C8010E9427159F2CF92C05C06C
:10304000F8019581907F99F7F9CF8F2D61960FB692
:10305000F894DEBF0FBECDBFDF91CF911F910F91CE
:10306000FF90EF90DF90CF90BF90AF909F9008952A
:103070001F93CF93DF93CDB7DEB72C970FB6F8949D
:10308000DEBF0FBECDBF4F83588769877A878B8796
:103090009C87CE0107960E9466168823D1F09F81F7
:1030A00088852A853B85232B31F08F3F31F481E0E1
:1030B0009F3F19F403C081E001C080E080FD47C05C
:1030C0004F81588569857A858B859C850E94BB15C3
:1030D0003EC086E0FE013796DE01119601900D920A
:1030E0008A95E1F7FF81E8856A857B856115710521
:1030F00031F0EF3F31F481E0FF3F19F403C081E08C
:1031000001C080E080FD23C02091A70330E0C90109
:103110000196877099274091A60350E08417950780
:10312000F1F1F983EA837D836C8396E0929FD0016D
:10313000939FB00D1124A855BC4FFE01319601900C
:103140000D929A95E1F78093A7030E94CB1516E0A4
:103150008091A6039091A703891771F1189FC00170
:10316000112488559C4F0E946616882329F1E0910E
:10317000A6031E9FF0011124E855FC4F40815181A8
:1031800062817381848195810E94BB158091A60321
:1031900090E00196877099278093A603D9CF0E946B
:1031A0007F151092A7031092A603E8EDF3E086E0E6
:1031B000DF011D928A95E9F72C960FB6F894DEBFD1
:1031C0000FBECDBFDF91CF911F910895EF92FF9277
:1031D0000F931F93CF93DF938C01892B09F46CC05D
:1031E000F12CEE24E394E8012196F80184918437D0
:1031F00040F4843008F051C0813081F0823019F100
:103200005BC0853709F444C0A8F19CE7980F90375C
:1032100008F052C08F770E94901241C00E5F1F4F7E
:10322000FE01849190E2980F983050F48770FE2D43
:1032300001C0FF0F8A95EAF78F2F0E948F1B14C0E1
:103240000E943A122DC00E5F1F4FFE01849190E242
:10325000980F983060F48770FE2D01C0FF0F8A959B
:10326000EAF78F2F0E94951B0E94BE1B19C00E9477
:10327000901216C00E5F1F4FFE01C491CC2381F047
:103280008FE99FE00197F1F700C00000C150F6CF31
:103290000E5F1F4FFE01F49003C00E943A128E0190
:1032A0008F2D882309F49FCFEFE9FFE03197F1F7E5
:1032B00000C000008150F5CFDF91CF911F910F9199
:1032C000FF90EF900895089508950C9464190C945C
:1032D00065190E946719609300047093010480933C
:1032E0000204909303040C9465150C9469190F93D0
:1032F0001F93009100041091010420910204309169
:103300000304602B712B822B932B1F910F910C9434
:1033100069190F931F9300910004109101042091EB
:1033200002043091030460237123822393231F91AD
:103330000F910C9469190F931F9300910004109141
:103340000104209102043091030460277127822731
:1033500093271F910F910C9469190C94B1050E9449
:10336000AD196093FC037093FD038093FE0390936B
:10337000FF030C94651560E070E0CB010C94AF196D
:103380000F931F9341E050E060E070E08A019B01E1
:1033900004C0000F111F221F331F8A95D2F7C901E5
:1033A000B8011F910F910C94AF190F931F9341E037
:1033B00050E060E070E004C0440F551F661F771FA7
:1033C0008A95D2F78091FC039091FD03A091FE03B2
:1033D000B091FF038A019B01082B192B2A2B3B2B51
:1033E000C901B8011F910F910C94AF190F931F934E
:1033F00041E050E060E070E004C0440F551F661FDC
:10340000771F8A95D2F74095509560957095809179
:10341000FC039091FD03A091FE03B091FF038A018C
:103420009B01082319232A233B23C901B8011F91BB
:103430000F910C94AF190F931F9341E050E060E09F
:1034400070E004C0440F551F661F771F8A95D2F79E
:103450008091FC039091FD03A091FE03B091FF03C6
:103460008A019B01082719272A273B27C901B80190
:103470001F910F910C94AF190F931F930091FC03B0
:103480001091FD032091FE033091FF03602B712BFF
:10349000822B932B1F910F910C94AF190F931F93B5
:1034A0000091FC031091FD032091FE033091FF0376
:1034B00060237123822393231F910F910C94AF19E2
:1034C0000F931F930091FC031091FD032091FE03C5
:1034D0003091FF0360277127822793271F910F9157
:1034E0000C94AF1908952CE0929F800D1124E82FC1
:1034F000E695E695E695877051E001C0550F8A95EF
:10350000EAF785E0E89FF0011124E252FC4F20E049
:1035100030E070E04081CB01022E02C09695879585
:103520000A94E2F78170819584278523842781930B
:103530002F5F3F4F2530310569F708952CE0929FAA
:10354000800D1124682F669566956695982F977063
:1035500085E0689FB001112440E050E080E0FB016D
:10356000E40FF51FE252FC4F208130E0092E02C02B
:10357000369527950A94E2F721703327042E01C06F
:10358000220F0A94EAF7822B4F5F5F4F45305105B7
:1035900031F70895BF92CF92DF92EF92FF920F938F
:1035A0001F93CF93DF938C01C090FC03D090FD0359
:1035B000E090FE03F090FF038091000490910104DD
:1035C000A0910204B0910304C82AD92AEA2AFB2A4E
:1035D000CFE1D0E0D701C6010C2E04C0B695A79567
:1035E000979587950A94D2F780FD04C0219790F7AC
:1035F000B12C07C0BC2EB8018C2F0E941807019770
:10360000A9F38B2DDF91CF911F910F91FF90EF9038
:10361000DF90CF90BF900895CF93DF93EC010E948D
:10362000CA1ABE010E941807DF91CF9108951F9317
:10363000CF93DF93EB019091A503992321F0CB0168
:103640000E940C1B13C0882349F0CB010E94CA1AA8
:10365000182F682FCE010E94731A04C0CB010E945C
:103660009E1A182FBE01812F0E941807DF91CF915B
:103670001F910895809104048595859585950895F9
:10368000809104048770089590910404977081E0FC
:1036900009F480E0089590914E0492FB222720F9CE
:1036A000281751F080FB92F990934E0480914D04BD
:1036B00090914E040C94511C089580914E0482FB0D
:1036C000882780F991E089270C944B1B81E00C94AA
:1036D0004B1B80E00C944B1B809128040895909123
:1036E0002804892B809328040895809590912804BC
:1036F00089238093280408951092280408959091B6
:103700002704892B8093270408958095909127049E
:103710008923809327040895109227040895909197
:103720002604892B80932604089580959091260481
:103730008923809326040895109226040895809189
:103740000504089508950C94A21B0C94A31B90915A
:103750004E0492FD08C090910504981721F08093C3
:1037600005040C94A51B089580910504882329F075
:103770001092050480E00C94A51B0895E0912A02A4
:10378000F0912B02809128048083E0912A02F0912D
:103790002B02908180912704892B8083E0912A025B
:1037A000F0912B02908180912604892B8083809157
:1037B0000504882381F0E0912A02F0912B02908188
:1037C000892B808380912A0290912B020E94DC1C1D
:1037D00081110E94B41B80912A0290912B020C94BB
:1037E000B7100C94A21B90914E0492FD10C098E06B
:1037F000899F90011124262B209304040E94D5193F
:10380000809104048595859585950C94F11B0C9405
:10381000D5191092040480E00C94F11B209104044B
:103820008095822380930404982F977041F430E0B0
:10383000482F082E000C550B2417350721F49091C2
:103840004E0492FF07C08595859585950E94F619CF
:103850000C94091C089580E0089580E090E00E9497
:10386000B52521E08A3E9E4F09F020E0822F089581
:1038700082E090E00C94AD2583E090E00C94AD25BF
:10388000CF9384E090E00E94AD25C82F82E290E0C3
:103890000E94AD252C2F30E0A901582BCA01CF91F1
:1038A0000895CF93C92F682F84E090E00E94BB2534
:1038B0006C2F82E290E0CF910C94BB25AB01BC0150
:1038C0008FE090E00C94CD25AB01BC0183E190E04A
:1038D0000C94CD2560E070E0CB010C94641C60E09A
:1038E00070E0CB010E945E1C0C946A1C6AEE7EEFB5
:1038F00080E090E00E94D92560E082E090E00E94A4
:10390000BB2560E083E090E00E94BB25109200049C
:1039100010920104109202041092030460E084E00B
:1039200090E00E94BB2560E082E290E00E94BB250F
:1039300060E085E090E00E94BB2560E086E090E0DA
:103940000E94BB256FEF87E090E00E94BB2540E01E
:1039500050E0BA0188E090E00E94CD2560E08DE063
:1039600090E00E94BB2540E050E0BA0188E190E081
:103970000E94CD2560E087E190E00E94BB2540E0F9
:1039800050E0BA018CE190E00E94CD2560E070E04B
:1039900080E290E00E94D92540E050E0BA0188E141
:1039A00090E00E94CD250C946F1C0C94761C682F1F
:1039B0008EE090E00C94BB25FC013296809136029B
:1039C000882331F080914D0487FF02C09EE101C041
:1039D00096E080E0915028F021912223D9F38F5F67
:1039E000F9CF0895662351F1209136022223E9F0A0
:1039F00020914D0427FF19C0462F469546954695C0
:103A00004E31E0F4677021E030E002C0220F331F36
:103A10006A95E2F7FC01E40FF11D828190E0282312
:103A2000392381E0232B69F409C0FC013296089602
:103A30002191621729F0E817F907D1F780E008957E
:103A400081E008959C01FC0132969FEF80E0419156
:103A5000461789F09F3F19F4411101C0982F8F5FDD
:103A60008630A9F79F3F39F0F901E90FF11D97FD65
:103A7000FA956283089508959C012A5F3F4FFC01E7
:103A80004281461301C01282019682179307B9F74B
:103A90000895262F2695269526952E3168F4FC014B
:103AA000E20FF11D677021E030E001C0220F6A953E
:103AB000EAF78281282B22830895262F26952695C2
:103AC00026952E3170F4FC01E20FF11D677021E0A4
:103AD00030E001C0220F6A95EAF720958281282301
:103AE0002283089520913602222329F020914D044B
:103AF00027FD0C94491D0C94221D2091360222238F
:103B000029F020914D0427FD0C945D1D0C943C1D63
:103B100020913602FC013296222331F080914D042F
:103B200087FF02C08EE101C086E0DF011D928A9509
:103B3000E9F7089508950C949A1D0C949A1DCF935B
:103B40000E949D1D0E9498090E949B1DC0E08C2F21
:103B50000E942C09892B29F4CF5FC430C1F780E083
:103B600001C081E0CF9108950C949A1D0C94B41D6E
:103B700080916704843049F10E94B61D80E00E9464
:103B8000F00610922A0420E488E190E00FB6F89441
:103B9000A895809360000FBE2093600083B7817F5B
:103BA000846083BF83B7816083BF7894889583B72F
:103BB0008E7F83BF0FB6F894A895809160008861CE
:103BC00080936000109260000FBE08950C949A1DBF
:103BD0000E947F150E94AB100E94F0060C94E61D17
:103BE0001F920F920FB60F9211248F939F93AF9352
:103BF000BF9380912A04811113C080915F0490913A
:103C00006004A0916104B09162044196A11DB11DB0
:103C100080935F0490936004A0936104B093620466
:103C2000BF91AF919F918F910F900FBE0F901F90FA
:103C3000189582E084BD93E095BD9AEF97BD80937F
:103C40006E0008952FB7F89480915F0490916004FE
:103C5000A0916104B09162042FBF08952FB7F8942A
:103C600060915F047091600480916104909162049E
:103C70002FBF08959C014FB7F89480915F049091F5
:103C80006004A0916104B09162044FBF821B930B4A
:103C9000089578941F920F920FB60F9211248F936C
:103CA0009F93AF93BF9380915F0490916004A09124
:103CB0006104B09162040196A11DB11D80935F045F
:103CC00090936004A0936104B0936204BF91AF919C
:103CD0009F918F910F900FBE0F901F901895F894A1
:103CE00081E08093E00080E28093D800E9ECF0E08E
:103CF00010828FE19EE40197F1F700C000001DBA29
:103D0000109268001CBC10BE1FBA10927A0010926C
:103D10006E0010926F00109270001092710010826D
:103D20001092BC0011B814B817B81AB81DB810BA60
:103D300012B815B818B81BB81EB811BA0C9400FE0A
:103D400008959093AB028093AA02089580914B044A
:103D50000895CF93DF9300D01F92CDB7DEB7909137
:103D60006704943019F589837B836A8382E08093AA
:103D7000E9008FEF9091E800815095FD06C095ED28
:103D80009A95F1F700008111F5CF8091E80085FF49
:103D90000DC040E050E063E070E0CE0101960E946B
:103DA000D7208091E8008E778093E8000F900F90E5
:103DB0000F90DF91CF910895BC0184E00C94A91E6F
:103DC000BC0183E00C94A91E22E02093E9002FEFB0
:103DD0003091E800215035FD06C035ED3A95F1F7F8
:103DE00000002111F5CF2091E80025FF0BC040E035
:103DF00050E066E070E00E94D7208091E8008E7766
:103E00008093E8000895CF93DF9320913602222318
:103E100039F020914D0427FF03C060E222E002C088
:103E200068E021E02093E9002FEF3091E800215075
:103E300035FD06C035ED3A95F1F700002111F5CFBB
:103E40002091E80025FF1DC0EC0180913602811110
:103E500005C040E050E068E070E003C070E040E082
:103E600050E0CE010E94D7208091E8008E778093A9
:103E7000E80080E2FE01ABE2B4E001900D928A9589
:103E8000E1F7DF91CF91089580916604811109C017
:103E90000E9464220E94C6228091E2008460809386
:103EA000E200089510926604089508950895089513
:103EB00042E061EC81E00E94DD2142E261EC82E0BF
:103EC0000C94DD2180916904833009F45EC030F4E4
:103ED000813071F0823009F497C008958A3009F476
:103EE00083C08B3009F469C0893009F0A5C020C0B7
:103EF00080916804813A09F09FC08091E800877F33
:103F00008093E80080916C0490916D04892B21F4DA
:103F100060E28BE294E003C060E080E090E070E05B
:103F20000E9422218091E8008B778093E800089519
:103F300080916804813209F07FC080916C04909177
:103F40006D04029708F078C08091E800877F809325
:103F5000E8008091E80082FD05C08091670481112E
:103F6000F8CF6AC08091F2009091F300029729F493
:103F70008091F1008B7F813021F48091F10080935A
:103F80004B048091E8008B7753C080916804813A9C
:103F900009F052C080916C0490916D04892B09F056
:103FA0004BC08091E800877F8093E8008091E80013
:103FB00080FFFCCF8091360236C080916804813248
:103FC000D9F580916C0490916D04892BA9F58091AD
:103FD000E800877F8093E8000E94122280916A04A3
:103FE000809336020C947F1580916804813221F50C
:103FF0008091E800877F8093E8000E9412228091E0
:104000006B0480934C04089580916804813AA1F474
:104010008091E800877F8093E8008091E80080FF2E
:10402000FCCF80914C048093F1008091E8008E7762
:104030008093E8000C941222089584B7877F84BF90
:104040000FB6F894A8958091600088618093600015
:10405000109260000FBE90E080E80FB6F894809355
:104060006100909361000FBE0E9436110E9464228D
:104070000E94C6228091E20084608093E2007894DE
:104080000E9461250E9444118CE292E00E94A610D9
:10409000809167048530A9F480916704853079F4B4
:1040A0000E94B81D809165048823B1F30E949F1D72
:1040B000882391F30E94C1200E947F15EDCF0E94BA
:1040C000E81D0E944A110E944011E2CF0C94682022
:1040D000292F332723303105C9F060F42130310511
:1040E00081F02230310509F044C08BE390E028EEE6
:1040F00032E043C021323105E1F02232310549F18D
:1041000038C082E190E023E233E037C09927813064
:10411000910549F028F0029761F5E8ECF2E005C05E
:10412000E4EEF2E002C0E8EDF2E0849190E09F015D
:1041300024C06115710541F061307105D1F489E049
:1041400090E023E133E019C089E090E02AEF32E00B
:1041500014C06115710541F06130710551F486EBB1
:1041600090E025E333E009C080E490E02BEE33E0FB
:1041700004C080E090E020E030E0FA013183208349
:10418000089584E189BD86E189BD09B400FEFDCFB3
:104190008091D8008F7D8093D8008091E00082606C
:1041A0008093E0008091E00081FDFCCF0895CF92E4
:1041B000DF92EF92FF920F931F93CF93DF93EC0167
:1041C0008B017A010E943122811133C0E114F10484
:1041D00039F0F70180819181081B190BC80FD91F95
:1041E000C12CD12C0115110519F18091E80085FD34
:1041F00016C08091E8008E778093E800E114F10406
:1042000049F0F70180819181C80ED91ED182C08208
:1042100085E00FC00E943122882321F30AC08991D2
:104220008093F10001501109FFEFCF1ADF0ADACFB6
:1042300080E0DF91CF911F910F91FF90EF90DF9081
:10424000CF90089520916E0430916F0426173707A0
:1042500048F06115710539F42091E8002E7720931C
:10426000E80001C0B901FC0120E06115710569F1A8
:10427000809167048823E1F18530E1F18091E800C5
:1042800083FD3AC08091E80082FD2CC08091E80057
:1042900080FFEBCF8091F2009091F30061157105E2
:1042A00051F08830910538F421912093F10061504C
:1042B00071090196F3CF21E0089709F020E0809181
:1042C000E8008E778093E800D0CF2111D1CF0AC0CB
:1042D00080916704882361F0853061F08091E80067
:1042E00083FD0AC08091E80082FFF2CF80E008954C
:1042F00082E0089583E0089581E0089520916E049E
:1043000030916F042617370748F06115710539F4AD
:104310002091E8002E772093E80001C0B901FC014C
:1043200020E06115710581F180916704882309F40B
:104330003EC0853009F43DC08091E80083FD3BC05C
:104340008091E80082FD2DC08091E80080FFE9CFD8
:104350008091F2009091F3006115710559F0883059
:10436000910540F424912093F10031966150710938
:104370000196F2CF21E0089709F020E08091E80053
:104380008E778093E800CDCF2111CECF0AC08091E7
:104390006704882361F0853061F08091E80083FD37
:1043A0000AC08091E80082FFF2CF80E0089582E0A9
:1043B000089583E0089581E00895982F973068F577
:1043C0009093E900981739F07091EC002091ED007E
:1043D0005091F00003C0242F762F50E021FD02C041
:1043E0009F5FECCF3091EB003E7F3093EB0030913C
:1043F000ED003D7F3093ED003091EB003160309364
:10440000EB007093EC002093ED005093F0002091AE
:10441000EE0027FDE5CF80E008958F708093E900DE
:1044200081E008958091680487FF11C08091E800C1
:1044300082FD05C0809167048111F8CF11C0809181
:10444000E8008B770BC080916704882349F0809146
:10445000E80080FFF8CF8091E8008E778093E80035
:1044600008952091E4003091E50095E64091EC003C
:10447000842F817040FF23C08091E80080FD1DC023
:1044800080916704882399F0853099F08091EB0042
:1044900085FD11C04091E4005091E50024173507D7
:1044A00029F3915011F09A01E1CF84E0089582E060
:1044B000089583E0089581E0089580E00895409193
:1044C000E80042FFDDCF08950E94D5220E94DD2240
:1044D000E0EEF0E0808181608083E8EDF0E08081B3
:1044E0008F77808319BCA7EDB0E08C918E7F8C9381
:1044F00080818F7E80831092660408950F931F93AE
:10450000CF93DF930E94D5220E94DD22C8EDD0E038
:1045100088818F77888388818068888388818F7D70
:104520008883E7EDF0E080818068808319BC109279
:10453000670410926304109265041092640400EE04
:1045400010E0F80180818B7F80838881816088837F
:1045500042E060E080E00E94DD21E1EEF0E0808159
:104560008E7F8083E2EEF0E08081816080838081B5
:1045700088608083F80180818E7F8083888180615C
:104580008883DF91CF911F910F910895E8EDF0E0BE
:1045900080818F7E8083E7EDF0E080818160808381
:1045A00081E0809366040C947E22E8EDF0E0808147
:1045B0008C7F80831092E20008951092DA001092AE
:1045C000E10008951F920F920FB60F9211240BB6BF
:1045D0000F922F933F934F935F936F937F938F939C
:1045E0009F93AF93BF93EF93FF938091E10082FF7E
:1045F0000BC08091E20082FF07C08091E1008B7FB9
:104600008093E1000E9460258091DA0080FF1FC046
:104610008091D80080FF1BC08091DA008E7F80934C
:10462000DA008091D90080FF0DC084E189BD86E168
:1046300089BD09B400FEFDCF81E0809367040E942C
:10464000441F05C019BC109267040E94521F80913C
:10465000E10080FF19C08091E20080FF15C08091C9
:10466000E2008E7F8093E2008091E200806180937F
:10467000E2008091D80080628093D80019BC85E068
:10468000809367040E94561F8091E10084FF30C030
:104690008091E20084FF2CC084E189BD86E189BD60
:1046A00009B400FEFDCF8091D8008F7D8093D800A3
:1046B0008091E1008F7E8093E1008091E2008F7E07
:1046C0008093E2008091E20081608093E20080911B
:1046D0006304882311F084E007C08091E30087FD24
:1046E00002C081E001C083E0809367040E94571FED
:1046F0008091E10083FF29C08091E20083FF25C003
:104700008091E100877F8093E10082E080936704DD
:10471000109263048091E1008E7F8093E10080918C
:10472000E2008E7F8093E2008091E20080618093BE
:10473000E20042E060E080E00E94DD218091F00034
:1047400088608093F0000E94551FFF91EF91BF9108
:10475000AF919F918F917F916F915F914F913F9119
:104760002F910F900BBE0F900FBE0F901F901895BA
:104770001F920F920FB60F9211240BB60F922F9328
:104780003F934F935F936F937F938F939F93AF93D9
:10479000BF93CF93DF93EF93FF93C091E900CF7066
:1047A0008091EC00D82FD17080FDD0E81092E90004
:1047B0008091F000877F8093F00078940E9400241D
:1047C0001092E9008091F00088608093F000CD2B7A
:1047D000CF70C093E900FF91EF91DF91CF91BF912E
:1047E000AF919F918F917F916F915F914F913F9189
:1047F0002F910F900BBE0F900FBE0F901F9018952A
:104800001F93CF93DF93CDB7DEB7AA970FB6F89477
:10481000DEBF0FBECDBFE8E6F4E08091F1008193EA
:1048200024E0E037F207C9F70E94621F8091E80098
:1048300083FF2EC18091680490916904492F50E054
:104840004A30510508F024C1FA01E659FF4F0C9493
:104850009025803821F0823809F01AC108C0809173
:10486000640490916504992389F082600FC080915F
:104870006C048F70873008F00BC18093E900809141
:10488000EB0085FB882780F91092E9009091E80001
:10489000977F9093E8008093F1001092F100D1C0CF
:1048A000282F2D7F09F0F4C0882319F0823061F0A1
:1048B000EFC080916A04813009F0EAC0933009F0BA
:1048C00080E0809365042EC080916A0481112AC023
:1048D00080916C048F702FEF280F263008F0D8C01D
:1048E0008093E9002091EB0020FF1CC0933021F45D
:1048F0008091EB00806214C09091EB0090619093E6
:10490000EB0021E030E0A90102C0440F551F8A9559
:10491000E2F74093EA001092EA008091EB00886091
:104920008093EB001092E9008091E800877F8093EC
:10493000E8000E941222ACC08111AAC010916A0442
:104940001F778091E3008078812B8093E300809132
:10495000E800877F8093E8000E9412228091E8009F
:1049600080FFFCCF8091E30080688093E300111109
:1049700002C082E001C083E08093670489C0805850
:10498000823008F085C080916A0490916B048C3D60
:1049900053E0950779F583E08A838AE289834FB7EC
:1049A000F894DE01139620E03EE051E2E32FF0E0C0
:1049B00050935700E49120FF03C0E295EF703F5FF2
:1049C000EF708E2F90E0EA3010F0C79601C0C096CD
:1049D0008D939D932F5F243149F74FBF8091E8005D
:1049E000877F8093E8006AE270E0CE0101960E9422
:1049F000222116C060916C0470916D04AE014F5F6E
:104A00005F4F0E946620BC01892B09F441C0909140
:104A1000E800977F9093E80089819A810E947E2127
:104A20008091E8008B778093E80032C0803881F570
:104A30008091E800877F8093E800809163048093F1
:104A4000F1008091E8008E7772CF811121C08091B2
:104A50006A0490916B0499270297D4F48091E8003E
:104A6000877F8093E80080916A04809363040E94AA
:104A7000122280916304811106C08091E30087FDBA
:104A800002C081E001C084E0809367040E94581F47
:104A90008091E80083FF0AC08091E800877F8093BF
:104AA000E8008091EB0080628093EB00AA960FB63D
:104AB000F894DEBF0FBECDBFDF91CF911F91089557
:104AC0000895CF93809167048823A1F0C091E900F5
:104AD000CF709091EC00892F817090FD80E8C82BF9
:104AE0001092E9008091E80083FD0E940024CF70BD
:104AF000C093E900CF91089597FB072E16F4009418
:104B000007D077FD09D00E94992507FC05D03EF417
:104B1000909581959F4F0895709561957F4F089569
:104B2000EE0FFF1F0024001C0BBE0790F691E02D36
:104B30000994AA1BBB1B51E107C0AA1FBB1FA617E4
:104B4000B70710F0A61BB70B881F991F5A95A9F736
:104B500080959095BC01CD010895F999FECF92BD45
:104B600081BDF89A992780B50895A8E1B0E042E0A8
:104B700050E00C94E125262FF999FECF92BD81BD1E
:104B8000F89A019700B4021639F01FBA20BD0FB68B
:104B9000F894FA9AF99A0FBE08950396272F0E9467
:104BA000BC250E94BB25252F0E94BC25242F0C94D8
:104BB000BC250196272F0E94BC250C94BB25DC0147
:104BC000CB01FC01F999FECF06C0F2BDE1BDF89A18
:104BD000319600B40D9241505040B8F70895F894C2
:024BE000FFCF05
:104BE200FF000000000000000000000000000000C4
:104BF20000000000000000000000000000000000B3
:104C020000000000000000000000000000000000A2
:104C120001FFFFFFFFFFFFFFFFFFFFFFFFFFFFFFA0
:104C2200FFFFFFFF00FFFFFFFFFFFFFFFFFFFFFF91
:104C3200FFFFFFFFFFFFFFFFFFFFFFFFFFFFFFFF82
:104C4200FFFFFFFFFFFFFFFF0F0F0FFFFFFFFFFF42
:104C5200FFFFFFFF0F0F0FFFFFFFFFFFFFFFFFFF32
:104C62000F0F0FFFFFFFFFFFFFFFFFFF0FFFFFFF12
:104C7200FFFFFFFFFFFFFFFFFFFFFFFFFFFFFFFF42
:104C8200FFFFFF0F0F0F0FFFFFFFFFFFFFFFFFFFF2
:104C9200FFFFFFFFFFFFFFFFFFFFFFFFFFFFFFFF22
:104CA200FFFFFF0FFFFFFFFFFFFFFFFF0FFF0F0FD2
:104CB2000FFF0FFFFFFFFFFFFFFFFFFFFFFFFFFFE2
:104CC200FFFFFFFFFFFF0FFFFFFFFFFFFF0F0F0FB2
:104CD2000FFFFF0FFFFFFFFF0F0F0F0F0FFF0F0F52
:104CE2000FFFFFFF0F0F0F0FFFFFFFFFFFFFFFFF82
:104CF200FFFFFFFFFFFFFFFFFFFFFFFFFFFFFFFFC2
:104D0200FF2808641E140A321E010604A61E031F91
:104D1200E41EE01EDC1E01E200E900EA00B500B676
:104D220000B700CD008301CC008A019201940121D9
:104D320002230224022502260227022A02B300B419
:104D4200006F0070008182839392919037363534E0
:104D52003332313094959697E200E900EA00B500CB
:104D6200B600B700CD008301CC008A019201940104
:104D72002102230224022502260227022A02B3006C
:0A4D8200B4006F007000818283000E
:00000001FF
