:100000000C9416020C9435020C9435020C943502B3
:100010000C9435020C9435020C9435020C94350284
:100020000C9435020C9435020C943D210C9413224F
:100030000C94561C0C9435020C9435020C94350229
:100040000C9435020C9435020C9435020C94350254
:100050000C9435020C94AF1C0C9435020C943502B0
:100060000C9435020C9435020C9435020C94350234
:100070000C9435020C9435020C9435020C94350224
:100080000C9435020C9435020C9435020C94350214
:100090000C9435020C943502E507E507170817089C
:1000A00064088208A309A3098D08220933093309CA
:1000B0009309A309A3099C09430A430A550A550A4F
:1000C0004C0A550A550A550A430A430A510A550A69
:1000D000550A510A8422AB22A323AB22A323F72281
:1000E0001A23A323712380232B0014001A00080075
:1000F000150017001C0018000C00120013002A0045
:10010000290004001600070009000A000B000D007A
:100110000E000F0033002800E1001D001B00060048
:100120001900050011001000360037003800346255
:10013000E0000358E300E20001582C422C00415932
:100140005000510052004F0035003A003B003C0087
:100150003D003E00010024002500260001000100B2
:1001600001003F0040004100420043002E022100F8
:10017000220023002D00010001004400450046003C
:100180004700480025021E001F00200038002E00F6
:1001900001000100010001000153010001002700DE
:1001A000270037003600290035021E021F022002F8
:1001B00021022202230224022502260227024C00E9
:1001C000010049004A004B000100010050005100AD
:1001D00052004F002D02010001004C004D004E0066
:1001E000010001002F0230022F00300031003102E7
:1001F00001000100010001000100010001000253A3
:100200004A004E004B004D0001000100ED00F900D6
:1002100001000100010001000100010001000100D6
:100220000100EF00EE00F0000100010001000100FC
:100230000100010001000100010001000100FA00BD
:1002400001000100010001000100010001000100A6
:100250000100035301000100F100F2000100F3006E
:10026000AB00AA00A900AE000100010001000100DE
:1002700001000100010001000100060019001B003F
:100280000100010001000100010001000100010066
:100290000100010001000100010001000100010056
:1002A0000100010001000100010001000100010046
:1002B0000100010001000100010001000100010036
:1002C00001000100010001000E03740065006500DB
:1002D0006E007300790000000A03720077006B0063
:1002E000620000000403090409023B00020100A0AF
:1002F000320904000001030101000921110100017C
:100300002240000705810308000A090401000103D7
:1003100000000009211101000122B6000705820337
:1003200020000A1201000200000008EDFE606001DA
:10033000000102000105010902A10185020901A1D4
:100340000005091901290815002501950875018185
:10035000020501093009311581257F950275088153
:100360000609381581257F950175088106050C0A57
:1003700038021581257F950175088106C0C00501E9
:100380000980A101850319012AB700150126B700CC
:10039000950175108100C0050C0901A101850419A2
:1003A000012AA002150126A002950175108100C046
:1003B00005010906A1018505050719E029E71500D2
:1003C00025019508750181020507190029EF15001F
:1003D000250195F07501810205081901290595058A
:1003E00075019102950175039101C005010906A1EE
:1003F00001050719E029E715002501950875018118
:10040000029501750881010507190029FF150026CD
:10041000FF00950675088100050819012905950555
:1004200075019102950175039101C00011241FBE51
:10043000CFEFD0E2DEBFCDBF12E0A0E0B1E0E2EB53
:10044000F8E400E00BBF02C007900D92A83AB10794
:10045000D9F724E0A8EAB2E001C01D92A035B207A6
:10046000E1F70E941F160C9457240C940000FC0125
:1004700090E3A0E0B1E001900D929A95E1F78091B0
:10048000AA029091AB02A091AC02B091AD028F6F25
:100490009F6FAF6F8093AA029093AB02A093AC02C0
:1004A000B093AD02089520E3829FC00111248F5CB8
:1004B0009E4F0C943702EFEAF2E087E090E050E1C3
:1004C00040E231E020E8108213825183548312828B
:1004D00015821682118647834287108613861486FA
:1004E00017861586108A3687318B128A158A238BD8
:1004F000268B148A178A01977896009721F781E353
:1005000091E00C943702882311F083E001C082E06F
:100510008093300108952F923F924F925F926F9295
:100520007F928F929F92AF92BF92CF92DF92EF9283
:10053000FF920F931F93CF93DF93CDB7DEB7A197B1
:100540000FB6F894DEBF0FBECDBF0091AA02109186
:10055000AB022091AC023091AD0241E050E060E08E
:1005600070E0082E04C0440F551F661F771F0A94C1
:10057000D2F74095509560957095402351236223A2
:1005800073234093AA025093AB026093AC02709322
:10059000AD022CE0829FD0011124A050BF4F2C91BE
:1005A0002095422F477050E0BA016F5F7F4F7A83EA
:1005B0006983207722952F7030E0A9014F5F5F4F4C
:1005C0005C834B8311962C9111972095422F477095
:1005D00050E0BA016F5F7F4F7E836D832077229555
:1005E0002F7030E0A9014F5F5F4F58874F831296FD
:1005F0002C9112972095422F477050E0BA016F5FFF
:100600007F4F7A876987207722952F7030E0A90184
:100610004F5F5F4F5C874B8713962C911397209504
:10062000422F477050E0BA016F5F7F4F7E876D8722
:10063000207722952F7030E0A9014F5F5F4F588BD4
:100640004F8714962C9114972095422F477050E0B5
:10065000BA016F5F7F4F7A8B698B207722952F705D
:1006600030E0A9014F5F5F4F5C8B4B8B15962C914F
:1006700015972095422F477050E0BA016F5F7F4F6A
:100680007E8B6D8B207722952F7030E0A9014F5F14
:100690005F4F588F4F8B16962C9116972095422FAF
:1006A000477050E0BA016F5F7F4F7A8F698F207774
:1006B00022952F7030E0A9014F5F5F4F5C8F4B8F09
:1006C00017969C9117979095292F277030E0A901D4
:1006D0004F5F5F4F5E8F4D8F9077292E22949FE062
:1006E0002922312C5FEF251A350A18969C9118970C
:1006F0009095292F2770422E512C6FEF461A560ADB
:100700009077692E62942FE06222712C7FEF671A36
:10071000770A19969C91199790959F8F9770C92E7B
:10072000D12C2FEFC21AD20A3F8D307732953F700D
:10073000432F50E04F5F5F4F59A348A31A960C9187
:100740001A970095902F9770A92EB12C6FEFA61ACB
:10075000B60A007702950F7010E00F5F1F4F1B96CF
:100760009C919095292F2770822E912C7FEF871ACC
:10077000970A9077E92EE2943FE0E322F12C9FEF75
:10078000E91AF90A26E0829FF0011124E155FD4F94
:1007900020E030E02F5F3F4FC9016B817C810E94D8
:1007A000D723482FC90169817A810E94D7238823E2
:1007B00019F08181877F02C0818188608183848173
:1007C000442311F0877F01C088608483C9016F8151
:1007D00078850E94D723482FC9016D817E810E94B0
:1007E000D723882319F082818D7F02C082818260A5
:1007F00082838581442311F08D7F01C082608583CF
:10080000C9016B857C850E94D723482FC901698562
:100810007A850E94D723882319F081818D7F02C0B9
:100820008181826081838481442311F08D7F01C0A6
:1008300082608483C9016F8578890E94D723482FFD
:10084000C9016D857E850E94D723882319F0818197
:100850008E7F02C08181816081838481442311F075
:100860008E7F01C081608483C9016B897C890E946D
:10087000D723482FC90169897A890E94D723882301
:1008800019F080818F7702C08081806880838381A6
:10089000442311F08F7701C080688383C9016F8979
:1008A000788D0E94D723482FC9016D897E890E94C7
:1008B000D723882319F080818F7B02C080818064D8
:1008C00080838381442311F08F7B01C08064838304
:1008D000C9016B8D7C8D0E94D723482FC901698D7A
:1008E0007A8D0E94D723882319F080818F7D02C0E2
:1008F0008081806280838381442311F08F7D01C0D9
:1009000080628383C901B1010E94D723482FC901A6
:100910006D8D7E8D0E94D723882319F080818F7E74
:1009200002C08081806180838381442311F08F7EA7
:1009300001C080618383C901B3010E94D723482F7E
:10094000C901B2010E94D723882319F08081877FD3
:1009500002C08081886080838381442311F0877F77
:1009600001C088608383C90168A179A10E94D7234F
:10097000482FC901B6010E94D723882319F080812E
:100980008B7F02C08081846080838381442311F047
:100990008B7F01C084608383C901B8010E94D72383
:1009A000482FC901B5010E94D723882319F08081FF
:1009B0008D7F02C08081826080838381442311F017
:1009C0008D7F01C082608383C901B7010E94D72354
:1009D000482FC901B4010E94D723882319F08081D0
:1009E0008E7F02C08081816080838381442311F0E7
:1009F0008E7F01C08160838378962730310509F0AE
:100A0000C9CEA1960FB6F894DEBF0FBECDBFDF9161
:100A1000CF911F910F91FF90EF90DF90CF90BF90FB
:100A2000AF909F908F907F906F905F904F903F908E
:100A30002F900895CF93DF93D82F8091AE02C82FC7
:100A4000C17080FD15C0869583704091AA025091B7
:100A5000AB026091AC027091AD02082E04C0769595
:100A60006795579547950A94D2F740FD0E948B02EF
:100A7000AFB7F89481B380B3E091AE02F0E0CF015C
:100A8000880F991FE80FF91FE155FD4FB08128B17C
:100A900057B131815474832F8B7B582B8EB14DB15C
:100AA00062814C7F962F9370492BDD2389F1EB2FC8
:100AB000C111E095732F7B70247FCC2321F0932FFD
:100AC00090959B7001C0972F292B962F9270792BB0
:100AD0007B2B8D7FCC2319F0962F90959270892BCC
:100AE000711101C05F74922F9F74232FC11101C037
:100AF0002095207B292B711101C04E7F982F9E7F5E
:100B00006170C11102C081E06827862F892B06C061
:100B1000247454748C7F4C7FB0E0E0E0E1BB28B9D2
:100B20008EB9B0BB57B94DB9AFBF8091AE028F5FE0
:100B3000883318F48093AE0202C01092AE02DF91A7
:100B4000CF910895CF93C0913001C0FF04C081E0E0
:100B5000CF910C941A05C1FF06C080E00E941A05CF
:100B6000CD7FC0933001CF9108950C945B020C941B
:100B7000A205CF92DF92EF92FF926B017C0162FDA2
:100B800008C0DC01CB01B695A79597958795817034
:100B900001C082E0C3FC83E0C4FC84E00E945302F5
:100BA000C701B601FF90EF90DF90CF90089580E0ED
:100BB0000C94830281E00C94830281E0089581E02B
:100BC00008950C94DF0508950C94E3051F93CF93CB
:100BD000DF9300D000D01F92CDB7DEB749835A8390
:100BE0006B833091570389819A81311114C0662338
:100BF00059F0222349F00E94E70B182F682F8981B2
:100C00009A810E94900B03C00E94BB0B182F698130
:100C10007A81812F04C00E94E70B69817A810F904D
:100C20000F900F900F900F90DF91CF911F910C9428
:100C30007C12FC01262F4081518162817381848165
:100C40000C94E60581E00895CF93DF93EC0160E01A
:100C50000E941906BE01DF91CF910C94E4050E9419
:100C600092140E94A0060C94B5050C94B705089543
:100C70000E94310A0E9437062FEF84E39CE0215046
:100C800080409040E1F700C000000C94D51C0F9309
:100C90001F93CF93DF938C0161E00E941906EC0152
:100CA000B8010E94E1058823F1F1B801CE010E944C
:100CB00030198823C1F1B801CE010E94821988231E
:100CC00091F1B801CE010E94AD1A882361F1F801BB
:100CD0008281882309F1CB358DE5D807C1F050F426
:100CE000C115FCE5DF0781F0CF3DDC45A9F40E948A
:100CF0007C1119C0CC35EDE5DE0761F0CD35DD4561
:100D000059F40E94061008C00E9438060CC00E94C8
:100D10000F1002C00E941210C801DF91CF911F91E5
:100D20000F910C94DD0580E0DF91CF911F910F9121
:100D3000089508950C94990681E008950C949C06FA
:100D40000895CF93C82F0E949A068C2F0E949E066A
:100D5000CF910895CF93DF93CDB7DEB72B970FB622
:100D6000F894DEBF0FBECDBF4F83588769877A875F
:100D70008B8761110E9435109E012F5F3F4F86E0E7
:100D8000F90111928A95E9F785E0FE013796D901BC
:100D900001900D928A95E1F789819A814C815D815C
:100DA000452B31F09F3F31F491E08F3F19F403C0A0
:100DB00091E001C090E090FF09C049815A816B81A8
:100DC0007C818D819E810E94350F05C0C9010E94E2
:100DD00022068111F2CF2B960FB6F894DEBF0FBE1C
:100DE000CDBFDF91CF910895FC01808191810E9458
:100DF000290C0895CF93882309F450C0C82F8CEF95
:100E00008C0F813AD0F46C2F8091210290912202B4
:100E10000E94591B882349F06C2F809121029091E8
:100E200022020E94E41B0E9467106C2F8091210215
:100E3000909122020E94D91B0CC080E28C0F883056
:100E400058F4C77081E001C0880FCA95EAF70E9484
:100E50001810CF910C946710EBE5EC0FE33040F4E1
:100E6000F0E0EC59FD4F808190E0CF910C94171B7E
:100E7000E8E5EC0FE73150F4F0E0EE0FFF1FEA5C1D
:100E8000FD4F80819181CF910C942D1BCD3E30F090
:100E90008C2F0E94AC16CF910C947E17CF910895A1
:100EA000882389F19CEF980F913A40F4682F809144
:100EB0002102909122020E94E41B0DC090E2980F43
:100EC000983058F4877091E001C0990F8A95EAF73D
:100ED000892F0E941E100C9467109BE5980F933089
:100EE00020F480E090E00C94171B98E5980F973160
:100EF00020F480E090E00C942D1B8D3E20F00E94A9
:100F000007170C947E1708951F93CF93DF93182F24
:100F1000EB010E94FA06209741F08FE99FE00197CC
:100F2000F1F700C000002197F6CF812FDF91CF911C
:100F30001F910C945007893319F060E070E002C0F3
:100F400060E570E00C948407882321F00E9418105B
:100F50000C9467100895882321F00E941E100C94B1
:100F600067100895CF92DF92EF92FF920F931F9335
:100F7000CF93DF937C01062FC72FFC01D28115810F
:100F800012951F700E94ED0F882399F0DD2389F0E0
:100F90008C2F807F803421F080E2800F883048F0F1
:100FA00082E00E94B7100E94ED0F91E0D82ED92662
:100FB00001C0D12CCC2EC2948FE0C8228C2D90E0A1
:100FC000FC01E45BFF4F0C94EB238C2F807FCF70F0
:100FD000882311F0C295C07FDD2399F0CC2309F45A
:100FE0008DC180E2800F883010F0011104C08C2F79
:100FF0000E94181003C08C2F0E9428100E946710B6
:101000007DC1802F0E945007CC2309F49CC180E24F
:10101000800F883010F0011104C08C2F0E941E1028
:1010200003C08C2F0E942E100E9467108CC18C2F41
:10103000807FCF70803211F0C295C07F002319F0FD
:101040000130C9F022C0DD2371F0112341F01130CD
:1010500031F40E9448108C2B0E94501074C10E94E1
:1010600048108C2B1DC0112319F0113009F46BC1ED
:101070000E945D1025C0DD2321F0133008F063C10C
:101080000EC0123008F05FC11BC0DD2361F01123D8
:1010900031F0F701858180FF31C18F7085838C2FFE
:1010A0000E94A40750C1112359F0093309F037C138
:1010B000FFEF27EE83E0F15020408040E1F72DC1A3
:1010C0008C2F0E94AB073FC18C2F8695869583702D
:1010D00019F0813061F037C1DD2321F0802F9C2F82
:1010E000937002C080E090E00E94171B34C1DD23A2
:1010F00021F0802F9C2F937002C080E090E00E942E
:101100002D1B29C1802FDD2319F00E94AC1602C0CF
:101110000E9407170E947E171EC18C2F837009F052
:1011200045C0D11114C1402F429546954770440FD8
:10113000440F602F6F70862F90E0A0E0B0E0042E87
:1011400004C0880F991FAA1FBB1F0A94D2F704FF7F
:1011500010C00FE010E020E030E004C0000F111FCD
:10116000221F331F4A95D2F7009510952095309590
:1011700003C000E010E09801C695C695C370BC019D
:10118000CD01602B712B822B932BC23049F058F488
:10119000C13019F00E94A60ADAC00E94940AD7C092
:1011A0000E94B80AD4C00E94920AD1C0DD2319F06F
:1011B0008C2F817001C08695882309F4C8C0402F08
:1011C000429546954770440F440F602F6F70862FED
:1011D00090E0A0E0B0E0042E04C0880F991FAA1F81
:1011E000BB1F0A94D2F704FF10C00FE010E020E00C
:1011F00030E004C0000F111F221F331F4A95D2F7A1
:10120000009510952095309503C000E010E09801FE
:10121000C695C695C370BC01CD01602B712B822B86
:10122000932BC23049F058F4C13019F00E946B0B77
:101230008EC00E94590B8BC00E947D0B88C00E94FB
:10124000CC0A85C0CF70DD2339F08C2F0E94F20AC2
:10125000802F0E94A4077BC0802F0E94AB078C2F99
:101260000E94130B74C0023F01F128F4003F41F0CB
:10127000013FA1F03FC0033FF9F0043F39F13AC00C
:10128000DD2341F0123008F05EC08C2F8F710E9478
:10129000380B59C0133008F056C0F7CFDD2339F0B2
:1012A0008C2F8F710E94F20A4EC0DD23C9F38C2F60
:1012B0008F710E94130B47C0DD2329F08C2F8F7193
:1012C0000E94DD0A40C00E94D80A3DC0DD2349F0DB
:1012D000CF718C2F0E94F20A63E08C2F0E949C1029
:1012E00032C081E00E94B710123068F182E00E94A3
:1012F000B71029C0DD2331F0112391F2802F0E9415
:10130000FA0621C0112399F2093349F49FEFE7EE61
:10131000F3E09150E040F040E1F700C00000802F82
:101320000E94500710C04C2F4F70602FC7010E94C1
:1013300078120E94570C0FC04C2F4F70602FC701BE
:101340000E947B1208C088EF8C0D843020F40E942C
:10135000E31A0E94A106DD20C9F00E94E90F80FD7A
:1013600015C0F70112820E94E30F0E94F20AC70122
:101370000E94E7090E94E30FDF91CF911F910F9127
:10138000FF90EF90DF90CF900C94130BDF91CF91F3
:101390001F910F91FF90EF90DF90CF9008950F93E2
:1013A0001F93CF93DF93EC01688179818A810E943A
:1013B000340C8C010E948F0B0E94800AB801CE0170
:1013C0000E94B207DF91CF911F910F910895CF93A3
:1013D000DF93EC01988189812B813C81232B31F0B3
:1013E0008F3F31F481E09F3F19F403C081E001C0D9
:1013F00080E080FD19C0CE010E94470681110CC01B
:101400000E94ED0F882381F08A81882369F082E0B1
:10141000DF91CF910C94B710CE010E94CF09CE017D
:10142000DF91CF910C942406DF91CF91089580E055
:1014300090E00E94171B80E090E00E942D1B0E940C
:1014400035100E9445100E9467100E94AF180C943E
:101450007E1780912102909122020E94EF1B0C9432
:10146000170A0E9425100C94290AE92FE295EF70C3
:101470004E2F50E0FA013297EE30F105B0F4E45A05
:10148000FF4F0C94EB23803F91F018F4883E68F4F2
:101490000EC0843F51F40BC0883E48F0813F29F4D0
:1014A00006C093FB882780F9089580E0089581E0C5
:1014B0000895FC01808191810E94290C0E94350AC7
:1014C0000895CF93DF9300D000D01F92CDB7DEB741
:1014D0000F900F900F900F900F90DF91CF91089584
:1014E000CF93DF9300D000D000D0CDB7DEB72696E3
:1014F0000FB6F894DEBF0FBECDBFDF91CF91089538
:10150000089508950C94810A0C94820A0E94840A1A
:1015100060937A0370937B0380937C0390937D03A5
:101520000C94170A0C94860A0F931F9300917A0368
:1015300010917B0320917C0330917D03602B712BF4
:10154000822B932B1F910F910C94860A0F931F935C
:1015500000917A0310917B0320917C0330917D03ED
:1015600060237123822393231F910F910C94860A89
:101570000F931F9300917A0310917B0320917C03BA
:1015800030917D0360277127822793271F910F9148
:101590000C94860A0C94B9050E94CA0A60937603DB
:1015A0007093770380937803909379030C94170AD0
:1015B00060E070E0CB010C94CC0A0F931F9341E0E4
:1015C00050E060E070E08A019B0104C0000F111F31
:1015D000221F331F8A95D2F7C901B8011F910F91BD
:1015E0000C94CC0A0F931F9341E050E060E070E050
:1015F00004C0440F551F661F771F8A95D2F780914C
:10160000760390917703A0917803B09179038A01D2
:101610009B01082B192B2A2B3B2BC901B8011F91C9
:101620000F910C94CC0A0F931F9341E050E060E0BF
:1016300070E004C0440F551F661F771F8A95D2F7CC
:1016400040955095609570958091760390917703C1
:10165000A0917803B09179038A019B010823192393
:101660002A233B23C901B8011F910F910C94CC0A86
:101670000F931F9341E050E060E070E004C0440F1E
:10168000551F661F771F8A95D2F780917603909138
:101690007703A0917803B09179038A019B01082711
:1016A00019272A273B27C901B8011F910F910C94D4
:1016B000CC0A0F931F93009176031091770320912A
:1016C000780330917903602B712B822B932B1F9120
:1016D0000F910C94CC0A0F931F93009176031091F5
:1016E000770320917803309179036023712382235B
:1016F00093231F910F910C94CC0A0F931F93009189
:101700007603109177032091780330917903602755
:101710007127822793271F910F910C94CC0A08956B
:101720002CE0929F800D1124E82FE695E695E69532
:10173000877051E001C0550F8A95EAF785E0E89F70
:10174000F0011124E85AFC4F20E030E070E04081C5
:10175000CB01022E02C0969587950A94E2F781701C
:10176000819584278523842781932F5F3F4F2530E0
:10177000310569F708952CE0929F800D1124682FA0
:10178000669566956695982F977085E0689FB0017D
:10179000112440E050E080E0FB01E40FF51FE85A1F
:1017A000FC4F208130E0092E02C0369527950A941F
:1017B000E2F721703327042E01C0220F0A94EAF7C2
:1017C000822B4F5F5F4F4530510531F70895BF922F
:1017D000CF92DF92EF92FF920F931F93CF93DF93FD
:1017E0008C01C0907603D0907703E0907803F0905E
:1017F000790380917A0390917B03A0917C03B0914F
:101800007D03C82AD92AEA2AFB2ACFE1D0E0D701F2
:10181000C6010C2E04C0B695A795979587950A9496
:10182000D2F780FD04C0219790F7B12C07C0BC2EE1
:10183000B8018C2F0E94B3130197A9F38B2DDF9170
:10184000CF911F910F91FF90EF90DF90CF90BF90BD
:101850000895CF93DF93EC010E94E70BBE010E9435
:10186000B313DF91CF9108951F93CF93DF93EB01D3
:1018700090915703992321F0CB010E94290C13C0AA
:10188000882349F0CB010E94E70B182F682FCE0167
:101890000E94900B04C0CB010E94BB0B182FBE010D
:1018A000812F0E94B313DF91CF911F910895EF9282
:1018B000FF920F931F93CF93DF938C01892B09F431
:1018C0006CC0F12CEE24E394E8012196F801849198
:1018D000843740F4843008F051C0813081F0823088
:1018E00019F15BC0853709F444C0A8F19CE7980F53
:1018F000903708F052C08F770E94500741C00E5FAA
:101900001F4FFE01849190E2980F983050F4877039
:10191000FE2D01C0FF0F8A95EAF78F2F0E94381025
:1019200014C00E94FA062DC00E5F1F4FFE01849165
:1019300090E2980F983060F48770FE2D01C0FF0F81
:101940008A95EAF78F2F0E943E100E94671019C0F7
:101950000E94500716C00E5F1F4FFE01C491CC239A
:1019600081F08FE99FE00197F1F700C00000C150BE
:10197000F6CF0E5F1F4FFE01F49003C00E94FA06DF
:101980008E018F2D882309F49FCFEFE9FFE0319777
:10199000F1F700C000008150F5CFDF91CF911F918A
:1019A0000F91FF90EF9008951F93CF93DF93C09115
:1019B0007E0316E080917F03C81799F0D0E01C9F4A
:1019C000F0011D9FF00D1124E058FC4F4081518122
:1019D00062817381848195810E94700A2196C7700B
:1019E000E9CFDF91CF911F9108954091B0035091BD
:1019F000B1036091B2037091B3038091B4039091ED
:101A0000B5030C94700A0F931F93CF93DF938091CB
:101A1000B50382958F7009F05DC08091B203882371
:101A200009F458C080917E0310917F036091B00348
:101A30007091B103C091B303D091B40391E06F3FB3
:101A400009F090E0292F06E0811709F443C02097A0
:101A500021F07F3F21F030E003C031E001C0322FA0
:101A600090E030FD34C0089FF001099FF00D112473
:101A7000DF01A058BC4F11963C911197371327C036
:101A80003C91361324C012963C91129731111FC01D
:101A900013964D915C9114974C1B5D0B483C51057E
:101AA000B0F48091B5038F7080618093B503EB57DC
:101AB000FC4F80818F708061808380EB93E00E9477
:101AC000E709DF91CF911F910F910C94D40C0196EF
:101AD0008770BACFDF91CF911F910F9108959F9298
:101AE000AF92BF92CF92DF92EF92FF920F931F932C
:101AF000CF93DF93CDB7DEB761970FB6F894DEBF13
:101B00000FBECDBF8C0185E0F801DE011D9601906E
:101B10000D928A95E1F7F801E2809091B00360910F
:101B2000B1032091B3033091B4032115310531F095
:101B30006F3F31F481E09F3F19F403C081E001C0A1
:101B400080E0F82FF1709F2E80FD3FC1F8014081A9
:101B50005181A380B48080EBC82E83E0D82EF09012
:101B6000B203F501E21BF30BFF2009F4D9C0809109
:101B7000B503E83CF10508F095C0282F207F09F057
:101B800052C0561313C0491311C0FE2CE1100EC0F1
:101B90008F7080618093B5030E94F50CC6010E948E
:101BA000E7098091B503F80185834CC1AB2831F07A
:101BB0005F3F31F481E04F3F19F403C081E001C081
:101BC00080E080FD03C081E08E2502C080E090E0CF
:101BD000F82FF170FF2E80FF1CC080917E032091B2
:101BE0007F0336E0821709F40BC190E0389FF001C3
:101BF000399FF00D1124E058FC4F6181561306C047
:101C00006081461303C06281E61203C001968770AB
:101C1000E9CFFE2CEE2009F415C18091B503816057
:101C20008093B50354C0561306C0491304C0E11095
:101C300002C0F80199C0C8010E94590A882361F1C5
:101C4000EE2051F12091B503822F82958F7090E0A4
:101C5000029774F08091B0039091B10398878F83BD
:101C60001986BB86AA862C87CE0107960E94E709B3
:101C700086E0F801A0EBB3E001900D928A95E1F7C0
:101C80000E94030D0E94F50C0AC0561711F1C801FD
:101C90000E94590A81112CC0C8010E94E709FF2443
:101CA000F394D0C0282F207F81F77A2DB98AA88A93
:101CB0006E2D89890E94610A80EB93E00E94E709FA
:101CC00086E0F60111928A95E9F70E94F50CF12C55
:101CD000B9C04913DCCFE110DACFF8018583C80120
:101CE0000E94E70986E0F60111928A95E9F7AAC0F9
:101CF000EE2091F22091B503822F82958F7090E0B3
:101D000002970CF4B5CF8091B0039091B1039A8300
:101D100089831B82BD82AC822E83CE010196A6CF21
:101D2000E83CF10508F044C0FE2CEE2009F4B4CFE5
:101D3000561330C049132EC02091B50320FD21C099
:101D4000822F82958F70482F50E041155105C9F0C0
:101D5000F80125834F30510541F08F5F982F929500
:101D6000907F822F8F70892B8583C8010E94E7099D
:101D700086E0F801A0EBB3E001900D928A95E1F7BF
:101D80003CC086E0F801A0EBB3E001900D928A958B
:101D9000E1F758C0C8010E94590A811169CF8091AA
:101DA000B50381608093B503C8010E94E7094AC06A
:101DB0007A2DB98AA88A6E2D89890E94610A86E0E7
:101DC000F60111928A95E9F718C0EE2009F464CF64
:101DD000C8010E94590AF82E882309F45DCF86E0D5
:101DE000F801A0EBB3E001900D928A95E1F780EB4A
:101DF00093E00E94F4060E94030D0E94F50C22C09D
:101E00004D875E878D859E850E94290C292F2295FE
:101E10002F70223028F49F7039F0811105C00BC05B
:101E2000243028F49F7049F4805E883020F0C80187
:101E30000E94E7099F2CF92C05C0F8019581907F3D
:101E400099F7F9CF8F2D61960FB6F894DEBF0FBECC
:101E5000CDBFDF91CF911F910F91FF90EF90DF9059
:101E6000CF90BF90AF909F9008951F93CF93DF9333
:101E7000CDB7DEB72C970FB6F894DEBF0FBECDBF3F
:101E80004F83588769877A878B879C87CE0107960F
:101E90000E946F0D8823D1F09F8188852A853B851C
:101EA000232B31F08F3F31F481E09F3F19F403C0C1
:101EB00081E001C080E080FD47C04F815885698581
:101EC0007A858B859C850E94700A3EC086E0FE0163
:101ED0003796DE01119601900D928A95E1F7FF8108
:101EE000E8856A857B856115710531F0EF3F31F436
:101EF00081E0FF3F19F403C081E001C080E080FD74
:101F000023C020917F0330E0C90101968770992793
:101F100040917E0350E084179507F1F1F983EA833D
:101F20007D836C8396E0929FD001939FB00D112426
:101F3000A058BC4FFE01319601900D929A95E1F7A1
:101F400080937F030E94D40C16E080917E039091D1
:101F50007F03891771F1189FC001112480589C4F8D
:101F60000E946F0D882329F1E0917E031E9FF001EE
:101F70001124E058FC4F408151816281738184813A
:101F800095810E94700A80917E0390E0019687708F
:101F9000992780937E03D9CF0E94310A10927F0344
:101FA00010927E03E0EBF3E086E0DF011D928A955C
:101FB000E9F72C960FB6F894DEBF0FBECDBFDF91C8
:101FC000CF911F9108958091B6038595859585954C
:101FD00008958091B603877008959091B603977025
:101FE00081E009F480E0089590912E0492FB22276D
:101FF00020F9281751F080FB92F990932E048091DC
:102000002D0490912E040C94F810089580912E04C4
:1020100082FB882780F991E089270C94F40F81E0F6
:102020000C94F40F80E00C94F40F8091DA0308957F
:102030009091DA03892B8093DA030895809590912B
:10204000DA0389238093DA0308951092DA0308955E
:102050009091D903892B8093D9030895809590910D
:10206000D90389238093D90308951092D903089541
:102070009091D803892B8093D803089580959091EF
:10208000D80389238093D80308951092D803089524
:102090008091B703089508950C944B100C944C1044
:1020A00090912E0492FD08C09091B703981721F0EB
:1020B0008093B7030C944E1008958091B703882342
:1020C00029F01092B70380E00C944E100895E0912F
:1020D0002102F09122028091DA038083E0912102B3
:1020E000F091220290818091D903892B8083E09125
:1020F0002102F091220290818091D803892B808364
:102100008091B703882381F0E0912102F0912202AF
:102110009081892B808380912102909122020E94DC
:10212000431B81110E945D10809121029091220237
:102130000C94EF1A0C944B1090912E0492FD10C049
:1021400098E0899F90011124262B2093B6030E94CA
:10215000F20A8091B6038595859585950C949A1021
:102160000C94F20A1092B60380E00C949A1020911D
:10217000B603809582238093B603982F977041F41D
:1021800030E0482F082E000C550B2417350721F49A
:1021900090912E0492FF07C08595859585950E94A4
:1021A000130B0C94B210089580E090E00E941D245F
:1021B00021E0893E9E4F09F020E0822F089582E0C1
:1021C00090E00C94152483E090E00C941524CF93B8
:1021D00084E090E00E941524C82F82E290E00E94E3
:1021E00015242C2F30E0A901582BCA01CF91089556
:1021F000CF93C92F682F84E090E00E9423246C2F96
:1022000082E290E0CF910C942324AB01BC018FE0DB
:1022100090E00C943524AB01BC0183E190E00C9478
:10222000352460E070E0CB010C940B1160E070E0AD
:10223000CB010E9405110C94111169EE7EEF80E034
:1022400090E00E94412460E082E090E00E9423241C
:1022500060E083E090E00E94232410927A031092C1
:102260007B0310927C0310927D0360E084E090E099
:102270000E94232460E082E290E00E94232460E038
:1022800085E090E00E94232460E086E090E00E94D8
:1022900023246FEF87E090E00E94232440E050E089
:1022A000BA0188E090E00E94352460E08DE090E083
:1022B0000E94232440E050E0BA0188E190E00E94AF
:1022C000352460E087E190E00E94232440E050E064
:1022D000BA018CE190E00E94352460E070E080E279
:1022E00090E00E94412440E050E0BA0188E190E093
:1022F0000E9435240C9416110C941D11682F8EE049
:1023000090E00C9423240E94941C6093E803709343
:10231000E9038093EA039093EB036093E4037093E3
:10232000E5038093E6039093E703089585B78068FB
:1023300085BF85B7806885BF089581E008950C94B6
:102340009D1108950C94A1110C94A1110C94A41149
:102350000C94A1110C94A8110C94A1110E94961137
:102360008FE894E10E94071D0E94AC110C94AA1101
:102370000E94A2110C94A1110E947F1C0E9477154B
:102380000C94A6116F927F928F929F92AF92BF9200
:10239000CF92DF92EF92FF920F931F93CF93DF9331
:1023A000CDB7DEB72A970FB6F894DEBF0FBECDBF0C
:1023B0000E94991581110E9483113CED832E33E018
:1023C000932E00E010E0C02E802F0E94B6145C0116
:1023D000F401619071904F016826792661147104AF
:1023E000B1F40F5F1F4F0430110569F78FEF898338
:1023F0008A831B820E94881C8160782F9D838C8336
:1024000049815A816B818D810E94AA063AC08091D0
:10241000EC0381FD0E94BF14D12CEE24E394F12C37
:10242000C3018E219F21892B29F10E949F118823AE
:10243000A9F0DE82CF82AE20BF2081E0AB2809F474
:1024400080E088870E94881C8160782F9A8789871E
:102450004E815F8168858A850E94AA06000F111F40
:10246000F801E452FC4F80819181E826F926F1823F
:10247000E08207C0D394EE0CFF1CFCE0DF12D0CF4B
:10248000B0CF0E949C170E94E31A9091DB0389173A
:10249000D1F00E94E31A8093DB032A960FB6F894DA
:1024A000DEBF0FBECDBFDF91CF911F910F91FF9087
:1024B000EF90DF90CF90BF90AF909F908F907F90E4
:1024C0006F900C94A1062A960FB6F894DEBF0FBE4B
:1024D000CDBFDF91CF911F910F91FF90EF90DF90D3
:1024E000CF90BF90AF909F908F907F906F90089506
:1024F00080E090E00895089520E3829FC0011124B8
:10250000FC012CE0729FE00DF11D1124E60FF11D7E
:10251000EE0FFF1FE851FF4F859194910895880FAA
:10252000991FFC01E853FD4F859194910895CF9335
:10253000DF930E94B813EC01811520E5920708F0A3
:102540003FC0811540E4940708F0D2C0883E910551
:1025500000F5803E910508F002C1883A910570F4BB
:10256000853A910508F0A6C08130910509F49FC015
:1025700008F4F2C0049708F0F2C0EEC08F3B91055A
:1025800008F4A1C0803C910508F4E6C0805C910984
:10259000A5C0811550E2950760F4C11581E0D80708
:1025A00008F0DDC0CD3ED10508F4D6C0CE0190655F
:1025B000D7C0811520E3920708F093C09F708EC0AA
:1025C000811545E5940708F046C0811554E5950747
:1025D00008F0A6C0C11582E5D80718F5C11521E598
:1025E000D20708F088C0CE01F4E096958795FA9559
:1025F000E1F7282F23703C2F337081E090E002C078
:10260000880F991F3A95E2F79C68922B2C2F2F7018
:102610002695269540E2249F90011124822B932B2E
:102620009FC09E01237033279C2F96959695C115C8
:10263000D34508F065C041E050E002C0440F551F8B
:102640002A95E2F780E2989F90011124CA01822B1B
:10265000932B9C6885C0811559E5950798F4C115A1
:1026600088E5D80708F061C0C11526E5D20708F053
:1026700073C08C2F0E944C148F7190E0982F882784
:1026800090626EC081154AE5940708F453C09056D5
:102690008115904208F060C08D2F8F710E944C14FC
:1026A0009E01332730628F71A901582B53C081E0FE
:1026B00090E056C0855AC82FD0E0CB56DD4F8881B8
:1026C00090E090644DC0885AC82FD0E0CC0FDD1F39
:1026D000C959DD4F88819981946442C00E948F124C
:1026E0003FC09927D3FF02C0986C3AC0906C38C0A5
:1026F0009F70906A35C09C2F8827816F906A30C088
:1027000041E050E002C0440F551F2A95E2F780E2F5
:10271000989F90011124CA01822B932B9A6820C0A4
:10272000982F8827846F906A1BC09C2F8827806F02
:10273000906A16C08F700E944C149E0194E03695EA
:1027400027959A95E1F72F7030E0322F22273069D4
:10275000A901482BCA0104C080E090E001C0CE016D
:10276000DF91CF9108950E947C120E9497120895E4
:102770008238910569F1B0F48133910509F46DC097
:1027800048F48932910509F463C08A32910509F44D
:1027900069C008958533910509F455C089339105C1
:1027A000B9F00895833E910569F138F4803E9105B2
:1027B000B1F0823E910509F10895863E9105A9F197
:1027C000873E9105B9F1843E910509F064C023C0AC
:1027D00020912D0420FD4FC021FD4DC00895809112
:1027E0002D0480FD44C080912E0480FF44C0809160
:1027F0002D0484FD42C083EE4DC080912D0482FFE4
:1028000038C0F5CF80912D0482FD33C080912E0415
:1028100080FD31C0ECCF80912E0481FF32C08091C9
:102820002D0484FD2AC087EE35C080912D0483FFDE
:1028300026C0F5CF80912D0483FD21C080912E0408
:1028400081FD1FC0ECCF80912D0485FD1CC01DC0F3
:1028500080912D0485FD19C016C080912D0486FD40
:1028600016C017C080912D0486FD13C010C089E3E7
:1028700011C082EE0FC080EE0DC080E00BC086EE6E
:1028800009C084EE07C089E205C085E303C08AE27F
:1028900001C081E390E0089590912D0492FF0DC056
:1028A000282F2871283019F4877F846006C0282FCC
:1028B0002471243011F48B7F886093FF0DC0282F82
:1028C0002871283119F4877E846106C0282F24716D
:1028D000243111F48B7E886120912E0420FF0DC0DD
:1028E000382F3871383019F4877F816006C0382F4F
:1028F0003171313011F48E7F886021FF0DC0282F97
:102900002871283119F4877E816106C0282F217132
:10291000213111F48E7E886194FD877E089580E0D8
:10292000089508950E94D410811102C00E947C1164
:102930000E94DF108093EC030E94E71090932E0416
:1029400080932D040E9491140E94E310682F70E080
:1029500080E090E00E94920A609176037091770384
:1029600080917803909179030C94CA0AE82FF0E0E3
:10297000EE0FFF1FE95CFB4F808191810895089560
:1029800080EA8A95F1F7089500C008950C94C01468
:10299000F894E82FE295EF70F0E031A1282F2F7026
:1029A00081E090E001C0880F2A95EAF7982F909572
:1029B000932391A392A1892B82A3789408950F93D6
:1029C0001F93CF93DF93C4EAD2E089918F3F11F038
:1029D0000E94C81482E0C83AD807B9F7C8E9D2E023
:1029E00004EA12E089918F3F11F00E94C8140C177D
:1029F0001D07C1F7DF91CF911F910F910895AF92FD
:102A0000BF92CF92DF92EF92FF920F931F93CF93DB
:102A1000DF938C01C62FD0E0CE018C559D4F6C0109
:102A2000DC019C919F3F09F457C0B62EF894E92F22
:102A3000E295EF70F0E081A19F7021E030E001C0ED
:102A4000220F9A95EAF7822B81A382A12095282351
:102A500022A378940E94C414E8E9F2E020E030E078
:102A6000E12CF12C41E050E081918F3FC1F0A82F83
:102A7000A295AF70B0E090966C9170E08F70DB0122
:102A800002C0B595A7958A95E2F7A0FD08C0CA01D6
:102A9000022E02C0880F991F0A94E2F702C080E05C
:102AA00090E0E82AF92A2F5F3F4F2C303105E1F6FC
:102AB000F60180818F3F11F00E94C81461E0E1149B
:102AC000F10409F460E08B2D0E94C614CC0FDD1FC9
:102AD000C00FD11FF982E882DF91CF911F910F9132
:102AE000FF90EF90DF90CF90BF90AF9008950E943D
:102AF000DF14AFE2B4E011961C921E92E7E3F4E01B
:102B00001182108213961C921E92129713821282C7
:102B100015961C921E9214971582148217961C9279
:102B20001E9216971782168284E00E94E4150C9478
:102B30002F06FF920F931F93CF93DF93CDB7DEB78E
:102B400028970FB6F894DEBF0FBECDBF8E010F5F82
:102B50001F4F88E0F80111928A95E9F7F12C6F2D4B
:102B6000C8010E94FF14F394F4E0FF12F8CF48E08C
:102B700050E0B8018FE294E00E940824FF24F3940F
:102B8000009709F4F12C892B41F088E0F801AFE2BD
:102B9000B4E001900D928A95E1F72F2D44E067E3B0
:102BA00074E08FE294E00E94E5150E9435068F2DB7
:102BB00028960FB6F894DEBF0FBECDBFDF91CF9140
:102BC0001F910F91FF9008950895FF920F931F9307
:102BD000CF93DF93F82E092F162FD72FC42F222340
:102BE00049F081E08093EF030E94881C9093EE03EC
:102BF0008093ED038091EF038823D9F08091ED035A
:102C00009091EE030E94A01C059798F0EF2DF02FF5
:102C1000A12FBD2F80E090E04C2F50E08417950746
:102C200034F4219131912D933D930196F7CF109279
:102C3000EF03DF91CF911F910F91FF9008950E94B4
:102C4000011C0E947B1E0E94941E0E94A61E0E94D0
:102C5000B811FBCF8091F60380FF0BC06091280272
:102C600085E0689FB0011124759567957595679506
:102C70002BC081FF09C06091280285E0689FB001E8
:102C800011247595679520C082FF07C060912802C6
:102C900085E0689FB001112417C09091F503992336
:102CA000D1F060912702961788F72091280285E0DD
:102CB000289F90011124929FA001939F500D1124F1
:102CC00070E0CA010E94D7236038710540F4611595
:102CD000710519F406C065E070E0862F08958FE74E
:102CE000089581E008958091F60380FF08C0609107
:102CF000240270E0759567957595679521C081FFF1
:102D000006C06091240270E07595679519C082FF36
:102D100004C06091240270E010C09091F4039923E4
:102D200099F0609123029617A0F780912402899F61
:102D3000C001112470E00E94D7236038710540F46F
:102D40006115710519F406C061E070E0862F0895E1
:102D50008FE7089581E008958D3E21F40E942A16A0
:102D6000819504C08E3E29F40E942A168093FA03AE
:102D700008958F3E21F40E942A16819504C0803F59
:102D800029F40E942A168093F9030895893F19F4C3
:102D90000E94731605C08A3F31F40E947316819514
:102DA0008093FB0308958B3F21F40E947316819555
:102DB00004C08C3F29F40E9473168093FC0308958D
:102DC0009FE0980F983078F421E030E0A90102C02C
:102DD000440F551F9A95E2F7CA019091F803892B89
:102DE0008093F80308958D3F21F48091F60381606C
:102DF0000BC08E3F21F48091F603826005C08F3FA7
:102E000029F48091F60384608093F60308958D3E43
:102E100039F49091FA0397FF35C01092FA0359C024
:102E20008E3E29F49091FA031916BCF32BC09091B1
:102E3000F9038F3E29F497FF25C01092F90349C08A
:102E4000803F19F41916CCF31DC09091FB03893F04
:102E500029F41916BCF41092FB033BC08A3F19F405
:102E600097FF10C0F8CF8B3F39F49091FC0397FF88
:102E700009C01092FC032DC08C3F21F49091FC03FB
:102E80001916BCF39FE0980F983080F421E030E0F1
:102E9000A90102C0440F551F9A95E2F7CA01809517
:102EA0009091F80389238093F80313C08D3F21F498
:102EB0008091F6038E7F0BC08E3F21F48091F60344
:102EC0008D7F05C08F3F29F48091F6038B7F80931F
:102ED000F6038091F903811106C08091FA038111F4
:102EE00002C01092F5038091FB03811106C080910E
:102EF000FC03811102C01092F40308950E94881C03
:102F00002091F903211104C02091FA03222321F01A
:102F10009093F3038093F2032091FB03211104C0EB
:102F20002091FC03222321F09093F1038093F0037E
:102F300087EF93E00C94091BEF92FF920F931F937E
:102F4000CF93DF9300D000D000D0CDB7DEB786E0BE
:102F5000E7EFF3E0DE01119601900D928A95E1F71B
:102F6000E090F903F090FA030091FB031091FC0349
:102F70001092F9031092FA031092FB031092FC03D3
:102F8000E11003C0FF2009F45DC08091F20390912D
:102F9000F3030E94A01CAC019091F503992339F032
:102FA0002091290230E02417350758F04BC02091BA
:102FB0002A028AE0289F900111242417350718F06F
:102FC00041C09F3F19F09F5F9093F503EE2061F0A1
:102FD0000E942A161E1414F09FEF01C091E0989FE2
:102FE000902D11249093F903FF2061F00E942A167E
:102FF0001F1414F09FEF01C091E0989F902D1124B1
:103000009093FA033091F9033323E1F02091FA030E
:103010002223C1F045EB3403C0011124992319F098
:103020009093F90303C081E08093F90335EB230308
:10303000C0011124992319F09093FA0303C081E091
:103040008093FA03011103C0112309F45DC080913C
:10305000F0039091F1030E94A01CAC019091F40345
:10306000992339F02091250230E02417350758F0D4
:103070004BC0209126028AE0289F9001112424173A
:10308000350718F041C09F3F19F09F5F9093F403FC
:10309000002361F00E947316101614F09FEF01C018
:1030A00091E0989F902D11249093FB03112361F0E0
:1030B0000E947316111614F09FEF01C091E0989FC3
:1030C000902D11249093FC033091FB033323E1F006
:1030D0002091FC032223C1F045EB3403C0011124ED
:1030E000992319F09093FB0303C081E08093FB03C5
:1030F00035EB2303C0011124992319F09093FC03AD
:1031000003C081E08093FC038091F90381110BC01F
:103110008091FA03811107C08091FB03811103C0E4
:103120008091FC0381110E947E17EB82FC820D834B
:103130001E8386E0FE013196A7EFB3E001900D9269
:103140008A95E1F726960FB6F894DEBF0FBECDBF85
:10315000DF91CF911F910F91FF90EF900895E7EFCE
:10316000F3E086E0DF011D928A95E9F71092F503FE
:103170001092F4031092F60308950F931F93CF93C8
:10318000DF93C42FD22FFC0182818823C9F04093A2
:10319000FF030E94881C9093FE038093FD0380E24E
:1031A0008C0F883008F057C0C77081E001C0880FCD
:1031B000CA95EAF7DF91CF911F910F910C94A40764
:1031C0008091FF03481330C08091FD039091FE036E
:1031D0000E94A01C883C910538F510E21D0FCD1708
:1031E000B9F080E28C0F883040F4C77081E001C0F4
:1031F000880FCA95EAF70E94AB07183028F581E0DE
:103200009D2F977001C0880F9A95EAF70E94A40736
:10321000802F0E949B071830F0F4D77081E001C026
:10322000880FDA95EAF70AC080E28C0F883098F4AC
:10323000C77081E001C0880FCA95EAF7DF91CF918E
:103240001F910F910C94AB07802FDF91CF911F91AD
:103250000F910C949B07DF91CF911F910F910895CF
:103260000F939C01CB01243F4CE5340731F188F4E6
:10327000293DFCE53F07D9F02A3D4CE5340779F1BB
:10328000283D3C45A9F506E221EE41EE68ED7CE5DE
:103290002BC0263FFCE53F07E1F0A8F0273F3C4567
:1032A00039F507E225EE46EE67EF7CE51DC007E243
:1032B00025EE45EE69ED7CE517C006E221EE40EE15
:1032C00064EF7CE511C007E225EE44EE65EF7CE596
:1032D0000BC006E221EE42EE66EF7CE505C008E297
:1032E00021E045EE6AED7CE50E94BD1880E008C053
:1032F000FC018281882319F01092FF0301C081E054
:103300000F910895CF93DF93EC01FB018281882315
:1033100009F41FC1C230FCE5DF0708F41BC1C63148
:103320009CE5D90738F09E012B5F3C4529303105DB
:1033300008F010C10E94E71090932E0480932D0492
:10334000C031ECE5DE0709F4C3C008F041C0C83065
:103350008CE5D80709F49AC0F0F4C430ECE5DE0738
:1033600009F487C068F4C2308CE5D80709F477C047
:10337000C330DC4509F0E3C080912D04826076C043
:10338000C630ECE5DE0709F46EC008F07BC0809122
:103390002D0488606BC0CC308CE5D80709F485C05B
:1033A00068F4CA30ECE5DE0709F474C008F079C0AF
:1033B0000E94310A80912D04806858C0CE308CE57F
:1033C000D80709F476C008F07FC080912D048BC027
:1033D000CC3FECE5DE0709F44FC018F5C3318CE5AE
:1033E000D80709F47DC078F4C131ECE5DE0709F4B3
:1033F00073C0C231DC4509F0A2C00E94310A80913D
:103400002D048F7733C0C5318CE5D80709F472C01D
:1034100008F486C0CB3FDC4509F091C080912E04B2
:103420003EC0C115FDE5DF0709F45FC058F4CE3F8B
:103430009CE5D90709F444C008F43FC080912E04EC
:1034400082602DC0C230FDE5DF0709F475C008F4C5
:103450005DC0C330DD4509F072C080E06EC0809170
:103460002D04816003C080912D04806180932D0420
:1034700066C080912D0411C080912E0482608093DB
:103480002E045DC080912D048062F0CF80912D04C8
:103490008064ECCF80912D0488608460E7CF8160E8
:1034A000EECF80912D048E7FE1CF80912D048D7F12
:1034B000DDCF80912D04877FD9CF80912E0418C055
:1034C00080912E048D7FDBCF80912D048F7ECECF17
:1034D00080912D048F7DCACF80912D048F7BC6CF24
:1034E00080912D04877F8B7FC1CF80912E048D7FAB
:1034F0008E7FC5CF80912D0482FB222720F991E099
:10350000922790FB82F990FB83F9B0CF80912E0433
:10351000982F909591708E7F892B90FB81F9AFCF7A
:103520000E94310A80912D0487FB222720F991E027
:10353000922790FB87F99ACF81E00E947E118091BB
:103540002D0490912E040E94F8100E94310A80E010
:1035500001C081E0DF91CF910895CF93DF93863151
:103560009C4541F5EB010E941510982F8A8120910E
:10357000210230912202882379F09A7A81E009F4BD
:1035800080E080930004911102C069E201C065E30C
:10359000C9010E94D91B0AC080910004811102C098
:1035A00069E201C065E3C9010E94E41B0E94671043
:1035B00080E001C081E0DF91CF91089590930604EF
:1035C000809305040895E0910504F0910604309776
:1035D00021F00190F081E02D099480E00895E091C0
:1035E0000504F0910604309799F0209135022223CA
:1035F00059F020912D0427FF07C0DC012C91119672
:103600002C93119725E02C930280F381E02D0994EF
:103610000895E0910504F0910604309739F022E016
:10362000DC012C930480F581E02D0994089520910C
:103630000304309104042817390771F090930404AF
:1036400080930304E0910504F0910604309721F083
:103650000680F781E02D09940895209101043091AE
:1036600002042817390771F0909302048093010433
:10367000E0910504F0910604309721F00084F18573
:10368000E02D09940895FC0132968091350288233B
:1036900031F080912D0487FF02C09EE101C096E0C9
:1036A00080E0915028F021912223D9F38F5FF9CF48
:1036B0000895662351F1209135022223E9F02091EB
:1036C0002D0427FF19C0462F4695469546954E3145
:1036D000E0F4677021E030E002C0220F331F6A95EA
:1036E000E2F7FC01E40FF11D828190E028233923E9
:1036F00081E0232B69F409C0FC01329608962191E0
:10370000621729F0E817F907D1F780E0089581E002
:1037100008959C01FC0132969FEF80E0419146178D
:1037200089F09F3F19F4411101C0982F8F5F8630B7
:10373000A9F79F3F39F0F901E90FF11D97FDFA95BF
:103740006283089508959C012A5F3F4FFC014281E6
:10375000461301C01282019682179307B9F70895A4
:10376000262F2695269526952E3168F4FC01E20F2A
:10377000F11D677021E030E001C0220F6A95EAF781
:103780008281282B22830895262F2695269526951B
:103790002E3170F4FC01E20FF11D677021E030E082
:1037A00001C0220F6A95EAF720958281282322839F
:1037B000089520913502222329F020912D0427FD20
:1037C0000C94B01B0C94891B20913502222329F004
:1037D00020912D0427FD0C94C41B0C94A31B209155
:1037E0003502FC013296222331F080912D0487FFAF
:1037F00002C08EE101C086E0DF011D928A95E9F7E3
:103800000895089508950C94021C0C94021CCF9303
:103810000E94051C0E9499150E94031CC0E08C2F79
:103820000E94B614892B29F4CF5FC430C1F780E021
:1038300001C081E0CF9108950C94D7058091470491
:10384000843049F10E941C1C80E00E94A106109265
:10385000070420E488E190E00FB6F894A8958093DF
:1038600060000FBE2093600083B7817F846083BFB8
:1038700083B7816083BF7894889583B78E7F83BF39
:103880000FB6F894A89580916000886180936000DD
:10389000109260000FBE08950C94DA050E94310A60
:1038A0000E94E31A0E94A1060C944C1C1F920F92D6
:1038B0000FB60F9211248F939F93AF93BF93809174
:1038C0000704811113C080913F0490914004A0919E
:1038D0004104B09142044196A11DB11D80933F0463
:1038E00090934004A0934104B0934204BF91AF91E0
:1038F0009F918F910F900FBE0F901F90189582E0AF
:1039000084BD93E095BD9AEF97BD80936E000895B6
:103910002FB7F89480913F0490914004A091410406
:10392000B09142042FBF08952FB7F89460913F04DF
:103930007091400480914104909142042FBF0895FA
:103940009C014FB7F89480913F0490914004A0915E
:103950004104B09142044FBF821B930B08957894A9
:103960001F920F920FB60F9211248F939F93AF93D4
:10397000BF9380913F0490914004A0914104B09185
:1039800042040196A11DB11D80933F049093400411
:10399000A0934104B0934204BF91AF919F918F9146
:1039A0000F900FBE0F901F901895F89481E08093B0
:1039B000E00080E28093D800E9ECF0E010828FE133
:1039C0009EE40197F1F700C000001DBA1092680054
:1039D0001CBC10BE1FBA10927A0010926E0010929A
:1039E0006F00109270001092710010821092BC0053
:1039F00011B814B817B81AB81DB810BA12B815B85B
:103A000018B81BB81EB811BA0C9400FE0895909314
:103A1000A9028093A802089580912B0408959091A3
:103A20004704943031F58093080470930A0460933E
:103A3000090482E08093E9008FEF9091E8008150C3
:103A400095FD06C095ED9A95F1F700008111F5CF2F
:103A50008091E80085FF0DC040E050E063E070E039
:103A600088E094E00E94321F8091E8008E77809376
:103A7000E8000895BC0184E00C940F1DBC0183E0B4
:103A80000C940F1D22E02093E9002FEF3091E80005
:103A9000215035FD06C035ED3A95F1F700002111B2
:103AA000F5CF2091E80025FF0BC040E050E066E034
:103AB00070E00E94321F8091E8008E778093E800CA
:103AC0000895CF93DF9320913502222339F020917E
:103AD0002D0427FF03C060E222E002C068E021E07D
:103AE0002093E9002FEF3091E800215035FD06C00A
:103AF00035ED3A95F1F700002111F5CF2091E8005E
:103B000025FF1DC0EC0180913502811105C040E008
:103B100050E068E070E003C070E040E050E0CE01AB
:103B20000E94321F8091E8008E778093E80080E247
:103B3000FE01ABE0B4E001900D928A95E1F7DF91D0
:103B4000CF91089580914604811109C00E94BF2041
:103B50000E9421218091E20084608093E200089518
:103B600010924604089508950895089542E061EC86
:103B700081E00E94382042E261EC82E00C9438201F
:103B800080914904833009F45EC030F4813071F0D3
:103B9000823009F497C008958A3009F483C08B30CD
:103BA00009F469C0893009F0A5C020C0809148049B
:103BB000813A09F09FC08091E800877F8093E800F8
:103BC00080914C0490914D04892B21F460E28BE0AC
:103BD00094E003C060E080E090E070E00E947D1F10
:103BE0008091E8008B778093E800089580914804E5
:103BF000813209F07FC080914C0490914D0402976E
:103C000008F078C08091E800877F8093E800809179
:103C1000E80082FD05C0809147048111F8CF6AC099
:103C20008091F2009091F300029729F48091F100C5
:103C30008B7F813021F48091F10080932B0480915F
:103C4000E8008B7753C080914804813A09F052C054
:103C500080914C0490914D04892B09F04BC08091C8
:103C6000E800877F8093E8008091E80080FFFCCF28
:103C70008091350236C0809148048132D9F5809117
:103C80004C0490914D04892BA9F58091E800877F21
:103C90008093E8000E946D2080914A048093350251
:103CA0000C94310A80914804813221F58091E8001A
:103CB000877F8093E8000E946D2080914B04809361
:103CC0002C04089580914804813AA1F48091E80081
:103CD000877F8093E8008091E80080FFFCCF80918F
:103CE0002C048093F1008091E8008E778093E800A7
:103CF0000C946D20089584B7877F84BF0FB6F89425
:103D0000A8958091600088618093600010926000A7
:103D10000FBE90E080E80FB6F89480936100909316
:103D200061000FBE0C94AE110E94BF200E942121A1
:103D3000E2EEF0E080818460808378940E94BC236E
:103D40000E94BC118BE292E00C94DE1A8091470431
:103D50008530A9F480914704853079F40E941E1CB7
:103D6000809145048823B1F30E94071C882391F3B6
:103D70000E941C1F0E94310AEDCF0E944E1C0C9421
:103D8000C2110C94C31E292F332723303105C9F0EB
:103D900060F42130310581F02230310509F044C052
:103DA0008BE390E028EE32E043C021323105E1F0B0
:103DB0002232310549F138C082E190E023E233E05C
:103DC00037C099278130910549F028F0029761F5B5
:103DD000E8ECF2E005C0E4EEF2E002C0E8EDF2E06B
:103DE000849190E09F0124C06115710541F061301C
:103DF0007105D1F489E090E023E133E019C089E056
:103E000090E02AEF32E014C06115710541F0613095
:103E1000710551F486EB90E025E333E009C080E4BE
:103E200090E02BEE33E004C080E090E020E030E052
:103E3000FA0131832083089584E189BD86E189BD3B
:103E400009B400FEFDCF8091D8008F7D8093D8000B
:103E50008091E00082608093E0008091E00081FD2D
:103E6000FCCF0895CF92DF92EF92FF920F931F93B2
:103E7000CF93DF93EC018B017A010E948C2081119A
:103E800033C0E114F10439F0F70180819181081BFE
:103E9000190BC80FD91FC12CD12C0115110519F10F
:103EA0008091E80085FD16C08091E8008E778093B0
:103EB000E800E114F10449F0F70180819181C80E16
:103EC000D91ED182C08285E00FC00E948C20882339
:103ED00021F30AC089918093F10001501109FFEF8D
:103EE000CF1ADF0ADACF80E0DF91CF911F910F91D7
:103EF000FF90EF90DF90CF90089520914E04309185
:103F00004F042617370748F06115710539F42091E1
:103F1000E8002E772093E80001C0B901FC0120E001
:103F20006115710569F1809147048823E1F18530BD
:103F3000E1F18091E80083FD3AC08091E80082FDC4
:103F40002CC08091E80080FFEBCF8091F20090912F
:103F5000F3006115710551F08830910538F4219115
:103F60002093F100615071090196F3CF21E0089789
:103F700009F020E08091E8008E778093E800D0CFB0
:103F80002111D1CF0AC080914704882361F0853088
:103F900061F08091E80083FD0AC08091E80082FF13
:103FA000F2CF80E0089582E0089583E0089581E0F3
:103FB000089520914E0430914F042617370748F09A
:103FC0006115710539F42091E8002E772093E800FF
:103FD00001C0B901FC0120E06115710581F18091FA
:103FE0004704882309F43EC0853009F43DC0809120
:103FF000E80083FD3BC08091E80082FD2DC08091E8
:10400000E80080FFE9CF8091F2009091F300611504
:10401000710559F08830910540F424912093F10006
:104020003196615071090196F2CF21E0089709F0AD
:1040300020E08091E8008E778093E800CDCF2111B9
:10404000CECF0AC080914704882361F0853061F0AB
:104050008091E80083FD0AC08091E80082FFF2CFE2
:1040600080E0089582E0089583E0089581E0089556
:10407000982F973068F59093E900981739F0709170
:10408000EC002091ED005091F00003C0242F762F1A
:1040900050E021FD02C09F5FECCF3091EB003E7FEE
:1040A0003093EB003091ED003D7F3093ED00309187
:1040B000EB0031603093EB007093EC002093ED0047
:1040C0005093F0002091EE0027FDE5CF80E00895A9
:1040D0008F708093E90081E008958091480487FF04
:1040E00011C08091E80082FD05C0809147048111D4
:1040F000F8CF11C08091E8008B770BC08091470406
:10410000882349F08091E80080FFF8CF8091E80093
:104110008E778093E80008952091E4003091E500C7
:1041200095E64091EC00842F817040FF23C0809180
:10413000E80080FD1DC080914704882399F08530F8
:1041400099F08091EB0085FD11C04091E400509101
:10415000E5002417350729F3915011F09A01E1CFBA
:1041600084E0089582E0089583E0089581E0089551
:1041700080E008954091E80042FFDDCF08950E945D
:1041800030210E943821E0EEF0E080818160808360
:10419000E8EDF0E080818F77808319BCA7EDB0E077
:1041A0008C918E7F8C9380818F7E808310924604C9
:1041B00008950F931F93CF93DF930E9430210E94A5
:1041C0003821C8EDD0E088818F7788838881806826
:1041D000888388818F7D8883E7EDF0E08081806827
:1041E000808319BC10924704109243041092450436
:1041F0001092440400EE10E0F80180818B7F8083F0
:1042000088818160888342E060E080E00E943820FD
:10421000E1EEF0E080818E7F8083E2EEF0E080814D
:1042200081608083808188608083F80180818E7FB7
:104230008083888180618883DF91CF911F910F9166
:104240000895E8EDF0E080818F7E8083E7EDF0E077
:1042500080818160808381E0809346040C94D92022
:10426000E8EDF0E080818C7F80831092E200089579
:104270001092DA001092E10008951F920F920FB68B
:104280000F9211240BB60F922F933F934F935F938E
:104290006F937F938F939F93AF93BF93EF93FF930E
:1042A0008091E10082FF0BC08091E20082FF07C095
:1042B0008091E1008B7F8093E1000E94BB2380917D
:1042C000DA0080FF1FC08091D80080FF1BC0809162
:1042D000DA008E7F8093DA008091D90080FF0DC0D4
:1042E00084E189BD86E189BD09B400FEFDCF81E08E
:1042F000809347040E94A21D05C019BC1092470478
:104300000E94B01D8091E10080FF19C08091E20001
:1043100080FF15C08091E2008E7F8093E200809143
:10432000E20080618093E2008091D80080628093F7
:10433000D80019BC85E0809347040E94B41D809189
:10434000E10084FF30C08091E20084FF2CC084E152
:1043500089BD86E189BD09B400FEFDCF8091D800FA
:104360008F7D8093D8008091E1008F7E8093E10063
:104370008091E2008F7E8093E2008091E200816074
:104380008093E20080914304882311F084E007C009
:104390008091E30087FD02C081E001C083E080934B
:1043A00047040E94B51D8091E10083FF29C08091E0
:1043B000E20083FF25C08091E100877F8093E100C8
:1043C00082E080934704109243048091E1008E7F45
:1043D0008093E1008091E2008E7F8093E2008091E3
:1043E000E20080618093E20042E060E080E00E94B1
:1043F00038208091F00088608093F0000E94B31D07
:10440000FF91EF91BF91AF919F918F917F916F91AC
:104410005F914F913F912F910F900BBE0F900FBE68
:104420000F901F9018951F920F920FB60F921124A4
:104430000BB60F922F933F934F935F936F937F939E
:104440008F939F93AF93BF93CF93DF93EF93FF939C
:10445000C091E900CF708091EC00D82FD17080FD21
:10446000D0E81092E9008091F000877F8093F000FF
:1044700078940E945B221092E9008091F00088609D
:104480008093F000CD2BCF70C093E900FF91EF91A6
:10449000DF91CF91BF91AF919F918F917F916F915C
:1044A0005F914F913F912F910F900BBE0F900FBED8
:1044B0000F901F9018951F93CF93DF93CDB7DEB762
:1044C000AA970FB6F894DEBF0FBECDBFE8E4F4E0C4
:1044D0008091F100819324E0E035F207C9F70E9452
:1044E000C01D8091E80083FF2EC180914804909107
:1044F0004904492F50E04A30510508F024C1FA011F
:10450000E659FF4F0C94EB23803821F0823809F0F4
:104510001AC108C08091440490914504992389F000
:1045200082600FC080914C048F70873008F00BC1FF
:104530008093E9008091EB0085FB882780F9109239
:10454000E9009091E800977F9093E8008093F10054
:104550001092F100D1C0282F2D7F09F0F4C08823DC
:1045600019F0823061F0EFC080914A04813009F087
:10457000EAC0933009F080E0809345042EC080911A
:104580004A0481112AC080914C048F702FEF280FAC
:10459000263008F0D8C08093E9002091EB0020FF7E
:1045A0001CC0933021F48091EB00806214C0909184
:1045B000EB0090619093EB0021E030E0A90102C094
:1045C000440F551F8A95E2F74093EA001092EA00E3
:1045D0008091EB0088608093EB001092E90080915D
:1045E000E800877F8093E8000E946D20ACC08111B5
:1045F000AAC010914A041F778091E3008078812B34
:104600008093E3008091E800877F8093E8000E9418
:104610006D208091E80080FFFCCF8091E3008068EE
:104620008093E300111102C082E001C083E0809317
:10463000470489C08058823008F085C080914A04C0
:1046400090914B048C3D53E0950779F583E08A8384
:104650008AE289834FB7F894DE01139620E03EE0AA
:1046600051E2E32FF0E050935700E49120FF03C0A4
:10467000E295EF703F5FEF708E2F90E0EA3010F020
:10468000C79601C0C0968D939D932F5F243149F743
:104690004FBF8091E800877F8093E8006AE270E076
:1046A000CE0101960E947D1F16C060914C0470914E
:1046B0004D04AE014F5F5F4F0E94C11EBC01892BAC
:1046C00009F441C09091E800977F9093E8008981B8
:1046D0009A810E94D91F8091E8008B778093E8002F
:1046E00032C0803881F58091E800877F8093E800B0
:1046F000809143048093F1008091E8008E7772CF1F
:10470000811121C080914A0490914B04992702970E
:10471000D4F48091E800877F8093E80080914A0478
:10472000809343040E946D2080914304811106C050
:104730008091E30087FD02C081E001C084E08093A6
:1047400047040E94B61D8091E80083FF0AC0809153
:10475000E800877F8093E8008091EB00806280937F
:10476000EB00AA960FB6F894DEBF0FBECDBFDF9167
:10477000CF911F9108950895CF9380914704882386
:10478000A1F0C091E900CF709091EC00892F817069
:1047900090FD80E8C82B1092E9008091E80083FD2D
:1047A0000E945B22CF70C093E900CF91089597FBE0
:1047B000072E16F4009407D077FD09D00E94F42349
:1047C00007FC05D03EF4909581959F4F0895709514
:1047D00061957F4F0895EE0FFF1F0024001C0BBE54
:1047E0000790F691E02D0994AA1BBB1B51E107C06D
:1047F000AA1FBB1FA617B70710F0A61BB70B881F71
:10480000991F5A95A9F780959095BC01CD010895FF
:10481000FB01DC0104C08D910190801921F441500D
:104820005040C8F7881B990B0895F999FECF92BDA7
:1048300081BDF89A992780B50895A8E1B0E042E0DB
:1048400050E00C944924262FF999FECF92BD81BDEA
:10485000F89A019700B4021639F01FBA20BD0FB6BE
:10486000F894FA9AF99A0FBE08950396272F0E949A
:1048700024240E942324252F0E942424242F0C94D6
:1048800024240196272F0E9424240C942324DC0145
:10489000CB01FC01F999FECF06C0F2BDE1BDF89A4B
:1048A000319600B40D9241505040B8F70895F894F5
:0248B000FFCF38
:1048B200FF000000000000000000000000000000F7
:1048C20000000000000000000000000000000000E6
:1048D20000000000000000000000000000000000D6
:1048E20001FFFFFFFFFFFFFFFFFFFFFFFFFFFFFFD4
:1048F200FFFFFFFF00FFFFFFFFFFFFFFFFFFFFFFC5
:10490200FFFFFFFFFFFFFFFFFFFFFFFFFFFFFFFFB5
:10491200FFFFFFFFFFFFFFFF0F0F0FFFFFFFFFFF75
:10492200FFFFFFFF0F0F0FFFFFFFFFFFFFFFFFFF65
:104932000F0F0FFFFFFFFFFFFFFFFFFF0FFFFFFF45
:10494200FFFFFFFFFFFFFFFFFFFFFFFFFFFFFFFF75
:10495200FFFFFF0F0F0F0FFFFFFFFFFFFFFFFFFF25
:10496200FFFFFFFFFFFFFFFFFFFFFFFFFFFFFFFF55
:10497200FFFFFF0FFFFFFFFFFFFFFFFF0FFF0F0F05
:104982000FFF0FFFFFFFFFFFFFFFFFFFFFFFFFFF15
:10499200FFFFFFFFFFFF0FFFFFFFFFFFFF0F0F0FE5
:1049A2000FFFFF0FFFFFFFFF0F0F0F0F0FFF0F0F85
:1049B2000FFFFFFF0F0F0F0FFFFFFFFFFFFFFFFFB5
:1049C200FFFFFFFFFFFFFFFFFFFFFFFFFFFFFFFFF5
:1049D200FFB8032808641E140A321E0C1D611D4212
:1049E2001D3E1D3A1D01E200E900EA00B500B600D5
:1049F200B700CD008301CC008A019201940121020B
:104A0200230224022502260227022A02B300B4004E
:104A12006F007000818283E200E900EA00B500B60F
:104A220000B700CD008301CC008A019201940121DC
:104A320002230224022502260227022A02B300B41C
:104A4200006F0070008182839392919037363534E3
:084A5200333231309495969740
:00000001FF
