:100000000C9416020C9435020C9435020C943502B3
:100010000C9435020C9435020C9435020C94350284
:100020000C9435020C9435020C94AF210C9485226B
:100030000C94BD1C0C9435020C9435020C943502C2
:100040000C9435020C9435020C9435020C94350254
:100050000C9435020C94161D0C9435020C94350248
:100060000C9435020C9435020C9435020C94350234
:100070000C9435020C9435020C9435020C94350224
:100080000C9435020C9435020C9435020C94350214
:100090000C9435020C943502FB11FB112D122D121C
:1000A0007A129812B913B913A312381349134913CA
:1000B000A913B913B913B213601460147214721433
:1000C0006914721472147214601460146E14721431
:1000D00072146E14F6221D2315241D231524692382
:1000E0008C231524E323F2232B0014001A000800AC
:1000F000150017001C0018000C00120013002A0045
:10010000290004001600070009000A000B000D007A
:100110000E000F0033002800E1001D001B00060048
:100120001900050011001000360037003800346255
:10013000E0000358E300E20001582C422C00415932
:100140005000510052004F0035003A003B003C0087
:100150003D003E00010024002500260001000100B2
:1001600001003F0040004100420043002E022100F8
:10017000220023002D00010001004400450046003C
:100180004700480025021E001F00200038002E00F6
:1001900001000100010001000153010001002700DE
:1001A000270037003600290035021E021F022002F8
:1001B00021022202230224022502260227024C00E9
:1001C000010049004A004B000100010050005100AD
:1001D00052004F002D02010001004C004D004E0066
:1001E000010001002F0230022F00300031003102E7
:1001F00001000100010001000100010001000253A3
:100200004A004E004B004D0001000100ED00F900D6
:1002100001000100010001000100010001000100D6
:100220000100EF00EE00F0000100010001000100FC
:100230000100010001000100010001000100FA00BD
:1002400001000100010001000100010001000100A6
:100250000100035301000100F100F2000100F3006E
:10026000AB00AA00A900AE000100010001000100DE
:1002700001000100010001000100060019001B003F
:100280000100010001000100010001000100010066
:100290000100010001000100010001000100010056
:1002A0000100010001000100010001000100010046
:1002B0000100010001000100010001000100010036
:1002C00001000100010001000E03740065006500DB
:1002D0006E007300790000000A03720077006B0063
:1002E000620000000403090409023B00020100A0AF
:1002F000320904000001030101000921110100017C
:100300002240000705810308000A090401000103D7
:1003100000000009211101000122B6000705820337
:1003200020000A1201100100000008EDFE606001CB
:10033000000102000105010902A10185020901A1D4
:100340000005091901290815002501950875018185
:10035000020501093009311581257F950275088153
:100360000609381581257F950175088106050C0A57
:1003700038021581257F950175088106C0C00501E9
:100380000980A101850319012AB700150126B700CC
:10039000950175108100C0050C0901A101850419A2
:1003A000012AA002150126A002950175108100C046
:1003B00005010906A1018505050719E029E71500D2
:1003C00025019508750181020507190029EF15001F
:1003D000250195F07501810205081901290595058A
:1003E00075019102950175039101C005010906A1EE
:1003F00001050719E029E715002501950875018118
:10040000029501750881010507190029FF150026CD
:10041000FF00950675088100050819012905950555
:1004200075019102950175039101C00011241FBE51
:10043000CFEFD0E2DEBFCDBF12E0A0E0B1E0ECE74D
:10044000F9E400E00BBF02C007900D92AA3AB10791
:10045000D9F724E0AAEAB2E001C01D92A335B207A1
:10046000E1F70E94EA1E0C94BC240C940000FC01ED
:1004700090E3A0E0B1E001900D929A95E1F78091B0
:10048000AC029091AD02A091AE02B091AF028F6F1D
:100490009F6FAF6F8093AC029093AD02A093AE02BA
:1004A000B093AF02089520E3829FC00111248F5CB6
:1004B0009E4F0C943702E1EBF2E087E090E050E1D0
:1004C00040E231E020E8108213825183548312828B
:1004D00015821682118647834287108613861486FA
:1004E00017861586108A3687318B128A158A238BD8
:1004F000268B148A178A01977896009721F781E353
:1005000091E00C943702882311F083E001C082E06F
:100510008093300108952F923F924F925F926F9295
:100520007F928F929F92AF92BF92CF92DF92EF9283
:10053000FF920F931F93CF93DF93CDB7DEB7A197B1
:100540000FB6F894DEBF0FBECDBF0091AC02109184
:10055000AD022091AE023091AF0241E050E060E088
:1005600070E0082E04C0440F551F661F771F0A94C1
:10057000D2F74095509560957095402351236223A2
:1005800073234093AC025093AD026093AE0270931C
:10059000AF022CE0829FD0011124A050BF4F2C91BC
:1005A0002095422F477050E0BA016F5F7F4F7A83EA
:1005B0006983207722952F7030E0A9014F5F5F4F4C
:1005C0005C834B8311962C9111972095422F477095
:1005D00050E0BA016F5F7F4F7E836D832077229555
:1005E0002F7030E0A9014F5F5F4F58874F831296FD
:1005F0002C9112972095422F477050E0BA016F5FFF
:100600007F4F7A876987207722952F7030E0A90184
:100610004F5F5F4F5C874B8713962C911397209504
:10062000422F477050E0BA016F5F7F4F7E876D8722
:10063000207722952F7030E0A9014F5F5F4F588BD4
:100640004F8714962C9114972095422F477050E0B5
:10065000BA016F5F7F4F7A8B698B207722952F705D
:1006600030E0A9014F5F5F4F5C8B4B8B15962C914F
:1006700015972095422F477050E0BA016F5F7F4F6A
:100680007E8B6D8B207722952F7030E0A9014F5F14
:100690005F4F588F4F8B16962C9116972095422FAF
:1006A000477050E0BA016F5F7F4F7A8F698F207774
:1006B00022952F7030E0A9014F5F5F4F5C8F4B8F09
:1006C00017969C9117979095292F277030E0A901D4
:1006D0004F5F5F4F5E8F4D8F9077292E22949FE062
:1006E0002922312C5FEF251A350A18969C9118970C
:1006F0009095292F2770422E512C6FEF461A560ADB
:100700009077692E62942FE06222712C7FEF671A36
:10071000770A19969C91199790959F8F9770C92E7B
:10072000D12C2FEFC21AD20A3F8D307732953F700D
:10073000432F50E04F5F5F4F59A348A31A960C9187
:100740001A970095902F9770A92EB12C6FEFA61ACB
:10075000B60A007702950F7010E00F5F1F4F1B96CF
:100760009C919095292F2770822E912C7FEF871ACC
:10077000970A9077E92EE2943FE0E322F12C9FEF75
:10078000E91AF90A26E0829FF0011124EF54FD4F87
:1007900020E030E02F5F3F4FC9016B817C810E94D8
:1007A0004924482FC90169817A810E9449248823FC
:1007B00019F08181877F02C0818188608183848173
:1007C000442311F0877F01C088608483C9016F8151
:1007D00078850E944924482FC9016D817E810E943D
:1007E0004924882319F082818D7F02C08281826032
:1007F00082838581442311F08D7F01C082608583CF
:10080000C9016B857C850E944924482FC9016985EF
:100810007A850E944924882319F081818D7F02C046
:100820008181826081838481442311F08D7F01C0A6
:1008300082608483C9016F8578890E944924482F8A
:10084000C9016D857E850E944924882319F0818124
:100850008E7F02C08181816081838481442311F075
:100860008E7F01C081608483C9016B897C890E946D
:100870004924482FC90169897A890E94492488231B
:1008800019F080818F7702C08081806880838381A6
:10089000442311F08F7701C080688383C9016F8979
:1008A000788D0E944924482FC9016D897E890E9454
:1008B0004924882319F080818F7B02C08081806465
:1008C00080838381442311F08F7B01C08064838304
:1008D000C9016B8D7C8D0E944924482FC901698D07
:1008E0007A8D0E944924882319F080818F7D02C06F
:1008F0008081806280838381442311F08F7D01C0D9
:1009000080628383C901B1010E944924482FC90133
:100910006D8D7E8D0E944924882319F080818F7E01
:1009200002C08081806180838381442311F08F7EA7
:1009300001C080618383C901B3010E944924482F0B
:10094000C901B2010E944924882319F08081877F60
:1009500002C08081886080838381442311F0877F77
:1009600001C088608383C90168A179A10E944924DC
:10097000482FC901B6010E944924882319F08081BB
:100980008B7F02C08081846080838381442311F047
:100990008B7F01C084608383C901B8010E94492410
:1009A000482FC901B5010E944924882319F080818C
:1009B0008D7F02C08081826080838381442311F017
:1009C0008D7F01C082608383C901B7010E944924E1
:1009D000482FC901B4010E944924882319F080815D
:1009E0008E7F02C08081816080838381442311F0E7
:1009F0008E7F01C08160838378962730310509F0AE
:100A0000C9CEA1960FB6F894DEBF0FBECDBFDF9161
:100A1000CF911F910F91FF90EF90DF90CF90BF90FB
:100A2000AF909F908F907F906F905F904F903F908E
:100A30002F900895CF93DF93D82F8091B002C82FC5
:100A4000C17080FD15C0869583704091AC025091B5
:100A5000AD026091AE027091AF02082E04C076958F
:100A60006795579547950A94D2F740FD0E948B02EF
:100A7000AFB7F89481B380B3E091B002F0E0CF015A
:100A8000880F991FE80FF91FEF54FD4FB08128B16F
:100A900057B131815474832F8B7B582B8EB14DB15C
:100AA00062814C7F962F9370492BDD2389F1EB2FC8
:100AB000C111E095732F7B70247FCC2321F0932FFD
:100AC00090959B7001C0972F292B962F9270792BB0
:100AD0007B2B8D7FCC2319F0962F90959270892BCC
:100AE000711101C05F74922F9F74232FC11101C037
:100AF0002095207B292B711101C04E7F982F9E7F5E
:100B00006170C11102C081E06827862F892B06C061
:100B1000247454748C7F4C7FB0E0E0E0E1BB28B9D2
:100B20008EB9B0BB57B94DB9AFBF8091B0028F5FDE
:100B3000883318F48093B00202C01092B002DF91A3
:100B4000CF910895CF93C0913001C0FF04C081E0E0
:100B5000CF910C941A05C1FF06C080E00E941A05CF
:100B6000CD7FC0933001CF9108950C945B020C941B
:100B7000A205CF92DF92EF92FF926B017C0162FDA2
:100B800008C0DC01CB01B695A79597958795817034
:100B900001C082E0C3FC83E0C4FC84E00E945302F5
:100BA000C701B601FF90EF90DF90CF90089580E0ED
:100BB0000C94830281E00C9483029C013A952115E8
:100BC0003F4138F5DC01AA27B270AC0144275470CC
:100BD0009C012227387094FF0FC090FF02C080E173
:100BE00001C080E0AB2B09F08062452B09F08064E6
:100BF000232B69F080680BC0892F8170AB2B09F023
:100C00008260452B09F08460232B09F08860FB018A
:100C100009940895CF93DF93EC01805E91090897C2
:100C200010F0209719F46AEB71E102C06DE274E1F3
:100C3000CE010E94DD058C2FDF91CF910C94101115
:100C400081E0089581E008950C94220608950C94A3
:100C500026061F93CF93DF9300D000D01F92CDB70D
:100C6000DEB749835A836B833091880389819A81E7
:100C7000311114C0662359F0222349F00E949919BA
:100C8000182F682F89819A810E94421903C00E94FF
:100C90006D19182F69817A81812F04C00E949919DA
:100CA00069817A810F900F900F900F900F90DF91D4
:100CB000CF911F910C94F506FC01262F40815181A4
:100CC0006281738184810C942906CF93DF93EC01B8
:100CD00060E00E945C06BE01DF91CF910C94270674
:100CE0000E9400090C94B5050E94230F0C94B705CF
:100CF00008950E944E140E9478062FEF84E39CE032
:100D0000215080409040E1F700C000000C943C1D51
:100D10000F931F93CF93DF938C0161E00E945C06D9
:100D2000EC01B8010E942406882309F444C0B801EC
:100D3000CE010E944E0F8823F1F1B801CE010E942E
:100D40005F0D8823C1F1B801CE010E94B10D882347
:100D500091F1B801CE010E94DC0E882361F1F80107
:100D60008281882309F1CB358DE5D807C1F050F495
:100D7000C115FCE5DF0781F0CF3DDC45A9F40E94F9
:100D8000A41B19C0CC35EDE5DE0761F0CD35DD459E
:100D900059F40E942C1A08C00E9479060CC00E94C7
:100DA000351A02C00E94381AC801DF91CF911F91F5
:100DB0000F910C94200680E0DF91CF911F910F914D
:100DC000089508950C94E10681E008950C94E406DA
:100DD000CF93C82F0E94E2068C2F0E94E606CF9187
:100DE000089580E090E00895089520E3829FC00177
:100DF0001124FC012CE0729FE00DF11D1124E60F7F
:100E0000F11DEE0FFF1FE851FF4F8591949108955A
:100E1000880F991FFC01E853FD4F85919491089527
:100E2000CF93DF930E94F5060E942808EC018115FC
:100E3000904508F041C0C11580E4D80708F0D1C042
:100E4000C83ED10510F5C03ED10508F0FDC0C83A36
:100E5000D10578F4C53AD10508F0A2C0C130D1055A
:100E600009F4F2C008F4EEC0C430D10508F0ECC0BB
:100E7000E9C0CF3BD10508F49BC0C03CD10508F4C4
:100E8000E1C0CE01805C91099EC0C11590E2D907F6
:100E900058F4C11521E0D20708F0D6C0CD3ED105E7
:100EA00008F4D0C0D065D0C0C11580E3D80708F0E1
:100EB0008EC0CE019F7087C0C11595E5D90708F097
:100EC00043C0C11524E5D20708F0A2C0C11582E5D0
:100ED000D80708F5C11591E5D90708F085C0CE01FE
:100EE00074E0969587957A95E1F783709C2F9370BF
:100EF00021E030E002C0220F331F9A95E2F73C68F0
:100F0000382BCF70C695C69580E2C89FE0011124AA
:100F1000C22BD32B99C09E01237033278C2F86952B
:100F20008695C115D34508F064C0C1E0D0E002C089
:100F3000CC0FDD1F2A95E2F720E2829FC001112429
:100F4000C82BD92BDC6880C0C11529E5D207A0F4D5
:100F5000C11588E5D80708F060C0C11596E5D90726
:100F600008F070C08C2F0E94BC088F71C82FD0E091
:100F7000DC2FCC27D06268C0C1152AE5D20708F45F
:100F800051C0CE0190568115904208F05BC08D2F64
:100F90008F710E94BC08DD27D0628F71D82B54C09E
:100FA000C55AD0E0CB59DD4FC881D0E0D0644CC0E9
:100FB000C85AD0E0CC0FDD1FC95CDD4F0990D88145
:100FC000C02DD46441C00E940807EC013DC0CE0191
:100FD0009927D3FF03C0EC01D86C36C0EC01D06C6C
:100FE00033C0DF70D06A30C0DC2FCC27C16FD06A2D
:100FF0002BC0C1E0D0E002C0CC0FDD1F2A95E2F784
:1010000020E2829FC0011124C82BD92BDA681CC0B2
:10101000DC2FCC27C46FD06A17C0DC2FCC27C06F61
:10102000D06A12C08C2F8F700E94BC0894E0D695B5
:10103000C7959A95E1F7CF70D0E0DC2FCC27D06927
:10104000C82B02C0C0E0D0E0CE01DF91CF9108955F
:101050008238910569F1B0F48133910509F46DC0CE
:1010600048F48932910509F463C08A32910509F484
:1010700069C008958533910509F455C089339105F8
:10108000B9F00895833E910569F138F4803E9105E9
:10109000B1F0823E910509F10895863E9105A9F1CE
:1010A000873E9105B9F1843E910509F064C023C0E3
:1010B0002091300420FD4FC021FD4DC00895809146
:1010C000300480FD44C08091310480FF44C0809191
:1010D000300484FD42C083EE4DC08091300482FF15
:1010E00038C0F5CF8091300482FD33C08091310447
:1010F00080FD31C0ECCF8091310481FF32C08091FE
:10110000300484FD2AC087EE35C08091300483FF0F
:1011100026C0F5CF8091300483FD21C08091310439
:1011200081FD1FC0ECCF8091300485FD1CC01DC027
:101130008091300485FD19C016C08091300486FD71
:1011400016C017C08091300486FD13C010C089E31B
:1011500011C082EE0FC080EE0DC080E00BC086EEA5
:1011600009C084EE07C089E205C085E303C08AE2B6
:1011700001C081E390E008959091300492FF0DC08A
:10118000282F2871283019F4877F846006C0282F03
:101190002471243011F48B7F886093FF0DC0282FB9
:1011A0002871283119F4877E846106C0282F2471A4
:1011B000243111F48B7E88612091310420FF0DC011
:1011C000382F3871383019F4877F816006C0382F86
:1011D0003171313011F48E7F886021FF0DC0282FCE
:1011E0002871283119F4877E816106C0282F21716A
:1011F000213111F48E7E886194FD877E08950895D3
:101200000E94FC1A811102C00E94A41B0E94071BAD
:1012100080930C040E940F1B909331048093300440
:101220000E94FF080E940B1B682F70E080E090E096
:101230000E9444186091DF037091E0038091E10304
:101240009091E2030C947C18E82FF0E0EE0FFF1F62
:10125000E65CFB4F808191810895089580EA8A952C
:10126000F1F7089500C008950C942E09F894E82F22
:10127000E295EF70F0E031A1282F2F7081E090E02F
:1012800001C0880F2A95EAF7982F9095932391A390
:1012900092A1892B82A3789408950F931F93CF93E3
:1012A000DF9384E90E94360985E90E94360986E9C0
:1012B0000E94360987E90E943609C8E6D2E004E7B1
:1012C00012E089910E9436090C171D07D1F7109280
:1012D00033041092320410923B0410923A0410929C
:1012E00035041092340410923D0410923C04109284
:1012F00037041092360410923F0410923E0410926C
:10130000390410923804109241041092400484E091
:101310000E941E0ADF91CF911F910F910C947006CD
:101320007F928F929F92AF92BF92CF92DF92EF9275
:10133000FF920F931F93CF93DF93C4E7D2E082E332
:10134000A82E84E0B82E9AE3E92E94E0F92E712CB1
:1013500001E010E06E018881F894E82FE295EF70CB
:10136000F0E021A18F70A80102C0440F551F8A959B
:10137000E2F7CA01922F982B91A392A1809589231D
:1013800082A378940E943209E8E6F2E020E030E09F
:10139000812C912C4191A42FA295AF70B0E0909632
:1013A0008C9190E04F7002C0959587954A95E2F731
:1013B00080FD08C0C801022E02C0880F991F0A9440
:1013C000E2F702C080E090E0882A992A2F5F3F4F21
:1013D0002C303105F9F62196F60180810E943609FC
:1013E0000E943409F501808191818816990621F0C7
:1013F0009182808281E001C080E0782AF2E0AF0E25
:10140000B11CEA14FB0409F0A5CF272D44E06AE3E0
:1014100074E082E394E00E941F0A0E947406872D04
:10142000DF91CF911F910F91FF90EF90DF90CF90C0
:10143000BF90AF909F908F907F9008950895FF92F6
:101440000F931F93CF93DF93F82E092F162FD72FCB
:10145000C42F222349F081E080935B030E94EF1C9C
:1014600090935A038093590380915B038823D9F0AA
:101470008091590390915A030E94071D069798F096
:10148000EF2DF02FA12FBD2F80E090E04C2F50E0EA
:101490008417950734F4219131912D933D93019652
:1014A000F7CF10925B03DF91CF911F910F91FF90C7
:1014B00008958091620380FF0BC06091260285E051
:1014C000689FB001112475956795759567952BC038
:1014D00081FF09C06091260285E0689FB001112458
:1014E0007595679520C082FF07C06091260285E050
:1014F000689FB001112417C0909161039923D1F026
:1015000060912502961788F72091260285E0289F92
:1015100090011124929FA001939F500D112470E01F
:10152000CA010E9449246038710540F461157105B3
:1015300019F406C065E070E0862F08958FE70895DE
:1015400081E008958091620380FF08C060912202CB
:1015500070E0759567957595679521C081FF06C008
:101560006091220270E07595679519C082FF04C0F2
:101570006091220270E010C090916003992399F06D
:10158000609121029617A0F780912202899FC001E5
:10159000112470E00E9449246038710540F46115FF
:1015A000710519F406C061E070E0862F08958FE799
:1015B000089581E008958D3E21F40E94590A819595
:1015C00004C08E3E29F40E94590A80936603089550
:1015D0008F3E21F40E94590A819504C0803F29F46E
:1015E0000E94590A809365030895893F19F40E9467
:1015F000A20A05C08A3F31F40E94A20A8195809315
:10160000670308958B3F21F40E94A20A819504C0CC
:101610008C3F29F40E94A20A8093680308959FE0FA
:10162000980F983078F421E030E0A90102C0440F0F
:10163000551F9A95E2F7CA0190916403892B809314
:10164000640308958D3F21F48091620381600BC093
:101650008E3F21F480916203826005C08F3F29F4A0
:101660008091620384608093620308958D3E39F413
:101670009091660397FF35C01092660359C08E3E65
:1016800029F4909166031916BCF32BC09091650361
:101690008F3E29F497FF25C01092650349C0803F13
:1016A00019F41916CCF31DC090916703893F29F4F2
:1016B0001916BCF4109267033BC08A3F19F497FFD8
:1016C00010C0F8CF8B3F39F49091680397FF09C0A1
:1016D000109268032DC08C3F21F490916803191675
:1016E000BCF39FE0980F983080F421E030E0A9012E
:1016F00002C0440F551F9A95E2F7CA018095909158
:10170000640389238093640313C08D3F21F4809187
:1017100062038E7F0BC08E3F21F4809162038D7F28
:1017200005C08F3F29F4809162038B7F8093620311
:1017300080916503811106C080916603811102C00A
:101740001092610380916703811106C08091680344
:10175000811102C01092600308950E94EF1C209135
:101760006503211104C020916603222321F0909388
:101770005F0380935E0320916703211104C02091D1
:101780006803222321F090935D0380935C0383E63A
:1017900093E00C94A70FEF92FF920F931F93CF93B8
:1017A000DF9300D000D000D0CDB7DEB786E0E3E60F
:1017B000F3E0DE01119601900D928A95E1F7E09039
:1017C0006503F0906603009167031091680310921F
:1017D0006503109266031092670310926803E1108C
:1017E00003C0FF2009F45DC080915E0390915F0308
:1017F0000E94071DAC0190916103992339F020915B
:10180000270230E02417350758F04BC020912802FA
:101810008AE0289F900111242417350718F041C051
:101820009F3F19F09F5F90936103EE2061F00E944B
:10183000590A1E1414F09FEF01C091E0989F902D5B
:10184000112490936503FF2061F00E94590A1F1430
:1018500014F09FEF01C091E0989F902D1124909378
:101860006603309165033323E1F020916603222360
:10187000C1F045EB3403C0011124992319F0909372
:10188000650303C081E08093650335EB2303C0014A
:101890001124992319F09093660303C081E080938B
:1018A0006603011103C0112309F45DC080915C033C
:1018B00090915D030E94071DAC01909160039923F4
:1018C00039F02091230230E02417350758F04BC03F
:1018D000209124028AE0289F9001112424173507C3
:1018E00018F041C09F3F19F09F5F90936003002361
:1018F00061F00E94A20A101614F09FEF01C091E05F
:10190000989F902D112490936703112361F00E94FA
:10191000A20A111614F09FEF01C091E0989F902D3C
:10192000112490936803309167033323E1F02091F1
:1019300068032223C1F045EB3403C001112499232D
:1019400019F09093670303C081E08093670335EB40
:101950002303C0011124992319F09093680303C055
:1019600081E0809368038091650381110BC08091B1
:101970006603811107C080916703811103C08091C4
:10198000680381110E94AD0BEB82FC820D831E83E4
:1019900086E0FE013196A3E6B3E001900D928A95B0
:1019A000E1F726960FB6F894DEBF0FBECDBFDF91EC
:1019B000CF911F910F91FF90EF900895E3E6F3E030
:1019C00086E0DF011D928A95E9F71092610310927B
:1019D00060031092620308950F931F93CF93DF93D8
:1019E000C42FD22FFC0182818823C9F040936B035E
:1019F0000E94EF1C90936A038093690380E28C0F2E
:101A0000883008F057C0C77081E001C0880FCA95C0
:101A1000EAF7DF91CF911F910F910C94BA11809149
:101A20006B03481330C08091690390916A030E9450
:101A3000071D883C910538F510E21D0FCD17B9F050
:101A400080E28C0F883040F4C77081E001C0880FBD
:101A5000CA95EAF70E94C111183028F581E09D2F40
:101A6000977001C0880F9A95EAF70E94BA11802FEB
:101A70000E94B1111830F0F4D77081E001C0880FD6
:101A8000DA95EAF70AC080E28C0F883098F4C770C4
:101A900081E001C0880FCA95EAF7DF91CF911F91CD
:101AA0000F910C94C111802FDF91CF911F910F9155
:101AB0000C94B111DF91CF911F910F9108950F9365
:101AC0009C01CB01243F4CE5340731F188F4293DDA
:101AD000FCE53F07D9F02A3D4CE5340779F1283D74
:101AE0003C45A9F506E221EE41EE68ED7CE52BC010
:101AF000263FFCE53F07E1F0A8F0273F3C4539F5DC
:101B000007E225EE46EE67EF7CE51DC007E225EE15
:101B100045EE69ED7CE517C006E221EE40EE64EF8C
:101B20007CE511C007E225EE44EE65EF7CE50BC0D5
:101B300006E221EE42EE66EF7CE505C008E221E018
:101B400045EE6AED7CE50E94EC0C80E008C0FC01EB
:101B50008281882319F010926B0301C081E00F91FC
:101B60000895CF93DF93EC01FB018281882309F470
:101B70001FC1C230FCE5DF0708F41BC1C6319CE57C
:101B8000D90738F09E012B5F3C452930310508F01C
:101B900010C10E940F1B9093310480933004C03118
:101BA000ECE5DE0709F4C3C008F041C0C8308CE59D
:101BB000D80709F49AC0F0F4C430ECE5DE0709F464
:101BC00087C068F4C2308CE5D80709F477C0C33009
:101BD000DC4509F0E3C080913004826076C0C630F5
:101BE000ECE5DE0709F46EC008F07BC0809130049C
:101BF00088606BC0CC308CE5D80709F485C068F4E8
:101C0000CA30ECE5DE0709F474C008F079C00E9420
:101C10004E1480913004806858C0CE308CE5D807CF
:101C200009F476C008F07FC0809130048BC0CC3FAF
:101C3000ECE5DE0709F44FC018F5C3318CE5D80791
:101C400009F47DC078F4C131ECE5DE0709F473C016
:101C5000C231DC4509F0A2C00E944E1480913004CC
:101C60008F7733C0C5318CE5D80709F472C008F40A
:101C700086C0CB3FDC4509F091C0809131043EC065
:101C8000C115FDE5DF0709F45FC058F4CE3F9CE5C0
:101C9000D90709F444C008F43FC080913104826040
:101CA0002DC0C230FDE5DF0709F475C008F45DC042
:101CB000C330DD4509F072C080E06EC08091300411
:101CC000816003C08091300480618093300466C0DD
:101CD0008091300411C0809131048260809331047E
:101CE0005DC0809130048062F0CF809130048064C8
:101CF000ECCF8091300488608460E7CF8160EECFC4
:101D0000809130048E7FE1CF809130048D7FDDCFD4
:101D100080913004877FD9CF8091310418C08091A1
:101D200031048D7FDBCF809130048F7ECECF8091C8
:101D300030048F7DCACF809130048F7BC6CF8091D5
:101D40003004877F8B7FC1CF809131048D7F8E7F60
:101D5000C5CF8091300482FB222720F991E09227A1
:101D600090FB82F990FB83F9B0CF80913104982FDA
:101D7000909591708E7F892B90FB81F9AFCF0E9457
:101D80004E148091300487FB222720F991E092279E
:101D900090FB87F99ACF81E00E94A61B80913004C6
:101DA000909131040E94201B0E944E1480E001C0DB
:101DB00081E0DF91CF910895CF93DF9386319C45E9
:101DC00041F5EB010E943B1A982F8A8120912A024B
:101DD00030912B02882379F09A7A81E009F480E02F
:101DE00080936C03911102C069E201C065E3C901EF
:101DF0000E94411C0AC080916C03811102C069E2FB
:101E000001C065E3C9010E944C1C0E948D1A80E04C
:101E100001C081E0DF91CF910895CF9380916D0350
:101E2000882379F0C0E080916D03C81740F480E00A
:101E300090E00E940A060E948D1ACF5FF4CF1092A4
:101E40006D03CF91089580912902882399F08091A4
:101E50006E03882379F080916F039091700300974F
:101E600049F00E94071D893C910520F010926E03F5
:101E70000C940D0F089510926E0310922902109287
:101E8000700310926F030C940D0F80912902811141
:101E90000C943B0F81E0809329020895FB01883F59
:101EA0002CE5920739F482818823B9F081E0809390
:101EB000290220C0893F2CE5920731F482818823D2
:101EC00061F00E943B0F16C08A3F9C4531F482812D
:101ED000882319F00E94450F0DC0809129028823A4
:101EE00049F00E940D0F1092700310926F0381E071
:101EF00080936E0381E00895909376038093750339
:101F00000895E0917503F0917603309721F00190E8
:101F1000F081E02D099480E00895E0917503F0913F
:101F20007603309799F020913602222359F02091C0
:101F3000300427FF07C0DC012C9111962C931197D8
:101F400025E02C930280F381E02D09940895E0911F
:101F50007503F0917603309739F022E0DC012C9381
:101F60000480F581E02D0994089520917303309148
:101F700074032817390771F09093740380937303E7
:101F8000E0917503F0917603309721F00680F78198
:101F9000E02D099408952091710330917203281760
:101FA000390771F09093720380937103E091750388
:101FB000F0917603309721F00084F185E02D0994AB
:101FC00008950E94FB1C60938403709385038093A3
:101FD00086039093870360938003709381038093BB
:101FE000820390938303089585B7806885BF85B782
:101FF000806885BF089581E008950C94FB0F0895D3
:102000000C94FF0F0C94FF0F0C9402100C94FF0F14
:102010000C9406100C94FF0F0E94F40F8AEF9AE1C3
:102020000E946E1D0E940A100C9408100E9400105D
:102030000C94FF0F0E94E61C0E944D090C940410A2
:102040006F927F928F929F92AF92BF92CF92DF92C8
:10205000EF92FF920F931F93CF93DF93CDB7DEB72D
:102060002A970FB6F894DEBF0FBECDBF0E9490092D
:1020700081110E94E10F38E7832E33E0932E00E0B8
:1020800010E0C02E802F0E9424095C01F4016190B1
:1020900071904F016826792661147104B1F40F5FC5
:1020A0001F4F0430110569F78FEF89838A831B82E4
:1020B0000E94EF1C8160782F9D838C8349815A8117
:1020C0006B818D810E94D6103AC080910C0481FDF5
:1020D0000E942D09D12CEE24E394F12CC3018E2112
:1020E0009F21892B29F10E94FD0F8823A9F0DE8210
:1020F000CF82AE20BF2081E0AB2809F480E0888742
:102100000E94EF1C8160782F9A8789874E815F81BA
:1021100068858A850E94D610000F111FF801E858C3
:10212000FC4F80819181E826F926F182E08207C088
:10213000D394EE0CFF1CFCE0DF12D0CFB0CF0E9496
:10214000CB0B0E94810F909177038917D1F00E94E9
:10215000810F809377032A960FB6F894DEBF0FBEE7
:10216000CDBFDF91CF911F910F91FF90EF90DF9046
:10217000CF90BF90AF909F908F907F906F900C9476
:10218000E8062A960FB6F894DEBF0FBECDBFDF91EA
:10219000CF911F910F91FF90EF90DF90CF90BF9064
:1021A000AF909F908F907F906F900895DF92EF9205
:1021B000FF920F931F93CF93DF93CDB7DEB72B978B
:1021C0000FB6F894DEBF0FBECDBFF42E052F162F2D
:1021D000E72ED82E61110E945B1AFE01319686E02F
:1021E000DF011D928A95E9F77E2D4F2D502F612F2B
:1021F0008D2D9E810E9407172B960FB6F894DEBF97
:102200000FBECDBFDF91CF911F910F91FF90EF9047
:10221000DF900895FC01808191810E94DB1908956F
:10222000CF93882309F450C0C82F8CEF8C0F813ACC
:10223000D0F46C2F80912A0290912B020E94C11B36
:10224000882349F06C2F80912A0290912B020E94E2
:102250004C1C0E948D1A6C2F80912A0290912B02A7
:102260000E94411C0CC080E28C0F883058F4C7706B
:1022700081E001C0880FCA95EAF70E943E1ACF910B
:102280000C948D1AEBE5EC0FE33040F4F0E0EA55E6
:10229000FD4F808190E0CF910C94B50FE8E5EC0FF5
:1022A000E73150F4F0E0EE0FFF1FE858FD4F80815A
:1022B0009181CF910C94CB0FCD3E30F08C2F0E94AA
:1022C000DB0ACF910C94AD0BCF910895882389F14F
:1022D0009CEF980F913A40F4682F80912A029091D8
:1022E0002B020E944C1C0DC090E2980F983058F4BD
:1022F000877091E001C0990F8A95EAF7892F0E94B3
:10230000441A0C948D1A9BE5980F933020F480E0CA
:1023100090E00C94B50F98E5980F973120F480E089
:1023200090E00C94CB0F8D3E20F00E94360B0C9465
:10233000AD0B08951F93CF93DF93182FEB010E94ED
:102340001011209741F08FE99FE00197F1F700C04D
:1023500000002197F6CF812FDF91CF911F910C9430
:102360006611893319F060E070E002C060E570E04A
:102370000C949A11882321F00E943E1A0C948D1A15
:102380000895882321F00E94441A0C948D1A089510
:10239000CF92DF92EF92FF920F931F93CF93DF9331
:1023A0007C01062FC72FFC01D281158112951F7069
:1023B0000E94131A882399F0DD2389F08C2F807FE7
:1023C000803421F080E2800F883048F082E00E9463
:1023D000DD1A0E94131A91E0D82ED92601C0D12C03
:1023E000CC2EC2948FE0C8228C2D90E0FC01E45BDF
:1023F000FF4F0C945D248C2F807FCF70882311F0C9
:10240000C295C07FDD2399F0CC2309F48DC180E211
:10241000800F883010F0011104C08C2F0E943E1AEA
:1024200003C08C2F0E944E1A0E948D1A7DC1802FEE
:102430000E946611CC2309F49CC180E2800F883091
:1024400010F0011104C08C2F0E94441A03C08C2F7D
:102450000E94541A0E948D1A8CC18C2F807FCF70DD
:10246000803211F0C295C07F002319F00130C9F00D
:1024700022C0DD2371F0112341F0113031F40E94AC
:102480006E1A8C2B0E94761A74C10E946E1A8C2BC5
:102490001DC0112319F0113009F46BC10E94831A79
:1024A00025C0DD2321F0133008F063C10EC01230C7
:1024B00008F05FC11BC0DD2361F0112331F0F7018B
:1024C000858180FF31C18F7085838C2F0E94BA1166
:1024D00050C1112359F0093309F037C1FFEF27EE3E
:1024E00083E0F15020408040E1F72DC18C2F0E9405
:1024F000C1113FC18C2F86958695837019F081306C
:1025000061F037C1DD2321F0802F9C2F937002C032
:1025100080E090E00E94B50F34C1DD2321F0802FD0
:102520009C2F937002C080E090E00E94CB0F29C1E5
:10253000802FDD2319F00E94DB0A02C00E94360BB7
:102540000E94AD0B1EC18C2F837009F045C0D111C4
:1025500014C1402F429546954770440F440F602F99
:102560006F70862F90E0A0E0B0E0042E04C0880FCA
:10257000991FAA1FBB1F0A94D2F704FF10C00FE0D7
:1025800010E020E030E004C0000F111F221F331FB5
:102590004A95D2F7009510952095309503C000E03C
:1025A00010E09801C695C695C370BC01CD01602BA3
:1025B000712B822B932BC23049F058F4C13019F0A3
:1025C0000E945818DAC00E944618D7C00E946A18A4
:1025D000D4C00E944418D1C0DD2319F08C2F817023
:1025E00001C08695882309F4C8C0402F42954695BE
:1025F0004770440F440F602F6F70862F90E0A0E06B
:10260000B0E0042E04C0880F991FAA1FBB1F0A94B4
:10261000D2F704FF10C00FE010E020E030E004C06B
:10262000000F111F221F331F4A95D2F700951095F6
:102630002095309503C000E010E09801C695C6953E
:10264000C370BC01CD01602B712B822B932BC23048
:1026500049F058F4C13019F00E941D198EC00E9433
:102660000B198BC00E942F1988C00E947E1885C04C
:10267000CF70DD2339F08C2F0E94A418802F0E9488
:10268000BA117BC0802F0E94C1118C2F0E94C518E7
:1026900074C0023F01F128F4003F41F0013FA1F076
:1026A0003FC0033FF9F0043F39F13AC0DD2341F068
:1026B000123008F05EC08C2F8F710E94EA1859C04A
:1026C000133008F056C0F7CFDD2339F08C2F8F710F
:1026D0000E94A4184EC0DD23C9F38C2F8F710E9475
:1026E000C51847C0DD2329F08C2F8F710E948F18E9
:1026F00040C00E948A183DC0DD2349F0CF718C2F65
:102700000E94A41863E08C2F0E94C21A32C081E09C
:102710000E94DD1A123068F182E00E94DD1A29C0A1
:10272000DD2331F0112391F2802F0E94101121C07E
:10273000112399F2093349F49FEFE7EEF3E091504A
:10274000E040F040E1F700C00000802F0E946611D9
:1027500010C04C2F4F70602FC7010E94F1060E94DD
:10276000B5170FC04C2F4F70602FC7010E94F406A1
:1027700008C088EF8C0D843020F40E94810F0E94E5
:10278000E806DD20C9F00E940F1A80FD15C0F70190
:1027900012820E94091A0E94A418C7010E94FD1308
:1027A0000E94091ADF91CF911F910F91FF90EF9036
:1027B000DF90CF900C94C518DF91CF911F910F91AE
:1027C000FF90EF90DF90CF9008950F931F93CF93DA
:1027D000DF93EC01688179818A810E94E6198C017E
:1027E0000E9441190E943218B801CE010E94C811FE
:1027F000DF91CF911F910F910895CF93DF93EC015B
:10280000988189812B813C81232B31F08F3F31F4DA
:1028100081E09F3F19F403C081E001C080E080FDAA
:1028200019C0CE010E94880681110CC00E94131AA3
:10283000882381F08A81882369F082E0DF91CF913B
:102840000C94DD1ACE010E94E513CE01DF91CF91E9
:102850000C946506DF91CF910895882321F00E94A2
:102860004E1A0C948D1A089580E090E00E94B50FE6
:1028700080E090E00E94CB0F0E945B1A0E946B1ACE
:102880000E948D1A0E94DE0C0C94AD0B80912A02DE
:1028900090912B020E94571C0C9434140E944B1AE6
:1028A0000C944614E92FE295EF704E2F50E0FA0198
:1028B0003297EE30F105B0F4E45AFF4F0C945D24EA
:1028C000803F91F018F4883E68F40EC0843F51F4C4
:1028D0000BC0883E48F0813F29F406C093FB88274F
:1028E00080F9089580E0089581E008950E94DB1941
:1028F0000E9452140895CF93DF9300D000D01F920E
:10290000CDB7DEB70F900F900F900F900F90DF9123
:10291000CF910895CF93DF9300D000D000D0CDB7F2
:10292000DEB726960FB6F894DEBF0FBECDBFDF919F
:10293000CF9108951F93CF93DF93C091890316E041
:1029400080918A03C81799F0D0E01C9FF0011D9F69
:10295000F00D1124E557FC4F408151816281738154
:10296000848195810E948A142196C770E9CFDF91F6
:10297000CF911F9108954091BB035091BC0360918A
:10298000BD037091BE038091BF039091C0030C946E
:102990008A140F931F93CF93DF938091C003829586
:1029A0008F7009F05DC08091BD03882309F458C081
:1029B0008091890310918A036091BB037091BC03DD
:1029C000C091BE03D091BF0391E06F3F09F090E04A
:1029D000292F06E0811709F443C0209721F07F3F9B
:1029E00021F030E003C031E001C0322F90E030FD33
:1029F00034C0089FF001099FF00D1124DF01A55795
:102A0000BC4F11963C911197371327C03C91361358
:102A100024C012963C91129731111FC013964D910C
:102A20005C9114974C1B5D0B483C5105B0F48091B0
:102A3000C0038F7080618093C003E057FC4F80819A
:102A40008F70806180838BEB93E00E94FD13DF9198
:102A5000CF911F910F910C949A1401968770BACF61
:102A6000DF91CF911F910F9108959F92AF92BF92E6
:102A7000CF92DF92EF92FF920F931F93CF93DF934A
:102A8000CDB7DEB761970FB6F894DEBF0FBECDBFEE
:102A90008C0185E0F801DE011D9601900D928A956A
:102AA000E1F7F80140815181E2809091BB03609190
:102AB000BC032091BE033091BF032115310531F0D5
:102AC0006F3F31F481E09F3F19F403C081E001C002
:102AD00080E0F82FF1709F2E80FD46C1F801A380A1
:102AE000B4808BEBC82E83E0D82EF090BD03F501A7
:102AF000E21BF30BFF2009F4DFC08091C003E83C28
:102B0000F10508F09BC0282F207F09F052C0561312
:102B100013C0491311C0FE2CE1100EC08F708061EC
:102B20008093C0030E94BB14C6010E94FD138091D4
:102B3000C003F801858358C1AB2831F05F3F31F401
:102B400081E04F3F19F403C081E001C080E080FDC7
:102B500003C081E08E2502C080E090E0F82FF17084
:102B6000FF2E80FF1CC08091890320918A0336E0EC
:102B7000821709F417C190E0389FF001399FF00DDA
:102B80001124E557FC4F6181561306C0608146133E
:102B900003C06281E61203C001968770E9CFFE2C64
:102BA000EE2009F421C18091C00381608093C003AD
:102BB0005AC0561306C0491304C0E11002C0F80100
:102BC0009FC04D875E878D859E850E9476148823E1
:102BD00079F1EE2069F12091C003822F82958F70E8
:102BE00090E0029774F08091BB039091BC039887AA
:102BF0008F831986BB86AA862C87CE0107960E94F2
:102C0000FD1386E0F801ABEBB3E001900D928A95DD
:102C1000E1F70E94C9140E94BB140DC0561729F198
:102C20004D875E878D859E850E94761481112CC00C
:102C3000C8010E94FD13FF24F394D6C0282F207FE3
:102C400069F77A2DB98AA88A6E2D89890E947B142A
:102C50008BEB93E00E94FD1386E0F60111928A95BA
:102C6000E9F70E94BB14F12CBFC04913D9CFE11082
:102C7000D7CFF8018583C8010E94FD1386E0F601D5
:102C800011928A95E9F7B0C0EE2091F22091C0032D
:102C9000822F82958F7090E002970CF4B2CF8091D2
:102CA000BB039091BC039A8389831B82BD82AC8253
:102CB0002E83CE010196A3CFE83CF10508F047C072
:102CC000FE2CEE2009F4B4CF561330C049132EC0A9
:102CD0002091C00320FD21C0822F82958F70482F44
:102CE00050E041155105C9F0F80125834F305105D9
:102CF00041F08F5F982F9295907F822F8F70892B54
:102D00008583C8010E94FD1386E0F801ABEBB3E0B8
:102D100001900D928A95E1F742C086E0F801ABEB95
:102D2000B3E001900D928A95E1F75EC04D875E8712
:102D30008D859E850E947614811163CF8091C0039A
:102D400081608093C003C8010E94FD134DC07A2D9D
:102D5000B98AA88A6E2D89890E947B1486E0F601C3
:102D600011928A95E9F71BC0EE2009F461CF4D87D7
:102D70005E878D859E850E947614F82E882309F43F
:102D800057CF86E0F801ABEBB3E001900D928A9546
:102D9000E1F78BEB93E00E940A110E94C9140E9494
:102DA000BB1422C04D875E878D859E850E94DB19EE
:102DB000292F22952F70223028F49F7039F081112D
:102DC00005C00BC0243028F49F7049F4805E883021
:102DD00020F0C8010E94FD139F2CF92C05C0F801BA
:102DE0009581907F99F7F9CF8F2D61960FB6F89462
:102DF000DEBF0FBECDBFDF91CF911F910F91FF902E
:102E0000EF90DF90CF90BF90AF909F9008951F9369
:102E1000CF93DF93CDB7DEB72C970FB6F894DEBF14
:102E20000FBECDBF4F83588769877A878B879C8772
:102E3000CE0107960E9435158823D1F09F818885A1
:102E40002A853B85232B31F08F3F31F481E09F3F72
:102E500019F403C081E001C080E080FD47C04F81CC
:102E6000588569857A858B859C850E948A143EC029
:102E700086E0FE013796DE01119601900D928A954B
:102E8000E1F7FF81E8856A857B856115710531F081
:102E9000EF3F31F481E0FF3F19F403C081E001C04E
:102EA00080E080FD23C020918A0330E0C9010196B3
:102EB000877099274091890350E084179507F1F1B5
:102EC000F983EA837D836C8396E0929FD001939F80
:102ED000B00D1124A557BC4FFE01319601900D9203
:102EE0009A95E1F780938A030E949A1416E08091E4
:102EF000890390918A03891771F1189FC0011124E9
:102F000085579C4F0E943515882329F1E09189034C
:102F10001E9FF0011124E557FC4F408151816281D1
:102F20007381848195810E948A148091890390E045
:102F300001968770992780938903D9CF0E944E14F8
:102F400010928A0310928903EBEBF3E086E0DF0135
:102F50001D928A95E9F72C960FB6F894DEBF0FBE46
:102F6000CDBFDF91CF911F910895EF92FF920F9304
:102F70001F93CF93DF938C01892B09F46CC0F12C44
:102F8000EE24E394E8012196F8018491843740F41B
:102F9000843008F051C0813081F0823019F15BC07B
:102FA000853709F444C0A8F19CE7980F903708F0E2
:102FB00052C08F770E94661141C00E5F1F4FFE0105
:102FC000849190E2980F983050F48770FE2D01C0E4
:102FD000FF0F8A95EAF78F2F0E945E1A14C00E9495
:102FE00010112DC00E5F1F4FFE01849190E2980FCB
:102FF000983060F48770FE2D01C0FF0F8A95EAF7C4
:103000008F2F0E94641A0E948D1A19C00E946611A7
:1030100016C00E5F1F4FFE01C491CC2381F08FE9D3
:103020009FE00197F1F700C00000C150F6CF0E5F9E
:103030001F4FFE01F49003C00E9410118E018F2DCE
:10304000882309F49FCFEFE9FFE03197F1F700C043
:1030500000008150F5CFDF91CF911F910F91FF902C
:10306000EF900895089508950C9433180C94341833
:103070000E9436186093E3037093E4038093E503A2
:103080009093E6030C9434140C9438180F931F9308
:103090000091E3031091E4032091E5033091E603EE
:1030A000602B712B822B932B1F910F910C9438184E
:1030B0000F931F930091E3031091E4032091E50324
:1030C0003091E60360237123822393231F910F9194
:1030D0000C9438180F931F930091E3031091E403AD
:1030E0002091E5033091E60360277127822793271B
:1030F0001F910F910C9438180C94B9050E947C18FC
:103100006093DF037093E0038093E1039093E20305
:103110000C94341460E070E0CB010C947E180F9393
:103120001F9341E050E060E070E08A019B0104C021
:10313000000F111F221F331F8A95D2F7C901B80152
:103140001F910F910C947E180F931F9341E050E054
:1031500060E070E004C0440F551F661F771F8A951A
:10316000D2F78091DF039091E003A091E103B09149
:10317000E2038A019B01082B192B2A2B3B2BC90147
:10318000B8011F910F910C947E180F931F9341E08B
:1031900050E060E070E004C0440F551F661F771FC9
:1031A0008A95D2F740955095609570958091DF0390
:1031B0009091E003A091E103B091E2038A019B01A9
:1031C000082319232A233B23C901B8011F910F911A
:1031D0000C947E180F931F9341E050E060E070E084
:1031E00004C0440F551F661F771F8A95D2F7809140
:1031F000DF039091E003A091E103B091E2038A0123
:103200009B01082719272A273B27C901B8011F91CD
:103210000F910C947E180F931F930091DF03109170
:10322000E0032091E1033091E203602B712B822BAC
:10323000932B1F910F910C947E180F931F93009165
:10324000DF031091E0032091E1033091E20360235A
:103250007123822393231F910F910C947E180F9357
:103260001F930091DF031091E0032091E10330915F
:10327000E20360277127822793271F910F910C94F7
:103280007E1808952CE0929F800D1124E82FE6957A
:10329000E695E695877051E001C0550F8A95EAF7EB
:1032A00085E0E89FF0011124EF53FC4F20E030E06F
:1032B00070E04081CB01022E02C0969587950A945A
:1032C000E2F78170819584278523842781932F5F7E
:1032D0003F4F2530310569F708952CE0929F800D0E
:1032E0001124682F669566956695982F977085E0EE
:1032F000689FB001112440E050E080E0FB01E40F42
:10330000F51FEF53FC4F208130E0092E02C03695A7
:1033100027950A94E2F721703327042E01C0220F6B
:103320000A94EAF7822B4F5F5F4F4530510531F722
:103330000895BF92CF92DF92EF92FF920F931F9367
:10334000CF93DF938C01C090DF03D090E003E09037
:10335000E103F090E2038091E3039091E403A091F4
:10336000E503B091E603C82AD92AEA2AFB2ACFE16D
:10337000D0E0D701C6010C2E04C0B695A79597954D
:1033800087950A94D2F780FD04C0219790F7B12C5D
:1033900007C0BC2EB8018C2F0E9410070197A9F31B
:1033A0008B2DDF91CF911F910F91FF90EF90DF90C8
:1033B000CF90BF900895CF93DF93EC010E949919AD
:1033C000BE010E941007DF91CF9108951F93CF9304
:1033D000DF93EB0190918803992321F0CB010E94A8
:1033E000DB1913C0882349F0CB010E949919182FCB
:1033F000682FCE010E94421904C0CB010E946D19B2
:10340000182FBE01812F0E941007DF91CF911F91CD
:1034100008958091E7038595859585950895809118
:10342000E703877008959091E703977081E009F4AE
:1034300080E008959091310492FB222720F928170B
:1034400051F080FB92F99093310480913004909177
:1034500031040C94201B08958091310482FB88274D
:1034600080F991E089270C941A1A81E00C941A1AB9
:1034700080E00C941A1A80910B04089590910B042B
:10348000892B80930B040895809590910B048923D8
:1034900080930B04089510920B04089590910A04F0
:1034A000892B80930A040895809590910A048923BA
:1034B00080930A04089510920A04089590910904D3
:1034C000892B80930904089580959091090489239C
:1034D0008093090408951092090408958091E803E7
:1034E000089508950C94711A0C94721A90913104F5
:1034F00092FD08C09091E803981721F08093E803AB
:103500000C94741A08958091E803882329F010928E
:10351000E80380E00C94741A0895E0912A02F09177
:103520002B0280910B048083E0912A02F0912B0200
:10353000908180910A04892B8083E0912A02F09186
:103540002B02908180910904892B80838091E8036C
:10355000882381F0E0912A02F0912B029081892B3F
:10356000808380912A0290912B020E94AB1B8111D3
:103570000E94831A80912A0290912B020C948D0F45
:103580000C94711A9091310492FD10C098E0899FBB
:1035900090011124262B2093E7030E94A418809108
:1035A000E7038595859585950C94C01A0C94A4180D
:1035B0001092E70380E00C94C01A2091E7038095F5
:1035C00082238093E703982F977041F430E0482FCF
:1035D000082E000C550B2417350721F49091310467
:1035E00092FF07C08595859585950E94C5180C9416
:1035F000D81A089580E0089580E090E00E94822427
:1036000021E08A3E9E4F09F020E0822F089582E05B
:1036100090E00C947A2483E090E00C947A24CF9389
:1036200084E090E00E947A24C82F82E290E00E9419
:103630007A242C2F30E0A901582BCA01CF9108958C
:10364000CF93C92F682F84E090E00E9488246C2FCC
:1036500082E290E0CF910C948824AB01BC018FE012
:1036600090E00C949A24AB01BC0183E190E00C94AF
:103670009A2460E070E0CB010C94331B60E070E0B2
:10368000CB010E942D1B0C94391B6AEE7EEF80E06B
:1036900090E00E94A62460E082E090E00E948824EE
:1036A00060E083E090E00E9488241092E30310928F
:1036B000E4031092E5031092E60360E084E090E0FA
:1036C0000E94882460E082E290E00E94882460E00A
:1036D00085E090E00E94882460E086E090E00E940F
:1036E00088246FEF87E090E00E94882440E050E05B
:1036F000BA0188E090E00E949A2460E08DE090E0BA
:103700000E94882440E050E0BA0188E190E00E94E5
:103710009A2460E087E190E00E94882440E050E035
:10372000BA018CE190E00E949A2460E070E080E2AF
:1037300090E00E94A62440E050E0BA0188E190E0C9
:103740000E949A240C943E1B0C94451B682F8EE01B
:1037500090E00C948824FC013296809136028823F4
:1037600031F08091300487FF02C09EE101C096E0F5
:1037700080E0915028F021912223D9F38F5FF9CF77
:103780000895662351F1209136022223E9F0209119
:10379000300427FF19C0462F4695469546954E3171
:1037A000E0F4677021E030E002C0220F331F6A9519
:1037B000E2F7FC01E40FF11D828190E02823392318
:1037C00081E0232B69F409C0FC013296089621910F
:1037D000621729F0E817F907D1F780E0089581E032
:1037E00008959C01FC0132969FEF80E041914617BD
:1037F00089F09F3F19F4411101C0982F8F5F8630E7
:10380000A9F79F3F39F0F901E90FF11D97FDFA95EE
:103810006283089508959C012A5F3F4FFC01428115
:10382000461301C01282019682179307B9F70895D3
:10383000262F2695269526952E3168F4FC01E20F59
:10384000F11D677021E030E001C0220F6A95EAF7B0
:103850008281282B22830895262F2695269526954A
:103860002E3170F4FC01E20FF11D677021E030E0B1
:1038700001C0220F6A95EAF72095828128232283CE
:10388000089520913602222329F02091300427FD4B
:103890000C94181C0C94F11B20913602222329F061
:1038A0002091300427FD0C942C1C0C940B1C2091AF
:1038B0003602FC013296222331F08091300487FFDA
:1038C00002C08EE101C086E0DF011D928A95E9F712
:1038D000089508950C94691C0C94691CCF930E9460
:1038E0006C1C0E9490090E946A1CC0E08C2F0E94F0
:1038F0002409892B29F4CF5FC430C1F780E001C0CF
:1039000081E0CF9108950C94D70580914A048430CA
:1039100049F10E94831C80E00E94E80610920D0489
:1039200020E488E190E00FB6F894A89580936000B9
:103930000FBE2093600083B7817F846083BF83B70D
:10394000816083BF7894889583B78E7F83BF0FB6DD
:10395000F894A8958091600088618093600010922F
:1039600060000FBE08950C94DA050E944E140E9468
:10397000810F0E94E8060C94B31C1F920F920FB6A1
:103980000F9211248F939F93AF93BF9380910D0457
:10399000811113C08091420490914304A09144048A
:1039A000B09145044196A11DB11D809342049093AE
:1039B0004304A0934404B0934504BF91AF919F91F9
:1039C0008F910F900FBE0F901F90189582E084BDCD
:1039D00093E095BD9AEF97BD80936E0008952FB741
:1039E000F8948091420490914304A0914404B091D2
:1039F00045042FBF08952FB7F89460914204709149
:103A0000430480914404909145042FBF08959C0184
:103A10004FB7F8948091420490914304A0914404DC
:103A2000B09145044FBF821B930B089578941F9269
:103A30000F920FB60F9211248F939F93AF93BF9362
:103A40008091420490914304A0914404B0914504B4
:103A50000196A11DB11D8093420490934304A0934D
:103A60004404B0934504BF91AF919F918F910F9003
:103A70000FBE0F901F901895F89481E08093E0009E
:103A800080E28093D800E9ECF0E010828FE19EE4C0
:103A90000197F1F700C000001DBA109268001CBC2D
:103AA00010BE1FBA10927A0010926E0010926F0032
:103AB000109270001092710010821092BC0011B828
:103AC00014B817B81AB81DB810BA12B815B818B883
:103AD0001BB81EB811BA0C9400FE08959093AB0267
:103AE0008093AA02089580912E040895CF93DF93C6
:103AF00000D01F92CDB7DEB790914A04943019F5EB
:103B000089837B836A8382E08093E9008FEF9091C1
:103B1000E800815095FD06C095ED9A95F1F70000FB
:103B20008111F5CF8091E80085FF0DC040E050E0A5
:103B300063E070E0CE0101960E94A41F8091E8002E
:103B40008E778093E8000F900F900F90DF91CF91C8
:103B50000895BC0184E00C94761DBC0183E00C94B4
:103B6000761D22E02093E9002FEF3091E8002150EC
:103B700035FD06C035ED3A95F1F700002111F5CF7E
:103B80002091E80025FF0BC040E050E066E070E0C7
:103B90000E94A41F8091E8008E778093E80008952A
:103BA000CF93DF9320913602222339F02091300405
:103BB00027FF03C060E222E002C068E021E020931A
:103BC000E9002FEF3091E800215035FD06C035EDBA
:103BD0003A95F1F700002111F5CF2091E80025FF7B
:103BE0001DC0EC0180913602811105C040E050E01B
:103BF00068E070E003C070E040E050E0CE010E9459
:103C0000A41F8091E8008E778093E80080E2FE0197
:103C1000AEE0B4E001900D928A95E1F7DF91CF918B
:103C2000089580914904811109C00E9431210E94A8
:103C300093218091E20084608093E20008951092C5
:103C40004904089508950895089542E061EC81E0E3
:103C50000E94AA2042E261EC82E00C94AA208091AA
:103C60004C04833009F45EC030F4813071F082304E
:103C700009F497C008958A3009F483C08B3009F4A1
:103C800069C0893009F0A5C020C080914B04813AF9
:103C900009F09FC08091E800877F8093E8008091C1
:103CA0004F0490915004892B21F460E28EE094E05F
:103CB00003C060E080E090E070E00E94EF1F809120
:103CC000E8008B778093E800089580914B0481325F
:103CD00009F07FC080914F0490915004029708F042
:103CE00078C08091E800877F8093E8008091E800A9
:103CF00082FD05C080914A048111F8CF6AC080918D
:103D0000F2009091F300029729F48091F1008B7FEB
:103D1000813021F48091F10080932E048091E8009D
:103D20008B7753C080914B04813A09F052C0809147
:103D30004F0490915004892B09F04BC08091E8000A
:103D4000877F8093E8008091E80080FFFCCF80911E
:103D5000360236C080914B048132D9F580914F04F0
:103D600090915004892BA9F58091E800877F80937A
:103D7000E8000E94DF2080914D04809336020C946D
:103D80004E1480914B04813221F58091E800877FA9
:103D90008093E8000E94DF2080914E0480932F04DE
:103DA000089580914B04813AA1F48091E800877FC7
:103DB0008093E8008091E80080FFFCCF80912F0481
:103DC0008093F1008091E8008E778093E8000C9456
:103DD000DF20089584B7877F84BF0FB6F894A89535
:103DE00080916000886180936000109260000FBE37
:103DF00090E080E80FB6F8948093610090936100A2
:103E00000FBE0E940C100E9431210E9493218091CC
:103E1000E20084608093E20078940E942E240E9445
:103E20001A108CE292E00E947C0F80914A04853047
:103E3000A9F480914A04853079F40E94851C809110
:103E400048048823B1F30E946E1C882391F30E94DA
:103E50008E1F0E944E14EDCF0E94B51C0E942010B0
:103E60000E941610E2CF0C94351F292F33272330E0
:103E70003105C9F060F42130310581F0223031057F
:103E800009F044C08BE390E028EE32E043C02132D9
:103E90003105E1F02232310549F138C082E190E08C
:103EA00023E233E037C099278130910549F028F0AB
:103EB000029761F5E8ECF2E005C0E4EEF2E002C042
:103EC000E8EDF2E0849190E09F0124C06115710556
:103ED00041F061307105D1F489E090E023E133E0F5
:103EE00019C089E090E02AEF32E014C06115710535
:103EF00041F06130710551F486EB90E025E333E049
:103F000009C080E490E02BEE33E004C080E090E054
:103F100020E030E0FA0131832083089584E189BDF7
:103F200086E189BD09B400FEFDCF8091D8008F7D68
:103F30008093D8008091E00082608093E0008091BF
:103F4000E00081FDFCCF0895CF92DF92EF92FF92C7
:103F50000F931F93CF93DF93EC018B017A010E94A3
:103F6000FE20811133C0E114F10439F0F7018081A2
:103F70009181081B190BC80FD91FC12CD12C011519
:103F8000110519F18091E80085FD16C08091E800C7
:103F90008E778093E800E114F10449F0F701808105
:103FA0009181C80ED91ED182C08285E00FC00E94C7
:103FB000FE20882321F30AC089918093F1000150EB
:103FC0001109FFEFCF1ADF0ADACF80E0DF91CF913E
:103FD0001F910F91FF90EF90DF90CF900895209167
:103FE0005104309152042617370748F061157105C6
:103FF00039F42091E8002E772093E80001C0B90140
:10400000FC0120E06115710569F180914A04882363
:10401000E1F18530E1F18091E80083FD3AC08091C3
:10402000E80082FD2CC08091E80080FFEBCF8091FA
:10403000F2009091F3006115710551F088309105FF
:1040400038F421912093F100615071090196F3CF6A
:1040500021E0089709F020E08091E8008E778093B6
:10406000E800D0CF2111D1CF0AC080914A04882323
:1040700061F0853061F08091E80083FD0AC0809195
:10408000E80082FFF2CF80E0089582E0089583E0A7
:10409000089581E00895209151043091520426172B
:1040A000370748F06115710539F42091E8002E7743
:1040B0002093E80001C0B901FC0120E06115710501
:1040C00081F180914A04882309F43EC0853009F4C7
:1040D0003DC08091E80083FD3BC08091E80082FDF7
:1040E0002DC08091E80080FFE9CF8091F20090918F
:1040F000F3006115710559F08830910540F4249161
:104100002093F1003196615071090196F2CF21E0C0
:10411000089709F020E08091E8008E778093E8000E
:10412000CDCF2111CECF0AC080914A04882361F0FF
:10413000853061F08091E80083FD0AC08091E8003D
:1041400082FFF2CF80E0089582E0089583E0089531
:1041500081E00895982F973068F59093E9009817BB
:1041600039F07091EC002091ED005091F00003C007
:10417000242F762F50E021FD02C09F5FECCF3091BD
:10418000EB003E7F3093EB003091ED003D7F3093AC
:10419000ED003091EB0031603093EB007093EC0058
:1041A0002093ED005093F0002091EE0027FDE5CF25
:1041B00080E008958F708093E90081E008958091F8
:1041C0004B0487FF11C08091E80082FD05C08091FB
:1041D0004A048111F8CF11C08091E8008B770BC0A1
:1041E00080914A04882349F08091E80080FFF8CF4D
:1041F0008091E8008E778093E80008952091E40094
:104200003091E50095E64091EC00842F817040FFED
:1042100023C08091E80080FD1DC080914A0488235E
:1042200099F0853099F08091EB0085FD11C04091A7
:10423000E4005091E5002417350729F3915011F05F
:104240009A01E1CF84E0089582E0089583E0089523
:1042500081E0089580E008954091E80042FFDDCFBD
:1042600008950E94A2210E94AA21E0EEF0E0808140
:1042700081608083E8EDF0E080818F77808319BCD6
:10428000A7EDB0E08C918E7F8C9380818F7E8083B0
:104290001092490408950F931F93CF93DF930E94C8
:1042A000A2210E94AA21C8EDD0E088818F7788835F
:1042B00088818068888388818F7D8883E7EDF0E03E
:1042C00080818068808319BC10924A041092460451
:1042D000109248041092470400EE10E0F80180812B
:1042E0008B7F808388818160888342E060E080E00A
:1042F0000E94AA20E1EEF0E080818E7F8083E2EED2
:10430000F0E0808181608083808188608083F80113
:1043100080818E7F8083888180618883DF91CF91C7
:104320001F910F910895E8EDF0E080818F7E8083EA
:10433000E7EDF0E080818160808381E08093490433
:104340000C944B21E8EDF0E080818C7F808310920B
:10435000E20008951092DA001092E10008951F9291
:104360000F920FB60F9211240BB60F922F933F931B
:104370004F935F936F937F938F939F93AF93BF936D
:10438000EF93FF938091E10082FF0BC08091E200E8
:1043900082FF07C08091E1008B7F8093E1000E9443
:1043A0002D248091DA0080FF1FC08091D80080FF0B
:1043B0001BC08091DA008E7F8093DA008091D90053
:1043C00080FF0DC084E189BD86E189BD09B400FE8E
:1043D000FDCF81E080934A040E94111E05C019BCE4
:1043E00010924A040E941F1E8091E10080FF19C0B4
:1043F0008091E20080FF15C08091E2008E7F809363
:10440000E2008091E20080618093E2008091D80018
:1044100080628093D80019BC85E080934A040E9492
:10442000231E8091E10084FF30C08091E20084FF70
:104430002CC084E189BD86E189BD09B400FEFDCFB1
:104440008091D8008F7D8093D8008091E1008F7E8D
:104450008093E1008091E2008F7E8093E200809162
:10446000E20081608093E20080914604882311F08D
:1044700084E007C08091E30087FD02C081E001C0B5
:1044800083E080934A040E94241E8091E10083FF10
:1044900029C08091E20083FF25C08091E100877FE1
:1044A0008093E10082E080934A0410924604809158
:1044B000E1008E7F8093E1008091E2008E7F809307
:1044C000E2008091E20080618093E20042E060E0DF
:1044D00080E00E94AA208091F00088608093F00024
:1044E0000E94221EFF91EF91BF91AF919F918F91FA
:1044F0007F916F915F914F913F912F910F900BBEE4
:104500000F900FBE0F901F9018951F920F920FB62D
:104510000F9211240BB60F922F933F934F935F93FB
:104520006F937F938F939F93AF93BF93CF93DF93BB
:10453000EF93FF93C091E900CF708091EC00D82FEA
:10454000D17080FDD0E81092E9008091F000877F63
:104550008093F00078940E94CD221092E90080911F
:10456000F00088608093F000CD2BCF70C093E900FD
:10457000FF91EF91DF91CF91BF91AF919F918F917B
:104580007F916F915F914F913F912F910F900BBE53
:104590000F900FBE0F901F9018951F93CF93DF932E
:1045A000CDB7DEB7AA970FB6F894DEBF0FBECDBF6A
:1045B000EBE4F4E08091F100819324E0E335F2072D
:1045C000C9F70E942F1E8091E80083FF2EC18091C1
:1045D0004B0490914C04492F50E04A30510508F0AB
:1045E00024C1FA01E659FF4F0C945D24803821F074
:1045F000823809F01AC108C080914704909148049C
:10460000992389F082600FC080914F048F708730AA
:1046100008F00BC18093E9008091EB0085FB8827AF
:1046200080F91092E9009091E800977F9093E8005C
:104630008093F1001092F100D1C0282F2D7F09F056
:10464000F4C0882319F0823061F0EFC080914D04EE
:10465000813009F0EAC0933009F080E0809348048B
:104660002EC080914D0481112AC080914F048F701B
:104670002FEF280F263008F0D8C08093E900209152
:10468000EB0020FF1CC0933021F48091EB0080628E
:1046900014C09091EB0090619093EB0021E030E02A
:1046A000A90102C0440F551F8A95E2F74093EA0022
:1046B0001092EA008091EB0088608093EB001092EA
:1046C000E9008091E800877F8093E8000E94DF2066
:1046D000ACC08111AAC010914D041F778091E300F6
:1046E0008078812B8093E3008091E800877F80931E
:1046F000E8000E94DF208091E80080FFFCCF8091DD
:10470000E30080688093E300111102C082E001C0E1
:1047100083E080934A0489C08058823008F085C0C5
:1047200080914D0490914E048C3D53E0950779F5AE
:1047300083E08A838AE289834FB7F894DE01139677
:1047400020E03EE051E2E32FF0E050935700E49187
:1047500020FF03C0E295EF703F5FEF708E2F90E077
:10476000EA3010F0C79601C0C0968D939D932F5FDD
:10477000243149F74FBF8091E800877F8093E8009C
:104780006AE270E0CE0101960E94EF1F16C06091B0
:104790004F0470915004AE014F5F5F4F0E94331F72
:1047A000BC01892B09F441C09091E800977F909358
:1047B000E80089819A810E944B208091E8008B77E4
:1047C0008093E80032C0803881F58091E800877FCF
:1047D0008093E800809146048093F1008091E80086
:1047E0008E7772CF811121C080914D0490914E043B
:1047F00099270297D4F48091E800877F8093E8009E
:1048000080914D04809346040E94DF2080914604ED
:10481000811106C08091E30087FD02C081E001C0E4
:1048200084E080934A040E94251E8091E80083FF63
:104830000AC08091E800877F8093E8008091EB00B8
:1048400080628093EB00AA960FB6F894DEBF0FBE8D
:10485000CDBFDF91CF911F9108950895CF9380919F
:104860004A048823A1F0C091E900CF709091EC0038
:10487000892F817090FD80E8C82B1092E90080910B
:10488000E80083FD0E94CD22CF70C093E900CF9154
:10489000089597FB072E16F4009407D077FD09D0F2
:1048A0000E94662407FC05D03EF4909581959F4FA9
:1048B0000895709561957F4F0895EE0FFF1F0024B6
:1048C000001C0BBE0790F691E02D0994AA1BBB1BA0
:1048D00051E107C0AA1FBB1FA617B70710F0A61B00
:1048E000B70B881F991F5A95A9F780959095BC0121
:1048F000CD010895F999FECF92BD81BDF89A99270F
:1049000080B50895A8E1B0E042E050E00C94AE24F8
:10491000262FF999FECF92BD81BDF89A019700B478
:10492000021639F01FBA20BD0FB6F894FA9AF99A18
:104930000FBE08950396272F0E9489240E94882481
:10494000252F0E948924242F0C9489240196272F37
:104950000E9489240C948824DC01CB01FC01F99984
:10496000FECF06C0F2BDE1BDF89A319600B40D92BB
:0C49700041505040B8F70895F894FFCF74
:10497C00FF0000000000000000000000000000002C
:10498C00000000000000000000000000000000001B
:10499C00000000000000000000000000000000000B
:1049AC0001FFFFFFFFFFFFFFFFFFFFFFFFFFFFFF09
:1049BC00FFFFFFFF00FFFFFFFFFFFFFFFFFFFFFFFA
:1049CC00FFFFFFFFFFFFFFFFFFFFFFFFFFFFFFFFEB
:1049DC00FFFFFFFFFFFFFFFF0F0F0FFFFFFFFFFFAB
:1049EC00FFFFFFFF0F0F0FFFFFFFFFFFFFFFFFFF9B
:1049FC000F0F0FFFFFFFFFFFFFFFFFFF0FFFFFFF7B
:104A0C00FFFFFFFFFFFFFFFFFFFFFFFFFFFFFFFFAA
:104A1C00FFFFFF0F0F0F0FFFFFFFFFFFFFFFFFFF5A
:104A2C00FFFFFFFFFFFFFFFFFFFFFFFFFFFFFFFF8A
:104A3C00FFFFFF0FFFFFFFFFFFFFFFFF0FFF0F0F3A
:104A4C000FFF0FFFFFFFFFFFFFFFFFFFFFFFFFFF4A
:104A5C00FFFFFFFFFFFF0FFFFFFFFFFFFF0F0F0F1A
:104A6C000FFFFF0FFFFFFFFF0F0F0F0F0FFF0F0FBA
:104A7C000FFFFFFF0F0F0F0FFFFFFFFFFFFFFFFFEA
:104A8C00FFFFFFFFFFFFFFFFFFFFFFFFFFFFFFFF2A
:104A9C00FF2808641E140A321E01E903731DD01D81
:104AAC00B11DAD1DA91D01E200E900EA00B500B67B
:104ABC0000B700CD008301CC008A01920194012142
:104ACC0002230224022502260227022A02B300B482
:104ADC00006F007000818283939291903736353449
:104AEC003332313094959697E200E900EA00B50034
:104AFC00B600B700CD008301CC008A01920194016D
:104B0C002102230224022502260227022A02B300D4
:0A4B1C00B4006F0070008182830076
:00000001FF
