:100000000C94FA020C943E030C9459030C943E0396
:100010000C943E030C943E030C943E030C943E035C
:100020000C943E030C949C120C94AC220C943E0352
:100030000C943E030C943E030C943E030C943E033C
:100040000C943E030C943E030C943E030C943E032C
:100050000C943E03071209120E12111214121712F9
:100060001A126018601892189218DF18131A131ACF
:10007000131AFD189219A319A319031A131A131AA4
:100080000C1AAF1AAF1AC11AC11AB81AC11AC11A7A
:10009000C11AAF1AAF1ABD1AC11AC11ABD1A2B0064
:1000A00014001A000800150017001C0018000C00AE
:1000B000120013002A00290004001600070009009E
:1000C0000A000B000D000E000F0033002800E100B5
:1000D0001D001B000600190005001100100036006D
:1000E000370038003462E0000358E300E2000158B2
:1000F0002C422C002C005000510052004F003500C3
:100100003A003B003C003D003E0001002400250079
:1001100026000100010001003F00400041004200B4
:1001200043002E022100220023002D0001000100C7
:100130004400450046004700480025021E001F00FD
:10014000200038002E0001000100010001000153D1
:100150000100010027002700370036002900350282
:100160001E021F0220022102220223022402250273
:10017000260227024C00010049004A004B00010002
:1001800001005000510052004F002D0201000100FB
:100190004C004D004E00010001002F0230022F00E4
:1001A00030003100310201000100010001000100B6
:1001B0000100010002534A004E004B004D000100B7
:1001C0000100ED00F9000100010001000100010043
:1001D0000100010004530100EF00EE00F0000100F7
:1001E0000100010001000100010001000100010007
:1001F00001000100FA0001000100010001000100FE
:100200000100010001000100035301000100F100A1
:10021000F2000100F300AB00AA00A900AE002B0021
:10022000005C1A000800150017001C003A003B0093
:100230003C003D00045329000400C05CC15C09007F
:100240000A000B001E001F00200021000100E10039
:100250001D00C35CC45C19000500110010003600CD
:1002600037003800E100E000E200E300E6002C0087
:100270002C002C002C005000510052004F001E0F8B
:100280000500047F3F1F643214643214783C1E1E44
:10029000140A052223252628292A2C2D2F30323313
:1002A0003536383A3B3D3E4042434547494A4C4E3D
:1002B0005051535557595A5C5E6062646668696B69
:1002C0006D6F71737577797B7D7F81838587898A6F
:1002D0008C8E90929496989A9C9E9FA1A3A5A7A875
:1002E000AAACAEAFB1B3B4B6B8B9BBBCBEBFC1C2A5
:1002F000C3C5C6C7C9CACBCCCDCED0D1D2D2D3D438
:10030000D5D6D7D7D8D9D9DADADBDBDBDCDCDCDC55
:10031000DCDDDDDDDDDCDCDCDCDCDBDBDBDADAD923
:10032000D9D8D7D7D6D5D4D3D2D2D1D0CECDCCCBA5
:10033000CAC9C7C6C5C3C2C1BFBEBCBBB9B8B6B4C3
:10034000B3B1AFAEACAAA8A7A5A3A19F9E9C9A9853
:10035000969492908E8C8A89878583817F7D7B7924
:10036000777573716F6D6B6968666462605E5C5A05
:100370005957555351504E4C4A4947454342403EC8
:100380003D3B3A3836353332302F2D2C2A2928265A
:10039000252322FFAA7F5540000000000000000036
:1003A00000000001010203040506080A0C0F1114E5
:1003B000181C2024292E33393F464C535B626A7146
:1003C00079818A929AA2AAB2B9C1C8CFD5DCE1E7F5
:1003D000EBF0F4F7FAFCFDFEFFFEFDFCFAF7F4F09B
:1003E000EBE7E1DCD5CFC8C1B9B2AAA29A928A8163
:1003F00079716A625B534C463F39332E2924201CA5
:100400001814110F0C0A080605040302010100006C
:1004100000000000000000000001010101010101D5
:1004200001010202020202020202020303030303A9
:100430000303030404040404040405050505050678
:100440000606060607070707070808080809090936
:10045000090A0A0A0B0B0B0C0C0C0D0D0D0E0E0EDF
:100460000F0F0F1010111111121213131414151570
:1004700016161717181819191A1A1B1B1C1D1D1EE2
:100480001E1F202021222223242425262627282936
:10049000292A2B2C2D2D2E2F303132323334353664
:1004A0003738393A3B3C3D3E3F4041424344454664
:1004B0004748494A4C4D4E4F505153545556585940
:1004C0005A5B5D5E5F616264656668696B6C6D6FE7
:1004D0007072737577787A7B7D7E8082838587885A
:1004E0008A8C8E8F91939596989A9C9EA0A2A3A594
:1004F000A7A9ABADAFB1B3B5B7BABCBEC0C2C4C695
:10050000C9CBCDCFD1D4D6D8DBDDDFE2E4E7E9EB50
:10051000EEF0F3F5F8FAFDFF09023B00020100A03E
:100520003209040000010301010009210101000159
:1005300022400007058103080001090401000103AE
:100540000000000921010100012232000705830398
:100550000800011201100100000008504B4000008B
:1005600002010200010A034A004A00340030000080
:10057000000A03720077006B0062000000040309A8
:100580000405010980A101850319012AB70015019D
:1005900026B700950175108100C0050C0901A10165
:1005A000850419012AA002150126A00295017510E3
:1005B0008100C005010906A101050719E029E71519
:1005C00000250195087501810295017508810305D3
:1005D00007190029FF150026FF0095067508810000
:1005E0000508190129059505750191029501750305
:1005F0009103C00011241FBECFE5D8E0DEBFCDBF00
:1006000004B603FE24C08091E8029091E902A09113
:10061000EA02B091EB028730904BA740B04BB9F49F
:100620001092E8021092E9021092EA021092EB0294
:1006300014BE84B7877F84BF0FB6F894A89581B5A0
:10064000886181BD11BC0FBEE0E0F8E3099511E0BF
:10065000A0E6B0E0ECEEFEE402C005900D92A432FC
:10066000B107D9F722E0A4E2B1E001C01D92A83E93
:10067000B207E1F70E94F0220C9474270C9400005A
:10068000A82FB92F80E090E041E050EA609530E07B
:1006900009C02D9182279795879510F0842795277B
:1006A000305EC8F36F5FA8F30895EADF8D939D93E2
:1006B0000895CF93CFB7CF93C395839BE9F7839BDF
:1006C0000EC0839B0CC0839B0AC0839B08C0839B86
:1006D00006C0C091BF02C395C093BF02A6C0DF93FE
:1006E000C091BE02DD27CA53DD4F839B02C0DF915C
:1006F000E6CF2F930F931F9300B32FEF03FB20F947
:100700004F933F9310B34FEF012703FB21F93BE0D9
:1007100031C04E7F012F10B3216028C0102F4D7FB4
:100720002260000000B329C04B7F2460012F00002D
:1007300010B32BC010B3477F28602AC04F7E00B390
:1007400020612CC04F7D10B320622FC04F7B00B3BF
:10075000206432C0422700B349934FEF00001027B6
:1007600013FB20F910B31C70C9F1297F91F2012706
:1007700003FB21F900B3237F89F2315058F1102790
:1007800013FB22F910B3277E79F2012703FB23F92B
:100790002F7C81F200B3102713FB24F92F7971F21B
:1007A00000C010B3012703FB25F92F7359F200C0D5
:1007B00000B3102713FB26F9223040F200C010B31B
:1007C000012703FB27F9243028F64F77206810B360
:1007D0000000F9CF10E81ABF00271CC03B5031952C
:1007E000C31BD04010E81ABF0881033C11F10B3441
:1007F00001F12091BB021981110F1213EDCF4A8133
:10080000441F093669F10D3211F0013E29F74F708E
:1008100009F0042F0093C4023F914F911F910F9153
:100820002F91DF91CAB7C7FD47CFCF91CFBFCF91EF
:1008300018952091C402222379F31091C20211234A
:1008400009F044C034300AF443C03093C20220930C
:10085000BD021091BE023BE0311B3093BE0238C096
:100860000091C202013094F50AE54F7049F43091CD
:10087000850034FD2FC000938500C8E9D2E02EC06A
:10088000433059F0443091F03091A30234FD22C03E
:100890000093A302C4EAD2E021C03091DC0234FD0F
:1008A00019C00093DC02CDEDD2E018C03091AF0248
:1008B00034FD10C00093AF02C0EBD2E00FC027950B
:1008C000A8F45150A9F4220F0000F9CF4AE503C063
:1008D00042ED01C0432FC4E1D0E032E011B31C600F
:1008E000939A11BB02B320E41CE05F93012756E00A
:1008F00002BB279520F4515021F4220FF9CF012794
:1009000056E000003B5A02BBD0F2279528F4515024
:1009100029F4220F0000F9CF012756E0279502BBEA
:1009200020F4515021F4220FF9CF012756E02991EC
:10093000332302BB21F6037F1091C302110FC6516E
:10094000D04002BB11F01093BB0210E81ABF086040
:1009500011B3137F402F437F5F9100C000C002BBE3
:1009600011BB42BB59CF81E0089581E008950C94FA
:10097000B50408950C94B9041F93CF93DF9300D06E
:1009800000D01F92CDB7DEB749835A836B83309175
:100990006D0189819A81311114C0662359F0222397
:1009A00049F00E94E81F182F682F89819A810E94C0
:1009B000911F03C00E94BC1F182F69817A81812F6B
:1009C00004C00E94E81F69817A810F900F900F90F8
:1009D0000F900F90DF91CF911F910C948F05FC0128
:1009E000262F408151816281738184810C94BC04E3
:1009F000CF93DF93EC0160E00E94EF04BE01DF9132
:100A0000CF910C94BA040E9494070E9407130C948F
:100A1000D1070C94CD0708950E949D1A0E940B05E2
:100A20002FEB87E299E0215080409040E1F700C031
:100A300000000C94D2220F931F93CF93DF938C016D
:100A400061E00E94EF04EC01B8010E94B704882322
:100A500009F44BC0B801CE010E94F811882309F4B3
:100A600044C0B801CE010E94AA138823F1F1B80155
:100A7000CE010E94FC138823C1F1B801CE010E946F
:100A80002715882391F1B801CE010E940F10882309
:100A900061F1F8018281882309F1CB358DE5D80712
:100AA000C1F050F4C115FCE5DF0781F0CF3DDC4516
:100AB000A9F40E94F32119C0CC35EDE5DE0761F001
:100AC000CD35DD4559F40E947B2008C00E940C05FD
:100AD0000CC00E94842002C00E948720C801DF91C0
:100AE000CF911F910F910C94B30480E0DF91CF91CF
:100AF0001F910F91089508950C947B0581E008954E
:100B00000C947E05CF93C82F0E947C058C2F0E94E9
:100B10008005CF91089580E090E00895089520E346
:100B2000829FC0011124FC012CE0729FE00DF11D99
:100B30001124E60FF11DEE0FFF1FE256FF4F8591C6
:100B400094910895880F991FFC01E258FD4F8591FB
:100B500094910895CF93DF930E948F050E94BC0665
:100B6000EC018115904508F043C0C11580E4D80719
:100B700008F0CBC0C03ED10528F5C03CD10508F037
:100B8000B3C0C83AD10578F4C53AD10508F0A4C07D
:100B9000C130D10509F4ECC008F4E8C0C430D10577
:100BA00008F0E6C0E3C0CF3BD10508F0DFC0C85A6B
:100BB000D0E0CC0FDD1FCA57DF4F0990D881C02D80
:100BC000D464D6C0C11590E2D90750F4C11521E014
:100BD000D20708F0CDC0C83ED10508F4C9C0C6C0D0
:100BE000C11580E3D80708F086C0CE019F707FC092
:100BF000C11595E5D90708F043C0C11524E5D20712
:100C000008F09AC0C11582E5D80708F5C11591E52D
:100C1000D90708F07DC0CE0174E0969587957A9546
:100C2000E1F783709C2F937021E030E002C0220F27
:100C3000331F9A95E2F73C68382BCF70C695C6955E
:100C400080E2C89FE0011124C22BD32B91C09E01EA
:100C5000237033278C2F86958695C115D34508F0D0
:100C60005CC0C1E0D0E002C0CC0FDD1F2A95E2F7E6
:100C700020E2829FC0011124C82BD92BDC6878C0E8
:100C8000C11529E5D207A0F4C11588E5D80708F0F9
:100C900058C0C11596E5D90708F068C08C2F0E948E
:100CA00050078F71C82FD0E0DC2FCC27D06260C0F6
:100CB000C1152AE5D20708F449C0CE019056811526
:100CC000904208F053C08D2F8F710E945007DD278E
:100CD000D0628F71D82B4CC0C55AD0E0CC54DF4FB6
:100CE000C881D0E0D06444C0CE01805C91090E94EC
:100CF000A205EC013DC0CE019927D3FF03C0EC0152
:100D0000D86C36C0EC01D06C33C0DF70D06A30C014
:100D1000DC2FCC27C16FD06A2BC0C1E0D0E002C06D
:100D2000CC0FDD1F2A95E2F720E2829FC00111243B
:100D3000C82BD92BDA681CC0DC2FCC27C46FD06A33
:100D400017C0DC2FCC27C06FD06A12C08C2F8F70D9
:100D50000E94500794E0D695C7959A95E1F7CF7019
:100D6000D0E0DC2FCC27D069C82B02C0C0E0D0E097
:100D7000CE01DF91CF9108958238910569F1B0F4E9
:100D80008133910509F46DC048F48932910509F465
:100D900063C08A32910509F469C0089585339105CD
:100DA00009F455C089339105B9F00895833E910542
:100DB00069F138F4803E9105B1F0823E910509F168
:100DC0000895863E9105A9F1873E9105B9F1843ECB
:100DD000910509F064C023C020916D0220FD4FC031
:100DE00021FD4DC0089580916D0280FD44C0809129
:100DF0006E0280FF44C080916D0284FD42C083EE8C
:100E00004DC080916D0282FF38C0F5CF80916D0298
:100E100082FD33C080916E0280FD31C0ECCF8091A5
:100E20006E0281FF32C080916D0284FD2AC087EE80
:100E300035C080916D0283FF26C0F5CF80916D0291
:100E400083FD21C080916E0281FD1FC0ECCF809197
:100E50006D0285FD1CC01DC080916D0285FD19C00D
:100E600016C080916D0286FD16C017C080916D027C
:100E700086FD13C010C089E311C082EE0FC080EE62
:100E80000DC080E00BC086EE09C084EE07C089E289
:100E900005C085E303C08AE201C081E390E00895C4
:100EA00090916D0292FF0DC0282F2871283019F4FF
:100EB000877F846006C0282F2471243011F48B7F33
:100EC000886093FF0DC0282F2871283119F4877E80
:100ED000846106C0282F2471243111F48B7E88612F
:100EE00020916E0220FF0DC0382F3871383019F470
:100EF000877F816006C0382F3171313011F48E7FC9
:100F0000886021FF0DC0282F2871283119F4877EB1
:100F1000816106C0282F2171213111F48E7E8861F4
:100F200094FD877E089508950E944B21811102C08F
:100F30000E94F3210E9456218093D9010E945E21D4
:100F400090936E0280936D020E9493070E945A2133
:100F5000682F70E080E090E00E94931E6091C401D1
:100F60007091C5018091C6019091C7010C94CB1E70
:100F7000E82FF0E0EE0FFF1FE958FD4F80819181CF
:100F80000895089588E78A95F1F7089500C00895B7
:100F90000C94C20708950C94CA070C94CB070C94C8
:100FA000CA070C94CF07F894E82FE295EF70F0E0B1
:100FB00031A9282F2F7081E090E001C0880F2A9579
:100FC000EAF7982F9095932391AB92A9892B82AB46
:100FD000789408950F931F93CF93DF9380E60E9438
:100FE000D30781E60E94D30783E60E94D30784E6F5
:100FF0000E94D307C7EBD0E003EC10E089910E9478
:10100000D3070C171D07D1F71092700210926F02D0
:10101000109278021092770210927202109271026E
:1010200010927A0210927902109274021092730256
:1010300010927C0210927B0210927602109275023E
:1010400010927E0210927D0284E00E94BB08DF9124
:10105000CF911F910F910C9403057F928F929F92D5
:10106000AF92BF92CF92DF92EF92FF920F931F93B6
:10107000CF93DF93C3ECD0E08FE6A82E82E0B82EAA
:1010800097E7E92E92E0F92E712C01E010E06E0155
:101090008881F894E82FE295EF70F0E021A98F7035
:1010A000A80102C0440F551F8A95E2F7CA01922F8A
:1010B000982B91AB92A98095892382AB78940E945A
:1010C000C607E7EBF0E020E030E0812C912C419165
:1010D000A42FA295AF70B0E0D0968C9190E04F70A5
:1010E00002C0959587954A95E2F780FD08C0C80132
:1010F000022E02C0880F991F0A94E2F702C080E016
:1011000090E0882A992A2F5F3F4F2C303105F9F65D
:101110002196F60180810E94D3070E94C807F5013D
:10112000808191818816990621F09182808281E0E8
:1011300001C080E0782AF2E0AF0EB11CEA14FB0493
:1011400009F0A5CF272D44E067E772E08FE692E033
:101150000E94BC080E940905872DDF91CF911F9145
:101160000F91FF90EF90DF90CF90BF90AF909F9046
:101170008F907F9008950895FF920F931F93CF93C0
:10118000DF93F82E092F162FD72FC42F222349F0D3
:1011900081E0809328010E9485229093270180930B
:1011A0002601809128018823D9F080912601909111
:1011B00027010E949D22069798F0EF2DF02FA12F76
:1011C000BD2F80E090E04C2F50E08417950734F459
:1011D000219131912D933D930196F7CF10922801E3
:1011E000DF91CF911F910F91FF900895EF92FF92A1
:1011F0000F931F93CF93DF938B01682F11110AC0B8
:10120000442329F0E82FF0E0E85EFB4F6491762F4D
:10121000862F75C0212F30E0E82FF0E0442321F025
:10122000E85EFB4FE491F0E046E0049FC00111242A
:10123000CFEFD0E0BE010E9417264BEA4603C00163
:10124000479F900D1124800F911D800F911D982FA5
:10125000990F890FAE01421B530B4E9FD0014F9F38
:10126000B00D5E9FB00D11249B2F189FA00111247B
:10127000452F55278E01041B150B0E9FA0010F9FB4
:10128000500D1E9F500D11247E01E81AF108E29EB8
:101290008001E39E100DF29E100D1124212F3327A3
:1012A000C21BD30BCE9F9001CF9F300DDE9F300D20
:1012B000112462307105A9F048F46115710569F0D7
:1012C00061307105C9F48B2F752F0DC06430710525
:1012D00081F058F06630710579F47E2F8B2F932FB3
:1012E0000DC0832F7B2F9E2F09C08E2F7B2F952F14
:1012F00005C08E2F732F02C07E2F852F692FDF919F
:10130000CF911F910F91FF90EF90089541E00E94BF
:10131000F608089508950E9486090895CF93DF93F3
:10132000762FE901682F842F0E948B0979836883C7
:101330008A83DF91CF91089580917F02282F26958F
:1013400030E02115310519F48170826005C02B321F
:10135000310524F08170846580937F02089588E0D0
:1013600090E00C940927CF92DF92EF92FF926B01ED
:101370007C010E949C09B701A60188E090E0FF90E3
:10138000EF90DF90CF900C942627EFE7F2E083E018
:10139000808311828FEF82838383148260817181C5
:1013A000828193810C94B30980917F0280FF02C0F7
:1013B0008695089580E0089590918302933018F403
:1013C0009F5F90938302882351F060917F02709118
:1013D000800280918102909182020C94B309089559
:1013E00081E00C94DC0990918302992319F09150CB
:1013F00090938302882351F060917F027091800264
:1014000080918102909182020C94B309089581E049
:101410000C94F30970E00C941913609168008091AA
:101420007F0280FF0AC08091670023E0829FC00195
:1014300011248C579D4F0C940A0A80916900909159
:101440006A00891780F7E82FF0E09F01220F331F11
:10145000E20FF31FEC57FD4F1182108212828F5F53
:10146000F0CF90917F0290FF16C09091690020917B
:101470006A00921770F4E92FF0E0DF01AA0FBB1F9A
:10148000EA0FFB1FEC57FD4F8183608342839F5F10
:10149000F0CF0C940D0A0895CF93DF9300D01F92E4
:1014A000CDB7DEB790917F0290FF0AC09E012F5FFB
:1014B0003F4F0E948E094B8169818A810E94310AC7
:1014C0000F900F900F90DF91CF910895CF93DF93FE
:1014D000EC01EC81F0E0ED56FD4F4491EFE7F2E0D6
:1014E000628181810E944C0A8C818F5F8C83DF91A5
:1014F000CF910895CF93DF93EC01EFE7F2E04381C2
:1015000062818C810E944C0A8C818F5F8C83DF9179
:10151000CF9108950F931F93CF93DF9300D01F9225
:10152000CDB7DEB78C018091290181110AC09E01DF
:101530002F5F3F4F4FEF6FEF0E948E098A8180939C
:101540002901F8018481813051F028F0823061F462
:10155000409129010AC08091290140E007C06091B3
:10156000290140E080E003C040E080E060E00E94AC
:10157000310AF801848190E0019663E070E00E94F6
:101580002B2684830F900F900F90DF91CF911F91A6
:101590000F910895AF92BF92CF92DF92EF92FF9298
:1015A0000F931F93CF93DF9300D01F92CDB7DEB779
:1015B000182FF62E042FE22E90917F0290FF6DC01F
:1015C000E92FE695AE2FB0E0A953BF4F8C918093E1
:1015D0004C019E7F923061F49E012F5F3F4F812F1F
:1015E0000E948E094B8169818A810E94310A43C021
:1015F000823019F4009182023EC0863019F41091B5
:10160000800239C08930D9F38931A9F5E9518E2F8B
:101610008170D82EE695F0E0ED56FC4FA590B49081
:10162000C12CBB2460916B00C61618F52C2D30E040
:10163000A29EC001A39E900DB29E900D112470E059
:101640000E941726812FD11002C0860F01C0861B71
:1016500090916900290F311DA901440F551F240FD6
:10166000351F2C573D4F402F6F2D0E948E09C3947C
:10167000D9CF0E940D0A10938002F092810200934C
:101680008202EE2051F060917F0270918002809181
:101690008102909182020E94B3090F900F900F90E7
:1016A000DF91CF911F910F91FF90EF90DF90CF903E
:1016B000BF90AF900895EFE7F2E09181282F43812A
:1016C000628188E0890F0C94CA0A81E00C945B0B5C
:1016D000EFE7F2E09181282F4381628188EF890F43
:1016E0000C94CA0A81E00C94680BEFE7F2E0628187
:1016F00021E1620F08F46FEF282F438181810C9460
:10170000CA0A81E00C94750BEFE7F2E0628121E1F7
:10171000621B08F460E0282F438181810C94CA0A7F
:1017200081E00C94840BEFE7F2E0438121E1420F6A
:1017300008F44FEF282F628181810C94CA0A81E05E
:101740000C94930BEFE7F2E0438121E1421B08F494
:1017500040E0282F628181810C94CA0A81E00C94B8
:10176000A20B20E00C94CA0AFF920F931F93CF9311
:10177000DF93EC01F12C0FEF10E060916B00F61697
:10178000F0F4809169002F2D30E0280F311DC90140
:10179000880F991F280F391F2C573D4F70E0C80143
:1017A0000E942B26962F8C814091820260918102AB
:1017B000F99E800D11240E948E09F394DECF0E94C1
:1017C0000D0A9A818C8190FF02C08F5F01C0815009
:1017D0008C83DF91CF911F910F91FF900895AF926D
:1017E000BF92CF92DF92EF92FF920F931F93CF930E
:1017F000DF93FC01828180FF02C00FEF01C001E096
:1018000010E045E0A42E80916B00181708F043C04B
:1018100080916900C12ED12CE601C80FD11DCE01E7
:10182000880F991FC80FD91FCC57DD4F1982188216
:101830001A8234E0E32EF12CB12C80912B018B0D18
:1018400086302CF06A2D0E940926892F05C087FF5B
:1018500003C090916B00890F082E000C990BC816DD
:10186000D90691F4809182028E9DA0018F9D500D2A
:10187000112455954795559547959E016091810294
:10188000809180020E948E09B00EF1E0EF1AF108FB
:10189000A1F61F5FB8CF0E940D0A80912B01013085
:1018A00031F4811102C080916B00815007C090E03B
:1018B000019660916B0070E00E942B2680932B01B3
:1018C000DF91CF911F910F91FF90EF90DF90CF901C
:1018D000BF90AF900895CF938091690090916A0076
:1018E000891770F4E82FF0E09F01220F331FE20FF9
:1018F000F31FEC57FD4F1182108212828F5FF0CFE1
:10190000C0E060916B00C617C0F5EC2FF0E070E00E
:10191000CF010E942B2620916900820F20912A017D
:10192000022E000C330B90E0E217F307CCF020916D
:101930006600022E000C330B2E173F078CF09C0123
:10194000220F331F820F931F9C012C573D4F409154
:10195000820260918102809180020E948E090BC0F8
:10196000FC01EE0FFF1F8E0F9F1FFC01EC57FD4F78
:10197000118210821282CF5FC4CF0E940D0A209183
:10198000650080912A01820F80932A019091660060
:10199000920F9093660019165CF4082E000C990BB8
:1019A00040916B0050E041505109841795071CF09D
:1019B000219520936500CF9108958F929F92AF92C9
:1019C000BF92CF92DF92EF92FF920F931F93CF932C
:1019D000DF938C01FC014481C42FD0E09E01DE0125
:1019E0000E946F269B01AC010E9485266B017C0141
:1019F000E0E2F0E0EC1BFD0BA5E5B0E09B01AC01E3
:101A00000E9485264B015C019F01DF010E94672631
:101A10009B01AC010E9490269B01AC012C0D3D1D49
:101A20004E1D5F1DC501B4010E943F26C22FD22F5B
:101A30002A3228F4F3E02F9F900111240DC025E5F0
:101A400030E02C1B3109C901880F991F280F391F5D
:101A500037FF02C02F5F3F4F35952795C22FC095A6
:101A6000F12C85E5E82EED1A80916B00F816C8F48C
:101A7000F1FC02C08E2D01C08D2F909169002F2D99
:101A800030E0290F311DA901440F551F240F351FC8
:101A90002C573D4F4C2F609181020E948E09F39488
:101AA000E3CF0E940D0AF8018481811102C091E008
:101AB00003C0803219F49FEF90936400909164000A
:101AC000890FF8018483DF91CF911F910F91FF90CF
:101AD000EF90DF90CF90BF90AF909F908F90089540
:101AE0000F931F93CF93DF93EC0100E010E0809100
:101AF0006B00282F30E00217130724F5909169003E
:101B00009801290F311DA901440F551F240F351FBE
:101B10002C573D4F869590E04C81081719071CF40F
:101B2000442331F002C0411103C04091820201C040
:101B300040E060918102809180020E948E090F5FD7
:101B40001F4FD5CF0E940D0A8C8190E001968170C5
:101B500099278C83DF91CF911F910F9108957F92E8
:101B60008F929F92AF92BF92CF92DF92EF92FF92AD
:101B70000F931F93CF93DF93FC018280748081E0E9
:101B80008483E3E9F2E09490E2E1F3E0E491A12CB4
:101B9000F5E0BF2ECC24CA94D12CE9190E2F10E009
:101BA00080916B00A81608F0A2C0EA2CF12C22E06C
:101BB000281568F0BE9CF001BF9CF00D1124E45D77
:101BC000FE4F809180028083809181028183711019
:101BD0000AC0BE9CF001BF9CF00D1124E45DFE4FD5
:101BE000138212826AC0BE9CE001BF9CD00D1124FA
:101BF000C45DDE4F8B818823F9F081508B832FEFFA
:101C0000829FC00111246C8170E00E941726FB01A5
:101C1000FF27ED56FD4F8491E82FE9192FEFE29F42
:101C2000C0011124B8010E94172680918202689F8A
:101C3000B00111247A8341C00E94E42620918202DF
:101C40002695215830E0A901440F551F322F222735
:101C5000240F351F232F33278217930774F582E053
:101C6000881588F40E94E426B6010E942B268883FA
:101C70000E94E426209181022695622F70E00E9446
:101C80002B26280F2983BE9CF001BF9CF00D112448
:101C9000E45DFE4F128280918202843120F0893C03
:101CA00018F088EC01C084E1BE9CF001BF9CF00DEF
:101CB0001124E45DFE4F8483838380916900970142
:101CC000280F311DC901880F991F280F391F2C5764
:101CD0003D4FBE9CF001BF9CF00D1124E45DFE4F12
:101CE0004281618180810E948E09A39459CFDF9146
:101CF000CF911F910F91FF90EF90DF90CF90BF9009
:101D0000AF909F908F907F900C940D0AEFE7F2E0D8
:101D100080818E7F808360817181828193810E9426
:101D2000B30910924D012FEB84ED91E021508040DA
:101D30009040E1F700C000000C940D0A60917F0212
:101D4000669570E04BE050E08CE690E00E94F4264F
:101D5000892B19F481E080934D010E948522909394
:101D6000460180934501089590917F0290FF35C010
:101D70009170811102C0926006C08B3210F09465A0
:101D800002C0880F982B90937F02662351F06091D8
:101D90007F027091800280918102909182020E9464
:101DA000B30960917F02669570E04BE050E08CE6ED
:101DB00090E00E94F426892B19F010924D0102C088
:101DC0000E949E0E81E080934801409182026091C2
:101DD0008102809180020C94B10B0895682F90913C
:101DE0007F02969581E0890F8B3208F081E00C9498
:101DF000B40E81E00C94EE0E682F90917F029695C0
:101E00008FEF890F09F48AE20C94B40E81E00C94F0
:101E1000FC0E61E00C94B40EEFE7F2E0808181608B
:101E2000808386950C94090F80917F0280FD0C942D
:101E3000860E0C940C0F60E00C94B40E80914B0154
:101E400081112EC00E944B21811104C00E94F321F8
:101E50000E94C5090E94AF0960937F0270938002BF
:101E600080938102909382026E7F61F40E94C50983
:101E70000E94AF0960937F02709380028093810279
:101E8000909382020E949C0910924D0180917F02E2
:101E900080FF03C086950E941B0F81E080934B0159
:101EA00008950F931F93CF93DF9380914D01882363
:101EB00009F495C080914C01E0917F02E695E81B02
:101EC000E0934701823049F4F0E0E157FD4FE4919F
:101ED000CE2FD0E006E61AE059C0863049F4F0E093
:101EE000E457FD4FE491CE2FD0E00AE71AE04EC050
:101EF000893051F4E695F0E0E757FD4FE491CE2F9D
:101F0000D0E004EB1BE042C08F3051F4E695F0E0E6
:101F1000EA57FD4FE491CE2FD0E00FEE1BE036C024
:101F2000853149F4F0E0ED57FD4FE491CE2FD0E03C
:101F30000BE61CE02BC08831D9F0833239F4E1E89C
:101F4000F2E0C591D4910AE81AE020C08432A9F0E9
:101F50008532C1F48E2F63E00E94FD25E92FF0E069
:101F6000E258FD4FE491CE2FD0E00FEA1DE00EC005
:101F7000C8E2D0E00DED1CE009C0C4EFD1E000E7FD
:101F80001DE004C0C0EDD7E00AE819E080914801E7
:101F9000882361F0109248010E94852290934601A7
:101FA0008093450110924A01109249010E948522B6
:101FB000E0914501F09146018E1B9F0B8F3F9F479B
:101FC00070F4EC0FFD1FF0934601E093450185E4AA
:101FD00091E0F801DF91CF911F910F910994DF916A
:101FE000CF911F910F910895882311F0FA0101C03C
:101FF000FB010994CF93DF93C82FD62F0E94D409F9
:102000008C1740F00E94D4098D1720F4DF91CF91F6
:102010000C94F90E8C2FDF91CF910C94090F1F9324
:10202000CF93DF93FB011281112309F4C1C0EC01AE
:102030000E948A208272CD3CFCE5DF0709F49BC038
:1020400008F043C0C73CECE5DE0709F480C0D8F4D3
:10205000C43C9CE5D90709F46DC038F4C33CDC45A9
:1020600009F0A7C00E94140F6BC0C53C9CE5D907BE
:1020700009F468C0C63CDC4509F09BC042E75BE060
:1020800065E67BE05BC0CA3CFCE5DF0709F469C09C
:1020900070F4C83CECE5DE0709F45EC0C93CDC45E1
:1020A00009F087C041E85BE060E97BE047C0CB3CDA
:1020B0009CE5D90709F45AC0CC3CDC4509F079C04D
:1020C00047E05AE060EF79E039C0C23DFCE5DF0748
:1020D00009F45EC098F4CF3C9CE5D90709F452C0DE
:1020E00008F44EC0C03DFCE5DF0709F44EC0C13D19
:1020F000DC4509F05EC06EE089E057C0C53D9CE557
:10210000D90709F44BC058F4C33DFCE5DF0709F4D7
:1021100042C0C43DDC4509F04CC088E143C0C63D27
:102120009CE5D907F1F1CE35DD4509F042C06AE200
:1021300085E23BC046E05FE069EF7EE00E94F40F7D
:1021400010E037C049EF5EE066E07FE0F7CF45E69C
:102150005BE062E77BE0F2CF40E95BE061E87BE0D7
:10216000EDCF4EEA5BE06FE97BE0E8CF4FE95BE063
:102170006EEA7BE0E3CF40EF59E067E07AE0DECF44
:1021800081E010C065E082E010C068E086E00DC02C
:1021900064E18FE00AC067E185E107C062E289E19E
:1021A00004C083E20E94090FCBCF0E94FA0FC8CF70
:1021B00011E0812FDF91CF911F91089586E090E08B
:1021C0000C940127682F86E090E00C9415278091ED
:1021D000930284708166809393020C94E210809144
:1021E000930286958695869508958091930281FD48
:1021F00007C08260809393020E94E2100C948B12BD
:1022000008958091930281FF07C08D7F8093930290
:102210000E94E2100C94951208958091930281FD22
:102220000C9401110C94F5108091930286958170A5
:1022300008958091770008950E944B21811104C078
:102240000E94F3210E94E7100E94DE108093930207
:10225000282F26952695269530E02D30310524F03F
:1022600087708066809393028091930280FF04C000
:1022700086958695869501C080E00C946012209129
:102280009302822F869586958695482F50E04C3094
:10229000510554F48F5F982F990F990F990F822F42
:1022A0008770892B80939302809193028160809341
:1022B00093020E94E21080919302869586958695FE
:1022C0000C94601280919302982F9695969596950E
:1022D000A1F0915E990F990F990F8770892B8093C8
:1022E0009302887F91E009F490E08091930290FB43
:1022F00080F9809393020E94E21080919302869568
:10230000869586950C9460128091930280FD13C08F
:10231000816080939302813019F489E08093930265
:10232000809193020E94E210809193028695869597
:1023300086950C94601208958091930280FF08C0E6
:102340008E7F809393020E94E21080E00C946012D2
:1023500008958091930280FD0C949C110C9484113B
:1023600090919302892F8695869586958F5F8F71C0
:1023700097708D3038F4880F880F880F892B8093E1
:10238000930202C09093930280919302887F91E020
:1023900009F490E08091930290FB80F9809393027E
:1023A0000E94E210809193028695869586950C9402
:1023B00060128D3008F08CE0909193029770282F76
:1023C000220F220F220F922B90939302987F21E0ED
:1023D00009F420E09091930220FB90F990939302EE
:1023E0000C9460120E94D911809193020C94E21017
:1023F000FC01DB0112968C918823F9F0EC5BFC4523
:10240000E730F105D8F4E65DFF4F0C9461268CE0CF
:1024100001C080E00E94F21180E008950E946211E4
:10242000FBCF0E943F11F8CF0E94A911F5CF0E9467
:10243000B011F2CF0E940D11EFCF81E008958C9A78
:102440009498089594980895CF92DF92EF92FF9216
:102450008C3724E1920728F469E070E00E94172687
:1024600029C0A0E0B0E08A50974DAF4FBF4F66271C
:10247000782F892F9A2F25EF38E241E050E00E9413
:102480003F2669017A01CA01B9010E94ED259B012D
:10249000AC01C701B6010E94ED25BB27A92F982FDB
:1024A000872F009721E0A207B10511F0BC0102C0FF
:1024B0006FEF7FEFCB01FF90EF90DF90CF9008950B
:1024C000CF93C82F8D3040F4811107C08FB58F7D19
:1024D0008FBD0E94221204C0CCE08FB580628FBDF8
:1024E0002C2F30E0AFEFBFEF0E946F262CE030E0E2
:1024F00040E050E00E943F26B42FA32F922F882760
:10250000892F9A2FAB2FBB270E94241299BD88BD1B
:10251000CF910895089510924F0110924E0110929C
:10252000500189B7846089BF089589B78B7F89BFBF
:102530000E94EF100C9460121F920F920FB60F9230
:1025400011242F933F934F935F936F937F938F93B8
:102550009F93AF93BF93CF93EF93FF930E94191173
:1025600040914E0150914F014F5F5F4F94EF899F13
:1025700090011124CA01B9010E94172690934F01BE
:1025800080934E01B901660F672F661F770B719517
:102590000E9417266F7780915001823019F46034C1
:1025A00041F404C0813029F46F3719F489B78B7F67
:1025B00089BFE62FF0E0E856FC4FC4910E94EF106F
:1025C000282F41E051E0C49FC001C59F900D112408
:1025D0006CE070E00E941726269FC001279F900D97
:1025E00011240E94241299BD88BDFF91EF91CF91D3
:1025F000BF91AF919F918F917F916F915F914F911B
:102600003F912F910F900FBE0F901F9018950E9431
:102610001F1282E28FBD89E18EBD8FEF9FEF97BDC4
:1026200086BD0E941C110E94141181110C948B1202
:1026300008950F931F93CF93DF938C01EB0180914B
:102640005101811105C00E94581581E0809351010C
:10265000AE01440F551F4C0F5D1F24E630E0B8015A
:1026600080EBDF91CF911F910F910C94E2150F93A6
:102670001F93CF93DF93C42FD22FFC018281882335
:10268000C9F0409354010E94852290935301809396
:10269000520180E28C0F883008F057C0C77081E08B
:1026A00001C0880FCA95EAF7DF91CF911F910F9172
:1026B0000C941F1880915401481330C0809152012E
:1026C000909153010E949D22883C910538F510E2BB
:1026D0001D0FCD17B9F080E28C0F883040F4C77021
:1026E00081E001C0880FCA95EAF70E9426181830C9
:1026F00028F581E09D2F977001C0880F9A95EAF721
:102700000E941F18802F0E9416181830F0F4D770FE
:1027100081E001C0880FDA95EAF70AC080E28C0FE9
:10272000883098F4C77081E001C0880FCA95EAF735
:10273000DF91CF911F910F910C942618802FDF917C
:10274000CF911F910F910C941618DF91CF911F918B
:102750000F9108950F939C01CB01243F4CE5340762
:1027600031F188F4293DFCE53F07D9F02A3D4CE5DD
:10277000340779F1283D3C45A9F506E221EE41EE0A
:1027800068ED7CE52BC0263FFCE53F07E1F0A8F0B3
:10279000273F3C4539F507E225EE46EE67EF7CE53D
:1027A0001DC007E225EE45EE69ED7CE517C006E2A7
:1027B00021EE40EE64EF7CE511C007E225EE44EE29
:1027C00065EF7CE50BC006E221EE42EE66EF7CE5AC
:1027D00005C008E221E045EE6AED7CE50E94371372
:1027E00080E008C0FC018281882319F01092540116
:1027F00001C081E00F910895CF93DF93EC01FB01BD
:102800008281882309F41FC1C230FCE5DF0708F488
:102810001BC1C6319CE5D90738F09E012B5F3C45B2
:102820002930310508F010C10E945E2190936E029C
:1028300080936D02C031ECE5DE0709F4C3C008F0F7
:1028400041C0C8308CE5D80709F49AC0F0F4C43010
:10285000ECE5DE0709F487C068F4C2308CE5D807E0
:1028600009F477C0C330DC4509F0E3C080916D0204
:10287000826076C0C630ECE5DE0709F46EC008F071
:102880007BC080916D0288606BC0CC308CE5D8072E
:1028900009F485C068F4CA30ECE5DE0709F474C0B9
:1028A00008F079C00E949D1A80916D02806858C01E
:1028B000CE308CE5D80709F476C008F07FC080914F
:1028C0006D028BC0CC3FECE5DE0709F44FC018F574
:1028D000C3318CE5D80709F47DC078F4C131ECE54B
:1028E000DE0709F473C0C231DC4509F0A2C00E94C2
:1028F0009D1A80916D028F7733C0C5318CE5D80762
:1029000009F472C008F486C0CB3FDC4509F091C0E1
:1029100080916E023EC0C115FDE5DF0709F45FC07E
:1029200058F4CE3F9CE5D90709F444C008F43FC0F1
:1029300080916E0282602DC0C230FDE5DF0709F490
:1029400075C008F45DC0C330DD4509F072C080E099
:102950006EC080916D02816003C080916D028061C4
:1029600080936D0266C080916D0211C080916E02ED
:10297000826080936E025DC080916D028062F0CFB4
:1029800080916D028064ECCF80916D0288608460DC
:10299000E7CF8160EECF80916D028E7FE1CF809195
:1029A0006D028D7FDDCF80916D02877FD9CF8091C1
:1029B0006E0218C080916E028D7FDBCF80916D0218
:1029C0008F7ECECF80916D028F7DCACF80916D02B8
:1029D0008F7BC6CF80916D02877F8B7FC1CF809127
:1029E0006E028D7F8E7FC5CF80916D0282FB222784
:1029F00020F991E0922790FB82F990FB83F9B0CF08
:102A000080916E02982F909591708E7F892B90FB0C
:102A100081F9AFCF0E949D1A80916D0287FB22271A
:102A200020F991E0922790FB87F99ACF81E00E94EC
:102A3000F52180916D0290916E020E946F210E949B
:102A40009D1A80E001C081E0DF91CF910895CF937E
:102A5000DF9386319C4541F5EB010E948A20982F37
:102A60008A812091780030917900882379F09A7AD0
:102A700081E009F480E080935501911102C069E280
:102A800001C065E3C9010E943C220AC08091550142
:102A9000811102C069E201C065E3C9010E943E22C2
:102AA0000E94DC2080E001C081E0DF91CF91089599
:102AB00011B887E080B985B3836085BB86B7846031
:102AC00086BF86B7816086BF86B7806486BF08955B
:102AD000EF92FF920F931F93CF93DF93182FEB0189
:102AE00016BE84EA86BF0E9485227C0106B607FCDA
:102AF0000EC0CF3F8FEFD807C9F30E9485228E19F1
:102B00009F098C179D0790F38EEF9FEF28C081B12E
:102B1000887F883039F081B1887F803119F08FEF5C
:102B20009FEF1DC013B984E886BF0E9485228C01E7
:102B300006B607FC0CC0CF3F8FEFD807C9F30E9441
:102B40008522801B910B8C179D0790F3DDCF81B1FF
:102B5000887F883111F0803411F780E090E0DF91B8
:102B6000CF911F910F91FF90EF9008950F931F93B6
:102B7000CF93DF93EB0183B984E886BF0E9485225F
:102B80008C0106B607FC0EC0CF3F8FEFD807C9F304
:102B90000E948522801B910B8C179D0790F38EEF6E
:102BA0009FEF0BC021B1287F81E090E0283211F423
:102BB00080E090E0919581959109DF91CF911F91EF
:102BC0000F910895CF92DF92EF92FF920F931F9390
:102BD000CF93DF936B018A017901B9010E946815D7
:102BE000E6010C0D1D1DC017D10759F424E926BFBD
:102BF000DF91CF911F910F91FF90EF90DF90CF90D9
:102C0000089597FDF3CFB70189910E94B615EBCFD8
:102C100090935B0180935A010895E0915A01F091DD
:102C20005B01309721F00190F081E02D099480E064
:102C30000895E0915A01F0915B01309721F00280F4
:102C4000F381E02D099408952091580130915901A4
:102C50002817390771F09093590180935801E0913A
:102C60005A01F0915B01309721F00680F781E02D49
:102C7000099408952091560130915701281739077A
:102C800071F09093570180935601E0915A01F091B1
:102C90005B01309721F00084F185E02D09940895BF
:102CA0000E9491226093690170936A0180936B0185
:102CB00090936C0160936501709366018093670146
:102CC00090936801089584B7806884BF84B7806852
:102CD00084BF089581E008950C946A1608950C94B9
:102CE0006E160C946E160C9471160C946E160C9451
:102CF00075160C946E160E94631689E491E20E9488
:102D0000EB220E9479160C9477160E946F160C9491
:102D10006E160E947E220E94EA070E941C110E94E9
:102D20001E0F0C9473166F927F928F929F92AF92A8
:102D3000BF92CF92DF92EF92FF920F931F93CF93A8
:102D4000DF93CDB7DEB72A970FB6F894DEBF0FBE7C
:102D5000CDBF0E942D0881110E9450163DE5832EA3
:102D600031E0932E00E010E0C02E802F0E94B807C3
:102D70005C01F401619071904F016826792661141D
:102D80007104B1F40F5F1F4F0430110569F78FEF25
:102D900089838A831B820E9485228160782F9D838C
:102DA0008C8349815A816B818D810E944B173AC077
:102DB0008091D90181FD0E94C107D12CEE24E394BA
:102DC000F12CC3018E219F21892B29F10E946C16C1
:102DD0008823A9F0DE82CF82AE20BF2081E0AB281D
:102DE00009F480E088870E9485228160782F9A8785
:102DF00089874E815F8168858A850E944B17000F05
:102E0000111FF801E35AFE4F80819181E826F926CF
:102E1000F182E08207C0D394EE0CFF1CFCE0DF12CD
:102E2000D0CFB0CF0E94510F0E948A120E940D167F
:102E300090915C018917D1F00E940D1680935C017E
:102E40002A960FB6F894DEBF0FBECDBFDF91CF91AB
:102E50001F910F91FF90EF90DF90CF90BF90AF90B8
:102E60009F908F907F906F900C9482052A960FB65A
:102E7000F894DEBF0FBECDBFDF91CF911F910F91B0
:102E8000FF90EF90DF90CF90BF90AF909F908F908A
:102E90007F906F900895DF92EF92FF920F931F93B0
:102EA000CF93DF93CDB7DEB72B970FB6F894DEBF85
:102EB0000FBECDBFF42E052F162FE72ED82E611191
:102EC0000E94AA20FE01319686E0DF011D928A95BC
:102ED000E9F77E2D4F2D502F612F8D2D9E810E9461
:102EE000561D2B960FB6F894DEBF0FBECDBFDF91F7
:102EF000CF911F910F91FF90EF90DF900895FC010B
:102F0000808191810E942A200895CF93882309F41B
:102F100048C0C82F8CEF8C0F813AD0F46C2F809171
:102F20007800909179000E940622882349F06C2F46
:102F300080917800909179000E943E220E94DC20CE
:102F40006C2F80917800909179000E943C220CC0F7
:102F500080E28C0F883058F4C77081E001C0880F80
:102F6000CA95EAF70E948D20CF910C94DC20EBE506
:102F7000EC0FE33040F4F0E0E05EFE4F808190E043
:102F8000CF910C942416C85AC73158F4EC2FF0E0B6
:102F9000EE0FFF1FEE50FF4F80819181CF910C9477
:102FA0003A16CF910895882349F1682F8CEF860F48
:102FB000813A38F480917800909179000E943E2205
:102FC0000CC080E2860F883050F4677081E001C049
:102FD000880F6A95EAF70E9493200C94DC208BE519
:102FE000860F833020F480E090E00C942416685A19
:102FF000673120F480E090E00C943A1608951F9316
:10300000CF93DF93182FEB010E948517209741F093
:1030100087EB9BE00197F1F700C000002197F6CF06
:10302000812FDF91CF911F910C94D317893319F021
:1030300060E070E002C060E570E00C94FF17882348
:1030400021F00E948D200C94DC200895882321F02B
:103050000E9493200C94DC200895CF92DF92EF928F
:10306000FF920F931F93CF93DF937C01062FC72FFF
:10307000FC01D281158112951F700E946220882365
:1030800099F0DD2389F08C2F807F803421F080E25D
:10309000800F883048F082E00E942C210E9462203C
:1030A00091E0D82ED92601C0D12CCC2EC2948FE02D
:1030B000C8228C2D90E0FC01EF5CFF4F0C94612640
:1030C0008C2F807FCF70882311F0C295C07FDD23C5
:1030D00099F0CC2309F482C180E2800F883010F08F
:1030E000011104C08C2F0E948D2003C08C2F0E94E0
:1030F0009D200E94DC2072C1802F0E94D317CC2318
:1031000009F491C180E2800F883010F0011104C0F1
:103110008C2F0E94932003C08C2F0E94A3200E941A
:10312000DC2081C18C2F807FCF70803211F0C2955E
:10313000C07F002319F00130C9F022C0DD2371F0F7
:10314000112341F0113031F40E94BD208C2B0E94DC
:10315000C52069C10E94BD208C2B1DC0112319F010
:10316000113009F460C10E94D22025C0DD2321F076
:10317000133008F058C10EC0123008F054C11BC003
:10318000DD2361F0112331F0F701858180FF26C135
:103190008F7085838C2F0E941F1845C1112359F011
:1031A000093309F02CC1FFEF2DEE82E0F1502040F1
:1031B0008040E1F722C18C2F0E94261834C18C2F49
:1031C00086958695837019F0813061F02CC1DD23DE
:1031D00021F0802F9C2F937002C080E090E00E942D
:1031E000241629C1DD2321F0802F9C2F937002C06B
:1031F00080E090E00E943A161EC18C2F837009F087
:1032000045C0D11114C1402F429546954770440FD7
:10321000440F602F6F70862F90E0A0E0B0E0042E86
:1032200004C0880F991FAA1FBB1F0A94D2F704FF7E
:1032300010C00FE010E020E030E004C0000F111FCC
:10324000221F331F4A95D2F700951095209530958F
:1032500003C000E010E09801C695C695C370BC019C
:10326000CD01602B712B822B932BC23049F058F487
:10327000C13019F00E94A71EDAC00E94951ED7C067
:103280000E94B91ED4C00E94931ED1C0DD2319F044
:103290008C2F817001C08695882309F4C8C0402F07
:1032A000429546954770440F440F602F6F70862FEC
:1032B00090E0A0E0B0E0042E04C0880F991FAA1F80
:1032C000BB1F0A94D2F704FF10C00FE010E020E00B
:1032D00030E004C0000F111F221F331F4A95D2F7A0
:1032E000009510952095309503C000E010E09801FE
:1032F000C695C695C370BC01CD01602B712B822B86
:10330000932BC23049F058F4C13019F00E946C1F61
:103310008EC00E945A1F8BC00E947E1F88C00E94D0
:10332000CD1E85C0CF70DD2339F08C2F0E94F31E97
:10333000802F0E941F187BC0802F0E9426188C2F80
:103340000E94141F74C0023F01F128F4003F41F0B5
:10335000013FA1F03FC0033FF9F0043F39F13AC00B
:10336000DD2341F0123008F05EC08C2F8F710E9477
:10337000391F59C0133008F056C0F7CFDD2339F09C
:103380008C2F8F710E94F31E4EC0DD23C9F38C2F4A
:103390008F710E94141F47C0DD2329F08C2F8F717D
:1033A0000E94DE1E40C00E94D91E3DC0DD2349F0B0
:1033B000CF718C2F0E94F31E63E08C2F0E9411218D
:1033C00032C081E00E942C21123068F182E00E941C
:1033D0002C2129C0DD2331F0112391F2802F0E948E
:1033E000851721C0112399F2093349F49FEFEDEEBF
:1033F000F2E09150E040F040E1F700C00000802F83
:103400000E94D31710C04C2F4F70602FC7010E942D
:103410008B050E94041E0FC04C2F4F70602FC701F8
:103420000E948E0508C088EF8C0D843020F40E9425
:103430000D160E948205DD20C9F00E945E2080FDED
:1034400015C0F70112820E9458200E94F31EC70186
:103450000E94571A0E945820DF91CF911F910F911F
:10346000FF90EF90DF90CF900C94141FDF91CF91DD
:103470001F910F91FF90EF90DF90CF9008950F93E1
:103480001F93CF93DF93EC01688179818A810E9439
:1034900035208C010E94901F0E94811EB801CE0130
:1034A0000E942D18DF91CF911F910F910895CF9316
:1034B000DF93EC01988189812B813C81232B31F0B2
:1034C0008F3F31F481E09F3F19F403C081E001C0D8
:1034D00080E080FD19C0CE010E941B0581110CC047
:1034E0000E946220882381F08A81882369F082E02B
:1034F000DF91CF910C942C21CE010E943F1ACE0176
:10350000DF91CF910C94F804DF91CF91089580E082
:1035100090E00E94241680E090E00E943A160E94FB
:10352000AA200E94BA200C94DC208091780090910F
:1035300079000E9440220C94871A0E949A200C94D1
:10354000951AE92FE295EF704E2F50E0FA0132976D
:10355000EE30F105B0F4EF5BFF4F0C946126803F35
:1035600091F018F4883E68F40EC0843F51F40BC00B
:10357000883E48F0813F29F406C093FB882780F9F4
:10358000089580E0089581E008950E942A200E9415
:10359000A11A0895CF93DF9300D000D01F92CDB72A
:1035A000DEB70F900F900F900F900F90DF91CF919B
:1035B0000895CF93DF9300D000D000D0CDB7DEB711
:1035C00026960FB6F894DEBF0FBECDBFDF91CF9128
:1035D00008951F93CF93DF93C0916E0116E0809101
:1035E0006F01C81799F0D0E01C9FF0011D9FF00DEE
:1035F0001124E059FE4F40815181628173818481A1
:1036000095810E94D91A2196C770E9CFDF91CF9199
:103610001F9108954091A0015091A1016091A201D4
:103620007091A3018091A4019091A5010C94D91AE5
:103630000F931F93CF93DF938091A50182958F7095
:1036400009F05DC08091A201882309F458C08091DF
:103650006E0110916F016091A0017091A101C09164
:10366000A301D091A40191E06F3F09F090E0292FD0
:1036700006E0811709F443C0209721F07F3F21F035
:1036800030E003C031E001C0322F90E030FD34C0A3
:10369000089FF001099FF00D1124DF01A059BE4FD2
:1036A00011963C911197371327C03C91361324C0D3
:1036B00012963C91129731111FC013964D915C9157
:1036C00014974C1B5D0B483C5105B0F48091A5014B
:1036D0008F7080618093A501EB58FE4F80818F70C1
:1036E0008061808380EA91E00E94571ADF91CF9138
:1036F0001F910F910C94E91A01968770BACFDF9150
:10370000CF911F910F9108959F92AF92BF92CF9248
:10371000DF92EF92FF920F931F93CF93DF93CDB77A
:10372000DEB761970FB6F894DEBF0FBECDBF8C0138
:1037300085E0F801DE011D9601900D928A95E1F772
:10374000F80140815181E2809091A0016091A10136
:103750002091A3013091A4012115310531F06F3F73
:1037600031F481E09F3F19F403C081E001C080E0A3
:10377000F82FF1709F2E80FD46C1F801A380B48020
:1037800080EAC82E81E0D82EF090A201F501E21B5C
:10379000F30BFF2009F4DFC08091A501E83CF1059F
:1037A00008F09BC0282F207F09F052C0561313C089
:1037B000491311C0FE2CE1100EC08F708061809300
:1037C000A5010E940A1BC6010E94571A8091A501FB
:1037D000F801858358C1AB2831F05F3F31F481E0B7
:1037E0004F3F19F403C081E001C080E080FD03C0B9
:1037F00081E08E2502C080E090E0F82FF170FF2E6E
:1038000080FF1CC080916E0120916F0136E082170D
:1038100009F417C190E0389FF001399FF00D112491
:10382000E059FE4F6181561306C06081461303C004
:103830006281E61203C001968770E9CFFE2CEE206C
:1038400009F421C18091A50181608093A5015AC02E
:10385000561306C0491304C0E11002C0F8019FC00E
:103860004D875E878D859E850E94C51A882379F1D4
:10387000EE2069F12091A501822F82958F7090E052
:10388000029774F08091A0019091A10198878F8395
:103890001986BB86AA862C87CE0107960E94571AE6
:1038A00086E0F801A0EAB1E001900D928A95E1F777
:1038B0000E94181B0E940A1B0DC0561729F14D8744
:1038C0005E878D859E850E94C51A81112CC0C80116
:1038D0000E94571AFF24F394D6C0282F207F69F73F
:1038E0007A2DB98AA88A6E2D89890E94CA1A80EA1F
:1038F00091E00E94571A86E0F60111928A95E9F745
:103900000E940A1BF12CBFC04913D9CFE110D7CFB9
:10391000F8018583C8010E94571A86E0F6011192CA
:103920008A95E9F7B0C0EE2091F22091A501822F8F
:1039300082958F7090E002970CF4B2CF8091A00135
:103940009091A1019A8389831B82BD82AC822E83D0
:10395000CE010196A3CFE83CF10508F047C0FE2C4C
:10396000EE2009F4B4CF561330C049132EC0209175
:10397000A50120FD21C0822F82958F70482F50E035
:1039800041155105C9F0F80125834F30510541F02B
:103990008F5F982F9295907F822F8F70892B8583D0
:1039A000C8010E94571A86E0F801A0EAB1E0019030
:1039B0000D928A95E1F742C086E0F801A0EAB1E0F5
:1039C00001900D928A95E1F75EC04D875E878D85E7
:1039D0009E850E94C51A811163CF8091A5018160E7
:1039E0008093A501C8010E94571A4DC07A2DB98A4B
:1039F000A88A6E2D89890E94CA1A86E0F601119262
:103A00008A95E9F71BC0EE2009F461CF4D875E87E8
:103A10008D859E850E94C51AF82E882309F457CFFC
:103A200086E0F801A0EAB1E001900D928A95E1F7F5
:103A300080EA91E00E947F170E94181B0E940A1BD7
:103A400022C04D875E878D859E850E942A20292F62
:103A500022952F70223028F49F7039F0811105C013
:103A60000BC0243028F49F7049F4805E883020F029
:103A7000C8010E94571A9F2CF92C05C0F8019581A6
:103A8000907F99F7F9CF8F2D61960FB6F894DEBF2E
:103A90000FBECDBFDF91CF911F910F91FF90EF909F
:103AA000DF90CF90BF90AF909F9008951F93CF93DA
:103AB000DF93CDB7DEB72C970FB6F894DEBF0FBEFD
:103AC000CDBF4F83588769877A878B879C87CE01C4
:103AD00007960E94841B8823D1F09F8188852A85C0
:103AE0003B85232B31F08F3F31F481E09F3F19F468
:103AF00003C081E001C080E080FD47C04F81588550
:103B000069857A858B859C850E94D91A3EC086E09E
:103B1000FE013796DE01119601900D928A95E1F72C
:103B2000FF81E8856A857B856115710531F0EF3F7E
:103B300031F481E0FF3F19F403C081E001C080E06F
:103B400080FD23C020916F0130E0C901019687708C
:103B5000992740916E0150E084179507F1F1F983A0
:103B6000EA837D836C8396E0929FD001939FB00D92
:103B70001124A059BE4FFE01319601900D929A95E5
:103B8000E1F780936F010E94E91A16E080916E01BF
:103B900090916F01891771F1189FC001112480590C
:103BA0009E4F0E94841B882329F1E0916E011E9F85
:103BB000F0011124E059FE4F4081518162817381EF
:103BC000848195810E94D91A80916E0190E00196BE
:103BD0008770992780936E01D9CF0E949D1A109209
:103BE0006F0110926E01E0EAF1E086E0DF011D92C4
:103BF0008A95E9F72C960FB6F894DEBF0FBECDBFBD
:103C0000DF91CF911F910895EF92FF920F931F9331
:103C1000CF93DF938C01892B09F46CC0F12CEE2437
:103C2000E394E8012196F8018491843740F48430CC
:103C300008F051C0813081F0823019F15BC08537C6
:103C400009F444C0A8F19CE7980F903708F052C0DF
:103C50008F770E94D31741C00E5F1F4FFE018491E2
:103C600090E2980F983050F48770FE2D01C0FF0F3E
:103C70008A95EAF78F2F0E94AD2014C00E94851705
:103C80002DC00E5F1F4FFE01849190E2980F983077
:103C900060F48770FE2D01C0FF0F8A95EAF78F2F21
:103CA0000E94B3200E94DC2019C00E94D31716C0C6
:103CB0000E5F1F4FFE01C491CC2381F087EB9BE088
:103CC0000197F1F700C00000C150F6CF0E5F1F4F03
:103CD000FE01F49003C00E9485178E018F2D88236A
:103CE00009F49FCFE7EBFBE03197F1F700C000004C
:103CF0008150F5CFDF91CF911F910F91FF90EF9001
:103D00000895089508950C94821E0C94831E0E94B9
:103D1000851E6093C8017093C9018093CA01909376
:103D2000CB010C94871A0C94871E0F931F9300915C
:103D3000C8011091C9012091CA013091CB01602BBB
:103D4000712B822B932B1F910F910C94871E0F9335
:103D50001F930091C8011091C9012091CA013091AF
:103D6000CB0160237123822393231F910F910C9425
:103D7000871E0F931F930091C8011091C9012091D4
:103D8000CA013091CB0160277127822793271F91A9
:103D90000F910C94871E0C94821E0E94CB1E609380
:103DA000C4017093C5018093C6019093C7010C9420
:103DB000871A60E070E0CB010C94CD1E0F931F9327
:103DC00041E050E060E070E08A019B0104C0000F18
:103DD000111F221F331F8A95D2F7C901B8011F9105
:103DE0000F910C94CD1E0F931F9341E050E060E0C3
:103DF00070E004C0440F551F661F771F8A95D2F7E5
:103E00008091C4019091C501A091C601B091C701F4
:103E10008A019B01082B192B2A2B3B2BC901B801C6
:103E20001F910F910C94CD1E0F931F9341E050E012
:103E300060E070E004C0440F551F661F771F8A952D
:103E4000D2F740955095609570958091C4019091FE
:103E5000C501A091C601B091C7018A019B01082349
:103E600019232A233B23C901B8011F910F910C94F8
:103E7000CD1E0F931F9341E050E060E070E004C05E
:103E8000440F551F661F771F8A95D2F78091C40192
:103E90009091C501A091C601B091C7018A019B0113
:103EA000082719272A273B27C901B8011F910F911D
:103EB0000C94CD1E0F931F930091C4011091C50166
:103EC0002091C6013091C701602B712B822B932B5F
:103ED0001F910F910C94CD1E0F931F930091C4015D
:103EE0001091C5012091C6013091C7016023712353
:103EF000822393231F910F910C94CD1E0F931F9338
:103F00000091C4011091C5012091C6013091C701F3
:103F100060277127822793271F910F910C94CD1E44
:103F200008952CE0929F800D1124E82FE695E695E8
:103F3000E695877051E001C0550F8A95EAF785E054
:103F4000E89FF0011124EA55FE4F20E030E070E0D8
:103F50004081CB01022E02C0969587950A94E2F724
:103F60008170819584278523842781932F5F3F4F1C
:103F70002530310569F708952CE0929F800D1124BA
:103F8000682F669566956695982F977085E0689F6F
:103F9000B001112440E050E080E0FB01E40FF51F88
:103FA000EA55FE4F208130E0092E02C03695279554
:103FB0000A94E2F721703327042E01C0220F0A94DD
:103FC000EAF7822B4F5F5F4F4530510531F7089577
:103FD000BF92CF92DF92EF92FF920F931F93CF93F6
:103FE000DF938C01C090C401D090C501E090C60160
:103FF000F090C7018091C8019091C901A091CA01B8
:10400000B091CB01C82AD92AEA2AFB2ACFE1D0E015
:10401000D701C6010C2E04C0B695A7959795879534
:104020000A94D2F780FD04C0219790F7B12C07C005
:10403000BC2EB8018C2F0E94AA050197A9F38B2DE5
:10404000DF91CF911F910F91FF90EF90DF90CF9074
:10405000BF900895CF93DF93EC010E94E81FBE014B
:104060000E94AA05DF91CF9108951F93CF93DF930C
:10407000EB0190916D01992321F0CB010E942A2040
:1040800013C0882349F0CB010E94E81F182F682F26
:10409000CE010E94911F04C0CB010E94BC1F182FAB
:1040A000BE01812F0E94AA05DF91CF911F91089533
:1040B0008091CC0185958595859508958091CC0159
:1040C000877008959091CC01977081E009F480E0A9
:1040D000089590916E0292FB222720F9281751F043
:1040E00080FB92F990936E0280916D0290916E0226
:1040F0000C946F21089580916E0282FB882780F9CD
:1041000091E089270C94692081E00C94692080E07B
:104110000C9469208091D80108959091D801892B41
:104120008093D801089580959091D8018923809338
:10413000D80108951092D80108959091D701892B44
:104140008093D701089580959091D701892380931A
:10415000D70108951092D70108959091D601892B27
:104160008093D601089580959091D60189238093FC
:10417000D60108951092D60108958091CD01089539
:1041800008950C94C0200C94C12090916E0292FD71
:1041900008C09091CD01981721F08093CD010C9427
:1041A000C32008958091CD01882329F01092CD017C
:1041B00080E00C94C3200895E0917800F09179009C
:1041C0008091D8018083E0917800F091790090810E
:1041D0008091D701892B8083E0917800F09179005C
:1041E00090818091D601892B80838091CD01882395
:1041F00081F0E0917800F09179009081892B8083A3
:1042000080917800909179000E94FA2181110E949A
:10421000D22080917800909179000C9419160C941A
:10422000C02090916E0292FD10C098E0899F90018D
:104230001124262B2093CC010E94F31E8091CC01E7
:104240008595859585950C940F210C94F31E1092FD
:10425000CC0180E00C940F212091CC018095822329
:104260008093CC01982F977041F430E0482F082EAE
:10427000000C550B2417350721F490916E0292FF24
:1042800007C08595859585950E94141F0C9427215C
:10429000089580E0089580E090E00E940F2721E0DB
:1042A0008A3E9E4F09F020E0822F089582E090E040
:1042B0000C94012783E090E00C940127CF9384E0D5
:1042C00090E00E940127C82F82E290E00E9401271F
:1042D0002C2F30E0A901582BCA01CF910895CF931C
:1042E000C92F682F84E090E00E9415276C2F82E28E
:1042F00090E0CF910C941527AB01BC018FE090E0CA
:104300000C942627AB01BC0183E190E00C94262796
:1043100060E070E0CB010C94822160E070E0CB01A2
:104320000E947C210C9488216AEE7EEF80E090E070
:104330000E94322760E082E090E00E94152760E052
:1043400083E090E00E9415271092C8011092C901E5
:104350001092CA011092CB0160E084E090E00E94CC
:10436000152760E082E290E00E94152760E085E07A
:1043700090E00E94152760E086E090E00E941527FB
:104380006FEF87E090E00E94152740E050E0BA010F
:1043900088E090E00E94262760E08DE090E00E9497
:1043A000152740E050E0BA0188E190E00E942627FE
:1043B00060E087E190E00E94152740E050E0BA01FC
:1043C0008CE190E00E94262760E070E080E290E0BF
:1043D0000E94322740E050E0BA0188E190E00E945C
:1043E00026270C948D210C949421682F8EE090E068
:1043F0000C941527FC01329697E080E0915029F04B
:1044000021912223D9F38F5FF9CF0895662349F0D4
:10441000FC01329608962191621729F0E817F907F6
:10442000D1F780E0089581E008959C01FC01329667
:104430009FEF80E04191461789F09F3F19F44111A9
:1044400001C0982F8F5F8630A9F79F3F39F0F9019F
:10445000E90FF11D97FDFA956283089508959C0177
:104460002A5F3F4FFC014281461301C01282019630
:1044700082179307B9F708950C9415220C942F22F4
:10448000029626E0FC0111922A95E9F70895089515
:104490000C9447220C944722CF930E944A220E94F8
:1044A0002D080E944822C0E08C2F0E94B807892B5B
:1044B00029F4CF5FC430C1F780E001C081E0CF9123
:1044C00008950C9447220C9461228091DA0188238C
:1044D00041F00E94632280E00E94601280E00C9410
:1044E000820508950C9447220E949D1A0E941C1177
:1044F0000E940D160E9482050C9472228BE083BFED
:104500008BEB8CBF82E089BF08952FB7F894809120
:10451000940290919502A0919602B09197022FBFBC
:1045200008952FB7F894609194027091950280914C
:104530009602909197022FBF08959C014FB7F8946F
:104540008091940290919502A0919602B091970269
:104550004FBF821B930B089578941F920F920FB652
:104560000F9211248F939F93AF93BF9380919402E6
:1045700090919502A0919602B09197020196A11D8B
:10458000B11D8093940290939502A0939602B093EC
:104590009702BF91AF919F918F910F900FBE0F9097
:1045A0001F90189560E081E090E00E94382787E036
:1045B00090EBDC018093E8029093E902A093EA0279
:1045C000B093EB029CE088E10FB6F894A89581BD0A
:1045D0000FBE91BDFFCF90932501809324010895D4
:1045E0000F931F93CF93DF930E948522EC010E94CB
:1045F0007B160E94D2258B9A80E0815041F0A895CD
:10460000E7EBFBE03197F1F700C00000F6CF8B98A5
:1046100078940E9489160E94FA230E940816FFEBE4
:1046200024ED31E0F15020403040E1F700C00000BF
:1046300001E01CE08091BF02882371F01092BF025C
:104640000E948522EC018091DA01882391F010927A
:10465000DA010E9474220DC08091DA01811109C033
:10466000CE010E949D22069720F00093DA010E945D
:1046700065228091DA018823F9F00E9465220E9468
:104680004C228823B9F2F89491B3939A892F8C60C5
:1046900081BB82B3812782BB8FE5EAEEF0E08150D7
:1046A000E040F040E1F700C0000082B3812782BB08
:1046B00091BB93987894BECF0E94DB248091C50271
:1046C000882329F08091A30284FD0E9493160E9402
:1046D000A1230E948516AECF80916C0208950895A3
:1046E000CF93DF9300D01F92CDB7DEB79091DD015D
:1046F000981307C02091DB013091DC0126173707A2
:1047000091F08093DD017093DC016093DB0189837C
:104710007B836A838091DC0284FF05C063E0CE0165
:1047200001960E94D7240F900F900F90DF91CF91A8
:104730000895BC0184E00C947023BC0183E00C94C8
:104740007023CF93DF93CAE0D0E08091A30284FF6F
:1047500018C08091E9019091EA019817E1F028E0F2
:10476000829FC001112468E085519E4F0E94D3248E
:104770008091E90190E001968F7099278093E9017B
:104780000AC00E94DB2487EB9BE00197F1F700C091
:1047900000002197D1F6DF91CF910895CF93DF9359
:1047A000EC01A091EA01B0E0CD0101968F7099274C
:1047B0002091E901281779F093E0AA0FBB1F9A9581
:1047C000E1F7A551BE4F98E0FE0101900D929A9538
:1047D000E1F78093EA010E94DB240E94A12388E094
:1047E000FE01A1EEB1E001900D928A95E1F7DF9113
:1047F000CF9108958AE790E00895FC01808180764A
:104800008032A1F58181813061F484819581892B89
:1048100069F581EE91E09093C1028093C00288E037
:104820000895823041F48BE692E09093C102809328
:10483000C00281E008958A3021F4838180936B0265
:1048400015C0893099F4828193818115924081F459
:1048500084819581892B61F481E08093E0018681D8
:1048600097819093DF018093DE0102C080E008957C
:104870008FEF08952091DE013091DF01232B71F03D
:104880002091E001213051F4FC01808180936C0281
:104890001092DF011092DE0181E008958FEF0895FC
:1048A0000895FC0193819330D9F068F4913081F040
:1048B000923009F054C088E195E09093C102809352
:1048C000C0028BE30895913221F1923291F147C0F9
:1048D00083E595E09093C1028093C00282E1089540
:1048E0008281813071F028F08230C9F585E695E04B
:1048F0000AC08DE795E09093C1028093C00284E0E6
:10490000089581E795E09093C1028093C0028AE008
:1049100008958281882329F0813009F583E495E0A8
:1049200002C08AE295E09093C1028093C00289E0C0
:10493000089584819581009751F0019781F481E871
:1049400095E09093C1028093C00282E3089583EBC7
:1049500095E09093C1028093C00280E4089580E0C6
:1049600008951F93CF93DF93162FEA01288124FF28
:1049700005C0398128E82327298302C02AE5288336
:10498000212FFC01CE010296DC0131913D93215093
:104990001216DCF3612F0E9455031C5F1883DF9110
:1049A000CF911F91089543EA52E00C94B1244CED4D
:1049B00052E00C94B124CF93DF936091C202635014
:1049C00067FD93C08091BE02CCE0D0E0C81BD10946
:1049D000CA53DD4F8091BD02803120F4CE010E9488
:1049E000502481C08D3209F06EC0683009F07BC060
:1049F00083EC809398028AE5809385001092BC0234
:104A00008881807621F0CE010E94FD2349C09A81E1
:104A10001092A1028981811106C01092A20221EA9E
:104A200032E082E038C0853019F49093C30230C080
:104A30008630A1F48B81813041F0823031F08330B7
:104A400021F0813211F0823221F4CE010E945124F2
:104A500001C080E090E49093BC0222C0883089F0CD
:104A6000893019F49093C50213C08A3069F08B30F5
:104A700079F48BE48093A4028093DD028093B002EA
:104A800007C025EC32E002C021EA32E081E003C039
:104A900021EA32E080E03093C1022093C00209C0D5
:104AA0008F3F39F4988197FD8E8190E89093BC02F6
:104AB00007C09F81911104C09E81981708F4892F27
:104AC0008093840010C08091BC0287FF0CC0CE018F
:104AD0000E943A248F3F21F48EE18093850003C029
:104AE0008111109284001092C2028091850084FF8F
:104AF0004CC0809184008F3F09F447C0C82F893093
:104B000008F0C8E08C1B809384009091980288E89C
:104B1000892780939802CC2359F18091C00290910B
:104B2000C1022091BC0226FF12C0A8E9B2E02C2FDE
:104B3000AC0148595240FA01EA0FFB1FE49111966B
:104B4000EC931197215011962111F5CF08C0E9E996
:104B5000F2E0DC012C2F3D9131932150E1F70196D9
:104B60002FEF2C0F820F911D9093C1028093C002F2
:104B70006C2F89E992E00E945503CC5FCC3019F08C
:104B80008FEF80938400C093850084E190B39C7084
:104B900031F48150D9F71092C3021092BB02DF9119
:104BA000CF910895CF93DF9385B7886085BF8BB78A
:104BB00080688BBFC3EAD2E08BE48983ACEDB2E0BE
:104BC00011968C931197EFEAF2E081838AE588834E
:104BD0008C938083DF91CF910895DB018F939F9316
:104BE0000E948526BF91AF91A29F800D911DA39F2A
:104BF000900DB29F900D11240895991B79E004C087
:104C0000991F961708F0961B881F7A95C9F780950B
:104C1000089587FB082E062687FD819567FD61951F
:104C20000E94FD250EF4919507FC81950895AA1B1D
:104C3000BB1B51E107C0AA1FBB1FA617B70710F087
:104C4000A61BB70B881F991F5A95A9F780959095B9
:104C5000BC01CD01089597FB072E16F4009407D0F0
:104C600077FD09D00E94172607FC05D03EF49095E9
:104C700081959F4F0895709561957F4F0895A1E2AA
:104C80001A2EAA1BBB1BFD010DC0AA1FBB1FEE1FC6
:104C9000FF1FA217B307E407F50720F0A21BB30B11
:104CA000E40BF50B661F771F881F991F1A9469F78D
:104CB00060957095809590959B01AC01BD01CF01E9
:104CC0000895EE0FFF1F0590F491E02D09940E94C6
:104CD0006F26332312F48A1B9B0B0C948026A29F11
:104CE000B001B39FC001A39F700D811D1124911DC0
:104CF000B29F700D811D1124911D08950E946F2691
:104D0000B7FF0895821B930B08950E946F26A59FFD
:104D1000900DB49F900DA49F800D911D11240895B6
:104D2000B7FF0C9485260E948526821B930B08955D
:104D30008F929F92AF92BF92CF92DF92EF92FF92AB
:104D4000CF93DF93EC01688179818A819B81611522
:104D500071058105910521F464E279ED8BE597E019
:104D60002DE133EF41E050E00E94552749015A01FF
:104D70009B01AC01A7EAB1E40E9485266B017C018E
:104D8000ACEEB4EFA50194010E949326DC01CB01A7
:104D90008C0D9D1DAE1DBF1DB7FF03C00197A1095E
:104DA000B04888839983AA83BB839F77DF91CF9193
:104DB000FF90EF90DF90CF90BF90AF909F908F903B
:104DC00008950E949826089580E690E00E94982613
:104DD0000895A0E0B0E08093600090936100A093FC
:104DE0006200B09363000895FC014150504030F0E0
:104DF00001900616D1F73197CF010895882799279A
:104E00000895E199FECF9FBB8EBBE09A99278DB3A1
:104E10000895A6E1B0E044E050E00C944727A8E1F3
:104E2000B0E042E050E00C944727262FE199FECFF6
:104E30009FBB8EBBE09A01970DB2021631F02DBBDD
:104E40000FB6F894E29AE19A0FBE08950396272FC1
:104E50000E9416270E941527252F0E941627242F0F
:104E60000C9416270196272F0E9416270C941527BD
:104E7000262FE199FECF9FBB8EBB2DBB0FB6F894BA
:104E8000E29AE19A0FBE01960895DC01CB01FC0184
:104E9000E199FECF06C0FFBBEEBBE09A31960DB2A2
:104EA0000D9241505040B8F70895052E97FB1EF41F
:104EB00000940E946C2757FD07D00E943F2607FCF4
:104EC00003D04EF40C946C27509540953095219565
:104ED0003F4F4F4F5F4F0895909580957095619526
:0C4EE0007F4F8F4F9F4F0895F894FFCF35
:104EEC0001000000010102000500050501191A1B53
:104EFC001C1D1E1F20212206CE016C23CE236F23E6
:104F0C009D239923FF5AE200E900EA00B500B600A0
:104F1C00B700CD008301CC008A01920194012102DB
:104F2C00230224022502260227022A02B300B4001F
:104F3C006F00700081828334353637949596979341
:104F4C0092919060616364000102020202060606FF
:104F5C000909090909090F0F0F0F0F0F151515185E
:104F6C001919191919191919191923242525252560
:104F7C002525E200E900EA00B500B600B700CD0037
:104F8C008301CC008A0192019401210223022402A4
:104F9C002502260227022A02B300B4006F0070001B
:044FAC00818283007B
:00000001FF
