:100000000C94FA020C943E030C9459030C943E0396
:100010000C943E030C943E030C943E030C943E035C
:100020000C943E030C94E8120C946E230C943E0343
:100030000C943E030C943E030C943E030C943E033C
:100040000C943E030C943E030C943E030C943E032C
:100050000C943E03531255125A125D126012631231
:1000600066121B191B194D194D199A19CE1ACE1A61
:10007000CE1AB8194D1A5E1A5E1ABE1ACE1ACE1AC8
:10008000C71A711B711B831B831B7A1B831B831B6A
:10009000831B711B711B7F1B831B831B7F1B2B000F
:1000A00014001A000800150017001C0018000C00AE
:1000B000120013002A00290004001600070009009E
:1000C0000A000B000D000E000F0033002800E100B5
:1000D0001D001B000600190005001100100036006D
:1000E000370038003462E0000358E300E2000158B2
:1000F0002C422C0041595000510052004F00350055
:100100003A003B003C003D003E0001002400250079
:1001100026000100010001003F00400041004200B4
:1001200043002E022100220023002D0001000100C7
:100130004400450046004700480025021E001F00FD
:10014000200038002E0001000100010001000153D1
:100150000100010027002700370036002900350282
:100160001E021F0220022102220223022402250273
:10017000260227024C00010049004A004B00010002
:1001800001005000510052004F002D0201000100FB
:100190004C004D004E00010001002F0230022F00E4
:1001A00030003100310201000100010001000100B6
:1001B0000100010002534A004E004B004D000100B7
:1001C0000100ED00F9000100010001000100010043
:1001D0000100010001000100EF00EE00F00001004D
:1001E0000100010001000100010001000100010007
:1001F00001000100FA0001000100010001000100FE
:100200000100010001000100035301000100F100A1
:10021000F2000100F300AB00AA00A900AE0001004B
:1002200001000100010001000100010001000100C6
:10023000060019001B00010001000100010001007F
:1002400001000100010001000100010001000100A6
:100250000100010001000100010001000100010096
:100260000100010001000100010001000100010086
:1002700001000100010001000100010001001E0F4A
:100280000500047F3F1F643214643214783C1E1E44
:10029000140A052223252628292A2C2D2F30323313
:1002A0003536383A3B3D3E4042434547494A4C4E3D
:1002B0005051535557595A5C5E6062646668696B69
:1002C0006D6F71737577797B7D7F81838587898A6F
:1002D0008C8E90929496989A9C9E9FA1A3A5A7A875
:1002E000AAACAEAFB1B3B4B6B8B9BBBCBEBFC1C2A5
:1002F000C3C5C6C7C9CACBCCCDCED0D1D2D2D3D438
:10030000D5D6D7D7D8D9D9DADADBDBDBDCDCDCDC55
:10031000DCDDDDDDDDDCDCDCDCDCDBDBDBDADAD923
:10032000D9D8D7D7D6D5D4D3D2D2D1D0CECDCCCBA5
:10033000CAC9C7C6C5C3C2C1BFBEBCBBB9B8B6B4C3
:10034000B3B1AFAEACAAA8A7A5A3A19F9E9C9A9853
:10035000969492908E8C8A89878583817F7D7B7924
:10036000777573716F6D6B6968666462605E5C5A05
:100370005957555351504E4C4A4947454342403EC8
:100380003D3B3A3836353332302F2D2C2A2928265A
:10039000252322FFAA7F5540000000000000000036
:1003A00000000001010203040506080A0C0F1114E5
:1003B000181C2024292E33393F464C535B626A7146
:1003C00079818A929AA2AAB2B9C1C8CFD5DCE1E7F5
:1003D000EBF0F4F7FAFCFDFEFFFEFDFCFAF7F4F09B
:1003E000EBE7E1DCD5CFC8C1B9B2AAA29A928A8163
:1003F00079716A625B534C463F39332E2924201CA5
:100400001814110F0C0A080605040302010100006C
:1004100000000000000000000001010101010101D5
:1004200001010202020202020202020303030303A9
:100430000303030404040404040405050505050678
:100440000606060607070707070808080809090936
:10045000090A0A0A0B0B0B0C0C0C0D0D0D0E0E0EDF
:100460000F0F0F1010111111121213131414151570
:1004700016161717181819191A1A1B1B1C1D1D1EE2
:100480001E1F202021222223242425262627282936
:10049000292A2B2C2D2D2E2F303132323334353664
:1004A0003738393A3B3C3D3E3F4041424344454664
:1004B0004748494A4C4D4E4F505153545556585940
:1004C0005A5B5D5E5F616264656668696B6C6D6FE7
:1004D0007072737577787A7B7D7E8082838587885A
:1004E0008A8C8E8F91939596989A9C9EA0A2A3A594
:1004F000A7A9ABADAFB1B3B5B7BABCBEC0C2C4C695
:10050000C9CBCDCFD1D4D6D8DBDDDFE2E4E7E9EB50
:10051000EEF0F3F5F8FAFDFF09023B00020100A03E
:100520003209040000010301010009210101000159
:1005300022400007058103080001090401000103AE
:100540000000000921010100012232000705830398
:100550000800011201100100000008504B4000008B
:1005600002010200010A034A004A00340030000080
:10057000000A03720077006B0062000000040309A8
:100580000405010980A101850319012AB70015019D
:1005900026B700950175108100C0050C0901A10165
:1005A000850419012AA002150126A00295017510E3
:1005B0008100C005010906A101050719E029E71519
:1005C00000250195087501810295017508810305D3
:1005D00007190029FF150026FF0095067508810000
:1005E0000508190129059505750191029501750305
:1005F0009103C00011241FBECFE5D8E0DEBFCDBF00
:1006000004B603FE24C08091EC029091ED02A0910B
:10061000EE02B091EF028730904BA740B04BB9F497
:100620001092EC021092ED021092EE021092EF0284
:1006300014BE84B7877F84BF0FB6F894A89581B5A0
:10064000886181BD11BC0FBEE0E0F8E3099511E0BF
:10065000A0E6B0E0E0E7F0E502C005900D92A4321C
:10066000B107D9F722E0A4E2B1E001C01D92AC3E8F
:10067000B207E1F70E94B2230C9436280C940000D4
:10068000A82FB92F80E090E041E050EA609530E07B
:1006900009C02D9182279795879510F0842795277B
:1006A000305EC8F36F5FA8F30895EADF8D939D93E2
:1006B0000895CF93CFB7CF93C395839BE9F7839BDF
:1006C0000EC0839B0CC0839B0AC0839B08C0839B86
:1006D00006C0C091C302C395C093C302A6C0DF93F6
:1006E000C091C202DD27C653DD4F839B02C0DF915C
:1006F000E6CF2F930F931F9300B32FEF03FB20F947
:100700004F933F9310B34FEF012703FB21F93BE0D9
:1007100031C04E7F012F10B3216028C0102F4D7FB4
:100720002260000000B329C04B7F2460012F00002D
:1007300010B32BC010B3477F28602AC04F7E00B390
:1007400020612CC04F7D10B320622FC04F7B00B3BF
:10075000206432C0422700B349934FEF00001027B6
:1007600013FB20F910B31C70C9F1297F91F2012706
:1007700003FB21F900B3237F89F2315058F1102790
:1007800013FB22F910B3277E79F2012703FB23F92B
:100790002F7C81F200B3102713FB24F92F7971F21B
:1007A00000C010B3012703FB25F92F7359F200C0D5
:1007B00000B3102713FB26F9223040F200C010B31B
:1007C000012703FB27F9243028F64F77206810B360
:1007D0000000F9CF10E81ABF00271CC03B5031952C
:1007E000C31BD04010E81ABF0881033C11F10B3441
:1007F00001F12091BF021981110F1213EDCF4A812F
:10080000441F093669F10D3211F0013E29F74F708E
:1008100009F0042F0093C8023F914F911F910F914F
:100820002F91DF91CAB7C7FD47CFCF91CFBFCF91EF
:1008300018952091C802222379F31091C602112342
:1008400009F044C034300AF443C03093C602209308
:10085000C1021091C2023BE0311B3093C20238C08A
:100860000091C602013094F50AE54F7049F43091C9
:10087000860034FD2FC000938600CCE9D2E02EC064
:10088000433059F0443091F03091A70234FD22C03A
:100890000093A702C8EAD2E021C03091E00234FD03
:1008A00019C00093E002C1EED2E018C03091B3024B
:1008B00034FD10C00093B302C4EBD2E00FC0279503
:1008C000A8F45150A9F4220F0000F9CF4AE503C063
:1008D00042ED01C0432FC4E1D0E032E011B31C600F
:1008E000939A11BB02B320E41CE05F93012756E00A
:1008F00002BB279520F4515021F4220FF9CF012794
:1009000056E000003B5A02BBD0F2279528F4515024
:1009100029F4220F0000F9CF012756E0279502BBEA
:1009200020F4515021F4220FF9CF012756E02991EC
:10093000332302BB21F6037F1091C702110FC6516A
:10094000D04002BB11F01093BF0210E81ABF08603C
:1009500011B3137F402F437F5F9100C000C002BBE3
:1009600011BB42BB59CF9C013A9521153F4138F547
:10097000DC01AA27B270AC01442754709C012227E5
:10098000387094FF0FC090FF02C080E101C080E08A
:10099000AB2B09F08062452B09F08064232B69F0B2
:1009A00080680BC0892F8170AB2B09F08260452BCA
:1009B00009F08460232B09F08860FB0109940895F5
:1009C000CF93DF93EC01805E9109089710F0209798
:1009D00019F46AED78E102C062E47BE1CE010E9485
:1009E000B3048C2FDF91CF910C94401881E00895CF
:1009F00081E008950C94F80408950C94FC041F936E
:100A0000CF93DF9300D000D01F92CDB7DEB74983DC
:100A10005A836B833091710189819A81311114C09D
:100A2000662359F0222349F00E94AA20182F682F2C
:100A300089819A810E94532003C00E947E20182F32
:100A400069817A81812F04C00E94AA2069817A81FC
:100A50000F900F900F900F900F90DF91CF911F91FB
:100A60000C94DB05FC01262F40815181628173814A
:100A700084810C94FF04CF93DF93EC0160E00E942B
:100A80003205BE01DF91CF910C94FD040E94E00776
:100A90000E9453130C941D080E94BA150C94190857
:100AA00008950E945F1B0E9450052FEB87E299E09A
:100AB000215080409040E1F700C000000C94942346
:100AC0000F931F93CF93DF938C0161E00E94320557
:100AD000EC01B8010E94FA04882309F452C0B8015D
:100AE000CE010E944412882309F44BC0B801CE0104
:100AF0000E94E515882309F444C0B801CE010E9484
:100B0000F6138823F1F1B801CE010E94481488231E
:100B1000C1F1B801CE010E947315882391F1B8018B
:100B2000CE010E945B10882361F1F8018281882345
:100B300009F1CB358DE5D807C1F050F4C115FCE5BE
:100B4000DF0781F0CF3DDC45A9F40E94B52219C032
:100B5000CC35EDE5DE0761F0CD35DD4559F40E9479
:100B60003D2108C00E9451050CC00E94462102C0D0
:100B70000E944921C801DF91CF911F910F910C94E0
:100B8000F60480E0DF91CF911F910F9108950895B1
:100B90000C94C70581E008950C94CA05CF93C82F23
:100BA0000E94C8058C2F0E94CC05CF91089580E04B
:100BB00090E00895089520E3829FC0011124FC0174
:100BC0002CE0729FE00DF11D1124E60FF11DEE0FD8
:100BD000FF1FE256FF4F859194910895880F991F4A
:100BE000FC01E258FD4F859194910895CF93DF93D6
:100BF0000E94DB050E940807EC018115904508F072
:100C000043C0C11580E4D80708F0CBC0C03ED10571
:100C100028F5C03CD10508F0B3C0C83AD10578F436
:100C2000C53AD10508F0A4C0C130D10509F4ECC023
:100C300008F4E8C0C430D10508F0E6C0E3C0CF3BFB
:100C4000D10508F0DFC0C85AD0E0CC0FDD1FC9576E
:100C5000DF4F0990D881C02DD464D6C0C11590E271
:100C6000D90750F4C11521E0D20708F0CDC0C83E25
:100C7000D10508F4C9C0C6C0C11580E3D80708F083
:100C800086C0CE019F707FC0C11595E5D90708F0D9
:100C900043C0C11524E5D20708F09AC0C11582E50A
:100CA000D80708F5C11591E5D90708F07DC0CE0138
:100CB00074E0969587957A95E1F783709C2F9370F1
:100CC00021E030E002C0220F331F9A95E2F73C6822
:100CD000382BCF70C695C69580E2C89FE0011124DD
:100CE000C22BD32B91C09E01237033278C2F869566
:100CF0008695C115D34508F05CC0C1E0D0E002C0C4
:100D0000CC0FDD1F2A95E2F720E2829FC00111245B
:100D1000C82BD92BDC6878C0C11529E5D207A0F40F
:100D2000C11588E5D80708F058C0C11596E5D90760
:100D300008F068C08C2F0E949C078F71C82FD0E0EC
:100D4000DC2FCC27D06260C0C1152AE5D20708F499
:100D500049C0CE0190568115904208F053C08D2FA6
:100D60008F710E949C07DD27D0628F71D82B4CC0F9
:100D7000C55AD0E0CB54DF4FC881D0E0D06444C026
:100D8000CE01805C91090E94EE05EC013DC0CE01D0
:100D90009927D3FF03C0EC01D86C36C0EC01D06CAE
:100DA00033C0DF70D06A30C0DC2FCC27C16FD06A6F
:100DB0002BC0C1E0D0E002C0CC0FDD1F2A95E2F7C6
:100DC00020E2829FC0011124C82BD92BDA681CC0F5
:100DD000DC2FCC27C46FD06A17C0DC2FCC27C06FA4
:100DE000D06A12C08C2F8F700E949C0794E0D69519
:100DF000C7959A95E1F7CF70D0E0DC2FCC27D0696A
:100E0000C82B02C0C0E0D0E0CE01DF91CF910895A1
:100E10008238910569F1B0F48133910509F46DC010
:100E200048F48932910509F463C08A32910509F4C6
:100E300069C008958533910509F455C0893391053A
:100E4000B9F00895833E910569F138F4803E91052B
:100E5000B1F0823E910509F10895863E9105A9F110
:100E6000873E9105B9F1843E910509F064C023C025
:100E70002091710220FD4FC021FD4DC00895809149
:100E8000710280FD44C08091720280FF44C0809155
:100E9000710284FD42C083EE4DC08091710282FFD9
:100EA00038C0F5CF8091710282FD33C0809172020B
:100EB00080FD31C0ECCF8091720281FF32C0809101
:100EC000710284FD2AC087EE35C08091710283FFD4
:100ED00026C0F5CF8091710283FD21C080917202FE
:100EE00081FD1FC0ECCF8091710285FD1CC01DC02B
:100EF0008091710285FD19C016C08091710286FD36
:100F000016C017C08091710286FD13C010C089E31E
:100F100011C082EE0FC080EE0DC080E00BC086EEE7
:100F200009C084EE07C089E205C085E303C08AE2F8
:100F300001C081E390E008959091710292FF0DC08D
:100F4000282F2871283019F4877F846006C0282F45
:100F50002471243011F48B7F886093FF0DC0282FFB
:100F60002871283119F4877E846106C0282F2471E6
:100F7000243111F48B7E88612091720220FF0DC014
:100F8000382F3871383019F4877F816006C0382FC8
:100F90003171313011F48E7F886021FF0DC0282F10
:100FA0002871283119F4877E816106C0282F2171AC
:100FB000213111F48E7E886194FD877E0895089515
:100FC0000E940D22811102C00E94B5220E941822A7
:100FD0008093DD010E94202290937202809371021F
:100FE0000E94DF070E941C22682F70E080E090E0E2
:100FF0000E94551F6091C8017091C9018091CA017A
:101000009091CB010C948D1FE82FF0E0EE0FFF1FA5
:10101000E558FD4F808191810895089588E78A956C
:10102000F1F7089500C008950C940E0808950C94EB
:1010300016080C9417080C9416080C941B08F894C6
:10104000E82FE295EF70F0E031A9282F2F7081E0B2
:1010500090E001C0880F2A95EAF7982F9095932386
:1010600091AB92A9892B82AB789408950F931F932B
:10107000CF93DF9380E60E941F0881E60E941F083D
:1010800083E60E941F0884E60E941F08C8EBD0E098
:1010900004EC10E089910E941F080C171D07D1F77E
:1010A000109274021092730210927C0210927B02D2
:1010B000109276021092750210927E0210927D02BA
:1010C00010927802109277021092800210927F02A2
:1010D00010927A021092790210928202109281028A
:1010E00084E00E940709DF91CF911F910F910C942A
:1010F00046057F928F929F92AF92BF92CF92DF92DE
:10110000EF92FF920F931F93CF93DF93C4ECD0E045
:1011100083E7A82E82E0B82E9BE7E92E92E0F92E15
:10112000712C01E010E06E018881F894E82FE295BF
:10113000EF70F0E021A98F70A80102C0440F551F85
:101140008A95E2F7CA01922F982B91AB92A98095CC
:10115000892382AB78940E941208E8EBF0E020E04B
:1011600030E0812C912C4191A42FA295AF70B0E07A
:10117000D0968C9190E04F7002C0959587954A95D6
:10118000E2F780FD08C0C801022E02C0880F991F37
:101190000A94E2F702C080E090E0882A992A2F5F43
:1011A0003F4F2C303105F9F62196F60180810E94DF
:1011B0001F080E941408F501808191818816990604
:1011C00021F09182808281E001C080E0782AF2E003
:1011D000AF0EB11CEA14FB0409F0A5CF272D44E0A3
:1011E0006BE772E083E792E00E9408090E944C05D9
:1011F000872DDF91CF911F910F91FF90EF90DF909E
:10120000CF90BF90AF909F908F907F90089508955A
:10121000FF920F931F93CF93DF93F82E092F162F72
:10122000D72FC42F222349F081E0809328010E9408
:1012300047239093270180932601809128018823DA
:10124000D9F080912601909127010E945F23069793
:1012500098F0EF2DF02FA12FBD2F80E090E04C2FC4
:1012600050E08417950734F4219131912D933D93EB
:101270000196F7CF10922801DF91CF911F910F9126
:10128000FF900895EF92FF920F931F93CF93DF93F8
:101290008B01682F11110AC0442329F0E82FF0E0D8
:1012A000E85EFB4F6491762F862F75C0212F30E0CA
:1012B000E82FF0E0442321F0E85EFB4FE491F0E0FA
:1012C00046E0049FC0011124CFEFD0E0BE010E9490
:1012D000D9264BEA4603C001479F900D1124800F89
:1012E000911D800F911D982F990F890FAE01421B00
:1012F000530B4E9FD0014F9FB00D5E9FB00D112438
:101300009B2F189FA0011124452F55278E01041BE8
:10131000150B0E9FA0010F9F500D1E9F500D112405
:101320007E01E81AF108E29E8001E39E100DF29E14
:10133000100D1124212F3327C21BD30BCE9F9001F8
:10134000CF9F300DDE9F300D112462307105A9F062
:1013500048F46115710569F061307105C9F48B2F8E
:10136000752F0DC06430710581F058F0663071053D
:1013700079F47E2F8B2F932F0DC0832F7B2F9E2FE1
:1013800009C08E2F7B2F952F05C08E2F732F02C083
:101390007E2F852F692FDF91CF911F910F91FF90A5
:1013A000EF90089541E00E944209089508950E9437
:1013B000D2090895CF93DF93762FE901682F842F08
:1013C0000E94D709798368838A83DF91CF9108953A
:1013D00080918302282F269530E02115310519F4DC
:1013E0008170826005C02B32310524F081708465E4
:1013F00080938302089588E090E00C94CB27CF92ED
:10140000DF92EF92FF926B017C010E94E809B70125
:10141000A60188E090E0FF90EF90DF90CF900C94D1
:10142000E827E3E8F2E083E0808311828FEF828394
:101430008383148260817181828193810C94FF097E
:101440008091830280FF02C08695089580E0089510
:1014500090918702933018F49F5F909387028823BE
:1014600051F0609183027091840280918502909185
:1014700086020C94FF09089581E00C94280A90914B
:101480008702992319F0915090938702882351F095
:10149000609183027091840280918502909186020E
:1014A0000C94FF09089581E00C943F0A70E00C94BD
:1014B0006513609168008091830280FF0AC080916B
:1014C000670023E0829FC001112488579D4F0C9430
:1014D000560A8091690090916A00891780F7E82F79
:1014E000F0E09F01220F331FE20FF31FE857FD4F7B
:1014F0001182108212828F5FF0CF9091830290FF51
:1015000016C09091690020916A00921770F4E92F3B
:10151000F0E0DF01AA0FBB1FEA0FFB1FE857FD4FEA
:101520008183608342839F5FF0CF0C94590A0895B2
:10153000CF93DF9300D01F92CDB7DEB79091830297
:1015400090FF0AC09E012F5F3F4F0E94DA094B8136
:1015500069818A810E947D0A0F900F900F90DF9120
:10156000CF910895CF93DF93EC01EC81F0E0ED563D
:10157000FD4F4491E3E8F2E0628181810E94980A84
:101580008C818F5F8C83DF91CF910895CF93DF9310
:10159000EC01E3E8F2E0438162818C810E94980AC9
:1015A0008C818F5F8C83DF91CF9108950F931F9370
:1015B000CF93DF9300D01F92CDB7DEB78C0180911F
:1015C000290181110AC09E012F5F3F4F4FEF6FEF3E
:1015D0000E94DA098A8180932901F801848181308F
:1015E00051F028F0823061F4409129010AC08091C5
:1015F000290140E007C06091290140E080E003C07C
:1016000040E080E060E00E947D0AF801848190E083
:10161000019663E070E00E94ED2684830F900F90A6
:101620000F90DF91CF911F910F910895AF92BF92CC
:10163000CF92DF92EF92FF920F931F93CF93DF939E
:1016400000D01F92CDB7DEB7182FF62E042FE22E52
:101650009091830290FF6DC0E92FE695AE2FB0E028
:10166000A853BF4F8C9180934C019E7F923061F4C0
:101670009E012F5F3F4F812F0E94DA094B816981C4
:101680008A810E947D0A43C0823019F4009186024B
:101690003EC0863019F41091840239C08930D9F3E4
:1016A0008931A9F5E9518E2F8170D82EE695F0E0A9
:1016B000ED56FC4FA590B490C12CBB2460916B00FB
:1016C000C61618F52C2D30E0A29EC001A39E900DE9
:1016D000B29E900D112470E00E94D926812FD11066
:1016E00002C0860F01C0861B90916900290F311D31
:1016F000A901440F551F240F351F28573D4F402F78
:101700006F2D0E94DA09C394D9CF0E94590A109311
:101710008402F092850200938602EE2051F06091DF
:1017200083027091840280918502909186020E94CA
:10173000FF090F900F900F90DF91CF911F910F91A4
:10174000FF90EF90DF90CF90BF90AF900895E3E8C7
:10175000F2E09181282F4381628188E0890F0C9407
:10176000160B81E00C94A70BE3E8F2E09181282F9F
:101770004381628188EF890F0C94160B81E00C94F1
:10178000B40BE3E8F2E0628121E1620F08F46FEF4D
:10179000282F438181810C94160B81E00C94C10B9E
:1017A000E3E8F2E0628121E1621B08F460E0282FA7
:1017B000438181810C94160B81E00C94D00BE3E8FB
:1017C000F2E0438121E1420F08F44FEF282F6281BC
:1017D00081810C94160B81E00C94DF0BE3E8F2E0BE
:1017E000438121E1421B08F440E0282F628181817E
:1017F0000C94160B81E00C94EE0B20E00C94160B6D
:10180000FF920F931F93CF93DF93EC01F12C0FEF17
:1018100010E060916B00F616F0F4809169002F2DB6
:1018200030E0280F311DC901880F991F280F391F7B
:1018300028573D4F70E0C8010E94ED26962F8C81FD
:101840004091860260918502F99E800D11240E94CC
:10185000DA09F394DECF0E94590A9A818C8190FFB5
:1018600002C08F5F01C081508C83DF91CF911F91A7
:101870000F91FF900895AF92BF92CF92DF92EF92B7
:10188000FF920F931F93CF93DF93FC01828180FF20
:1018900002C00FEF01C001E010E045E0A42E8091EE
:1018A0006B00181708F043C080916900C12ED12C3D
:1018B000E601C80FD11DCE01880F991FC80FD91F8F
:1018C000C857DD4F198218821A8234E0E32EF12CBA
:1018D000B12C80912B018B0D86302CF06A2D0E944B
:1018E000CB26892F05C087FF03C090916B00890F1D
:1018F000082E000C990BC816D90691F48091860227
:101900008E9DA0018F9D500D11245595479555959D
:1019100047959E0160918502809184020E94DA09B8
:10192000B00EF1E0EF1AF108A1F61F5FB8CF0E94E8
:10193000590A80912B01013031F4811102C080914C
:101940006B00815007C090E0019660916B0070E0E1
:101950000E94ED2680932B01DF91CF911F910F9173
:10196000FF90EF90DF90CF90BF90AF900895CF930E
:101970008091690090916A00891770F4E82FF0E077
:101980009F01220F331FE20FF31FE857FD4F118213
:10199000108212828F5FF0CFC0E060916B00C6179B
:1019A000C0F5EC2FF0E070E0CF010E94ED26209111
:1019B0006900820F20912A01022E000C330B90E067
:1019C000E217F307CCF020916600022E000C330BD7
:1019D0002E173F078CF09C01220F331F820F931F9D
:1019E0009C0128573D4F409186026091850280916D
:1019F00084020E94DA090BC0FC01EE0FFF1F8E0F5C
:101A00009F1FFC01E857FD4F118210821282CF5FA9
:101A1000C4CF0E94590A2091650080912A01820F4B
:101A200080932A0190916600920F90936600191698
:101A30005CF4082E000C990B40916B0050E0415073
:101A40005109841795071CF0219520936500CF91CB
:101A500008958F929F92AF92BF92CF92DF92EF92B2
:101A6000FF920F931F93CF93DF938C01FC0144816E
:101A7000C42FD0E09E01DE010E9431279B01AC0102
:101A80000E9447276B017C01E0E2F0E0EC1BFD0BBC
:101A9000A5E5B0E09B01AC010E9447274B015C012A
:101AA0009F01DF010E9429279B01AC010E94522760
:101AB0009B01AC012C0D3D1D4E1D5F1DC501B401E8
:101AC0000E940127C22FD22F2A3228F4F3E02F9F41
:101AD000900111240DC025E530E02C1B3109C9010E
:101AE000880F991F280F391F37FF02C02F5F3F4F04
:101AF00035952795C22FC095F12C85E5E82EED1A76
:101B000080916B00F816C8F4F1FC02C08E2D01C064
:101B10008D2F909169002F2D30E0290F311DA901E3
:101B2000440F551F240F351F28573D4F4C2F6091F0
:101B300085020E94DA09F394E3CF0E94590AF80162
:101B40008481811102C091E003C0803219F49FEFBB
:101B50009093640090916400890FF8018483DF9171
:101B6000CF911F910F91FF90EF90DF90CF90BF909A
:101B7000AF909F908F9008950F931F93CF93DF9313
:101B8000EC0100E010E080916B00282F30E002179C
:101B9000130724F5909169009801290F311DA901BF
:101BA000440F551F240F351F28573D4F869590E051
:101BB0004C81081719071CF4442331F002C041116D
:101BC00003C04091860201C040E06091850280918F
:101BD00084020E94DA090F5F1F4FD5CF0E94590A75
:101BE0008C8190E00196817099278C83DF91CF9151
:101BF0001F910F9108957F928F929F92AF92BF9203
:101C0000CF92DF92EF92FF920F931F93CF93DF93C8
:101C1000FC018280748081E08483E3E9F2E09490A7
:101C2000E2E1F3E0E491A12CF5E0BF2ECC24CA94CC
:101C3000D12CE9190E2F10E080916B00A81608F046
:101C4000A2C0EA2CF12C22E0281568F0BE9CF0011D
:101C5000BF9CF00D1124E45DFE4F809184028083CF
:101C600080918502818371100AC0BE9CF001BF9CE7
:101C7000F00D1124E45DFE4F138212826AC0BE9CF7
:101C8000E001BF9CD00D1124C45DDE4F8B81882301
:101C9000F9F081508B832FEF829FC00111246C815A
:101CA00070E00E94D926FB01FF27ED56FD4F84917D
:101CB000E82FE9192FEFE29FC0011124B8010E941B
:101CC000D92680918602689FB00111247A8341C091
:101CD0000E94A627209186022695215830E0A9016E
:101CE000440F551F322F2227240F351F232F332750
:101CF0008217930774F582E0881588F40E94A6275E
:101D0000B6010E94ED2688830E94A62720918502B5
:101D10002695622F70E00E94ED26280F2983BE9C35
:101D2000F001BF9CF00D1124E45DFE4F1282809102
:101D30008602843120F0893C18F088EC01C084E1EF
:101D4000BE9CF001BF9CF00D1124E45DFE4F848326
:101D50008383809169009701280F311DC901880F85
:101D6000991F280F391F28573D4FBE9CF001BF9C7B
:101D7000F00D1124E45DFE4F4281618180810E945B
:101D8000DA09A39459CFDF91CF911F910F91FF9062
:101D9000EF90DF90CF90BF90AF909F908F907F900B
:101DA0000C94590AE3E8F2E080818E7F80836081A1
:101DB0007181828193810E94FF0910924D012FEB66
:101DC00084ED91E0215080409040E1F700C0000098
:101DD0000C94590A60918302669570E04BE050E0E4
:101DE0008CE690E00E94B627892B19F481E080935D
:101DF0004D010E9447239093460180934501089529
:101E00009091830290FF35C09170811102C0926061
:101E100006C08B3210F0946502C0880F982B909307
:101E20008302662351F06091830270918402809155
:101E30008502909186020E94FF0960918302669557
:101E400070E04BE050E08CE690E00E94B627892BD2
:101E500019F010924D0102C00E94EA0E81E08093B9
:101E600048014091860260918502809184020C9421
:101E7000FD0B0895682F90918302969581E0890F5C
:101E80008B3208F081E00C94000F81E00C943A0F43
:101E9000682F9091830296958FEF890F09F48AE25B
:101EA0000C94000F81E00C94480F61E00C94000F3B
:101EB000E3E8F2E080818160808386950C94550F81
:101EC0008091830280FD0C94D20E0C94580F60E038
:101ED0000C94000F80914B0181112EC00E940D22A5
:101EE000811104C00E94B5220E94110A0E94FB09C0
:101EF000609383027093840280938502909386029C
:101F00006E7F61F40E94110A0E94FB0960938302B4
:101F10007093840280938502909386020E94E80960
:101F200010924D018091830280FF03C086950E942C
:101F3000670F81E080934B0108950F931F93CF9318
:101F4000DF9380914D01882309F495C080914C0165
:101F5000E0918302E695E81BE0934701823049F463
:101F6000F0E0E157FD4FE491CE2FD0E002EB1AE014
:101F700059C0863049F4F0E0E457FD4FE491CE2F8C
:101F8000D0E006EC1AE04EC0893051F4E695F0E05E
:101F9000E757FD4FE491CE2FD0E000E01CE042C0B7
:101FA0008F3051F4E695F0E0EA57FD4FE491CE2FE3
:101FB000D0E00BE31CE036C0853149F4F0E0ED578A
:101FC000FD4FE491CE2FD0E007EB1CE02BC0883111
:101FD000D9F0833239F4E1E8F2E0C591D49106ED0D
:101FE0001AE020C08432A9F08532C1F48E2F63E05C
:101FF0000E94BF26E92FF0E0E258FD4FE491CE2F7A
:10200000D0E00BEF1DE00EC0C8E2D0E009E21DE019
:1020100009C0C4EFD1E00CEB1DE004C0C0EDD7E077
:1020200006ED19E080914801882361F01092480183
:102030000E944723909346018093450110924A01E4
:10204000109249010E944723E0914501F091460119
:102050008E1B9F0B8F3F9F4770F4EC0FFD1FF0937B
:102060004601E093450185E491E0F801DF91CF91CD
:102070001F910F910994DF91CF911F910F910895B6
:10208000882311F0FA0101C0FB010994CF93DF937B
:10209000C82FD62F0E94200A8C1740F00E94200AD9
:1020A0008D1720F4DF91CF910C94450F8C2FDF9189
:1020B000CF910C94550F1F93CF93DF93FB011281A7
:1020C000112309F4C1C0EC010E944C218272CD3C65
:1020D000FCE5DF0709F49BC008F043C0C73CECE512
:1020E000DE0709F480C0D8F4C43C9CE5D90709F4A4
:1020F0006DC038F4C33CDC4509F0A7C00E94600FF6
:102100006BC0C53C9CE5D90709F468C0C63CDC45FA
:1021100009F09BC04EEB5BE061EB7BE05BC0CA3C2F
:10212000FCE5DF0709F469C070F4C83CECE5DE07A4
:1021300009F45EC0C93CDC4509F087C04DEC5BE0AA
:102140006CED7BE047C0CB3C9CE5D90709F45AC055
:10215000CC3CDC4509F079C043E55AE06CE37AE019
:1021600039C0C23DFCE5DF0709F45EC098F4CF3CFE
:102170009CE5D90709F452C008F44EC0C03DFCE507
:10218000DF0709F44EC0C13DDC4509F05EC06EE0DA
:1021900089E057C0C53D9CE5D90709F44BC058F408
:1021A000C33DFCE5DF0709F442C0C43DDC4509F04E
:1021B0004CC088E143C0C63D9CE5D907F1F1CE355E
:1021C000DD4509F042C06AE285E23BC042E55FE0DE
:1021D00065E47FE00E94401010E037C045E45FE016
:1021E00062E57FE0F7CF41EB5BE06EEB7BE0F2CFA7
:1021F0004CED5BE06DEC7BE0EDCF4AEF5BE06BEE2E
:102200007BE0E8CF4BEE5BE06AEF7BE0E3CF4CE3B3
:102210005AE063E57AE0DECF81E010C065E082E05D
:1022200010C068E086E00DC064E18FE00AC067E19D
:1022300085E107C062E289E104C083E20E94550F94
:10224000CBCF0E944610C8CF11E0812FDF91CF91F4
:102250001F91089586E090E00C94C327682F86E0D4
:1022600090E00C94D72780919702847081668093C8
:1022700097020C942E1180919702869586958695EB
:1022800008958091970281FD07C082608093970234
:102290000E942E110C94D71208958091970281FF0D
:1022A00007C08D7F809397020E942E110C94E1123B
:1022B00008958091970281FD0C944D110C94411169
:1022C0008091970286958170089580917700089596
:1022D0000E940D22811104C00E94B5220E94331178
:1022E0000E942A1180939702282F269526952695DD
:1022F00030E02D30310524F087708066809397029E
:102300008091970280FF04C086958695869501C0CE
:1023100080E00C94AC1220919702822F86958695CE
:102320008695482F50E04C30510554F48F5F982F1C
:10233000990F990F990F822F8770892B809397029D
:10234000809197028160809397020E942E11809164
:1023500097028695869586950C94AC12809197028B
:10236000982F969596959695A1F0915E990F990F55
:10237000990F8770892B80939702887F91E009F4E9
:1023800090E08091970290FB80F9809397020E94E1
:102390002E11809197028695869586950C94AC12A5
:1023A0008091970280FD13C08160809397028130F5
:1023B00019F489E080939702809197020E942E1170
:1023C000809197028695869586950C94AC12089517
:1023D0008091970280FF08C08E7F809397020E94B1
:1023E0002E1180E00C94AC1208958091970280FD2C
:1023F0000C94E8110C94D01190919702892F869536
:10240000869586958F5F8F7197708D3038F4880F21
:10241000880F880F892B8093970202C090939702B0
:1024200080919702887F91E009F490E08091970273
:1024300090FB80F9809397020E942E118091970261
:102440008695869586950C94AC128D3008F08CE0BC
:10245000909197029770282F220F220F220F922B14
:1024600090939702987F21E009F420E090919702E1
:1024700020FB90F9909397020C94AC120E942512C5
:10248000809197020C942E11FC01DB0112968C9125
:102490008823F9F0EC5BFC45E730F105D8F4E65D04
:1024A000FF4F0C9423278CE001C080E00E943E1275
:1024B00080E008950E94AE11FBCF0E948B11F8CFEF
:1024C0000E94F511F5CF0E94FC11F2CF0E94591124
:1024D000EFCF81E008958C9A949808959498089588
:1024E000CF92DF92EF92FF928C3724E1920728F48B
:1024F00069E070E00E94D92629C0A0E0B0E08A50CF
:10250000974DAF4FBF4F6627782F892F9A2F25EF12
:1025100038E241E050E00E94012769017A01CA01D6
:10252000B9010E94AF269B01AC01C701B6010E9410
:10253000AF26BB27A92F982F872F009721E0A2074E
:10254000B10511F0BC0102C06FEF7FEFCB01FF902E
:10255000EF90DF90CF900895CF93C82F8D3040F447
:10256000811107C08FB58F7D8FBD0E946E1204C090
:10257000CCE08FB580628FBD2C2F30E0AFEFBFEF86
:102580000E9431272CE030E040E050E00E9401271B
:10259000B42FA32F922F8827892F9A2FAB2FBB27D9
:1025A0000E94701299BD88BDCF9108950895109230
:1025B0004F0110924E011092500189B7846089BF7B
:1025C000089589B78B7F89BF0E943B110C94AC1290
:1025D0001F920F920FB60F9211242F933F934F9398
:1025E0005F936F937F938F939F93AF93BF93CF939B
:1025F000EF93FF930E94651140914E0150914F015E
:102600004F5F5F4F94EF899F90011124CA01B90178
:102610000E94D92690934F0180934E01B901660F15
:10262000672F661F770B71950E94D9266F7780916F
:102630005001823019F4603441F404C0813029F42F
:102640006F3719F489B78B7F89BFE62FF0E0E85622
:10265000FC4FC4910E943B11282F41E051E0C49FE0
:10266000C001C59F900D11246CE070E00E94D92636
:10267000269FC001279F900D11240E94701299BDC2
:1026800088BDFF91EF91CF91BF91AF919F918F91B5
:102690007F916F915F914F913F912F910F900FBE5E
:1026A0000F901F9018950E946B1282E28FBD89E1F6
:1026B0008EBD8FEF9FEF97BD86BD0E9468110E946F
:1026C000601181110C94D71208950F931F93CF932B
:1026D000DF938C01EB0180915101811105C00E94B3
:1026E000131681E080935101AE01440F551F4C0F2A
:1026F0005D1F24E630E0B80180EBDF91CF911F91A0
:102700000F910C949D160F931F93CF93DF93C42FBB
:10271000D22FFC0182818823C9F0409354010E948A
:102720004723909353018093520180E28C0F8830AD
:1027300008F057C0C77081E001C0880FCA95EAF75A
:10274000DF91CF911F910F910C94DA188091540171
:10275000481330C080915201909153010E945F2331
:10276000883C910538F510E21D0FCD17B9F080E2D5
:102770008C0F883040F4C77081E001C0880FCA9583
:10278000EAF70E94E118183028F581E09D2F977034
:1027900001C0880F9A95EAF70E94DA18802F0E94EC
:1027A000D1181830F0F4D77081E001C0880FDA95A5
:1027B000EAF70AC080E28C0F883098F4C77081E095
:1027C00001C0880FCA95EAF7DF91CF911F910F9151
:1027D0000C94E118802FDF91CF911F910F910C94F1
:1027E000D118DF91CF911F910F9108950F939C0104
:1027F000CB01243F4CE5340731F188F4293DFCE559
:102800003F07D9F02A3D4CE5340779F1283D3C4596
:10281000A9F506E221EE41EE68ED7CE52BC0263FEE
:10282000FCE53F07E1F0A8F0273F3C4539F507E21A
:1028300025EE46EE67EF7CE51DC007E225EE45EE8E
:1028400069ED7CE517C006E221EE40EE64EF7CE521
:1028500011C007E225EE44EE65EF7CE50BC006E211
:1028600021EE42EE66EF7CE505C008E221E045EE90
:102870006AED7CE50E94831380E008C0FC01828140
:10288000882319F01092540101C081E00F9108953E
:10289000CF93DF93EC01FB018281882309F41FC1F0
:1028A000C230FCE5DF0708F41BC1C6319CE5D9073F
:1028B00038F09E012B5F3C452930310508F010C1EE
:1028C0000E9420229093720280937102C031ECE545
:1028D000DE0709F4C3C008F041C0C8308CE5D80752
:1028E00009F49AC0F0F4C430ECE5DE0709F487C0BF
:1028F00068F4C2308CE5D80709F477C0C330DC45F2
:1029000009F0E3C080917102826076C0C630ECE5C8
:10291000DE0709F46EC008F07BC080917102886008
:102920006BC0CC308CE5D80709F485C068F4CA3098
:10293000ECE5DE0709F474C008F079C00E945F1B63
:1029400080917102806858C0CE308CE5D80709F4B8
:1029500076C008F07FC0809171028BC0CC3FECE55F
:10296000DE0709F44FC018F5C3318CE5D80709F428
:102970007DC078F4C131ECE5DE0709F473C0C231E3
:10298000DC4509F0A2C00E945F1B809171028F7725
:1029900033C0C5318CE5D80709F472C008F486C08D
:1029A000CB3FDC4509F091C0809172023EC0C11559
:1029B000FDE5DF0709F45FC058F4CE3F9CE5D90779
:1029C00009F444C008F43FC08091720282602DC0B7
:1029D000C230FDE5DF0709F475C008F45DC0C330FF
:1029E000DD4509F072C080E06EC0809171028160A7
:1029F00003C08091710280618093710266C08091F2
:102A0000710211C0809172028260809372025DC077
:102A1000809171028062F0CF809171028064ECCF6E
:102A20008091710288608460E7CF8160EECF8091F1
:102A300071028E7FE1CF809171028D7FDDCF809119
:102A40007102877FD9CF8091720218C08091720283
:102A50008D7FDBCF809171028F7ECECF809171020E
:102A60008F7DCACF809171028F7BC6CF809171021A
:102A7000877F8B7FC1CF809172028D7F8E7FC5CF84
:102A80008091710282FB222720F991E0922790FB2E
:102A900082F990FB83F9B0CF80917202982F9095C4
:102AA00091708E7F892B90FB81F9AFCF0E945F1BC5
:102AB0008091710287FB222720F991E0922790FBF9
:102AC00087F99ACF81E00E94B7228091710290919C
:102AD00072020E9431220E945F1B80E001C081E0EF
:102AE000DF91CF910895CF93DF9386319C4541F5D7
:102AF000EB010E944C21982F8A812091790030911E
:102B00007A00882379F09A7A81E009F480E0809352
:102B10005501911102C069E201C065E3C9010E943B
:102B2000FE220AC080915501811102C069E201C0F4
:102B300065E3C9010E9400230E949E2180E001C03C
:102B400081E0DF91CF910895CF9380915601882342
:102B500079F0C0E080915601C81740F480E090E021
:102B60000E94E0040E949E21CF5FF4CF1092560194
:102B7000CF91089580917800882399F08091570132
:102B8000882379F08091580190915901009749F07C
:102B90000E945F23893C910520F0109257010C940C
:102BA000A4150895109257011092780010925901BF
:102BB000109258010C94A4158091780081110C9406
:102BC000D21581E0809378000895FB01883F2CE5C1
:102BD000920739F482818823B9F081E080937800EC
:102BE00020C0893F2CE5920731F48281882361F06F
:102BF0000E94D21516C08A3F9C4531F482818823F9
:102C000019F00E94DC150DC080917800882349F0EE
:102C10000E94A415109259011092580181E08093EE
:102C2000570181E0089511B887E080B985B38360CA
:102C300085BB86B7846086BF86B7816086BF86B74E
:102C4000806486BF0895EF92FF920F931F93CF93F6
:102C5000DF93182FEB0116BE84EA86BF0E9447233C
:102C60007C0106B607FC0EC0CF3F8FEFD807C9F333
:102C70000E9447238E199F098C179D0790F38EEFB2
:102C80009FEF28C081B1887F883039F081B1887F7B
:102C9000803119F08FEF9FEF1DC013B984E886BF14
:102CA0000E9447238C0106B607FC0CC0CF3F8FEF74
:102CB000D807C9F30E944723801B910B8C179D07EF
:102CC00090F3DDCF81B1887F883111F0803411F726
:102CD00080E090E0DF91CF911F910F91FF90EF90F6
:102CE00008950F931F93CF93DF93EB0183B984E88B
:102CF00086BF0E9447238C0106B607FC0EC0CF3F5B
:102D00008FEFD807C9F30E944723801B910B8C17C4
:102D10009D0790F38EEF9FEF0BC021B1287F81E0DC
:102D200090E0283211F480E090E09195819591092E
:102D3000DF91CF911F910F910895CF92DF92EF9283
:102D4000FF920F931F93CF93DF936B018A01790159
:102D5000B9010E942316E6010C0D1D1DC017D107F5
:102D600059F424E926BFDF91CF911F910F91FF9075
:102D7000EF90DF90CF90089597FDF3CFB701899141
:102D80000E947116EBCF90935F0180935E010895CE
:102D9000E0915E01F0915F01309721F00190F081A8
:102DA000E02D099480E00895E0915E01F0915F01CB
:102DB000309721F00280F381E02D0994089520914D
:102DC0005C0130915D012817390771F090935D0126
:102DD00080935C01E0915E01F0915F01309721F0FA
:102DE0000680F781E02D0994089520915A013091D1
:102DF0005B012817390771F090935B0180935A01AA
:102E0000E0915E01F0915F01309721F00084F1853F
:102E1000E02D099408950E94532360936D017093EF
:102E20006E0180936F0190937001609369017093BC
:102E30006A0180936B0190936C01089584B7806858
:102E400084BF84B7806884BF089581E008950C949E
:102E5000251708950C9429170C9429170C942C17F6
:102E60000C9429170C9430170C9429170E941E17E4
:102E70008BE092E20E94AD230E9434170C9432172B
:102E80000E942A170C9429170E9440230E9436089A
:102E90000E9468110E946A0F0C942E176F927F9205
:102EA0008F929F92AF92BF92CF92DF92EF92FF925A
:102EB0000F931F93CF93DF93CDB7DEB72A970FB64B
:102EC000F894DEBF0FBECDBF0E94790881110E9429
:102ED0000B1731E6832E31E0932E00E010E0C02E78
:102EE000802F0E9404085C01F401619071904F01F1
:102EF0006826792661147104B1F40F5F1F4F043006
:102F0000110569F78FEF89838A831B820E9447230B
:102F10008160782F9D838C8349815A816B818D815B
:102F20000E9406183AC08091DD0181FD0E940D08C3
:102F3000D12CEE24E394F12CC3018E219F21892B07
:102F400029F10E9427178823A9F0DE82CF82AE20C4
:102F5000BF2081E0AB2809F480E088870E944723E6
:102F60008160782F9A8789874E815F8168858A85FD
:102F70000E940618000F111FF801EF59FE4F8081C3
:102F80009181E826F926F182E08207C0D394EE0C05
:102F9000FF1CFCE0DF12D0CFB0CF0E949D0F0E943B
:102FA000D6120E94C816909160018917D1F00E9434
:102FB000C816809360012A960FB6F894DEBF0FBE44
:102FC000CDBFDF91CF911F910F91FF90EF90DF90D8
:102FD000CF90BF90AF909F908F907F906F900C9408
:102FE000CE052A960FB6F894DEBF0FBECDBFDF9197
:102FF000CF911F910F91FF90EF90DF90CF90BF90F6
:10300000AF909F908F907F906F900895DF92EF9296
:10301000FF920F931F93CF93DF93CDB7DEB72B971C
:103020000FB6F894DEBF0FBECDBFF42E052F162FBE
:10303000E72ED82E61110E946C21FE01319686E0A8
:10304000DF011D928A95E9F77E2D4F2D502F612FBC
:103050008D2D9E810E94181E2B960FB6F894DEBF10
:103060000FBECDBFDF91CF911F910F91FF90EF90D9
:10307000DF900895FC01808191810E94EC200895E9
:10308000CF93882309F448C0C82F8CEF8C0F813A66
:10309000D0F46C2F8091790090917A000E94C82220
:1030A000882349F06C2F8091790090917A000E94DA
:1030B00000230E949E216C2F8091790090917A00CC
:1030C0000E94FE220CC080E28C0F883058F4C7703A
:1030D00081E001C0880FCA95EAF70E944F21CF9185
:1030E0000C949E21EBE5EC0FE33040F4F0E0EF5D53
:1030F000FE4F808190E0CF910C94DF16C85AC73103
:1031000058F4EC2FF0E0EE0FFF1FED50FF4F8081E1
:103110009181CF910C94F516CF910895882349F1B0
:10312000682F8CEF860F813A38F480917900909166
:103130007A000E9400230CC080E2860F883050F491
:10314000677081E001C0880F6A95EAF70E945521F7
:103150000C949E218BE5860F833020F480E090E074
:103160000C94DF16685A673120F480E090E00C94EC
:10317000F51608951F93CF93DF93182FEB010E944C
:103180004018209741F087EB9BE00197F1F700C0D2
:1031900000002197F6CF812FDF91CF911F910C94E2
:1031A0008E18893319F060E070E002C060E570E0CD
:1031B0000C94BA18882321F00E944F210C949E2170
:1031C0000895882321F00E9455210C949E21089592
:1031D000CF92DF92EF92FF920F931F93CF93DF93E3
:1031E0007C01062FC72FFC01D281158112951F701B
:1031F0000E942421882399F0DD2389F08C2F807F81
:10320000803421F080E2800F883048F082E00E9414
:10321000EE210E94242191E0D82ED92601C0D12C84
:10322000CC2EC2948FE0C8228C2D90E0FC01EF5C84
:10323000FF4F0C9423278C2F807FCF70882311F0B1
:10324000C295C07FDD2399F0CC2309F482C180E2CE
:10325000800F883010F0011104C08C2F0E944F2184
:1032600003C08C2F0E945F210E949E2172C1802F7B
:103270000E948E18CC2309F491C180E2800F88301F
:1032800010F0011104C08C2F0E94552103C08C2F17
:103290000E9465210E949E2181C18C2F807FCF706A
:1032A000803211F0C295C07F002319F00130C9F0BF
:1032B00022C0DD2371F0112341F0113031F40E945E
:1032C0007F218C2B0E94872169C10E947F218C2B3A
:1032D0001DC0112319F0113009F460C10E9494211E
:1032E00025C0DD2321F0133008F058C10EC0123084
:1032F00008F054C11BC0DD2361F0112331F0F70148
:10330000858180FF26C18F7085838C2F0E94DA18FB
:1033100045C1112359F0093309F02CC1FFEF2DEEFF
:1033200082E0F15020408040E1F722C18C2F0E94C2
:10333000E11834C18C2F86958695837019F0813001
:1033400061F02CC1DD2321F0802F9C2F937002C0EF
:1033500080E090E00E94DF1629C1DD2321F0802F5C
:103360009C2F937002C080E090E00E94F5161EC171
:103370008C2F837009F045C0D11114C1402F4295A4
:1033800046954770440F440F602F6F70862F90E072
:10339000A0E0B0E0042E04C0880F991FAA1FBB1F35
:1033A0000A94D2F704FF10C00FE010E020E030E0F4
:1033B00004C0000F111F221F331F4A95D2F700953A
:1033C00010952095309503C000E010E09801C69557
:1033D000C695C370BC01CD01602B712B822B932B42
:1033E000C23049F058F4C13019F00E94691FDAC0A8
:1033F0000E94571FD7C00E947B1FD4C00E94551F38
:10340000D1C0DD2319F08C2F817001C086958823EF
:1034100009F4C8C0402F429546954770440F440FA9
:10342000602F6F70862F90E0A0E0B0E0042E04C003
:10343000880F991FAA1FBB1F0A94D2F704FF10C060
:103440000FE010E020E030E004C0000F111F221F49
:10345000331F4A95D2F7009510952095309503C0FB
:1034600000E010E09801C695C695C370BC01CD017F
:10347000602B712B822B932BC23049F058F4C13052
:1034800019F00E942E208EC00E941C208BC00E942A
:10349000402088C00E948F1F85C0CF70DD2339F087
:1034A0008C2F0E94B51F802F0E94DA187BC0802FBE
:1034B0000E94E1188C2F0E94D61F74C0023F01F1B8
:1034C00028F4003F41F0013FA1F03FC0033FF9F075
:1034D000043F39F13AC0DD2341F0123008F05EC0FC
:1034E0008C2F8F710E94FB1F59C0133008F056C0FB
:1034F000F7CFDD2339F08C2F8F710E94B51F4EC09E
:10350000DD23C9F38C2F8F710E94D61F47C0DD23A6
:1035100029F08C2F8F710E94A01F40C00E949B1F1A
:103520003DC0DD2349F0CF718C2F0E94B51F63E0B1
:103530008C2F0E94D32132C081E00E94EE211230F4
:1035400068F182E00E94EE2129C0DD2331F01123D1
:1035500091F2802F0E94401821C0112399F2093363
:1035600049F49FEFEDEEF2E09150E040F040E1F7DA
:1035700000C00000802F0E948E1810C04C2F4F708A
:10358000602FC7010E94D7050E94C61E0FC04C2F96
:103590004F70602FC7010E94DA0508C088EF8C0DBC
:1035A000843020F40E94C8160E94CE05DD20C9F0A8
:1035B0000E94202180FD15C0F70112820E941A216D
:1035C0000E94B51FC7010E94121B0E941A21DF91A1
:1035D000CF911F910F91FF90EF90DF90CF900C94BF
:1035E000D61FDF91CF911F910F91FF90EF90DF9049
:1035F000CF9008950F931F93CF93DF93EC016881D1
:1036000079818A810E94F7208C010E9452200E94B9
:10361000431FB801CE010E94E818DF91CF911F919E
:103620000F910895CF93DF93EC01988189812B81CD
:103630003C81232B31F08F3F31F481E09F3F19F41F
:1036400003C081E001C080E080FD19C0CE010E946E
:10365000600581110CC00E942421882381F08A8199
:10366000882369F082E0DF91CF910C94EE21CE01A6
:103670000E94FA1ACE01DF91CF910C943B05DF91A5
:10368000CF910895882321F00E945F210C949E2100
:10369000089580E090E00E94DF1680E090E00E94B4
:1036A000F5160E946C210E947C210C949E21809131
:1036B000790090917A000E9402230C94491B0E9489
:1036C0005C210C94571BE92FE295EF704E2F50E0D0
:1036D000FA013297EE30F105B0F4EF5BFF4F0C9436
:1036E0002327803F91F018F4883E68F40EC0843F91
:1036F00051F40BC0883E48F0813F29F406C093FB8B
:10370000882780F9089580E0089581E008950E9457
:10371000EC200E94631B0895CF93DF9300D000D06C
:103720001F92CDB7DEB70F900F900F900F900F90B4
:10373000DF91CF910895CF93DF9300D000D000D0D8
:10374000CDB7DEB726960FB6F894DEBF0FBECDBF5D
:10375000DF91CF9108951F93CF93DF93C0917201B2
:1037600016E080917301C81799F0D0E01C9FF0011A
:103770001D9FF00D1124EC58FE4F40815181628154
:103780007381848195810E949B1B2196C770E9CF2C
:10379000DF91CF911F9108954091A4015091A5010F
:1037A0006091A6017091A7018091A8019091A90153
:1037B0000C949B1B0F931F93CF93DF938091A901D0
:1037C00082958F7009F05DC08091A601882309F46D
:1037D00058C080917201109173016091A4017091A1
:1037E000A501C091A701D091A80191E06F3F09F018
:1037F00090E0292F06E0811709F443C0209721F0BB
:103800007F3F21F030E003C031E001C0322F90E073
:1038100030FD34C0089FF001099FF00D1124DF0135
:10382000AC58BE4F11963C911197371327C03C916D
:10383000361324C012963C91129731111FC0139673
:103840004D915C9114974C1B5D0B483C5105B0F4B5
:103850008091A9018F7080618093A901E758FE4F84
:1038600080818F708061808384EA91E00E94121BC6
:10387000DF91CF911F910F910C94AB1B0196877034
:10388000BACFDF91CF911F910F9108959F92AF9280
:10389000BF92CF92DF92EF92FF920F931F93CF933D
:1038A000DF93CDB7DEB761970FB6F894DEBF0FBEDA
:1038B000CDBF8C0185E0F801DE011D9601900D92CF
:1038C0008A95E1F7F80140815181E2809091A4014D
:1038D0006091A5012091A7013091A8012115310522
:1038E00031F06F3F31F481E09F3F19F403C081E074
:1038F00001C080E0F82FF1709F2E80FD46C1F801D5
:10390000A380B48084EAC82E81E0D82EF090A6016E
:10391000F501E21BF30BFF2009F4DFC08091A90140
:10392000E83CF10508F09BC0282F207F09F052C029
:10393000561313C0491311C0FE2CE1100EC08F7036
:1039400080618093A9010E94CC1BC6010E94121BBA
:103950008091A901F801858358C1AB2831F05F3F00
:1039600031F481E04F3F19F403C081E001C080E0F1
:1039700080FD03C081E08E2502C080E090E0F82F3A
:10398000F170FF2E80FF1CC08091720120917301A5
:1039900036E0821709F417C190E0389FF001399F93
:1039A000F00D1124EC58FE4F6181561306C0608162
:1039B000461303C06281E61203C001968770E9CF07
:1039C000FE2CEE2009F421C18091A9018160809331
:1039D000A9015AC0561306C0491304C0E11002C021
:1039E000F8019FC04D875E878D859E850E94871B4D
:1039F000882379F1EE2069F12091A901822F829527
:103A00008F7090E0029774F08091A4019091A501CD
:103A100098878F831986BB86AA862C87CE01079646
:103A20000E94121B86E0F801A4EAB1E001900D9219
:103A30008A95E1F70E94DA1B0E94CC1B0DC0561735
:103A400029F14D875E878D859E850E94871B811198
:103A50002CC0C8010E94121BFF24F394D6C0282F4B
:103A6000207F69F77A2DB98AA88A6E2D89890E94EC
:103A70008C1B84EA91E00E94121B86E0F6011192F1
:103A80008A95E9F70E94CC1BF12CBFC04913D9CF0E
:103A9000E110D7CFF8018583C8010E94121B86E090
:103AA000F60111928A95E9F7B0C0EE2091F22091CB
:103AB000A901822F82958F7090E002970CF4B2CF0B
:103AC0008091A4019091A5019A8389831B82BD8274
:103AD000AC822E83CE010196A3CFE83CF10508F01D
:103AE00047C0FE2CEE2009F4B4CF561330C0491362
:103AF0002EC02091A90120FD21C0822F82958F70B8
:103B0000482F50E041155105C9F0F80125834F3089
:103B1000510541F08F5F982F9295907F822F8F7083
:103B2000892B8583C8010E94121B86E0F801A4EA54
:103B3000B1E001900D928A95E1F742C086E0F8016C
:103B4000A4EAB1E001900D928A95E1F75EC04D873D
:103B50005E878D859E850E94871B811163CF809132
:103B6000A90181608093A901C8010E94121B4DC068
:103B70007A2DB98AA88A6E2D89890E948C1B86E0CD
:103B8000F60111928A95E9F71BC0EE2009F461CF86
:103B90004D875E878D859E850E94871BF82E882322
:103BA00009F457CF86E0F801A4EAB1E001900D9244
:103BB0008A95E1F784EA91E00E943A180E94DA1BA4
:103BC0000E94CC1B22C04D875E878D859E850E94FA
:103BD000EC20292F22952F70223028F49F7039F085
:103BE000811105C00BC0243028F49F7049F4805E19
:103BF000883020F0C8010E94121B9F2CF92C05C0B0
:103C0000F8019581907F99F7F9CF8F2D61960FB6C6
:103C1000F894DEBF0FBECDBFDF91CF911F910F9102
:103C2000FF90EF90DF90CF90BF90AF909F9008955E
:103C30001F93CF93DF93CDB7DEB72C970FB6F894D1
:103C4000DEBF0FBECDBF4F83588769877A878B87CA
:103C50009C87CE0107960E94461C8823D1F09F8145
:103C600088852A853B85232B31F08F3F31F481E015
:103C70009F3F19F403C081E001C080E080FD47C090
:103C80004F81588569857A858B859C850E949B1B11
:103C90003EC086E0FE013796DE01119601900D923E
:103CA0008A95E1F7FF81E8856A857B856115710555
:103CB00031F0EF3F31F481E0FF3F19F403C081E0C0
:103CC00001C080E080FD23C02091730130E0C90174
:103CD0000196877099274091720150E084179507EB
:103CE000F1F1F983EA837D836C8396E0929FD001A2
:103CF000939FB00D1124AC58BE4FFE013196019038
:103D00000D929A95E1F7809373010E94AB1B16E028
:103D10008091720190917301891771F1189FC00110
:103D200011248C589E4F0E94461C882329F1E09153
:103D300072011E9FF0011124EC58FE4F4081518109
:103D400062817381848195810E949B1B80917201A5
:103D500090E001968770992780937201D9CF0E94D5
:103D60005F1B1092730110927201E4EAF1E086E0A9
:103D7000DF011D928A95E9F72C960FB6F894DEBF05
:103D80000FBECDBFDF91CF911F910895EF92FF92AB
:103D90000F931F93CF93DF938C01892B09F46CC091
:103DA000F12CEE24E394E8012196F8018491843704
:103DB00040F4843008F051C0813081F0823019F134
:103DC0005BC0853709F444C0A8F19CE7980F903791
:103DD00008F052C08F770E948E1841C00E5F1F4FAF
:103DE000FE01849190E2980F983050F48770FE2D78
:103DF00001C0FF0F8A95EAF78F2F0E946F2114C030
:103E00000E9440182DC00E5F1F4FFE01849190E26A
:103E1000980F983060F48770FE2D01C0FF0F8A95CF
:103E2000EAF78F2F0E9475210E949E2119C00E94DF
:103E30008E1816C00E5F1F4FFE01C491CC2381F077
:103E400087EB9BE00197F1F700C00000C150F6CF6F
:103E50000E5F1F4FFE01F49003C00E9440188E01B8
:103E60008F2D882309F49FCFE7EBFBE03197F1F723
:103E700000C000008150F5CFDF91CF911F910F91CD
:103E8000FF90EF900895089508950C94441F0C94AA
:103E9000451F0E94471F6093CC017093CD01809312
:103EA000CE019093CF010C94491B0C94491F0F93A2
:103EB0001F930091CC011091CD012091CE01309142
:103EC000CF01602B712B822B932B1F910F910C94A0
:103ED000491F0F931F930091CC011091CD012091A8
:103EE000CE013091CF0160237123822393231F9150
:103EF0000F910C94491F0F931F930091CC011091C7
:103F0000CD012091CE013091CF016027712782270A
:103F100093271F910F910C94491F0C94441F0E94EA
:103F20008D1F6093C8017093C9018093CA0190935B
:103F3000CB010C94491B60E070E0CB010C948F1F07
:103F40000F931F9341E050E060E070E08A019B0115
:103F500004C0000F111F221F331F8A95D2F7C90119
:103F6000B8011F910F910C948F1F0F931F9341E085
:103F700050E060E070E004C0440F551F661F771FDB
:103F80008A95D2F78091C8019091C901A091CA0188
:103F9000B091CB018A019B01082B192B2A2B3B2BBB
:103FA000C901B8011F910F910C948F1F0F931F939C
:103FB00041E050E060E070E004C0440F551F661F10
:103FC000771F8A95D2F740955095609570958091AE
:103FD000C8019091C901A091CA01B091CB018A0199
:103FE0009B01082319232A233B23C901B8011F91F0
:103FF0000F910C948F1F0F931F9341E050E060E0EE
:1040000070E004C0440F551F661F771F8A95D2F7D2
:104010008091C8019091C901A091CA01B091CB01D2
:104020008A019B01082719272A273B27C901B801C4
:104030001F910F910C948F1F0F931F930091C80134
:104040001091C9012091CA013091CB01602B712BD5
:10405000822B932B1F910F910C948F1F0F931F9303
:104060000091C8011091C9012091CA013091CB0182
:1040700060237123822393231F910F910C948F1F30
:104080000F931F930091C8011091C9012091CA019B
:104090003091CB0160277127822793271F910F91C1
:1040A0000C948F1F08952CE0929F800D1124E82F0F
:1040B000E695E695E695877051E001C0550F8A9523
:1040C000EAF785E0E89FF0011124E655FE4F20E075
:1040D00030E070E04081CB01022E02C096958795BA
:1040E0000A94E2F781708195842785238427819340
:1040F0002F5F3F4F2530310569F708952CE0929FDF
:10410000800D1124682F669566956695982F977097
:1041100085E0689FB001112440E050E080E0FB01A1
:10412000E40FF51FE655FE4F208130E0092E02C056
:10413000369527950A94E2F721703327042E01C0A3
:10414000220F0A94EAF7822B4F5F5F4F45305105EB
:1041500031F70895BF92CF92DF92EF92FF920F93C3
:104160001F93CF93DF938C01C090C801D090C901F9
:10417000E090CA01F090CB018091CC019091CD01EB
:10418000A091CE01B091CF01C82AD92AEA2AFB2AF0
:10419000CFE1D0E0D701C6010C2E04C0B695A7959B
:1041A000979587950A94D2F780FD04C0219790F7E0
:1041B000B12C07C0BC2EB8018C2F0E94F6050197C8
:1041C000A9F38B2DDF91CF911F910F91FF90EF906D
:1041D000DF90CF90BF900895CF93DF93EC010E94C2
:1041E000AA20BE010E94F605DF91CF9108951F938A
:1041F000CF93DF93EB0190917101992321F0CB01D3
:104200000E94EC2013C0882349F0CB010E94AA2011
:10421000182F682FCE010E94532004C0CB010E94AA
:104220007E20182FBE01812F0E94F605DF91CF91CD
:104230001F9108958091D001859585958595089564
:104240008091D001877008959091D001977081E09E
:1042500009F480E008959091720292FB222720F9E0
:10426000281751F080FB92F99093720280917102AD
:10427000909172020C94312208958091720282FB17
:10428000882780F991E089270C942B2181E00C94F8
:104290002B2180E00C942B218091DC0108959091DA
:1042A000DC01892B8093DC01089580959091DC01DD
:1042B00089238093DC0108951092DC010895909188
:1042C000DB01892B8093DB01089580959091DB01C0
:1042D00089238093DB0108951092DB01089590916A
:1042E000DA01892B8093DA01089580959091DA01A3
:1042F00089238093DA0108951092DA01089580915C
:10430000D101089508950C9482210C9483219091F9
:10431000720292FD08C09091D101981721F080930C
:10432000D1010C94852108958091D101882329F031
:104330001092D10180E00C9485210895E0917900DC
:10434000F0917A008091DC018083E0917900F09116
:104350007A0090818091DB01892B8083E091790044
:10436000F0917A0090818091DA01892B808380918D
:10437000D101882381F0E0917900F0917A00908159
:10438000892B80838091790090917A000E94BC22D1
:1043900081110E9494218091790090917A000C946F
:1043A000D4160C9482219091720292FD10C098E074
:1043B000899F90011124262B2093D0010E94B51FC4
:1043C0008091D0018595859585950C94D1210C948B
:1043D000B51F1092D00180E00C94D1212091D00122
:1043E000809582238093D001982F977041F430E01C
:1043F000482F082E000C550B2417350721F49091F7
:10440000720292FF07C08595859585950E94D61FFB
:104410000C94E921089580E0089580E090E00E94E6
:10442000D12721E08A3E9E4F09F020E0822F089597
:1044300082E090E00C94C32783E090E00C94C327C3
:10444000CF9384E090E00E94C327C82F82E290E0DF
:104450000E94C3272C2F30E0A901582BCA01CF910D
:104460000895CF93C92F682F84E090E00E94D7274A
:104470006C2F82E290E0CF910C94D727AB01BC0166
:104480008FE090E00C94E827AB01BC0183E190E061
:104490000C94E82760E070E0CB010C94442260E0CB
:1044A00070E0CB010E943E220C944A226AEE7EEF1D
:1044B00080E090E00E94F42760E082E090E00E94BB
:1044C000D72760E083E090E00E94D7271092CC01CC
:1044D0001092CD011092CE011092CF0160E084E0E5
:1044E00090E00E94D72760E082E290E00E94D72708
:1044F00060E085E090E00E94D72760E086E090E0F1
:104500000E94D7276FEF87E090E00E94D72740E016
:1045100050E0BA0188E090E00E94E82760E08DE07A
:1045200090E00E94D72740E050E0BA0188E190E097
:104530000E94E82760E087E190E00E94D72740E0F2
:1045400050E0BA018CE190E00E94E82760E070E062
:1045500080E290E00E94F42740E050E0BA0188E158
:1045600090E00E94E8270C944F220C945622682F6A
:104570008EE090E00C94D727FC01329697E080E023
:10458000915029F021912223D9F38F5FF9CF08951B
:10459000662349F0FC01329608962191621729F0B2
:1045A000E817F907D1F780E0089581E008959C01AC
:1045B000FC0132969FEF80E04191461789F09F3FC2
:1045C00019F4411101C0982F8F5F8630A9F79F3FE2
:1045D00039F0F901E90FF11D97FDFA95628308950D
:1045E00008959C012A5F3F4FFC014281461301C0A0
:1045F0001282019682179307B9F708950C94D72277
:104600000C94F122029626E0FC0111922A95E9F71A
:10461000089508950C9409230C940923CF930E94C4
:104620000C230E9479080E940A23C0E08C2F0E946C
:104630000408892B29F4CF5FC430C1F780E001C0A2
:1046400081E0CF9108950C9409230C942323809149
:10465000DE01882341F00E94252380E00E94AC12F5
:1046600080E00C94CE0508950C9409230E945F1BF2
:104670000E9468110E94C8160E94CE050C94342333
:104680008BE083BF8BEB8CBF82E089BF08952FB78F
:10469000F8948091980290919902A0919A02B09119
:1046A0009B022FBF08952FB7F894609198027091E4
:1046B000990280919A0290919B022FBF08959C01CC
:1046C0004FB7F8948091980290919902A0919A0224
:1046D000B0919B024FBF821B930B089578941F9259
:1046E0000F920FB60F9211248F939F93AF93BF93A6
:1046F0008091980290919902A0919A02B0919B02A8
:104700000196A11DB11D8093980290939902A093E8
:104710009A02B0939B02BF91AF919F918F910F909E
:104720000FBE0F901F90189560E081E090E00E940E
:10473000FA2787E090EBDC018093EC029093ED0286
:10474000A093EE02B093EF029CE088E10FB6F894DC
:10475000A89581BD0FBE91BDFFCF90932501809399
:10476000240108950F931F93CF93DF930E94472353
:10477000EC010E9436170E9494268B9A80E08150AB
:1047800041F0A895E7EBFBE03197F1F700C000009E
:10479000F6CF8B9878940E9444170E94BC240E9404
:1047A000C316FFEB24ED31E0F15020403040E1F73B
:1047B00000C0000001E01CE08091C302882371F07A
:1047C0001092C3020E944723EC018091DE018823EE
:1047D00091F01092DE010E9436230DC08091DE011F
:1047E000811109C0CE010E945F23069720F000933B
:1047F000DE010E9427238091DE018823F9F00E94C8
:1048000027230E940E238823B9F2F89491B3939A38
:10481000892F8C6081BB82B3812782BB8FE5EAEE52
:10482000F0E08150E040F040E1F700C0000082B3CA
:10483000812782BB91BB93987894BECF0E949D251F
:104840008091C902882329F08091A70284FD0E94EB
:104850004E170E9463240E944017AECF80917002D1
:1048600008950895CF93DF9300D01F92CDB7DEB7A0
:104870009091E101981307C02091DF013091E00190
:104880002617370791F08093E1017093E001609360
:10489000DF0189837B836A838091E00284FF05C006
:1048A00063E0CE0101960E9499250F900F900F9022
:1048B000DF91CF910895BC0184E00C943224BC01B7
:1048C00083E00C943224CF93DF93CAE0D0E0809150
:1048D000A70284FF18C08091ED019091EE01981716
:1048E000E1F028E0829FC001112468E081519E4FD1
:1048F0000E9495258091ED0190E001968F70992797
:104900008093ED010AC00E949D2587EB9BE00197F3
:10491000F1F700C000002197D1F6DF91CF91089503
:10492000CF93DF93EC01A091EE01B0E0CD010196B1
:104930008F7099272091ED01281779F093E0AA0F45
:10494000BB1F9A95E1F7A151BE4F98E0FE0101907F
:104950000D929A95E1F78093EE010E949D250E94A9
:10496000632488E0FE01A5EEB1E001900D928A95E6
:10497000E1F7DF91CF9108958BE790E00895FC0176
:10498000808180768032A1F58181813061F48481DB
:104990009581892B69F585EE91E09093C50280930E
:1049A000C40288E00895823041F48FE692E090934B
:1049B000C5028093C40281E008958A3021F4838186
:1049C00080936F0215C0893099F48281938181159B
:1049D000924081F484819581892B61F481E08093F8
:1049E000E401868197819093E3018093E20102C004
:1049F00080E008958FEF08952091E2013091E30166
:104A0000232B71F02091E401213051F4FC018081CD
:104A1000809370021092E3011092E20181E0089508
:104A20008FEF08950895FC0193819330D9F068F4D5
:104A3000913081F0923009F054C088E195E0909374
:104A4000C5028093C4028BE30895913221F1923222
:104A500091F147C083E595E09093C5028093C4022D
:104A600082E108958281813071F028F08230C9F5A9
:104A700085E695E00AC08DE795E09093C5028093A6
:104A8000C40284E0089581E795E09093C502809385
:104A9000C4028AE008958281882329F0813009F5D3
:104AA00083E495E002C08AE295E09093C50280938A
:104AB000C40289E0089584819581009751F001979F
:104AC00081F481E895E09093C5028093C40282E36B
:104AD000089583EB95E09093C5028093C40280E42F
:104AE000089580E008951F93CF93DF93162FEA0176
:104AF000288124FF05C0398128E82327298302C0A3
:104B00002AE52883212FFC01CE010296DC01319198
:104B10003D9321501216DCF3612F0E9455031C5F58
:104B20001883DF91CF911F91089547EA52E00C94CA
:104B3000732540EE52E00C947325CF93DF93609180
:104B4000C602635067FD93C08091C202CCE0D0E002
:104B5000C81BD109C653DD4F8091C102803120F4BA
:104B6000CE010E94122581C08D3209F06EC06830DE
:104B700009F07BC083EC80939C028AE580938600D9
:104B80001092C0028881807621F0CE010E94BF245D
:104B900049C09A811092A5028981811106C01092A4
:104BA000A60225EA32E082E038C0853019F49093FD
:104BB000C70230C08630A1F48B81813041F0823051
:104BC00031F0833021F0813211F0823221F4CE01B4
:104BD0000E94132501C080E090E49093C00222C09F
:104BE000883089F0893019F49093C90213C08A3053
:104BF00069F08B3079F48BE48093A8028093E10212
:104C00008093B40207C029EC32E002C025EA32E00A
:104C100081E003C025EA32E080E03093C5022093B2
:104C2000C40209C08F3F39F4988197FD8E8190E8C6
:104C30009093C00207C09F81911104C09E81981774
:104C400008F4892F8093850010C08091C00287FFEF
:104C50000CC0CE010E94FC248F3F21F48EE1809392
:104C6000860003C08111109285001092C6028091C7
:104C7000860084FF4CC0809185008F3F09F447C0B7
:104C8000C82F893008F0C8E08C1B80938500909174
:104C90009C0288E8892780939C02CC2359F180915B
:104CA000C4029091C5022091C00226FF12C0ACE957
:104CB000B2E02C2FAC014C595240FA01EA0FFB1F15
:104CC000E4911196EC931197215011962111F5CF93
:104CD00008C0EDE9F2E0DC012C2F3D913193215029
:104CE000E1F701962FEF2C0F820F911D9093C502D3
:104CF0008093C4026C2F8DE992E00E945503CC5F33
:104D0000CC3019F08FEF80938500C093860084E14A
:104D100090B39C7031F48150D9F71092C702109271
:104D2000BF02DF91CF910895CF93DF9385B788605D
:104D300085BF8BB780688BBFC7EAD2E08BE48983DD
:104D4000A0EEB2E011968C931197E3EBF2E0818331
:104D50008AE588838C938083DF91CF910895DB016E
:104D60008F939F930E944727BF91AF91A29F800D81
:104D7000911DA39F900DB29F900D11240895991B32
:104D800079E004C0991F961708F0961B881F7A9542
:104D9000C9F78095089587FB082E062687FD819523
:104DA00067FD61950E94BF260EF4919507FC8195E1
:104DB0000895AA1BBB1B51E107C0AA1FBB1FA61762
:104DC000B70710F0A61BB70B881F991F5A95A9F7B4
:104DD00080959095BC01CD01089597FB072E16F4A0
:104DE000009407D077FD09D00E94D92607FC05D092
:104DF0003EF4909581959F4F0895709561957F4FF2
:104E00000895A1E21A2EAA1BBB1BFD010DC0AA1F0B
:104E1000BB1FEE1FFF1FA217B307E407F50720F023
:104E2000A21BB30BE40BF50B661F771F881F991F9E
:104E30001A9469F760957095809590959B01AC01E7
:104E4000BD01CF010895EE0FFF1F0590F491E02DF5
:104E500009940E943127332312F48A1B9B0B0C9474
:104E60004227A29FB001B39FC001A39F700D811D77
:104E70001124911DB29F700D811D1124911D089563
:104E80000E943127B7FF0895821B930B08950E945B
:104E90003127A59F900DB49F900DA49F800D911D6B
:104EA00011240895B7FF0C9447270E944727821BBF
:104EB000930B08958F929F92AF92BF92CF92DF9201
:104EC000EF92FF92CF93DF93EC01688179818A8121
:104ED0009B81611571058105910521F464E279EDED
:104EE0008BE597E02DE133EF41E050E00E94172879
:104EF00049015A019B01AC01A7EAB1E40E9447278E
:104F00006B017C01ACEEB4EFA50194010E94552722
:104F1000DC01CB018C0D9D1DAE1DBF1DB7FF03C075
:104F20000197A109B04888839983AA83BB839F779F
:104F3000DF91CF91FF90EF90DF90CF90BF90AF9037
:104F40009F908F9008950E945A27089580E690E0E0
:104F50000E945A270895A0E0B0E0809360009093EB
:104F60006100A0936200B09363000895FC0141507A
:104F7000504030F001900616D1F73197CF010895D7
:104F8000882799270895E199FECF9FBB8EBBE09AB1
:104F900099278DB30895A6E1B0E044E050E00C9469
:104FA0000928A8E1B0E042E050E00C940928262F3F
:104FB000E199FECF9FBB8EBBE09A01970DB202161E
:104FC00031F02DBB0FB6F894E29AE19A0FBE089526
:104FD0000396272F0E94D8270E94D727252F0E94AB
:104FE000D827242F0C94D8270196272F0E94D82742
:104FF0000C94D727262FE199FECF9FBB8EBB2DBBEC
:105000000FB6F894E29AE19A0FBE01960895DC017A
:10501000CB01FC01E199FECF06C0FFBBEEBBE09ADD
:1050200031960DB20D9241505040B8F70895052EBB
:1050300097FB1EF400940E942E2857FD07D00E9473
:10504000012707FC03D04EF40C942E285095409570
:10505000309521953F4F4F4F5F4F08959095809524
:10506000709561957F4F8F4F9F4F0895F894FFCFB4
:1050700001000000010102000500050501191A1BCD
:105080001C1D1E1F2021220601D2012E2490243136
:10509000245F245B24FF5AE200E900EA00B500B671
:1050A00000B700CD008301CC008A01920194012158
:1050B00002230224022502260227022A02B300B498
:1050C000006F00700081828334353637949596974F
:1050D00093929190606163640001020202020606ED
:1050E000060909090909090F0F0F0F0F0F151515EB
:1050F00018191919191919191919192324252525E8
:10510000252525E200E900EA00B500B600B700CD8C
:10511000008301CC008A0192019401210223022420
:10512000022502260227022A02B300B4006F007093
:0451300000818283F5
:00000001FF
