:100000000C9400030C9444030C945F030C9444037D
:100010000C9444030C9444030C9444030C94440344
:100020000C9444030C941F130C94CD240C9444039F
:100030000C9444030C9444030C9444030C94440324
:100040000C9444030C9444030C9444030C94440314
:100050000C9444038A128C129112941297129A12E1
:100060009D12731A731AA51AA51AF21A261C261CB9
:10007000261C101BA51BB61BB61B161C261C261CFB
:100080001F1CD01CD01CE21CE21CD91CE21CE21C70
:10009000E21CD01CD01CDE1CE21CE21CDE1C2C006E
:1000A000130000002C00120000002B0014001A00A6
:1000B0000800150017001C0018000C0012001300A7
:1000C0002A00290004001600070009000A000B009E
:1000D0000D000E000F0033002800E1001D001B0082
:1000E0000600190005001100100036003700380026
:1000F0003462E0000358E300E20001582C422C0077
:10010000E4005000510052004F0035003A003B001F
:100110003C003D003E0001002400250026000100B7
:10012000010001003F0040004100420043002E0258
:100130002100220023002D000100010044004500A1
:1001400046004700480025021E001F00200038001E
:100150002E00010001000100010001530100010017
:100160002700270037003600290035021E021F0233
:100170002002210222022302240225022602270253
:100180004C00010049004A004B00010001005000F2
:10019000510052004F002D02010001004C004D00A3
:1001A0004E00010001002F0230022F00300031000C
:1001B0003102010001000100010001000100010005
:1001C00002534A004E004B004D0001000100ED00BB
:1001D000F90001000100010001000100010001001F
:1001E00004530100EF00EE00F000010001000100E7
:1001F00001000100010001000100010001000100F7
:10020000FA000100010001000100010001000100ED
:1002100001000100035301000100F100F2000100A0
:10022000F300AB00AA00A900AE002B00005C1A008E
:100230000800150017001C003A003B003C003D0080
:10024000045329000400C05CC15C09000A000B00D3
:100250001E001F00200021000100E1001D00C35C02
:10026000C45C19000500110010003600370038008A
:10027000E100E000E200E300E6002C002C002C008E
:100280002C005000510052004F001E0F0500047F4B
:100290003F1F643214643214783C1E1E140A052277
:1002A00023252628292A2C2D2F3032333536383A6B
:1002B0003B3D3E4042434547494A4C4E50515355C1
:1002C00057595A5C5E6062646668696B6D6F7173E2
:1002D0007577797B7D7F81838587898A8C8E9092E3
:1002E0009496989A9C9E9FA1A3A5A7A8AAACAEAFEE
:1002F000B1B3B4B6B8B9BBBCBEBFC1C2C3C5C6C733
:10030000C9CACBCCCDCED0D1D2D2D3D4D5D6D7D7E3
:10031000D8D9D9DADADBDBDBDCDCDCDCDCDDDDDD2B
:10032000DDDCDCDCDCDCDBDBDBDADAD9D9D8D7D727
:10033000D6D5D4D3D2D2D1D0CECDCCCBCAC9C7C6D4
:10034000C5C3C2C1BFBEBCBBB9B8B6B4B3B1AFAE12
:10035000ACAAA8A7A5A3A19F9E9C9A9896949290B8
:100360008E8C8A89878583817F7D7B797775737190
:100370006F6D6B6968666462605E5C5A595755536D
:1003800051504E4C4A4947454342403E3D3B3A3826
:1003900036353332302F2D2C2A292826252322FFCB
:1003A000AA7F55400000000000000000000000018E
:1003B000010203040506080A0C0F1114181C20245E
:1003C000292E33393F464C535B626A7179818A9298
:1003D0009AA2AAB2B9C1C8CFD5DCE1E7EBF0F4F735
:1003E000FAFCFDFEFFFEFDFCFAF7F4F0EBE7E1DCC2
:1003F000D5CFC8C1B9B2AAA29A928A8179716A622C
:100400005B534C463F39332E2924201C1814110FFE
:100410000C0A0806050403020101000000000000A8
:1004200000000000000101010101010101010202BF
:100430000202020202020203030303030303030492
:10044000040404040404050505050506060606065D
:10045000070707070708080808090909090A0A0A17
:100460000B0B0B0C0C0C0D0D0D0E0E0E0F0F0F10B9
:100470001011111112121313141415151616171743
:10048000181819191A1A1B1B1C1D1D1E1E1F2020AF
:10049000212222232424252626272829292A2B2CF9
:1004A0002D2D2E2F30313232333435363738393A1C
:1004B0003B3C3D3E3F404142434445464748494A14
:1004C0004C4D4E4F50515354555658595A5B5D5EE2
:1004D0005F616264656668696B6C6D6F707273757D
:1004E00077787A7B7D7E8082838587888A8C8E8FE1
:1004F00091939596989A9C9EA0A2A3A5A7A9ABAD0F
:10050000AFB1B3B5B7BABCBEC0C2C4C6C9CBCDCFFC
:10051000D1D4D6D8DBDDDFE2E4E7E9EBEEF0F3F5AA
:10052000F8FAFDFF09023B00020100A032090400B5
:10053000000103010100092101010001224000071F
:1005400005810308000109040100010300000009FE
:100550002101010001223200070583030800011276
:1005600001100100000008504B4000000201020091
:10057000010A034A004A003400300000000A0372F6
:100580000077006B00620000000403090405010904
:1005900080A101850319012AB700150126B700952E
:1005A0000175108100C0050C0901A1018504190124
:1005B0002AA002150126A002950175108100C00530
:1005C000010906A101050719E029E7150025019594
:1005D0000875018102950175088103050719002935
:1005E000FF150026FF009506750881000508190112
:1005F0002905950575019102950175039103C000C8
:1006000011241FBECFE5D8E0DEBFCDBF04B603FE88
:1006100024C08091090390910A03A0910B03B0912B
:100620000C038730904BA740B04BB9F410920903EC
:1006300010920A0310920B0310920C0314BE84B79D
:10064000877F84BF0FB6F894A89581B5886181BD76
:1006500011BC0FBEE0E0F8E3099511E0A0E6B0E0C0
:10066000EEE2F3E502C005900D92AE32B107D9F784
:1006700023E0AEE2B1E001C01D92A930B207E1F77C
:100680000E9411250C9495290C940000A82FB92FD5
:1006900080E090E041E050EA609530E009C02D91A3
:1006A00082279795879510F084279527305EC8F3A9
:1006B0006F5FA8F30895EADF8D939D930895CF931C
:1006C000CFB7CF93C395839BE9F7839B0EC0839BE2
:1006D0000CC0839B0AC0839B08C0839B06C0C0914B
:1006E000E002C395C093E002A6C0DF93C091DF0291
:1006F000DD27C951DD4F839B02C0DF91E6CF2F93E9
:100700000F931F9300B32FEF03FB20F94F933F93F9
:1007100010B34FEF012703FB21F93BE031C04E7FBF
:10072000012F10B3216028C0102F4D7F22600000E0
:1007300000B329C04B7F2460012F000010B32BC0F1
:1007400010B3477F28602AC04F7E00B320612CC0C1
:100750004F7D10B320622FC04F7B00B3206432C0A6
:10076000422700B349934FEF0000102713FB20F9F5
:1007700010B31C70C9F1297F91F2012703FB21F905
:1007800000B3237F89F2315058F1102713FB22F96F
:1007900010B3277E79F2012703FB23F92F7C81F226
:1007A00000B3102713FB24F92F7971F200C010B3A6
:1007B000012703FB25F92F7359F200C000B310275E
:1007C00013FB26F9223040F200C010B3012703FBCF
:1007D00027F9243028F64F77206810B30000F9CFAE
:1007E00010E81ABF00271CC03B503195C31BD040F6
:1007F00010E81ABF0881033C11F10B3401F120917C
:10080000DC021981110F1213EDCF4A81441F093602
:1008100069F10D3211F0013E29F74F7009F0042FF4
:100820000093E5023F914F911F910F912F91DF911E
:10083000CAB7C7FD47CFCF91CFBFCF9118952091B1
:10084000E502222379F31091E302112309F044C059
:1008500034300AF443C03093E3022093DE02109157
:10086000DF023BE0311B3093DF0238C00091E3022E
:10087000013094F50AE54F7049F43091900034FD51
:100880002FC000939000C9EBD2E02EC0433059F046
:10089000443091F03091C40234FD22C00093C40270
:1008A000C5ECD2E021C03091FD0234FD19C00093A7
:1008B000FD02CEEFD2E018C03091D00234FD10C05E
:1008C0000093D002C1EDD2E00FC02795A8F451509B
:1008D000A9F4220F0000F9CF4AE503C042ED01C0A0
:1008E000432FC4E1D0E032E011B31C60939A11BBF6
:1008F00002B320E41CE05F93012756E002BB27957A
:1009000020F4515021F4220FF9CF012756E00000C6
:100910003B5A02BBD0F2279528F4515029F4220FFC
:100920000000F9CF012756E0279502BB20F4515073
:1009300021F4220FF9CF012756E02991332302BB7E
:1009400021F6037F1091E402110FC651D04002BB83
:1009500011F01093DC0210E81ABF086011B3137F86
:10096000402F437F5F9100C000C002BB11BB42BB60
:1009700059CF009719F0019731F00895662349F097
:1009800086E091E004C0662321F089E191E00C94B7
:10099000230508959C013A9521153F4138F5DC0166
:1009A000AA27B270AC01442754709C0122273870EA
:1009B00094FF0FC090FF02C080E101C080E0AB2B2C
:1009C00009F08062452B09F08064232B69F0806870
:1009D0000BC0892F8170AB2B09F08260452B09F089
:1009E0008460232B09F08860FB0109940895CF935C
:1009F000DF93EC01805E9109089710F0209719F4BD
:100A000062E37AE102C06AE97CE1CE010E94CA0495
:100A10008C2FDF91CF910C949819CF93DF93EC0139
:100A20000E94E619CE01805E9109089710F0209788
:100A300019F469E37AE102C061EA7CE1CE01DF9159
:100A4000CF910C94CA04CF93DF93EC010E94F7047A
:100A5000CE01DF91CF910C940D0581E0089581E0E6
:100A600008950C942F0508950C9433051F93CF938C
:100A7000DF9300D000D01F92CDB7DEB749835A83F1
:100A80006B8330918E0189819A81311114C0662364
:100A900059F0222349F00E940922182F682F8981DA
:100AA0009A810E94B22103C00E94DD21182F698122
:100AB0007A81812F04C00E94092269817A810F9076
:100AC0000F900F900F900F90DF91CF911F910C948A
:100AD0001206FC01262F408151816281738184813D
:100AE0000C943605CF93DF93EC0160E00E9469051A
:100AF000BE01DF91CF910C9434050E9417080E942B
:100B00008A130C9454080E94FB150C945008089505
:100B10000E94BE1C0E9487052FEB87E299E02150BE
:100B200080409040E1F700C000000C94F3240F9344
:100B30001F93CF93DF938C0161E00E946905EC0164
:100B4000B8010E943105882309F452C0B801CE01D2
:100B50000E947B12882309F44BC0B801CE010E9489
:100B60002816882309F444C0B801CE010E942D1430
:100B70008823F1F1B801CE010E947F148823C1F1CE
:100B8000B801CE010E94AA15882391F1B801CE01C7
:100B90000E949210882361F1F8018281882309F173
:100BA000CB358DE5D807C1F050F4C115FCE5DF0762
:100BB00081F0CF3DDC45A9F40E94142419C0CC3546
:100BC000EDE5DE0761F0CD35DD4559F40E949C224C
:100BD00008C00E9488050CC00E94A52202C00E9485
:100BE000A822C801DF91CF911F910F910C942D0580
:100BF00080E0DF91CF911F910F91089508950C949B
:100C0000FE0581E008950C940106CF93C82F0E9441
:100C1000FF058C2F0E940306CF91089580E090E09D
:100C20000895089520E3829FC0011124FC012CE067
:100C3000729FE00DF11D1124E60FF11DEE0FFF1F55
:100C4000E655FF4F859194910895880F991FFC01F7
:100C5000E657FD4F859194910895CF93DF930E94BD
:100C600012060E943F07EC018115904508F043C031
:100C7000C11580E4D80708F0CBC0C03ED10528F5E7
:100C8000C03CD10508F0B3C0C83AD10578F4C53AE4
:100C9000D10508F0A4C0C130D10509F4ECC008F4B6
:100CA000E8C0C430D10508F0E6C0E3C0CF3BD105B1
:100CB00008F0DFC0C85AD0E0CC0FDD1FCF56DF4FA1
:100CC0000990D881C02DD464D6C0C11590E2D9074F
:100CD00050F4C11521E0D20708F0CDC0C83ED105BF
:100CE00008F4C9C0C6C0C11580E3D80708F086C0A3
:100CF000CE019F707FC0C11595E5D90708F043C0AC
:100D0000C11524E5D20708F09AC0C11582E5D807BD
:100D100008F5C11591E5D90708F07DC0CE0174E052
:100D2000969587957A95E1F783709C2F937021E0D3
:100D300030E002C0220F331F9A95E2F73C68382B4F
:100D4000CF70C695C69580E2C89FE0011124C22BE2
:100D5000D32B91C09E01237033278C2F86958695C7
:100D6000C115D34508F05CC0C1E0D0E002C0CC0F93
:100D7000DD1F2A95E2F720E2829FC0011124C82BD3
:100D8000D92BDC6878C0C11529E5D207A0F4C115BC
:100D900088E5D80708F058C0C11596E5D90708F0CE
:100DA00068C08C2F0E94D3078F71C82FD0E0DC2F32
:100DB000CC27D06260C0C1152AE5D20708F449C02B
:100DC000CE0190568115904208F053C08D2F8F713F
:100DD0000E94D307DD27D0628F71D82B4CC0C55A33
:100DE000D0E0C154DF4FC881D0E0D06444C0CE0110
:100DF000805C91090E942506EC013DC0CE01992737
:100E0000D3FF03C0EC01D86C36C0EC01D06C33C00A
:100E1000DF70D06A30C0DC2FCC27C16FD06A2BC006
:100E2000C1E0D0E002C0CC0FDD1F2A95E2F720E23E
:100E3000829FC0011124C82BD92BDA681CC0DC2F7B
:100E4000CC27C46FD06A17C0DC2FCC27C06FD06A04
:100E500012C08C2F8F700E94D30794E0D695C7954F
:100E60009A95E1F7CF70D0E0DC2FCC27D069C82B62
:100E700002C0C0E0D0E0CE01DF91CF91089582386A
:100E8000910569F1B0F48133910509F46DC048F41E
:100E90008932910509F463C08A32910509F469C069
:100EA00008958533910509F455C089339105B9F04A
:100EB0000895833E910569F138F4803E9105B1F0C3
:100EC000823E910509F10895863E9105A9F1873E7C
:100ED0009105B9F1843E910509F064C023C02091C9
:100EE0008E0220FD4FC021FD4DC0089580918E02DD
:100EF00080FD44C080918F0280FF44C080918E02AB
:100F000084FD42C083EE4DC080918E0282FF38C0C6
:100F1000F5CF80918E0282FD33C080918F0280FDDB
:100F200031C0ECCF80918F0281FF32C080918E0260
:100F300084FD2AC087EE35C080918E0283FF26C0D3
:100F4000F5CF80918E0283FD21C080918F0281FDBB
:100F50001FC0ECCF80918E0285FD1CC01DC080910A
:100F60008E0285FD19C016C080918E0286FD16C0C6
:100F700017C080918E0286FD13C010C089E311C096
:100F800082EE0FC080EE0DC080E00BC086EE09C07F
:100F900084EE07C089E205C085E303C08AE201C090
:100FA00081E390E0089590918E0292FF0DC0282F6A
:100FB0002871283019F4877F846006C0282F247197
:100FC000243011F48B7F886093FF0DC0282F287187
:100FD000283119F4877E846106C0282F24712431BA
:100FE00011F48B7E886120918F0220FF0DC0382F75
:100FF0003871383019F4877F816006C0382F31711D
:10100000313011F48E7F886021FF0DC0282F2871A8
:10101000283119F4877E816106C0282F2171213182
:1010200011F48E7E886194FD877E089508950E9454
:101030006C23811102C00E9414240E9477238093A4
:10104000FA010E947F2390938F0280938E020E9468
:1010500016080E947B23682F70E080E090E00E94D9
:10106000B4206091E5017091E6018091E7019091D3
:10107000E8010C94EC20E82FF0E0EE0FFF1FE8569B
:10108000FD4F808191810895089588E78A95F1F751
:10109000089500C008950C94450808950C944D08D7
:1010A0000C944E080C944D080C945208F894E82FB8
:1010B000E295EF70F0E031A9282F2F7081E090E0E9
:1010C00001C0880F2A95EAF7982F9095932391AB4A
:1010D00092A9892B82AB789408950F931F93CF9395
:1010E000DF9380E60E94560881E60E94560883E658
:1010F0000E94560884E60E945608C2ECD0E00EEC2E
:1011000010E089910E9456080C171D07D1F7109224
:1011100091021092900210929902109298021092ED
:1011200093021092920210929B0210929A021092D5
:1011300095021092940210929D0210929C021092BD
:1011400097021092960210929F0210929E0284E0E3
:101150000E943E09DF91CF911F910F910C947D0564
:101160007F928F929F92AF92BF92CF92DF92EF9237
:10117000FF920F931F93CF93DF93CEECD0E080E9E3
:10118000A82E82E0B82E98E9E92E92E0F92E712C73
:1011900001E010E06E018881F894E82FE295EF708D
:1011A000F0E021A98F70A80102C0440F551F8A9555
:1011B000E2F7CA01922F982B91AB92A980958923CF
:1011C00082AB78940E944908E2ECF0E020E030E045
:1011D000812C912C4191A42FA295AF70B0E0D096B4
:1011E0008C9190E04F7002C0959587954A95E2F7F3
:1011F00080FD08C0C801022E02C0880F991F0A9402
:10120000E2F702C080E090E0882A992A2F5F3F4FE2
:101210002C303105F9F62196F60180810E9456089E
:101220000E944B08F501808191818816990621F072
:101230009182808281E001C080E0782AF2E0AF0EE6
:10124000B11CEA14FB0409F0A5CF272D44E068E99E
:1012500072E080E992E00E943F090E948305872D99
:10126000DF91CF911F910F91FF90EF90DF90CF9082
:10127000BF90AF909F908F907F9008950895FF92B8
:101280000F931F93CF93DF93F82E092F162FD72F8D
:10129000C42F222349F081E0809332010E94A624CA
:1012A0009093310180933001809132018823D9F0ED
:1012B00080913001909131010E94BE24069798F0F0
:1012C000EF2DF02FA12FBD2F80E090E04C2F50E0AC
:1012D0008417950734F4219131912D933D93019614
:1012E000F7CF10923201DF91CF911F910F91FF90B4
:1012F0000895EF92FF920F931F93CF93DF938B018B
:10130000682F11110AC0442329F0E82FF0E0EC5DAA
:10131000FB4F6491762F862F75C0212F30E0E82F88
:10132000F0E0442321F0EC5DFB4FE491F0E046E077
:10133000049FC0011124CFEFD0E0BE010E943828E5
:101340004BEA4603C001479F900D1124800F911D69
:10135000800F911D982F990F890FAE01421B530BDF
:101360004E9FD0014F9FB00D5E9FB00D11249B2F5B
:10137000189FA0011124452F55278E01041B150B22
:101380000E9FA0010F9F500D1E9F500D11247E0136
:10139000E81AF108E29E8001E39E100DF29E100D06
:1013A0001124212F3327C21BD30BCE9F9001CF9F37
:1013B000300DDE9F300D112462307105A9F048F424
:1013C0006115710569F061307105C9F48B2F752FB6
:1013D0000DC06430710581F058F06630710579F404
:1013E0007E2F8B2F932F0DC0832F7B2F9E2F09C015
:1013F0008E2F7B2F952F05C08E2F732F02C07E2F2F
:10140000852F692FDF91CF911F910F91FF90EF9062
:10141000089541E00E947909089508950E94090AFB
:101420000895CF93DF93762FE901682F842F0E94D0
:101430000E0A798368838A83DF91CF910895809122
:10144000A002282F269530E02115310519F481706E
:10145000826005C02B32310524F081708465809351
:10146000A002089588E090E00C942A29CF92DF92A0
:10147000EF92FF926B017C010E941F0AB701A60147
:1014800088E090E0FF90EF90DF90CF900C94472998
:10149000E0EAF2E083E0808311828FEF828383832E
:1014A000148260817181828193810C94360A8091CB
:1014B000A00280FF02C08695089580E00895909173
:1014C000A402933018F49F5F9093A402882351F0F4
:1014D0006091A0027091A1028091A2029091A3025A
:1014E0000C94360A089581E00C945F0A9091A4024E
:1014F000992319F091509093A402882351F06091A0
:10150000A0027091A1028091A2029091A3020C947A
:10151000360A089581E00C94760A70E00C949C13CE
:10152000609172008091A00280FF0AC080917100DA
:1015300023E0829FC00111248B559D4F0C948D0A8E
:101540008091730090917400891780F7E82FF0E084
:101550009F01220F331FE20FF31FEB55FD4F118246
:10156000108212828F5FF0CF9091A00290FF16C080
:101570009091730020917400921770F4E92FF0E0BD
:10158000DF01AA0FBB1FEA0FFB1FEB55FD4F818345
:10159000608342839F5FF0CF0C94900A0895CF93AD
:1015A000DF9300D01F92CDB7DEB79091A00290FFDD
:1015B0000AC09E012F5F3F4F0E94110A4B81698133
:1015C0008A810E94B40A0F900F900F90DF91CF9103
:1015D0000895CF93DF93EC01EC81F0E0E156FD4FED
:1015E0004491E0EAF2E0628181810E94CF0A8C811D
:1015F0008F5F8C83DF91CF910895CF93DF93EC01C0
:10160000E0EAF2E0438162818C810E94CF0A8C8102
:101610008F5F8C83DF91CF9108950F931F93CF93AA
:10162000DF9300D01F92CDB7DEB78C0180913301DC
:1016300081110AC09E012F5F3F4F4FEF6FEF0E9455
:10164000110A8A8180933301F8018481813051F03D
:1016500028F0823061F4409133010AC08091330157
:1016600040E007C06091330140E080E003C040E00B
:1016700080E060E00E94B40AF801848190E0019665
:1016800063E070E00E944C2884830F900F900F90CD
:10169000DF91CF911F910F910895AF92BF92CF929A
:1016A000DF92EF92FF920F931F93CF93DF9300D0BF
:1016B0001F92CDB7DEB7182FF62E042FE22E909191
:1016C000A00290FF6DC0E92FE695AE2FB0E0AE52BC
:1016D000BF4F8C91809356019E7F923061F49E01A2
:1016E0002F5F3F4F812F0E94110A4B8169818A81B0
:1016F0000E94B40A43C0823019F40091A3023EC094
:10170000863019F41091A10239C08930D9F389319A
:10171000A9F5E9518E2F8170D82EE695F0E0E156BB
:10172000FC4FA590B490C12CBB2460917500C616E7
:1017300018F52C2D30E0A29EC001A39E900DB29E04
:10174000900D112470E00E943828812FD11002C022
:10175000860F01C0861B90917300290F311DA901CE
:10176000440F551F240F351F2B553D4F402F6F2D14
:101770000E94110AC394D9CF0E94900A1093A1022B
:10178000F092A2020093A302EE2051F06091A00219
:101790007091A1028091A2029091A3020E94360A48
:1017A0000F900F900F90DF91CF911F910F91FF90AD
:1017B000EF90DF90CF90BF90AF900895E0EAF2E015
:1017C0009181282F4381628188E0890F0C944D0B11
:1017D00081E00C94DE0BE0EAF2E09181282F438156
:1017E000628188EF890F0C944D0B81E00C94EB0B18
:1017F000E0EAF2E0628121E1620F08F46FEF282F46
:10180000438181810C944D0B81E00C94F80BE0EA4C
:10181000F2E0628121E1621B08F460E0282F43813D
:1018200081810C944D0B81E00C94070CE0EAF2E00E
:10183000438121E1420F08F44FEF282F628181811B
:101840000C944D0B81E00C94160CE0EAF2E043811D
:1018500021E1421B08F440E0282F628181810C9431
:101860004D0B81E00C94250C20E00C944D0BFF9265
:101870000F931F93CF93DF93EC01F12C0FEF10E048
:1018800060917500F616F0F4809173002F2D30E012
:10189000280F311DC901880F991F280F391F2B559B
:1018A0003D4F70E0C8010E944C28962F8C814091DA
:1018B000A3026091A202F99E800D11240E94110AD8
:1018C000F394DECF0E94900A9A818C8190FF02C02F
:1018D0008F5F01C081508C83DF91CF911F910F9159
:1018E000FF900895AF92BF92CF92DF92EF92FF9256
:1018F0000F931F93CF93DF93FC01828180FF02C07F
:101900000FEF01C001E010E045E0A42E80917500CA
:10191000181708F043C080917300C12ED12CE60146
:10192000C80FD11DCE01880F991FC80FD91FCB55E5
:10193000DD4F198218821A8234E0E32EF12CB12C8B
:10194000809135018B0D86302CF06A2D0E942A285B
:10195000892F05C087FF03C090917500890F082E5D
:10196000000C990BC816D90691F48091A3028E9DA4
:10197000A0018F9D500D112455954795559547957C
:101980009E016091A2028091A1020E94110AB00EF4
:10199000F1E0EF1AF108A1F61F5FB8CF0E94900A9C
:1019A00080913501013031F4811102C080917500C0
:1019B000815007C090E001966091750070E00E9430
:1019C0004C2880933501DF91CF911F910F91FF90AB
:1019D000EF90DF90CF90BF90AF900895CF9380911C
:1019E000730090917400891770F4E82FF0E09F0164
:1019F000220F331FE20FF31FEB55FD4F11821082B0
:101A000012828F5FF0CFC0E060917500C617C0F5FD
:101A1000EC2FF0E070E0CF010E944C282091730081
:101A2000820F20913401022E000C330B90E0E2175C
:101A3000F307CCF020917000022E000C330B2E1710
:101A40003F078CF09C01220F331F820F931F9C01D4
:101A50002B553D4F4091A3026091A2028091A102BB
:101A60000E94110A0BC0FC01EE0FFF1F8E0F9F1F7B
:101A7000FC01EB55FD4F118210821282CF5FC4CF63
:101A80000E94900A20916F0080913401820F809310
:101A9000340190917000920F9093700019165CF4CD
:101AA000082E000C990B4091750050E041505109EF
:101AB000841795071CF0219520936F00CF9108950E
:101AC0008F929F92AF92BF92CF92DF92EF92FF924E
:101AD0000F931F93CF93DF938C01FC014481C42F9C
:101AE000D0E09E01DE010E9490289B01AC010E9483
:101AF000A6286B017C01E0E2F0E0EC1BFD0BA5E504
:101B0000B0E09B01AC010E94A6284B015C019F0143
:101B1000DF010E9488289B01AC010E94B1289B0133
:101B2000AC012C0D3D1D4E1D5F1DC501B4010E9471
:101B30006028C22FD22F2A3228F4F3E02F9F900181
:101B400011240DC025E530E02C1B3109C901880F97
:101B5000991F280F391F37FF02C02F5F3F4F359560
:101B60002795C22FC095F12C85E5E82EED1A8091BE
:101B70007500F816C8F4F1FC02C08E2D01C08D2F3F
:101B8000909173002F2D30E0290F311DA901440FD2
:101B9000551F240F351F2B553D4F4C2F6091A2022E
:101BA0000E94110AF394E3CF0E94900AF801848105
:101BB000811102C091E003C0803219F49FEF90932D
:101BC0006E0090916E00890FF8018483DF91CF91B0
:101BD0001F910F91FF90EF90DF90CF90BF90AF904B
:101BE0009F908F9008950F931F93CF93DF93EC01F5
:101BF00000E010E080917500282F30E002171307F5
:101C000024F5909173009801290F311DA901440F0B
:101C1000551F240F351F2B553D4F869590E04C8165
:101C2000081719071CF4442331F002C0411103C006
:101C30004091A30201C040E06091A2028091A10204
:101C40000E94110A0F5F1F4FD5CF0E94900A8C810E
:101C500090E00196817099278C83DF91CF911F913D
:101C60000F9108957F928F929F92AF92BF92CF92E1
:101C7000DF92EF92FF920F931F93CF93DF93FC01BC
:101C80008280748081E08483EFE9F2E09490EEE159
:101C9000F3E0E491A12CF5E0BF2ECC24CA94D12C22
:101CA000E9190E2F10E080917500A81608F0A2C067
:101CB000EA2CF12C22E0281568F0BE9CF001BF9CB4
:101CC000F00D1124EA5CFE4F8091A1028083809187
:101CD000A202818371100AC0BE9CF001BF9CF00D6E
:101CE0001124EA5CFE4F138212826AC0BE9CE0019E
:101CF000BF9CD00D1124CA5CDE4F8B818823F9F084
:101D000081508B832FEF829FC00111246C8170E082
:101D10000E943828FB01FF27E156FD4F8491E82FF0
:101D2000E9192FEFE29FC0011124B8010E94382861
:101D30008091A302689FB00111247A8341C00E9460
:101D400005292091A3022695215830E0A901440FCE
:101D5000551F322F2227240F351F232F3327821799
:101D6000930774F582E0881588F40E940529B6016E
:101D70000E944C2888830E9405292091A202269562
:101D8000622F70E00E944C28280F2983BE9CF0012E
:101D9000BF9CF00D1124EA5CFE4F12828091A302D9
:101DA000843120F0893C18F088EC01C084E1BE9CAD
:101DB000F001BF9CF00D1124EA5CFE4F8483838305
:101DC000809173009701280F311DC901880F991F59
:101DD000280F391F2B553D4FBE9CF001BF9CF00DC5
:101DE0001124EA5CFE4F4281618180810E94110AC8
:101DF000A39459CFDF91CF911F910F91FF90EF9056
:101E0000DF90CF90BF90AF909F908F907F900C9479
:101E1000900AE0EAF2E080818E7F808360817181A8
:101E2000828193810E94360A109257012FEB84ED34
:101E300091E0215080409040E1F700C000000C94F8
:101E4000900A6091A002669570E04BE050E086E752
:101E500090E00E941529892B19F481E080935701A5
:101E60000E94A6249093500180934F010895909171
:101E7000A00290FF35C09170811102C0926006C02F
:101E80008B3210F0946502C0880F982B9093A002BB
:101E9000662351F06091A0027091A1028091A2028C
:101EA0009091A3020E94360A6091A002669570E0AC
:101EB0004BE050E086E790E00E941529892B19F04D
:101EC0001092570102C00E94210F81E080935201BD
:101ED0004091A3026091A2028091A1020C94340C63
:101EE0000895682F9091A002969581E0890F8B321A
:101EF00008F081E00C94370F81E00C94710F682F8B
:101F00009091A00296958FEF890F09F48AE20C94C4
:101F1000370F81E00C947F0F61E00C94370FE0EAFB
:101F2000F2E080818160808386950C948C0F809193
:101F3000A00280FD0C94090F0C948F0F60E00C94AC
:101F4000370F8091550181112EC00E946C238111A1
:101F500004C00E9414240E94480A0E94320A60931E
:101F6000A0027093A1028093A2029093A3026E7FBD
:101F700061F40E94480A0E94320A6093A0027093A2
:101F8000A1028093A2029093A3020E941F0A1092C2
:101F900057018091A00280FF03C086950E949E0F8A
:101FA00081E08093550108950F931F93CF93DF93A2
:101FB00080915701882309F495C080915601E091E2
:101FC000A002E695E81BE0935101823049F4F0E06D
:101FD000E556FD4FE491CE2FD0E009EE1AE059C04E
:101FE000863049F4F0E0E856FD4FE491CE2FD0E082
:101FF0000DEF1AE04EC0893051F4E695F0E0EB5653
:10200000FD4FE491CE2FD0E007E31CE042C08F30BB
:1020100051F4E695F0E0EE56FD4FE491CE2FD0E07E
:1020200002E71CE036C0853149F4F0E0E157FD4F8E
:10203000E491CE2FD0E00EEE1CE02BC08831D9F019
:10204000833239F4EDE8F2E0C591D4910DE01BE064
:1020500020C08432A9F08532C1F48E2F63E00E9443
:102060001E28E92FF0E0E657FD4FE491CE2FD0E097
:1020700002E31EE00EC0C8E2D0E000E61DE009C0A9
:10208000C4EFD1E003EF1DE004C0C0EDD7E00DE0E8
:102090001AE080915201882361F0109252010E944F
:1020A000A6249093500180934F01109254011092F6
:1020B00053010E94A624E0914F01F09150018E1B24
:1020C0009F0B8F3F9F4770F4EC0FFD1FF093500163
:1020D000E0934F018FE491E0F801DF91CF911F91E0
:1020E0000F910994DF91CF911F910F91089588234B
:1020F00011F0FA0101C0FB010994CF93DF93C82FBF
:10210000D62F0E94570A8C1740F00E94570A8D174D
:1021100020F4DF91CF910C947C0F8C2FDF91CF9125
:102120000C948C0F1F93CF93DF93FB01128111232B
:1021300009F4C1C0EC010E94AB228272CD3CFCE5E7
:10214000DF0709F49BC008F043C0C73CECE5DE079D
:1021500009F480C0D8F4C43C9CE5D90709F46DC0EB
:1021600038F4C33CDC4509F0A7C00E94970F6BC050
:10217000C53C9CE5D90709F468C0C63CDC4509F0BC
:102180009BC045EF5BE068EE7BE05BC0CA3CFCE5D2
:10219000DF0709F469C070F4C83CECE5DE0709F418
:1021A0005EC0C93CDC4509F087C044E05CE063E107
:1021B0007CE047C0CB3C9CE5D90709F45AC0CC3C35
:1021C000DC4509F079C04AE85AE063E77AE039C0B3
:1021D000C23DFCE5DF0709F45EC098F4CF3C9CE506
:1021E000D90709F452C008F44EC0C03DFCE5DF0732
:1021F00009F44EC0C13DDC4509F05EC06EE089E0E7
:1022000057C0C53D9CE5D90709F44BC058F4C33D00
:10221000FCE5DF0709F442C0C43DDC4509F04CC0D1
:1022200088E143C0C63D9CE5D907F1F1CE35DD45D7
:1022300009F042C06AE285E23BC049E85FE06CE732
:102240007FE00E94771010E037C04CE75FE069E85C
:102250007FE0F7CF48EE5BE065EF7BE0F2CF43E154
:102260005CE064E07CE0EDCF41E35CE062E27CE0D6
:10227000E8CF42E25CE061E37CE0E3CF43E75AE091
:102280006AE87AE0DECF81E010C065E082E010C04D
:1022900068E086E00DC064E18FE00AC067E185E197
:1022A00007C062E289E104C083E20E948C0FCBCFB9
:1022B0000E947D10C8CF11E0812FDF91CF911F9137
:1022C000089586E090E00C942229682F86E090E043
:1022D0000C9436298091B402847081668093B40294
:1022E0000C9465118091B402869586958695089523
:1022F0008091B40281FD07C082608093B4020E9485
:1023000065110C940E1308958091B40281FF07C0EB
:102310008D7F8093B4020E9465110C941813089568
:102320008091B40281FD0C9484110C9478118091F9
:10233000B4028695817008958091810008950E946D
:102340006C23811104C00E9414240E946A110E940F
:1023500061118093B402282F26952695269530E0AA
:102360002D30310524F0877080668093B40280910F
:10237000B40280FF04C086958695869501C080E0F2
:102380000C94E3122091B402822F8695869586954F
:10239000482F50E04C30510554F48F5F982F990F1F
:1023A000990F990F822F8770892B8093B4028091A7
:1023B000B40281608093B4020E9465118091B402DE
:1023C0008695869586950C94E3128091B402982F99
:1023D000969596959695A1F0915E990F990F990F04
:1023E0008770892B8093B402887F91E009F490E094
:1023F0008091B40290FB80F98093B4020E94651131
:102400008091B4028695869586950C94E31280910E
:10241000B40280FD13C081608093B402813019F44E
:1024200089E08093B4028091B4020E94651180918A
:10243000B4028695869586950C94E3120895809152
:10244000B40280FF08C08E7F8093B4020E946511A1
:1024500080E00C94E31208958091B40280FD0C9406
:102460001F120C9407129091B402892F86958695BD
:1024700086958F5F8F7197708D3038F4880F880F35
:10248000880F892B8093B40202C09093B40280918C
:10249000B402887F91E009F490E08091B40290FB4F
:1024A00080F98093B4020E9465118091B4028695F0
:1024B000869586950C94E3128D3008F08CE090910F
:1024C000B4029770282F220F220F220F922B909385
:1024D000B402987F21E009F420E09091B40220FB3F
:1024E00090F99093B4020C94E3120E945C128091D4
:1024F000B4020C946511FC01DB0112968C918823C7
:10250000F9F0EC5BFC45E730F105D8F4E65DFF4FF0
:102510000C9482288CE001C080E00E94751280E05B
:1025200008950E94E511FBCF0E94C211F8CF0E94CE
:102530002C12F5CF0E943312F2CF0E949011EFCFF0
:1025400081E008958C9A9498089594980895CF9274
:10255000DF92EF92FF928C3724E1920728F469E032
:1025600070E00E94382829C0A0E0B0E08A50974D62
:10257000AF4FBF4F6627782F892F9A2F25EF38E26C
:1025800041E050E00E94602869017A01CA01B90166
:102590000E940E289B01AC01C701B6010E940E28C3
:1025A000BB27A92F982F872F009721E0A207B105FD
:1025B00011F0BC0102C06FEF7FEFCB01FF90EF90F5
:1025C000DF90CF900895CF93C82F8D3040F48111C4
:1025D00007C08FB58F7D8FBD0E94A51204C0CCE0CF
:1025E0008FB580628FBD2C2F30E0AFEFBFEF0E9420
:1025F00090282CE030E040E050E00E946028B42FAA
:10260000A32F922F8827892F9A2FAB2FBB270E94A9
:10261000A71299BD88BDCF910895089510925901D0
:102620001092580110925A0189B7846089BF0895A9
:1026300089B78B7F89BF0E9472110C94E3121F929D
:102640000F920FB60F9211242F933F934F935F93E6
:102650006F937F938F939F93AF93BF93CF93EF939A
:10266000FF930E949C1140915801509159014F5F76
:102670005F4F94EF899F90011124CA01B9010E9414
:1026800038289093590180935801B901660F672F3C
:10269000661F770B71950E9438286F7780915A01D9
:1026A000823019F4603441F404C0813029F46F376A
:1026B00019F489B78B7F89BFE62FF0E0EC55FC4F0A
:1026C000C4910E947211282F41E051E0C49FC001C3
:1026D000C59F900D11246CE070E00E943828269F61
:1026E000C001279F900D11240E94A71299BD88BD9B
:1026F000FF91EF91CF91BF91AF919F918F917F917A
:102700006F915F914F913F912F910F900FBE0F905E
:102710001F9018950E94A21282E28FBD89E18EBDA2
:102720008FEF9FEF97BD86BD0E949F110E9497116A
:1027300081110C940E1308950F931F93CF93DF9381
:102740008C01EB0180915B01811105C00E946B1728
:1027500081E080935B01AE01440F551F4C0F5D1F5C
:1027600024E630E0B80180EBDF91CF911F910F910B
:102770000C94F5170F931F93CF93DF93C42FD22F91
:10278000FC0182818823C9F040935E010E94A62447
:1027900090935D0180935C0180E28C0F883008F09B
:1027A00057C0C77081E001C0880FCA95EAF7DF9172
:1027B000CF911F910F910C94321A80915E014813B2
:1027C00030C080915C0190915D010E94BE24883CE4
:1027D000910538F510E21D0FCD17B9F080E28C0F8E
:1027E000883040F4C77081E001C0880FCA95EAF7CD
:1027F0000E94391A183028F581E09D2F977001C08A
:10280000880F9A95EAF70E94321A802F0E94291A9F
:102810001830F0F4D77081E001C0880FDA95EAF73C
:102820000AC080E28C0F883098F4C77081E001C044
:10283000880FCA95EAF7DF91CF911F910F910C9401
:10284000391A802FDF91CF911F910F910C94291A83
:10285000DF91CF911F910F9108950F939C01CB01B0
:10286000243F4CE5340731F188F4293DFCE53F076E
:10287000D9F02A3D4CE5340779F1283D3C45A9F5CE
:1028800006E221EE41EE68ED7CE52BC0263FFCE53B
:102890003F07E1F0A8F0273F3C4539F507E225EE78
:1028A00046EE67EF7CE51DC007E225EE45EE69EDDB
:1028B0007CE517C006E221EE40EE64EF7CE511C036
:1028C00007E225EE44EE65EF7CE50BC006E221EE63
:1028D00042EE66EF7CE505C008E221E045EE6AEDD8
:1028E0007CE50E94BA1380E008C0FC018281882345
:1028F00019F010925E0101C081E00F910895CF930D
:10290000DF93EC01FB018281882309F41FC1C230EF
:10291000FCE5DF0708F41BC1C6319CE5D90738F098
:102920009E012B5F3C452930310508F010C10E9403
:102930007F2390938F0280938E02C031ECE5DE07F7
:1029400009F4C3C008F041C0C8308CE5D80709F4C9
:102950009AC0F0F4C430ECE5DE0709F487C068F4EF
:10296000C2308CE5D80709F477C0C330DC4509F0E4
:10297000E3C080918E02826076C0C630ECE5DE074F
:1029800009F46EC008F07BC080918E0288606BC035
:10299000CC308CE5D80709F485C068F4CA30ECE582
:1029A000DE0709F474C008F079C00E94BE1C809153
:1029B0008E02806858C0CE308CE5D80709F476C006
:1029C00008F07FC080918E028BC0CC3FECE5DE0723
:1029D00009F44FC018F5C3318CE5D80709F47DC060
:1029E00078F4C131ECE5DE0709F473C0C231DC458F
:1029F00009F0A2C00E94BE1C80918E028F7733C066
:102A0000C5318CE5D80709F472C008F486C0CB3F05
:102A1000DC4509F091C080918F023EC0C115FDE5F3
:102A2000DF0709F45FC058F4CE3F9CE5D90709F4ED
:102A300044C008F43FC080918F0282602DC0C23034
:102A4000FDE5DF0709F475C008F45DC0C330DD455E
:102A500009F072C080E06EC080918E02816003C078
:102A600080918E02806180938E0266C080918E027A
:102A700011C080918F02826080938F025DC080912F
:102A80008E028062F0CF80918E028064ECCF8091C4
:102A90008E0288608460E7CF8160EECF80918E02E5
:102AA0008E7FE1CF80918E028D7FDDCF80918E026F
:102AB000877FD9CF80918F0218C080918F028D7F40
:102AC000DBCF80918E028F7ECECF80918E028F7D64
:102AD000CACF80918E028F7BC6CF80918E02877F76
:102AE0008B7FC1CF80918F028D7F8E7FC5CF8091EC
:102AF0008E0282FB222720F991E0922790FB82F937
:102B000090FB83F9B0CF80918F02982F90959170B0
:102B10008E7F892B90FB81F9AFCF0E94BE1C8091E4
:102B20008E0287FB222720F991E0922790FB87F9FC
:102B30009ACF81E00E94162480918E0290918F029C
:102B40000E9490230E94BE1C80E001C081E0DF91C2
:102B5000CF910895CF93DF9386319C4541F5EB01EA
:102B60000E94AB22982F8A812091830030918400AB
:102B7000882379F09A7A81E009F480E080935F01FC
:102B8000911102C069E201C065E3C9010E945D24A0
:102B90000AC080915F01811102C069E201C065E352
:102BA000C9010E945F240E94FD2280E001C081E0F3
:102BB000DF91CF910895CF93909170019923C9F03F
:102BC000882311F0C0E003C01092700112C0809100
:102BD0007001C817C8F7EC2FF0E0EE0FFF1FE05AA6
:102BE000FE4F808191810E94F7040E94FD22CF5FF9
:102BF000EECFCF910895809182008823A1F080913B
:102C00007101882381F08091750190917601009780
:102C100051F00E94BE24893C910528F01092710168
:102C200081E00C94DB1508951092710110928200DE
:102C3000109276011092750181E00C94DB15809161
:102C4000820081110C94141681E080938200089513
:102C50005F926F927F928F929F92AF92BF92CF922C
:102C6000DF92EF92FF920F931F93CF93DF938C012C
:102C70006B0110927201083F8CE5180741F4FB01CB
:102C8000C281CC23D1F081E08093820013C1093F3F
:102C9000FCE51F0739F4FB01C281CC2371F00E94CF
:102CA000141608C10A3FFCE51F0739F4FB01C28175
:102CB000CC2319F00E941F16FDC08091820088234A
:102CC00009F4F7C01092740110927301AA24A3941E
:102CD000B12C95E0992EC1E0D0E088248394E09057
:102CE0007301F0907401F2E0EF16F10408F0A3C054
:102CF0009E9CF0019F9CF00D1124EC59FF4F908198
:102D0000418177247A9480E0E92FF42FE80FF11DB8
:102D1000E80FF11D259134910217130709F4782E5D
:102D2000232B11F08F5FF0CFFFEF7F1202C0612CD9
:102D300065C050907101F6016280662069F19E9C29
:102D4000F0019F9CF00D1124EC59FF4F9E0101C032
:102D5000220F7A94EAF79481292B2483552039F3A2
:102D6000AE0102C0440F551F8A95E2F74150510948
:102D7000822F90E04817590709F040C08281938163
:102D8000009719F00E94F70404C061E0C7010E9497
:102D9000B9048092720132C09E0102C0220F331F1B
:102DA0008A95E2F7215031099E9CF0019F9CF00D1D
:102DB0001124EC59FF4F848190E02817390761F402
:102DC00082819381009719F00E940D0506C060E092
:102DD000C7010E94B90401C0512C9E9CF0019F9C28
:102DE000F00D1124EC59FF4FCE0101C0880F7A94E9
:102DF000EAF78095948189238483652CB628AA20DC
:102E000069F09E9CF0019F9CF00D1124EC59FF4F3E
:102E100091E08481811190E0892F01C080E0817070
:102E2000A82E809173019091740101969093740182
:102E30008093730154CF80917201882351F00E94D6
:102E4000A624909376018093750180E00E94DB15A3
:102E50002CC0B1100DC081E00E94DB15AA2029F121
:102E6000109276011092750181E0809371011DC06E
:102E7000F60182818823C9F0809171018823A9F02D
:102E80000E94A6249093760180937501E0917001D1
:102E9000E83058F481E08E0F80937001F0E0EE0F7F
:102EA000FF1FE05AFE4F1183008381E0CB2DC8271E
:102EB00001C0C1E08C2FDF91CF911F910F91FF9046
:102EC000EF90DF90CF90BF90AF909F908F907F90CA
:102ED0006F905F90089511B887E080B985B38360E3
:102EE00085BB86B7846086BF86B7816086BF86B79C
:102EF000806486BF0895EF92FF920F931F93CF9344
:102F0000DF93182FEB0116BE84EA86BF0E94A62429
:102F10007C0106B607FC0EC0CF3F8FEFD807C9F380
:102F20000E94A6248E199F098C179D0790F38EEF9F
:102F30009FEF28C081B1887F883039F081B1887FC8
:102F4000803119F08FEF9FEF1DC013B984E886BF61
:102F50000E94A6248C0106B607FC0CC0CF3F8FEF61
:102F6000D807C9F30E94A624801B910B8C179D07DC
:102F700090F3DDCF81B1887F883111F0803411F773
:102F800080E090E0DF91CF911F910F91FF90EF9043
:102F900008950F931F93CF93DF93EB0183B984E8D8
:102FA00086BF0E94A6248C0106B607FC0EC0CF3F48
:102FB0008FEFD807C9F30E94A624801B910B8C17B2
:102FC0009D0790F38EEF9FEF0BC021B1287F81E02A
:102FD00090E0283211F480E090E09195819591097C
:102FE000DF91CF911F910F910895CF92DF92EF92D1
:102FF000FF920F931F93CF93DF936B018A017901A7
:10300000B9010E947B17E6010C0D1D1DC017D107E9
:1030100059F424E926BFDF91CF911F910F91FF90C2
:10302000EF90DF90CF90089597FDF3CFB70189918E
:103030000E94C917EBCF90937C0180937B01089588
:10304000E0917B01F0917C01309721F00190F081BB
:10305000E02D099480E00895E0917B01F0917C01DE
:10306000309721F00280F381E02D0994089520919A
:10307000790130917A012817390771F090937A011C
:1030800080937901E0917B01F0917C01309721F0F0
:103090000680F781E02D0994089520917701309101
:1030A00078012817390771F09093780180937701A0
:1030B000E0917B01F0917C01309721F00084F18553
:1030C000E02D099408950E94B22460938A017093C0
:1030D0008B0180938C0190938D0160938601709396
:1030E00087018093880190938901089584B780684F
:1030F00084BF84B7806884BF089581E008950C94EC
:103100007D1808950C9481180C9481180C948418DF
:103110000C9481180C9488180C9481180E947618CD
:103120008AE693E20E940C250E948C180C948A185F
:103130000E9482180C9481180E949F240E946D089E
:103140000E949F110E94A10F0C9486186F927F928B
:103150008F929F92AF92BF92CF92DF92EF92FF92A7
:103160000F931F93CF93DF93CDB7DEB72A970FB698
:10317000F894DEBF0FBECDBF0E94B00881110E943F
:1031800063183EE7832E31E0932E00E010E0C02E5E
:10319000802F0E943B085C01F401619071904F0107
:1031A0006826792661147104B1F40F5F1F4F043053
:1031B000110569F78FEF89838A831B820E94A624F9
:1031C0008160782F9D838C8349815A816B818D81A9
:1031D0000E945E193AC08091FA0181FD0E94440864
:1031E000D12CEE24E394F12CC3018E219F21892B55
:1031F00029F10E947F188823A9F0DE82CF82AE20B9
:10320000BF2081E0AB2809F480E088870E94A624D3
:103210008160782F9A8789874E815F8168858A854A
:103220000E945E19000F111FF801E258FE4F8081C5
:103230009181E826F926F182E08207C0D394EE0C52
:10324000FF1CFCE0DF12D0CFB0CF0E94D40F0E9451
:103250000D130E94201890917D018917D1F00E94D2
:10326000201880937D012A960FB6F894DEBF0FBE1A
:10327000CDBFDF91CF911F910F91FF90EF90DF9025
:10328000CF90BF90AF909F908F907F906F900C9455
:1032900005062A960FB6F894DEBF0FBECDBFDF91AC
:1032A000CF911F910F91FF90EF90DF90CF90BF9043
:1032B000AF909F908F907F906F900895DF92EF92E4
:1032C000FF920F931F93CF93DF93CDB7DEB72B976A
:1032D0000FB6F894DEBF0FBECDBFF42E052F162F0C
:1032E000E72ED82E61110E94CB22FE01319686E096
:1032F000DF011D928A95E9F77E2D4F2D502F612F0A
:103300008D2D9E810E94771F2B960FB6F894DEBFFD
:103310000FBECDBFDF91CF911F910F91FF90EF9026
:10332000DF900895FC01808191810E944B220895D5
:10333000CF93882309F448C0C82F8CEF8C0F813AB3
:10334000D0F46C2F80918300909184000E942724F8
:10335000882349F06C2F80918300909184000E9413
:103360005F240E94FD226C2F809183009091840045
:103370000E945D240CC080E28C0F883058F4C77026
:1033800081E001C0880FCA95EAF70E94AE22CF9172
:103390000C94FD22EBE5EC0FE33040F4F0E0E55D4A
:1033A000FE4F808190E0CF910C943718C85AC731F6
:1033B00058F4EC2FF0E0EE0FFF1FE350FF4F808139
:1033C0009181CF910C944D18CF910895882349F1A4
:1033D000682F8CEF860F813A38F4809183009091AA
:1033E00084000E945F240CC080E2860F883050F475
:1033F000677081E001C0880F6A95EAF70E94B422E5
:103400000C94FD228BE5860F833020F480E090E061
:103410000C943718685A673120F480E090E00C94DF
:103420004D1808951F93CF93DF93182FEB010E943F
:103430009819209741F087EB9BE00197F1F700C0C6
:1034400000002197F6CF812FDF91CF911F910C942F
:10345000E619893319F060E070E002C060E570E0C1
:103460000C94121A882321F00E94AE220C94FD22A3
:103470000895882321F00E94B4220C94FD2208951F
:10348000CF92DF92EF92FF920F931F93CF93DF9330
:103490007C01062FC72FFC01D281158112951F7068
:1034A0000E948322882399F0DD2389F08C2F807F6E
:1034B000803421F080E2800F883048F082E00E9462
:1034C0004D230E94832291E0D82ED92601C0D12C11
:1034D000CC2EC2948FE0C8228C2D90E0FC01EF5CD2
:1034E000FF4F0C9482288C2F807FCF70882311F09F
:1034F000C295C07FDD2399F0CC2309F482C180E21C
:10350000800F883010F0011104C08C2F0E94AE2271
:1035100003C08C2F0E94BE220E94FD2272C1802F08
:103520000E94E619CC2309F491C180E2800F883013
:1035300010F0011104C08C2F0E94B42203C08C2F04
:103540000E94C4220E94FD2281C18C2F807FCF70F7
:10355000803211F0C295C07F002319F00130C9F00C
:1035600022C0DD2371F0112341F0113031F40E94AB
:10357000DE228C2B0E94E62269C10E94DE228C2B67
:103580001DC0112319F0113009F460C10E94F3220B
:1035900025C0DD2321F0133008F058C10EC01230D1
:1035A00008F054C11BC0DD2361F0112331F0F70195
:1035B000858180FF26C18F7085838C2F0E94321AEF
:1035C00045C1112359F0093309F02CC1FFEF2DEE4D
:1035D00082E0F15020408040E1F722C18C2F0E9410
:1035E000391A34C18C2F86958695837019F08130F5
:1035F00061F02CC1DD2321F0802F9C2F937002C03D
:1036000080E090E00E94371829C1DD2321F0802F4F
:103610009C2F937002C080E090E00E944D181EC164
:103620008C2F837009F045C0D11114C1402F4295F1
:1036300046954770440F440F602F6F70862F90E0BF
:10364000A0E0B0E0042E04C0880F991FAA1FBB1F82
:103650000A94D2F704FF10C00FE010E020E030E041
:1036600004C0000F111F221F331F4A95D2F7009587
:1036700010952095309503C000E010E09801C695A4
:10368000C695C370BC01CD01602B712B822B932B8F
:10369000C23049F058F4C13019F00E94C820DAC095
:1036A0000E94B620D7C00E94DA20D4C00E94B42065
:1036B000D1C0DD2319F08C2F817001C0869588233D
:1036C00009F4C8C0402F429546954770440F440FF7
:1036D000602F6F70862F90E0A0E0B0E0042E04C051
:1036E000880F991FAA1FBB1F0A94D2F704FF10C0AE
:1036F0000FE010E020E030E004C0000F111F221F97
:10370000331F4A95D2F7009510952095309503C048
:1037100000E010E09801C695C695C370BC01CD01CC
:10372000602B712B822B932BC23049F058F4C1309F
:1037300019F00E948D218EC00E947B218BC00E94B7
:103740009F2188C00E94EE2085C0CF70DD2339F014
:103750008C2F0E941421802F0E94321A7BC0802F50
:103760000E94391A8C2F0E94352174C0023F01F14A
:1037700028F4003F41F0013FA1F03FC0033FF9F0C2
:10378000043F39F13AC0DD2341F0123008F05EC049
:103790008C2F8F710E945A2159C0133008F056C0E7
:1037A000F7CFDD2339F08C2F8F710E9414214EC08A
:1037B000DD23C9F38C2F8F710E94352147C0DD2393
:1037C00029F08C2F8F710E94FF2040C00E94FA20A8
:1037D0003DC0DD2349F0CF718C2F0E94142163E09E
:1037E0008C2F0E94322332C081E00E944D23123080
:1037F00068F182E00E944D2329C0DD2331F01123BE
:1038000091F2802F0E94981921C0112399F2093357
:1038100049F49FEFEDEEF2E09150E040F040E1F727
:1038200000C00000802F0E94E61910C04C2F4F707E
:10383000602FC7010E940E060E9425200FC04C2F4A
:103840004F70602FC7010E94110608C088EF8C0DD1
:10385000843020F40E9420180E940506DD20C9F063
:103860000E947F2280FD15C0F70112820E947922FA
:103870000E941421C7010E946A1C0E947922DF91D4
:10388000CF911F910F91FF90EF90DF90CF900C940C
:103890003521DF91CF911F910F91FF90EF90DF9035
:1038A000CF9008950F931F93CF93DF93EC0168811E
:1038B00079818A810E9456228C010E94B1210E9446
:1038C000A220B801CE010E94401ADF91CF911F9132
:1038D0000F910895CF93DF93EC01988189812B811B
:1038E0003C81232B31F08F3F31F481E09F3F19F46D
:1038F00003C081E001C080E080FD19C0CE010E94BC
:10390000970581110CC00E948322882381F08A814F
:10391000882369F082E0DF91CF910C944D23CE0192
:103920000E94521CCE01DF91CF910C947205DF9161
:10393000CF910895882321F00E94BE220C94FD228D
:103940000895882321F00E94C4220C94FD2208953A
:1039500080E090E00E94371880E090E00E944D18CF
:103960000E94CB220E94DB220C94FD2280918300D6
:10397000909184000E9461240C94A81C0E94BB2298
:103980000C94B61CE92FE295EF704E2F50E0FA012F
:103990003297EE30F105B0F4EF5BFF4F0C948228C4
:1039A000803F91F018F4883E68F40EC0843F51F4D3
:1039B0000BC0883E48F0813F29F406C093FB88275E
:1039C00080F9089580E0089581E008950E944B22D7
:1039D0000E94C21C0895CF93DF9300D000D01F92A5
:1039E000CDB7DEB70F900F900F900F900F90DF9133
:1039F000CF910895CF93DF9300D000D000D0CDB702
:103A0000DEB726960FB6F894DEBF0FBECDBFDF91AE
:103A1000CF9108951F93CF93DF93C0918F0116E04C
:103A200080919001C81799F0D0E01C9FF0011D9F74
:103A3000F00D1124EF56FE4F408151816281738158
:103A4000848195810E94FA1C2196C770E9CFDF918D
:103A5000CF911F9108954091C1015091C201609191
:103A6000C3017091C4018091C5019091C6010C946D
:103A7000FA1C0F931F93CF93DF938091C601829519
:103A80008F7009F05DC08091C301882309F458C08C
:103A900080918F01109190016091C1017091C201DC
:103AA000C091C401D091C50191E06F3F09F090E051
:103AB000292F06E0811709F443C0209721F07F3FAA
:103AC00021F030E003C031E001C0322F90E030FD42
:103AD00034C0089FF001099FF00D1124DF01AF569B
:103AE000BE4F11963C911197371327C03C91361366
:103AF00024C012963C91129731111FC013964D911C
:103B00005C9114974C1B5D0B483C5105B0F48091BF
:103B1000C6018F7080618093C601EA56FE4F808196
:103B20008F708061808381EC91E00E946A1CDF913C
:103B3000CF911F910F910C940A1D01968770BACFF7
:103B4000DF91CF911F910F9108959F92AF92BF92F5
:103B5000CF92DF92EF92FF920F931F93CF93DF9359
:103B6000CDB7DEB761970FB6F894DEBF0FBECDBFFD
:103B70008C0185E0F801DE011D9601900D928A9579
:103B8000E1F7F80140815181E2809091C10160919B
:103B9000C2012091C4013091C5012115310531F0D8
:103BA0006F3F31F481E09F3F19F403C081E001C011
:103BB00080E0F82FF1709F2E80FD46C1F801A380B0
:103BC000B48081ECC82E81E0D82EF090C301F501BD
:103BD000E21BF30BFF2009F4DFC08091C601E83C33
:103BE000F10508F09BC0282F207F09F052C0561322
:103BF00013C0491311C0FE2CE1100EC08F708061FC
:103C00008093C6010E942B1DC6010E946A1C8091F0
:103C1000C601F801858358C1AB2831F05F3F31F40C
:103C200081E04F3F19F403C081E001C080E080FDD6
:103C300003C081E08E2502C080E090E0F82FF17093
:103C4000FF2E80FF1CC080918F012091900136E0F3
:103C5000821709F417C190E0389FF001399FF00DE9
:103C60001124EF56FE4F6181561306C06081461342
:103C700003C06281E61203C001968770E9CFFE2C73
:103C8000EE2009F421C18091C60181608093C601B4
:103C90005AC0561306C0491304C0E11002C0F8010F
:103CA0009FC04D875E878D859E850E94E61C882378
:103CB00079F1EE2069F12091C601822F82958F70F3
:103CC00090E0029774F08091C1019091C2019887B1
:103CD0008F831986BB86AA862C87CE0107960E9401
:103CE0006A1C86E0F801A1ECB1E001900D928A9582
:103CF000E1F70E94391D0E942B1D0DC0561729F1B6
:103D00004D875E878D859E850E94E61C81112CC0A3
:103D1000C8010E946A1CFF24F394D6C0282F207F7C
:103D200069F77A2DB98AA88A6E2D89890E94EB1CC1
:103D300081EC91E00E946A1C86E0F60111928A955E
:103D4000E9F70E942B1DF12CBFC04913D9CFE11018
:103D5000D7CFF8018583C8010E946A1C86E0F6016E
:103D600011928A95E9F7B0C0EE2091F22091C60138
:103D7000822F82958F7090E002970CF4B2CF8091E1
:103D8000C1019091C2019A8389831B82BD82AC825A
:103D90002E83CE010196A3CFE83CF10508F047C081
:103DA000FE2CEE2009F4B4CF561330C049132EC0B8
:103DB0002091C60120FD21C0822F82958F70482F4F
:103DC00050E041155105C9F0F80125834F305105E8
:103DD00041F08F5F982F9295907F822F8F70892B63
:103DE0008583C8010E946A1C86E0F801A1ECB1E05D
:103DF00001900D928A95E1F742C086E0F801A1ECAE
:103E0000B1E001900D928A95E1F75EC04D875E8723
:103E10008D859E850E94E61C811163CF8091C6012D
:103E200081608093C601C8010E946A1C4DC07A2D32
:103E3000B98AA88A6E2D89890E94EB1C86E0F6015A
:103E400011928A95E9F71BC0EE2009F461CF4D87E6
:103E50005E878D859E850E94E61CF82E882309F4D6
:103E600057CF86E0F801A1ECB1E001900D928A9560
:103E7000E1F781EC91E00E9492190E94391D0E94A5
:103E80002B1D22C04D875E878D859E850E944B220B
:103E9000292F22952F70223028F49F7039F081113C
:103EA00005C00BC0243028F49F7049F4805E883030
:103EB00020F0C8010E946A1C9F2CF92C05C0F80153
:103EC0009581907F99F7F9CF8F2D61960FB6F89471
:103ED000DEBF0FBECDBFDF91CF911F910F91FF903D
:103EE000EF90DF90CF90BF90AF909F9008951F9379
:103EF000CF93DF93CDB7DEB72C970FB6F894DEBF24
:103F00000FBECDBF4F83588769877A878B879C8781
:103F1000CE0107960E94A51D8823D1F09F81888538
:103F20002A853B85232B31F08F3F31F481E09F3F81
:103F300019F403C081E001C080E080FD47C04F81DB
:103F4000588569857A858B859C850E94FA1C3EC0C0
:103F500086E0FE013796DE01119601900D928A955A
:103F6000E1F7FF81E8856A857B856115710531F090
:103F7000EF3F31F481E0FF3F19F403C081E001C05D
:103F800080E080FD23C02091900130E0C9010196BE
:103F90008770992740918F0150E084179507F1F1C0
:103FA000F983EA837D836C8396E0929FD001939F8F
:103FB000B00D1124AF56BE4FFE01319601900D9207
:103FC0009A95E1F7809390010E940A1D16E0809176
:103FD0008F0190919001891771F1189FC0011124F0
:103FE0008F569E4F0E94A51D882329F1E0918F01D5
:103FF0001E9FF0011124EF56FE4F408151816281D6
:104000007381848195810E94FA1C80918F0190E0D8
:1040100001968770992780938F01D9CF0E94BE1C8B
:104020001092900110928F01E1ECF1E086E0DF0147
:104030001D928A95E9F72C960FB6F894DEBF0FBE55
:10404000CDBFDF91CF911F910895EF92FF920F9313
:104050001F93CF93DF938C01892B09F46CC0F12C53
:10406000EE24E394E8012196F8018491843740F42A
:10407000843008F051C0813081F0823019F15BC08A
:10408000853709F444C0A8F19CE7980F903708F0F1
:1040900052C08F770E94E61941C00E5F1F4FFE018C
:1040A000849190E2980F983050F48770FE2D01C0F3
:1040B000FF0F8A95EAF78F2F0E94CE2214C00E942C
:1040C00098192DC00E5F1F4FFE01849190E2980F4A
:1040D000983060F48770FE2D01C0FF0F8A95EAF7D3
:1040E0008F2F0E94D4220E94FD2219C00E94E6193F
:1040F00016C00E5F1F4FFE01C491CC2381F087EBE9
:104100009BE00197F1F700C00000C150F6CF0E5FB1
:104110001F4FFE01F49003C00E9498198E018F2D4D
:10412000882309F49FCFE7EBFBE03197F1F700C05C
:1041300000008150F5CFDF91CF911F910F91FF903B
:10414000EF900895089508950C94A3200C94A42052
:104150000E94A6206093E9017093EA018093EB012D
:104160009093EC010C94A81C0C94A8200F931F931F
:104170000091E9011091EA012091EB013091EC01ED
:10418000602B712B822B932B1F910F910C94A820E5
:104190000F931F930091E9011091EA012091EB0127
:1041A0003091EC0160237123822393231F910F919F
:1041B0000C94A8200F931F930091E9011091EA013C
:1041C0002091EB013091EC01602771278227932722
:1041D0001F910F910C94A8200C94A3200E94EC2016
:1041E0006093E5017093E6018093E7019093E80105
:1041F0000C94A81C60E070E0CB010C94EE200F93AF
:104200001F9341E050E060E070E08A019B0104C030
:10421000000F111F221F331F8A95D2F7C901B80161
:104220001F910F910C94EE200F931F9341E050E0EB
:1042300060E070E004C0440F551F661F771F8A9529
:10424000D2F78091E5019091E601A091E701B0914C
:10425000E8018A019B01082B192B2A2B3B2BC90152
:10426000B8011F910F910C94EE200F931F9341E022
:1042700050E060E070E004C0440F551F661F771FD8
:104280008A95D2F740955095609570958091E5019B
:104290009091E601A091E701B091E8018A019B01AC
:1042A000082319232A233B23C901B8011F910F9129
:1042B0000C94EE200F931F9341E050E060E070E01B
:1042C00004C0440F551F661F771F8A95D2F780914F
:1042D000E5019091E601A091E701B091E8018A0122
:1042E0009B01082719272A273B27C901B8011F91DD
:1042F0000F910C94EE200F931F930091E501109104
:10430000E6012091E7013091E801602B712B822BAF
:10431000932B1F910F910C94EE200F931F930091FC
:10432000E5011091E6012091E7013091E801602359
:104330007123822393231F910F910C94EE200F93EE
:104340001F930091E5011091E6012091E701309162
:10435000E80160277127822793271F910F910C9402
:10436000EE2008952CE0929F800D1124E82FE69511
:10437000E695E695877051E001C0550F8A95EAF7FA
:1043800085E0E89FF0011124E953FE4F20E030E082
:1043900070E04081CB01022E02C0969587950A9469
:1043A000E2F78170819584278523842781932F5F8D
:1043B0003F4F2530310569F708952CE0929F800D1D
:1043C0001124682F669566956695982F977085E0FD
:1043D000689FB001112440E050E080E0FB01E40F51
:1043E000F51FE953FE4F208130E0092E02C03695BB
:1043F00027950A94E2F721703327042E01C0220F7B
:104400000A94EAF7822B4F5F5F4F4530510531F731
:104410000895BF92CF92DF92EF92FF920F931F9376
:10442000CF93DF938C01C090E501D090E601E0903E
:10443000E701F090E8018091E9019091EA01A091F3
:10444000EB01B091EC01C82AD92AEA2AFB2ACFE174
:10445000D0E0D701C6010C2E04C0B695A79597955C
:1044600087950A94D2F780FD04C0219790F7B12C6C
:1044700007C0BC2EB8018C2F0E942D060197A9F30E
:104480008B2DDF91CF911F910F91FF90EF90DF90D7
:10449000CF90BF900895CF93DF93EC010E94092243
:1044A000BE010E942D06DF91CF9108951F93CF93F7
:1044B000DF93EB0190918E01992321F0CB010E94B3
:1044C0004B2213C0882349F0CB010E940922182FE8
:1044D000682FCE010E94B22104C0CB010E94DD21D1
:1044E000182FBE01812F0E942D06DF91CF911F91C1
:1044F00008958091ED018595859585950895809124
:10450000ED01877008959091ED01977081E009F4B5
:1045100080E0089590918F0292FB222720F92817BE
:1045200051F080FB92F990938F0280918E029091CE
:104530008F020C949023089580918F0282FB88272C
:1045400080F991E089270C948A2281E00C948A22D8
:1045500080E00C948A228091F90108959091F901EC
:10456000892B8093F901089580959091F901892311
:104570008093F90108951092F90108959091F8013E
:10458000892B8093F801089580959091F8018923F3
:104590008093F80108951092F80108959091F70121
:1045A000892B8093F701089580959091F7018923D5
:1045B0008093F70108951092F70108958091EE011C
:1045C000089508950C94E1220C94E22290918F02B8
:1045D00092FD08C09091EE01981721F08093EE01B2
:1045E0000C94E42208958091EE01882329F0109222
:1045F000EE0180E00C94E4220895E0918300F091B4
:1046000084008091F9018083E0918300F09184001F
:1046100090818091F801892B8083E0918300F09153
:10462000840090818091F701892B80838091EE0135
:10463000882381F0E0918300F09184009081892BA0
:10464000808380918300909184000E941B248111BB
:104650000E94F32280918300909184000C942C1886
:104660000C94E12290918F0292FD10C098E0899FF6
:1046700090011124262B2093ED010E94142180919A
:10468000ED018595859585950C9430230C94142126
:104690001092ED0180E00C9430232091ED01809583
:1046A00082238093ED01982F977041F430E0482FDA
:1046B000082E000C550B2417350721F490918F021A
:1046C00092FF07C08595859585950E9435210C94AC
:1046D0004823089580E0089580E090E00E9430290A
:1046E00021E08A3E9E4F09F020E0822F089582E06B
:1046F00090E00C94222983E090E00C942229CF933F
:1047000084E090E00E942229C82F82E290E00E947B
:1047100022292C2F30E0A901582BCA01CF910895EE
:10472000CF93C92F682F84E090E00E9436296C2F28
:1047300082E290E0CF910C943629AB01BC018FE06E
:1047400090E00C944729AB01BC0183E190E00C940C
:10475000472960E070E0CB010C94A32360E070E097
:10476000CB010E949D230C94A9236AEE7EEF80E08A
:1047700090E00E94532960E082E090E00E94362998
:1047800060E083E090E00E9436291092E9011092E7
:10479000EA011092EB011092EC0160E084E090E0FD
:1047A0000E94362960E082E290E00E94362960E0B3
:1047B00085E090E00E94362960E086E090E00E946B
:1047C00036296FEF87E090E00E94362940E050E004
:1047D000BA0188E090E00E94472960E08DE090E017
:1047E0000E94362940E050E0BA0188E190E00E9442
:1047F000472960E087E190E00E94362940E050E0E0
:10480000BA018CE190E00E94472960E070E080E20C
:1048100090E00E94532940E050E0BA0188E190E026
:104820000E9447290C94AE230C94B523682F8EE088
:1048300090E00C943629FC01329697E080E091508C
:1048400029F021912223D9F38F5FF9CF08956623B0
:1048500049F0FC01329608962191621729F0E81779
:10486000F907D1F780E0089581E008959C01FC01EB
:1048700032969FEF80E04191461789F09F3F19F4EF
:10488000411101C0982F8F5F8630A9F79F3F39F003
:10489000F901E90FF11D97FDFA95628308950895D6
:1048A0009C012A5F3F4FFC014281461301C01282E6
:1048B000019682179307B9F708950C9436240C9447
:1048C0005024029626E0FC0111922A95E9F70895FA
:1048D00008950C9468240C946824CF930E946B2450
:1048E0000E94B0080E946924C0E08C2F0E943B08FF
:1048F000892B29F4CF5FC430C1F780E001C081E08B
:10490000CF9108950C9468240C9482248091FB012B
:10491000882341F00E94842480E00E94E31280E01A
:104920000C94050608950C9468240E94BE1C0E94F5
:104930009F110E9420180E9405060C9493248BE07E
:1049400083BF8BEB8CBF82E089BF08952FB7F894AB
:104950008091B5029091B602A091B702B091B802D1
:104960002FBF08952FB7F8946091B5027091B602E9
:104970008091B7029091B8022FBF08959C014FB764
:10498000F8948091B5029091B602A091B702B091CF
:10499000B8024FBF821B930B089578941F920F9219
:1049A0000FB60F9211248F939F93AF93BF93809173
:1049B000B5029091B602A091B702B091B8020196EB
:1049C000A11DB11D8093B5029093B602A093B702CA
:1049D000B093B802BF91AF919F918F910F900FBE8E
:1049E0000F901F90189560E081E090E00E94592997
:1049F00087E090EBDC018093090390930A03A09376
:104A00000B03B0930C039CE088E10FB6F894A895D3
:104A100081BD0FBE91BDFFCF90932F0180932E01DA
:104A200008950F931F93CF93DF930E94A624EC0168
:104A30000E948E180E94F3278B9A80E0815041F0EB
:104A4000A895E7EBFBE03197F1F700C00000F6CF47
:104A50008B9878940E949C180E941B260E941B1819
:104A6000FFEB24ED31E0F15020403040E1F700C091
:104A7000000001E01CE08091E002882371F01092B8
:104A8000E0020E94A624EC018091FB01882391F0B2
:104A90001092FB010E9495240DC08091FB018111B1
:104AA00009C0CE010E94BE24069720F00093FB01AE
:104AB0000E9486248091FB018823F9F00E948624BD
:104AC0000E946D248823B9F2F89491B3939A892FA8
:104AD0008C6081BB82B3812782BB8FE5EAEEF0E078
:104AE0008150E040F040E1F700C0000082B3812730
:104AF00082BB91BB93987894BECF0E94FC26809194
:104B0000E602882329F08091C40284FD0E94A61841
:104B10000E94C2250E949818AECF80918D02089500
:104B20000895CF93DF9300D01F92CDB7DEB7909159
:104B3000FE01981307C02091FC013091FD0126175A
:104B4000370791F08093FE017093FD016093FC01A3
:104B500089837B836A838091FD0284FF05C063E0C3
:104B6000CE0101960E94F8260F900F900F90DF91D2
:104B7000CF910895BC0184E00C949125BC0183E0A1
:104B80000C949125CF93DF93CAE0D0E08091C402CA
:104B900084FF18C080910A0290910B029817E1F0EF
:104BA00028E0829FC001112468E0845F9D4F0E942D
:104BB000F42680910A0290E001968F7099278093E5
:104BC0000A020AC00E94FC2687EB9BE00197F1F7DE
:104BD00000C000002197D1F6DF91CF910895CF93C7
:104BE000DF93EC01A0910B02B0E0CD0101968F7034
:104BF000992720910A02281779F093E0AA0FBB1F8A
:104C00009A95E1F7A45FBD4F98E0FE0101900D92E7
:104C10009A95E1F780930B020E94FC260E94C22520
:104C200088E0FE01A2E0B2E001900D928A95E1F7E2
:104C3000DF91CF91089585E890E00895FC0180818F
:104C400080768032A1F58181813061F48481958103
:104C5000892B69F582E092E09093E2028093E10271
:104C600088E00895823041F48CE892E09093E2026B
:104C70008093E10281E008958A3021F4838180935A
:104C80008C0215C0893099F48281938181159240FC
:104C900081F484819581892B61F481E08093010204
:104CA00086819781909300028093FF0102C080E08B
:104CB00008958FEF08952091FF0130910002232B7A
:104CC00071F020910102213051F4FC018081809328
:104CD0008D02109200021092FF0181E008958FEF83
:104CE00008950895FC0193819330D9F068F49130D0
:104CF00081F0923009F054C084E295E09093E20292
:104D00008093E1028BE30895913221F1923291F187
:104D100047C08FE595E09093E2028093E10282E143
:104D200008958281813071F028F08230C9F581E7E1
:104D300095E00AC089E895E09093E2028093E10251
:104D400084E008958DE795E09093E2028093E1027C
:104D50008AE008958281882329F0813009F58FE463
:104D600095E002C086E395E09093E2028093E10231
:104D700089E0089584819581009751F0019781F42D
:104D80008DE895E09093E2028093E10282E308953A
:104D90008FEB95E09093E2028093E10280E4089526
:104DA00080E008951F93CF93DF93162FEA012881A7
:104DB00024FF05C0398128E82327298302C02AE57A
:104DC0002883212FFC01CE010296DC0131913D9315
:104DD00021501216DCF3612F0E945B031C5F1883C5
:104DE000DF91CF911F91089544EC52E00C94D226AC
:104DF0004DEF52E00C94D226CF93DF936091E30203
:104E0000635067FD93C08091DF02CCE0D0E0C81B07
:104E1000D109C951DD4F8091DE02803120F4CE01ED
:104E20000E94712681C08D3209F06EC0683009F091
:104E30007BC083EC8093B9028AE580939000109246
:104E4000DD028881807621F0CE010E941E2649C0B5
:104E50009A811092C2028981811106C01092C30208
:104E600022EC32E082E038C0853019F49093E402FD
:104E700030C08630A1F48B81813041F0823031F036
:104E8000833021F0813211F0823221F4CE010E9470
:104E9000722601C080E090E49093DD0222C0883049
:104EA00089F0893019F49093E60213C08A3069F0D2
:104EB0008B3079F48BE48093C5028093FE0280935B
:104EC000D10207C026EE32E002C022EC32E081E0DF
:104ED00003C022EC32E080E03093E2022093E10252
:104EE00009C08F3F39F4988197FD8E8190E89093A7
:104EF000DD0207C09F81911104C09E81981708F4BC
:104F0000892F80938F0010C08091DD0287FF0CC035
:104F1000CE010E945B268F3F21F48EE180939000AA
:104F200003C0811110928F001092E30280919000D3
:104F300084FF4CC080918F008F3F09F447C0C82F79
:104F4000893008F0C8E08C1B80938F009091B902E3
:104F500088E889278093B902CC2359F18091E10236
:104F60009091E2022091DD0226FF12C0A9EBB2E08F
:104F70002C2FAC01495B5240FA01EA0FFB1FE49170
:104F80001196EC931197215011962111F5CF08C07D
:104F9000EAEBF2E0DC012C2F3D9131932150E1F757
:104FA00001962FEF2C0F820F911D9093E2028093B8
:104FB000E1026C2F8AEB92E00E945B03CC5FCC3065
:104FC00019F08FEF80938F00C093900084E190B32D
:104FD0009C7031F48150D9F71092E4021092DC02F7
:104FE000DF91CF910895CF93DF9385B7886085BF18
:104FF0008BB780688BBFC4ECD2E08BE48983ADEFC4
:10500000B2E011968C931197E0EDF2E081838AE58E
:1050100088838C938083DF91CF910895DB018F93F8
:105020009F930E94A628BF91AF91A29F800D911DD2
:10503000A39F900DB29F900D11240895991B79E0C4
:1050400004C0991F961708F0961B881F7A95C9F718
:105050008095089587FB082E062687FD819567FDBC
:1050600061950E941E280EF4919507FC8195089584
:10507000AA1BBB1B51E107C0AA1FBB1FA617B7077E
:1050800010F0A61BB70B881F991F5A95A9F780959A
:105090009095BC01CD01089597FB072E16F400945E
:1050A00007D077FD09D00E94382807FC05D03EF4D0
:1050B000909581959F4F0895709561957F4F0895C4
:1050C000A1E21A2EAA1BBB1BFD010DC0AA1FBB1F0C
:1050D000EE1FFF1FA217B307E407F50720F0A21B7E
:1050E000B30BE40BF50B661F771F881F991F1A94EB
:1050F00069F760957095809590959B01AC01BD0115
:10510000CF010895EE0FFF1F0590F491E02D099453
:105110000E949028332312F48A1B9B0B0C94A12825
:10512000A29FB001B39FC001A39F700D811D1124E8
:10513000911DB29F700D811D1124911D08950E9433
:105140009028B7FF0895821B930B08950E94902822
:10515000A59F900DB49F900DA49F800D911D1124CB
:105160000895B7FF0C94A6280E94A628821B930BD3
:1051700008958F929F92AF92BF92CF92DF92EF925B
:10518000FF92CF93DF93EC01688179818A819B81C3
:10519000611571058105910521F464E279ED8BE5D6
:1051A00097E02DE133EF41E050E00E94762949017C
:1051B0005A019B01AC01A7EAB1E40E94A6286B0149
:1051C0007C01ACEEB4EFA50194010E94B428DC018F
:1051D000CB018C0D9D1DAE1DBF1DB7FF03C00197F8
:1051E000A109B04888839983AA83BB839F77DF9105
:1051F000CF91FF90EF90DF90CF90BF90AF909F90B6
:105200008F9008950E94B928089580E690E00E944A
:10521000B9280895A0E0B0E0809360009093610009
:10522000A0936200B09363000895FC014150504088
:1052300030F001900616D1F73197CF0108958827F5
:1052400099270895E199FECF9FBB8EBBE09A9927DD
:105250008DB30895A6E1B0E044E050E00C946829D5
:10526000A8E1B0E042E050E00C946829262FE199D3
:10527000FECF9FBB8EBBE09A01970DB2021631F0B4
:105280002DBB0FB6F894E29AE19A0FBE08950396EB
:10529000272F0E9437290E943629252F0E9437295F
:1052A000242F0C9437290196272F0E9437290C941C
:1052B0003629262FE199FECF9FBB8EBB2DBB0FB6A3
:1052C000F894E29AE19A0FBE01960895DC01CB01B1
:1052D000FC01E199FECF06C0FFBBEEBBE09A319620
:1052E0000DB20D9241505040B8F70895052E97FB2E
:1052F0001EF400940E948D2957FD07D00E9460285B
:1053000007FC03D04EF40C948D29509540953095B0
:1053100021953F4F4F4F5F4F089590958095709521
:0E53200061957F4F8F4F9F4F0895F894FFCFF8
:10532E0001000000A4000000009E0000000001012A
:10533E0002000500050501191A1B1C1D1E1F202148
:10534E00220601EF018D25EF259025BE25BA25FFFA
:10535E005AE200E900EA00B500B600B700CD0083BE
:10536E0001CC008A0192019401210223022402251C
:10537E0002260227022A02B300B4006F00700081D9
:10538E0082833435363794959697939291906061D7
:10539E0063640001020202020606060909090909F0
:1053AE00090F0F0F0F0F0F151515181919191919B8
:1053BE0019191919192324252525252525E200E972
:1053CE0000EA00B500B600B700CD008301CC008A1C
:1053DE0001920194012102230224022502260227B2
:0E53EE00022A02B300B4006F007000818283B7
:00000001FF
