:100000000C9416020C9435020C9435020C943502B3
:100010000C9435020C9435020C9435020C94350284
:100020000C9435020C9435020C94E1200C94B72109
:100030000C94EF1B0C9435020C9435020C94350291
:100040000C9435020C9435020C9435020C94350254
:100050000C9435020C94481C0C9435020C94350217
:100060000C9435020C9435020C9435020C94350234
:100070000C9435020C9435020C9435020C94350224
:100080000C9435020C9435020C9435020C94350214
:100090000C9435020C943502321132116411641142
:1000A000B111CF11F012F012DA116F12801280121A
:1000B000E012F012F012E91290139013A213A2139F
:1000C0009913A213A213A213901390139E13A213B9
:1000D000A2139E1328224F2247234F2247239B22FD
:1000E000BE224723152324232B0014001A000800E6
:1000F000150017001C0018000C00120013002A0045
:10010000290004001600070009000A000B000D007A
:100110000E000F0033002800E1001D001B00060048
:100120001900050011001000360037003800346255
:10013000E0000358E300E20001582C422C002C00A0
:100140005000510052004F0035003A003B003C0087
:100150003D003E00010024002500260001000100B2
:1001600001003F0040004100420043002E022100F8
:10017000220023002D00010001004400450046003C
:100180004700480025021E001F00200038002E00F6
:1001900001000100010001000153010001002700DE
:1001A000270037003600290035021E021F022002F8
:1001B00021022202230224022502260227024C00E9
:1001C000010049004A004B000100010050005100AD
:1001D00052004F002D02010001004C004D004E0066
:1001E000010001002F0230022F00300031003102E7
:1001F00001000100010001000100010001000253A3
:100200004A004E004B004D0001000100ED00F900D6
:100210000100010001000100010001000100045380
:100220000100EF00EE00F0000100010001000100FC
:100230000100010001000100010001000100FA00BD
:1002400001000100010001000100010001000100A6
:100250000100035301000100F100F2000100F3006E
:10026000AB00AA00A900AE002B00005C1A00080039
:10027000150017001C003A003B003C003D000453F1
:1002800029000400C05CC15C09000A000B001E00CC
:100290001F00200021000100E1001D00C35CC45CC0
:1002A0001900050011001000360037003800E10089
:1002B000E000E200E300E6002C002C002C002C0003
:1002C0005000510052004F000E037400650065009D
:1002D0006E007300790000000A03720077006B0063
:1002E000620000000403090409023B00020100A0AF
:1002F000320904000001030101000921110100017C
:100300002240000705810308000A090401000103D7
:1003100000000009211101000122B6000705820337
:1003200020000A1201100100000008EDFE606001CB
:10033000000102000105010902A10185020901A1D4
:100340000005091901290815002501950875018185
:10035000020501093009311581257F950275088153
:100360000609381581257F950175088106050C0A57
:1003700038021581257F950175088106C0C00501E9
:100380000980A101850319012AB700150126B700CC
:10039000950175108100C0050C0901A101850419A2
:1003A000012AA002150126A002950175108100C046
:1003B00005010906A1018505050719E029E71500D2
:1003C00025019508750181020507190029EF15001F
:1003D000250195F07501810205081901290595058A
:1003E00075019102950175039101C005010906A1EE
:1003F00001050719E029E715002501950875018118
:10040000029501750881010507190029FF150026CD
:10041000FF00950675088100050819012905950555
:1004200075019102950175039101C00011241FBE51
:10043000CFEFD0E2DEBFCDBF12E0A0E0B1E0E0EE52
:10044000F7E400E00BBF02C007900D92A83AB10795
:10045000D9F724E0A8EAB2E001C01D92AD34B2079A
:10046000E1F70E941C1E0C94EE230C940000FC018A
:1004700090E3A0E0B1E001900D929A95E1F78091B0
:10048000AA029091AB02A091AC02B091AD028F6F25
:100490009F6FAF6F8093AA029093AB02A093AC02C0
:1004A000B093AD02089520E3829FC00111248F5CB8
:1004B0009E4F0C943702EFEAF2E087E090E050E1C3
:1004C00040E231E020E8108213825183548312828B
:1004D00015821682118647834287108613861486FA
:1004E00017861586108A3687318B128A158A238BD8
:1004F000268B148A178A01977896009721F781E353
:1005000091E00C9437022F923F924F925F926F923C
:100510007F928F929F92AF92BF92CF92DF92EF9293
:10052000FF920F931F93CF93DF93CDB7DEB7A197C1
:100530000FB6F894DEBF0FBECDBF0091AA02109196
:10054000AB022091AC023091AD0241E050E060E09E
:1005500070E0082E04C0440F551F661F771F0A94D1
:10056000D2F74095509560957095402351236223B2
:1005700073234093AA025093AB026093AC02709332
:10058000AD022CE0829FD0011124A050BF4F2C91CE
:100590002095422F477050E0BA016F5F7F4F7A83FA
:1005A0006983207722952F7030E0A9014F5F5F4F5C
:1005B0005C834B8311962C9111972095422F4770A5
:1005C00050E0BA016F5F7F4F7E836D832077229565
:1005D0002F7030E0A9014F5F5F4F58874F8312960D
:1005E0002C9112972095422F477050E0BA016F5F0F
:1005F0007F4F7A876987207722952F7030E0A90195
:100600004F5F5F4F5C874B8713962C911397209514
:10061000422F477050E0BA016F5F7F4F7E876D8732
:10062000207722952F7030E0A9014F5F5F4F588BE4
:100630004F8714962C9114972095422F477050E0C5
:10064000BA016F5F7F4F7A8B698B207722952F706D
:1006500030E0A9014F5F5F4F5C8B4B8B15962C915F
:1006600015972095422F477050E0BA016F5F7F4F7A
:100670007E8B6D8B207722952F7030E0A9014F5F24
:100680005F4F588F4F8B16962C9116972095422FBF
:10069000477050E0BA016F5F7F4F7A8F698F207784
:1006A00022952F7030E0A9014F5F5F4F5C8F4B8F19
:1006B00017969C9117979095292F277030E0A901E4
:1006C0004F5F5F4F5E8F4D8F9077292E22949FE072
:1006D0002922312C5FEF251A350A18969C9118971C
:1006E0009095292F2770422E512C6FEF461A560AEB
:1006F0009077692E62942FE06222712C7FEF671A47
:10070000770A19969C91199790959F8F9770C92E8B
:10071000D12C2FEFC21AD20A3F8D307732953F701D
:10072000432F50E04F5F5F4F59A348A31A960C9197
:100730001A970095902F9770A92EB12C6FEFA61ADB
:10074000B60A007702950F7010E00F5F1F4F1B96DF
:100750009C919095292F2770822E912C7FEF871ADC
:10076000970A9077E92EE2943FE0E322F12C9FEF85
:10077000E91AF90A26E0829FF0011124E155FD4FA4
:1007800020E030E02F5F3F4FC9016B817C810E94E8
:100790007B23482FC90169817A810E947B238823AA
:1007A00019F08181877F02C0818188608183848183
:1007B000442311F0877F01C088608483C9016F8161
:1007C00078850E947B23482FC9016D817E810E941C
:1007D0007B23882319F082818D7F02C08281826011
:1007E00082838581442311F08D7F01C082608583DF
:1007F000C9016B857C850E947B23482FC9016985CF
:100800007A850E947B23882319F081818D7F02C025
:100810008181826081838481442311F08D7F01C0B6
:1008200082608483C9016F8578890E947B23482F69
:10083000C9016D857E850E947B23882319F0818103
:100840008E7F02C08181816081838481442311F085
:100850008E7F01C081608483C9016B897C890E947D
:100860007B23482FC90169897A890E947B238823C9
:1008700019F080818F7702C08081806880838381B6
:10088000442311F08F7701C080688383C9016F8989
:10089000788D0E947B23482FC9016D897E890E9433
:1008A0007B23882319F080818F7B02C08081806444
:1008B00080838381442311F08F7B01C08064838314
:1008C000C9016B8D7C8D0E947B23482FC901698DE6
:1008D0007A8D0E947B23882319F080818F7D02C04E
:1008E0008081806280838381442311F08F7D01C0E9
:1008F00080628383C901B1010E947B23482FC90113
:100900006D8D7E8D0E947B23882319F080818F7EE0
:1009100002C08081806180838381442311F08F7EB7
:1009200001C080618383C901B3010E947B23482FEA
:10093000C901B2010E947B23882319F08081877F3F
:1009400002C08081886080838381442311F0877F87
:1009500001C088608383C90168A179A10E947B23BB
:10096000482FC901B6010E947B23882319F080819A
:100970008B7F02C08081846080838381442311F057
:100980008B7F01C084608383C901B8010E947B23EF
:10099000482FC901B5010E947B23882319F080816B
:1009A0008D7F02C08081826080838381442311F027
:1009B0008D7F01C082608383C901B7010E947B23C0
:1009C000482FC901B4010E947B23882319F080813C
:1009D0008E7F02C08081816080838381442311F0F7
:1009E0008E7F01C08160838378962730310509F0BE
:1009F000C9CEA1960FB6F894DEBF0FBECDBFDF9172
:100A0000CF911F910F91FF90EF90DF90CF90BF900B
:100A1000AF909F908F907F906F905F904F903F909E
:100A20002F900895CF93DF93D82F8091AE02C82FD7
:100A3000C17080FD15C0869583704091AA025091C7
:100A4000AB026091AC027091AD02082E04C07695A5
:100A50006795579547950A94D2F740FD0E94830207
:100A6000AFB7F89481B380B3E091AE02F0E0CF016C
:100A7000880F991FE80FF91FE155FD4FB08128B18C
:100A800057B131815474832F8B7B582B8EB14DB16C
:100A900062814C7F962F9370492BDD2389F1EB2FD8
:100AA000C111E095732F7B70247FCC2321F0932F0D
:100AB00090959B7001C0972F292B962F9270792BC0
:100AC0007B2B8D7FCC2319F0962F90959270892BDC
:100AD000711101C05F74922F9F74232FC11101C047
:100AE0002095207B292B711101C04E7F982F9E7F6E
:100AF0006170C11102C081E06827862F892B06C072
:100B0000247454748C7F4C7FB0E0E0E0E1BB28B9E2
:100B10008EB9B0BB57B94DB9AFBF8091AE028F5FF0
:100B2000883318F48093AE0202C01092AE02DF91B7
:100B3000CF910895CF93C0913001C0FF04C081E0F0
:100B4000CF910C941205C1FF06C080E00E941205EF
:100B5000CD7FC0933001CF9108950C945B020C942B
:100B60009A05CF92DF92EF92FF926B017C0162FDBA
:100B700008C0DC01CB01B695A79597958795817044
:100B800001C082E0C3FC83E0C4FC84E00E94530205
:100B9000C701B601FF90EF90DF90CF90089581E0FC
:100BA000089581E008950C94D10508950C94D5051D
:100BB0001F93CF93DF9300D000D01F92CDB7DEB745
:100BC00049835A836B833091820389819A813111E1
:100BD00014C0662359F0222349F00E94C918182F27
:100BE000682F89819A810E94721803C00E949D1803
:100BF000182F69817A81812F04C00E94C9186981E8
:100C00007A810F900F900F900F900F90DF91CF91FE
:100C10001F910C949B06FC01262F4081518162811B
:100C2000738184810C94D805CF93DF93EC0160E04D
:100C30000E940B06BE01DF91CF910C94D6050E9455
:100C4000A6080C94AD050C94AF0508950E947E1380
:100C50000E9425062FEF84E39CE0215080409040C5
:100C6000E1F700C000000C946E1C0F931F93CF930C
:100C7000DF938C0161E00E940B06EC01B8010E9439
:100C8000D3058823F1F1B801CE010E94050D882318
:100C9000C1F1B801CE010E94570D882391F1B8012E
:100CA000CE010E94820E882361F1F801828188239F
:100CB00009F1CB358DE5D807C1F050F4C115FCE53D
:100CC000DF0781F0CF3DDC45A9F40E94D41A19C09A
:100CD000CC35EDE5DE0761F0CD35DD4559F40E94F8
:100CE0005C1908C00E9426060CC00E94651902C04B
:100CF0000E946819C801DF91CF911F910F910C9448
:100D0000CF0580E0DF91CF911F910F910895089555
:100D10000C94870681E008950C948A06CF93C82F1F
:100D20000E9488068C2F0E948C06CF91089580E047
:100D300090E00895089520E3829FC0011124FC01F2
:100D40002CE0729FE00DF11D1124E60FF11DEE0F56
:100D5000FF1FE851FF4F859194910895880F991FC7
:100D6000FC01E853FD4F859194910895CF93DF9353
:100D70000E949B060E94CE07EC018115904508F069
:100D800041C0C11580E4D80708F0D1C0C83ED105E4
:100D900010F5C03ED10508F0FDC0C83AD10578F481
:100DA000C53AD10508F0A2C0C130D10509F4F2C09E
:100DB00008F4EEC0C430D10508F0ECC0E9C0CF3B68
:100DC000D10508F49BC0C03CD10508F4E1C0CE01B8
:100DD000805C91099EC0C11590E2D90758F4C115F5
:100DE00021E0D20708F0D6C0CD3ED10508F4D0C02E
:100DF000D065D0C0C11580E3D80708F08EC0CE0101
:100E00009F7087C0C11595E5D90708F043C0C1158B
:100E100024E5D20708F0A2C0C11582E5D80708F57D
:100E2000C11591E5D90708F085C0CE0174E096950B
:100E300087957A95E1F783709C2F937021E030E0DD
:100E400002C0220F331F9A95E2F73C68382BCF700F
:100E5000C695C69580E2C89FE0011124C22BD32B12
:100E600099C09E01237033278C2F86958695C115D6
:100E7000D34508F064C0C1E0D0E002C0CC0FDD1F54
:100E80002A95E2F720E2829FC0011124C82BD92BBA
:100E9000DC6880C0C11529E5D207A0F4C11588E53A
:100EA000D80708F060C0C11596E5D90708F070C0F2
:100EB0008C2F0E9462088F71C82FD0E0DC2FCC27C6
:100EC000D06268C0C1152AE5D20708F451C0CE012E
:100ED00090568115904208F05BC08D2F8F710E9453
:100EE0006208DD27D0628F71D82B54C0C55AD0E07C
:100EF000CC59DD4FC881D0E0D0644CC0C85AD0E096
:100F0000CC0FDD1FCA5CDD4F0990D881C02DD464A1
:100F100041C00E94AE06EC013DC0CE019927D3FF2F
:100F200003C0EC01D86C36C0EC01D06C33C0DF706C
:100F3000D06A30C0DC2FCC27C16FD06A2BC0C1E093
:100F4000D0E002C0CC0FDD1F2A95E2F720E2829F9D
:100F5000C0011124C82BD92BDA681CC0DC2FCC2788
:100F6000C46FD06A17C0DC2FCC27C06FD06A12C004
:100F70008C2F8F700E94620894E0D695C7959A9541
:100F8000E1F7CF70D0E0DC2FCC27D069C82B02C0AE
:100F9000C0E0D0E0CE01DF91CF9108958238910575
:100FA00069F1B0F48133910509F46DC048F48932D8
:100FB000910509F463C08A32910509F469C0089566
:100FC0008533910509F455C089339105B9F0089529
:100FD000833E910569F138F4803E9105B1F0823E7F
:100FE000910509F10895863E9105A9F1873E910585
:100FF000B9F1843E910509F064C023C020912A0410
:1010000020FD4FC021FD4DC0089580912A0480FD30
:1010100044C080912B0480FF44C080912A0484FD49
:1010200042C083EE4DC080912A0482FF38C0F5CFC4
:1010300080912A0482FD33C080912B0480FD31C051
:10104000ECCF80912B0481FF32C080912A0484FD73
:101050002AC087EE35C080912A0483FF26C0F5CFD1
:1010600080912A0483FD21C080912B0481FD1FC043
:10107000ECCF80912A0485FD1CC01DC080912A04FC
:1010800085FD19C016C080912A0486FD16C017C0C0
:1010900080912A0486FD13C010C089E311C082EE3E
:1010A0000FC080EE0DC080E00BC086EE09C084EE5C
:1010B00007C089E205C085E303C08AE201C081E37D
:1010C00090E0089590912A0492FF0DC0282F287176
:1010D000283019F4877F846006C0282F24712430BB
:1010E00011F48B7F886093FF0DC0282F2871283161
:1010F00019F4877E846106C0282F2471243111F4ED
:101100008B7E886120912B0420FF0DC0382F387111
:10111000383019F4877F816006C0382F3171313043
:1011200011F48E7F886021FF0DC0282F287128318F
:1011300019F4877E816106C0282F2171213111F4B5
:101140008E7E886194FD877E089508950E942C1AF2
:10115000811102C00E94D41A0E94371A809306049B
:101160000E943F1A90932B0480932A040E94A508A2
:101170000E943B1A682F70E080E090E00E94741794
:101180006091D9037091DA038091DB039091DC03C5
:101190000C94AC17E82FF0E0EE0FFF1FEC5CFB4F58
:1011A000808191810895089580EA8A95F1F70895E4
:1011B00000C008950C94D408F894E82FE295EF70DD
:1011C000F0E031A1282F2F7081E090E001C0880F5E
:1011D0002A95EAF7982F9095932391A392A1892BB2
:1011E00082A3789408950F931F93CF93DF9384E99C
:1011F0000E94DC0885E90E94DC0886E90E94DC0880
:1012000087E90E94DC08C7E6D2E003E712E0899193
:101210000E94DC080C171D07D1F710922D041092C4
:101220002C04109235041092340410922F04109262
:101230002E0410923704109236041092310410924A
:101240003004109239041092380410923304109232
:10125000320410923B0410923A0484E00E94C409C4
:10126000DF91CF911F910F910C941F067F928F9267
:101270009F92AF92BF92CF92DF92EF92FF920F9325
:101280001F93CF93DF93C3E7D2E08CE2A82E84E0D4
:10129000B82E94E3E92E94E0F92E712C01E010E0D1
:1012A0006E018881F894E82FE295EF70F0E021A1BB
:1012B0008F70A80102C0440F551F8A95E2F7CA013A
:1012C000922F982B91A392A18095892382A3789441
:1012D0000E94D808E7E6F2E020E030E0812C912C73
:1012E0004191A42FA295AF70B0E090968C9190E0C0
:1012F0004F7002C0959587954A95E2F780FD08C02A
:10130000C801022E02C0880F991F0A94E2F702C09A
:1013100080E090E0882A992A2F5F3F4F2C303105DA
:10132000F9F62196F60180810E94DC080E94DA0815
:10133000F501808191818816990621F09182808241
:1013400081E001C080E0782AF2E0AF0EB11CEA141F
:10135000FB0409F0A5CF272D44E064E374E08CE2A0
:1013600094E00E94C5090E942306872DDF91CF914A
:101370001F910F91FF90EF90DF90CF90BF90AF90B3
:101380009F908F907F9008950895FF920F931F93E1
:10139000CF93DF93F82E092F162FD72FC42F222398
:1013A00049F081E0809359030E94211C90935803D7
:1013B00080935703809159038823D9F08091570374
:1013C000909158030E94391C069798F0EF2DF02F4A
:1013D000A12FBD2F80E090E04C2F50E0841795079F
:1013E00034F4219131912D933D930196F7CF1092D2
:1013F0005903DF91CF911F910F91FF900895809134
:10140000600380FF0BC06091260285E0689FB001F9
:10141000112475956795759567952BC081FF09C057
:101420006091260285E0689FB0011124759567954B
:1014300020C082FF07C06091260285E0689FB0014E
:10144000112417C090915F039923D1F06091250278
:10145000961788F72091260285E0289F9001112495
:10146000929FA001939F500D112470E0CA010E9429
:101470007B236038710540F46115710519F406C0CD
:1014800065E070E0862F08958FE7089581E0089564
:101490008091600380FF08C06091220270E0759522
:1014A00067957595679521C081FF06C060912202FE
:1014B00070E07595679519C082FF04C060912202A3
:1014C00070E010C090915E03992399F06091210221
:1014D0009617A0F780912202899FC001112470E025
:1014E0000E947B236038710540F46115710519F481
:1014F00006C061E070E0862F08958FE7089581E0CF
:1015000008958D3E21F40E94FF09819504C08E3E0E
:1015100029F40E94FF098093640308958F3E21F40B
:101520000E94FF09819504C0803F29F40E94FF09B1
:10153000809363030895893F19F40E94480A05C007
:101540008A3F31F40E94480A81958093650308958B
:101550008B3F21F40E94480A819504C08C3F29F4F6
:101560000E94480A8093660308959FE0980F983080
:1015700078F421E030E0A90102C0440F551F9A958C
:10158000E2F7CA0190916203892B80936203089568
:101590008D3F21F48091600381600BC08E3F21F468
:1015A00080916003826005C08F3F29F480916003C1
:1015B00084608093600308958D3E39F490916403B4
:1015C00097FF35C01092640359C08E3E29F4909164
:1015D00064031916BCF32BC0909163038F3E29F46A
:1015E00097FF25C01092630349C0803F19F4191674
:1015F000CCF31DC090916503893F29F41916BCF402
:10160000109265033BC08A3F19F497FF10C0F8CFD2
:101610008B3F39F49091660397FF09C010926603DF
:101620002DC08C3F21F4909166031916BCF39FE006
:10163000980F983080F421E030E0A90102C0440FF7
:10164000551F9A95E2F7CA0180959091620389230C
:101650008093620313C08D3F21F4809160038E7FDD
:101660000BC08E3F21F4809160038D7F05C08F3FBA
:1016700029F4809160038B7F8093600380916303E2
:10168000811106C080916403811102C010925F0332
:1016900080916503811106C080916603811102C0AB
:1016A00010925E0308950E94211C20916303211172
:1016B00004C020916403222321F090935D03809362
:1016C0005C0320916503211104C02091660322234D
:1016D00021F090935B0380935A0381E693E00C948E
:1016E000DE0EEF92FF920F931F93CF93DF9300D004
:1016F00000D000D0CDB7DEB786E0E1E6F3E0DE0152
:10170000119601900D928A95E1F7E0906303F090B5
:1017100064030091650310916603109263031092B5
:1017200064031092650310926603E11003C0FF206A
:1017300009F45DC080915C0390915D030E94391CA7
:10174000AC0190915F03992339F02091270230E09A
:101750002417350758F04BC0209128028AE0289FB3
:10176000900111242417350718F041C09F3F19F04C
:101770009F5F90935F03EE2061F00E94FF091E14AB
:1017800014F09FEF01C091E0989F902D1124909349
:101790006303FF2061F00E94FF091F1414F09FEF04
:1017A00001C091E0989F902D112490936403309193
:1017B00063033323E1F0209164032223C1F045EB5E
:1017C0003403C0011124992319F09093630303C0DB
:1017D00081E08093630335EB2303C0011124992337
:1017E00019F09093640303C081E0809364030111B6
:1017F00003C0112309F45DC080915A0390915B03EB
:101800000E94391CAC0190915E03992339F020911C
:10181000230230E02417350758F04BC020912402F2
:101820008AE0289F900111242417350718F041C041
:101830009F3F19F09F5F90935E03002361F00E9429
:10184000480A101614F09FEF01C091E0989F902D68
:10185000112490936503112361F00E94480A111628
:1018600014F09FEF01C091E0989F902D1124909368
:101870006603309165033323E1F020916603222350
:10188000C1F045EB3403C0011124992319F0909362
:10189000650303C081E08093650335EB2303C0013A
:1018A0001124992319F09093660303C081E080937B
:1018B00066038091630381110BC0809164038111E1
:1018C00007C080916503811103C080916603811177
:1018D0000E94530BEB82FC820D831E8386E0FE0187
:1018E0003196A1E6B3E001900D928A95E1F7269634
:1018F0000FB6F894DEBF0FBECDBFDF91CF911F9121
:101900000F91FF90EF900895E1E6F3E086E0DF01AC
:101910001D928A95E9F710925F0310925E03109270
:10192000600308950F931F93CF93DF93C42FD22F9B
:10193000FC0182818823C9F0409369030E94211C25
:10194000909368038093670380E28C0F883008F0DF
:1019500057C0C77081E001C0880FCA95EAF7DF91D0
:10196000CF911F910F910C94F1108091690348134E
:1019700030C080916703909168030E94391C883CB5
:10198000910538F510E21D0FCD17B9F080E28C0FEC
:10199000883040F4C77081E001C0880FCA95EAF72B
:1019A0000E94F810183028F581E09D2F977001C033
:1019B000880F9A95EAF70E94F110802F0E94E81094
:1019C0001830F0F4D77081E001C0880FDA95EAF79B
:1019D0000AC080E28C0F883098F4C77081E001C0A3
:1019E000880FCA95EAF7DF91CF911F910F910C9460
:1019F000F810802FDF91CF911F910F910C94E81078
:101A0000DF91CF911F910F9108950F939C01CB010E
:101A1000243F4CE5340731F188F4293DFCE53F07CC
:101A2000D9F02A3D4CE5340779F1283D3C45A9F52C
:101A300006E221EE41EE68ED7CE52BC0263FFCE599
:101A40003F07E1F0A8F0273F3C4539F507E225EED6
:101A500046EE67EF7CE51DC007E225EE45EE69ED39
:101A60007CE517C006E221EE40EE64EF7CE511C094
:101A700007E225EE44EE65EF7CE50BC006E221EEC1
:101A800042EE66EF7CE505C008E221E045EE6AED36
:101A90007CE50E94920C80E008C0FC0182818823D2
:101AA00019F01092690301C081E00F910895CF935E
:101AB000DF93EC01FB018281882309F41FC1C2304E
:101AC000FCE5DF0708F41BC1C6319CE5D90738F0F7
:101AD0009E012B5F3C452930310508F010C10E9462
:101AE0003F1A90932B0480932A04C031ECE5DE0763
:101AF00009F4C3C008F041C0C8308CE5D80709F428
:101B00009AC0F0F4C430ECE5DE0709F487C068F44D
:101B1000C2308CE5D80709F477C0C330DC4509F042
:101B2000E3C080912A04826076C0C630ECE5DE070F
:101B300009F46EC008F07BC080912A0488606BC0F5
:101B4000CC308CE5D80709F485C068F4CA30ECE5E0
:101B5000DE0709F474C008F079C00E947E138091FA
:101B60002A04806858C0CE308CE5D80709F476C0C6
:101B700008F07FC080912A048BC0CC3FECE5DE07E3
:101B800009F44FC018F5C3318CE5D80709F47DC0BE
:101B900078F4C131ECE5DE0709F473C0C231DC45ED
:101BA00009F0A2C00E947E1380912A048F7733C06F
:101BB000C5318CE5D80709F472C008F486C0CB3F64
:101BC000DC4509F091C080912B043EC0C115FDE5B4
:101BD000DF0709F45FC058F4CE3F9CE5D90709F44C
:101BE00044C008F43FC080912B0482602DC0C230F5
:101BF000FDE5DF0709F475C008F45DC0C330DD45BD
:101C000009F072C080E06EC080912A04816003C038
:101C100080912A04806180932A0466C080912A04FE
:101C200011C080912B04826080932B045DC0809151
:101C30002A048062F0CF80912A048064ECCF8091E6
:101C40002A0488608460E7CF8160EECF80912A0407
:101C50008E7FE1CF80912A048D7FDDCF80912A0491
:101C6000877FD9CF80912B0418C080912B048D7F62
:101C7000DBCF80912A048F7ECECF80912A048F7D86
:101C8000CACF80912A048F7BC6CF80912A04877F98
:101C90008B7FC1CF80912B048D7F8E7FC5CF8091AC
:101CA0002A0482FB222720F991E0922790FB82F9F7
:101CB00090FB83F9B0CF80912B04982F9095917071
:101CC0008E7F892B90FB81F9AFCF0E947E1380918C
:101CD0002A0487FB222720F991E0922790FB87F9BD
:101CE0009ACF81E00E94D61A80912A0490912B0409
:101CF0000E94501A0E947E1380E001C081E0DF91B3
:101D0000CF910895CF93DF9386319C4541F5EB0148
:101D10000E946B19982F8A812091290230912A0202
:101D2000882379F09A7A81E009F480E080936A034D
:101D3000911102C069E201C065E3C9010E94711BF3
:101D40000AC080916A03811102C069E201C065E3A3
:101D5000C9010E947C1B0E94BD1980E001C081E086
:101D6000DF91CF9108959093700380936F0308954E
:101D7000E0916F03F0917003309721F00190F081B2
:101D8000E02D099480E00895E0916F03F0917003D5
:101D9000309799F020913502222359F020912A049E
:101DA00027FF07C0DC012C9111962C93119725E099
:101DB0002C930280F381E02D09940895E0916F0344
:101DC000F0917003309739F022E0DC012C9304800D
:101DD000F581E02D0994089520916D0330916E03F3
:101DE0002817390771F090936E0380936D03E0918B
:101DF0006F03F0917003309721F00680F781E02D9A
:101E00000994089520916B0330916C0328173907CA
:101E100071F090936C0380936B03E0916F03F091EA
:101E20007003309721F00084F185E02D0994089526
:101E30000E942D1C60937E0370937F038093800328
:101E40009093810360937A0370937B0380937C0368
:101E500090937D03089585B7806885BF85B78068B6
:101E600085BF089581E008950C94320F08950C9475
:101E7000360F0C94360F0C94390F0C94360F0C94CB
:101E80003D0F0C94360F0E942B0F8AE29AE10E94BC
:101E9000A01C0E94410F0C943F0F0E94370F0C941E
:101EA000360F0E94181C0E94F3080C943B0F6F928F
:101EB0007F928F929F92AF92BF92CF92DF92EF92DA
:101EC000FF920F931F93CF93DF93CDB7DEB72A977F
:101ED0000FB6F894DEBF0FBECDBF0E943609811148
:101EE0000E94180F32E7832E33E0932E00E010E0BB
:101EF000C02E802F0E94CA085C01F401619071908D
:101F00004F016826792661147104B1F40F5F1F4FE9
:101F10000430110569F78FEF89838A831B820E9441
:101F2000211C8160782F9D838C8349815A816B812C
:101F30008D810E940D103AC08091060481FD0E949F
:101F4000D308D12CEE24E394F12CC3018E219F21E0
:101F5000892B29F10E94340F8823A9F0DE82CF82D9
:101F6000AE20BF2081E0AB2809F480E088870E9482
:101F7000211C8160782F9A8789874E815F816885CF
:101F80008A850E940D10000F111FF801EE58FC4FBA
:101F900080819181E826F926F182E08207C0D394FE
:101FA000EE0CFF1CFCE0DF12D0CFB0CF0E94710B13
:101FB0000E94B80E909171038917D1F00E94B80E5B
:101FC000809371032A960FB6F894DEBF0FBECDBF83
:101FD000DF91CF911F910F91FF90EF90DF90CF9005
:101FE000BF90AF909F908F907F906F900C948E06D3
:101FF0002A960FB6F894DEBF0FBECDBFDF91CF910A
:102000001F910F91FF90EF90DF90CF90BF90AF9016
:102010009F908F907F906F900895DF92EF92FF9244
:102020000F931F93CF93DF93CDB7DEB72B970FB6E8
:10203000F894DEBF0FBECDBFF42E052F162FE72E6E
:10204000D82E61110E948B19FE01319686E0DF01C6
:102050001D928A95E9F77E2D4F2D502F612F8D2DE2
:102060009E810E9437162B960FB6F894DEBF0FBEE6
:10207000CDBFDF91CF911F910F91FF90EF90DF9037
:102080000895FC01808191810E940B190895CF93DE
:10209000882309F450C0C82F8CEF8C0F813AD0F4FC
:1020A0006C2F8091290290912A020E94F11A8823B4
:1020B00049F06C2F8091290290912A020E947C1B8A
:1020C0000E94BD196C2F8091290290912A020E94D2
:1020D000711B0CC080E28C0F883058F4C77081E00F
:1020E00001C0880FCA95EAF70E946E19CF910C942F
:1020F000BD19EBE5EC0FE33040F4F0E0EB55FD4F9C
:10210000808190E0CF910C94EC0EE8E5EC0FE73184
:1021100050F4F0E0EE0FFF1FE958FD4F80819181F0
:10212000CF910C94020FCD3E30F08C2F0E94810A8B
:10213000CF910C94530BCF910895882389F19CEF94
:10214000980F913A40F4682F8091290290912A02C9
:102150000E947C1B0DC090E2980F983058F4877055
:1021600091E001C0990F8A95EAF7892F0E947419AE
:102170000C94BD199BE5980F933020F480E090E01B
:102180000C94EC0E98E5980F973120F480E090E0E5
:102190000C94020F8D3E20F00E94DC0A0C94530B2D
:1021A00008951F93CF93DF93182FEB010E944710E0
:1021B000209741F08FE99FE00197F1F700C0000000
:1021C0002197F6CF812FDF91CF911F910C949D1015
:1021D000893319F060E070E002C060E570E00C94B3
:1021E000D110882321F00E946E190C94BD19089516
:1021F000882321F00E9474190C94BD190895CF9280
:10220000DF92EF92FF920F931F93CF93DF937C01A6
:10221000062FC72FFC01D281158112951F700E94D5
:102220004319882399F0DD2389F08C2F807F803437
:1022300021F080E2800F883048F082E00E940D1A81
:102240000E94431991E0D82ED92601C0D12CCC2E62
:10225000C2948FE0C8228C2D90E0FC01E45BFF4F1C
:102260000C948F238C2F807FCF70882311F0C29520
:10227000C07FDD2399F0CC2309F48DC180E2800F6B
:10228000883010F0011104C08C2F0E946E1903C019
:102290008C2F0E947E190E94BD197DC1802F0E9443
:1022A0009D10CC2309F49CC180E2800F883010F08F
:1022B000011104C08C2F0E94741903C08C2F0E943E
:1022C00084190E94BD198CC18C2F807FCF70803201
:1022D00011F0C295C07F002319F00130C9F022C06F
:1022E000DD2371F0112341F0113031F40E949E1969
:1022F0008C2B0E94A61974C10E949E198C2B1DC0A4
:10230000112319F0113009F46BC10E94B31925C0D3
:10231000DD2321F0133008F063C10EC0123008F045
:102320005FC11BC0DD2361F0112331F0F70185810E
:1023300080FF31C18F7085838C2F0E94F11050C1B6
:10234000112359F0093309F037C1FFEF27EE83E07D
:10235000F15020408040E1F72DC18C2F0E94F810F1
:102360003FC18C2F86958695837019F0813061F07E
:1023700037C1DD2321F0802F9C2F937002C080E0B5
:1023800090E00E94EC0E34C1DD2321F0802F9C2FC1
:10239000937002C080E090E00E94020F29C1802F5C
:1023A000DD2319F00E94810A02C00E94DC0A0E940B
:1023B000530B1EC18C2F837009F045C0D11114C17D
:1023C000402F429546954770440F440F602F6F7021
:1023D000862F90E0A0E0B0E0042E04C0880F991F83
:1023E000AA1FBB1F0A94D2F704FF10C00FE010E031
:1023F00020E030E004C0000F111F221F331F4A9558
:10240000D2F7009510952095309503C000E010E0BC
:102410009801C695C695C370BC01CD01602B712B88
:10242000822B932BC23049F058F4C13019F00E942E
:102430008817DAC00E947617D7C00E949A17D4C0B6
:102440000E947417D1C0DD2319F08C2F817001C058
:102450008695882309F4C8C0402F42954695477059
:10246000440F440F602F6F70862F90E0A0E0B0E023
:10247000042E04C0880F991FAA1FBB1F0A94D2F70D
:1024800004FF10C00FE010E020E030E004C0000FB7
:10249000111F221F331F4A95D2F7009510952095E2
:1024A000309503C000E010E09801C695C695C37052
:1024B000BC01CD01602B712B822B932BC23049F0D4
:1024C00058F4C13019F00E944D188EC00E943B187C
:1024D0008BC00E945F1888C00E94AE1785C0CF7065
:1024E000DD2339F08C2F0E94D417802F0E94F11029
:1024F0007BC0802F0E94F8108C2F0E94F51774C0AB
:10250000023F01F128F4003F41F0013FA1F03FC03C
:10251000033FF9F0043F39F13AC0DD2341F01230B6
:1025200008F05EC08C2F8F710E941A1859C01330AA
:1025300008F056C0F7CFDD2339F08C2F8F710E9441
:10254000D4174EC0DD23C9F38C2F8F710E94F5176D
:1025500047C0DD2329F08C2F8F710E94BF1740C028
:102560000E94BA173DC0DD2349F0CF718C2F0E9425
:10257000D41763E08C2F0E94F21932C081E00E94D0
:102580000D1A123068F182E00E940D1A29C0DD2375
:1025900031F0112391F2802F0E94471021C01123A6
:1025A00099F2093349F49FEFE7EEF3E09150E040F0
:1025B000F040E1F700C00000802F0E949D1010C085
:1025C0004C2F4F70602FC7010E9497060E94E5169E
:1025D0000FC04C2F4F70602FC7010E949A0608C091
:1025E00088EF8C0D843020F40E94B80E0E948E0675
:1025F000DD20C9F00E943F1980FD15C0F70112824D
:102600000E9439190E94D417C7010E9434130E94F6
:102610003919DF91CF911F910F91FF90EF90DF90CB
:10262000CF900C94F517DF91CF911F910F91FF90F0
:10263000EF90DF90CF9008950F931F93CF93DF9388
:10264000EC01688179818A810E9416198C010E94AF
:1026500071180E946217B801CE010E94FF10DF912D
:10266000CF911F910F910895CF93DF93EC01988143
:1026700089812B813C81232B31F08F3F31F481E024
:102680009F3F19F403C081E001C080E080FD19C0C4
:10269000CE010E94350681110CC00E944319882387
:1026A00081F08A81882369F082E0DF91CF910C94D8
:1026B0000D1ACE010E941C13CE01DF91CF910C9414
:1026C0001406DF91CF91089580E090E00E94EC0E17
:1026D00080E090E00E94020F0E948B190E949B19DB
:1026E0000E94BD190E94840C0C94530B8091290206
:1026F00090912A020E94871B0C9464130E947B19FC
:102700000C947613E92FE295EF704E2F50E0FA010A
:102710003297EE30F105B0F4E45AFF4F0C948F235A
:10272000803F91F018F4883E68F40EC0843F51F465
:102730000BC0883E48F0813F29F406C093FB8827F0
:1027400080F9089580E0089581E008950E940B19B2
:102750000E9482130895CF93DF9300D000D01F9280
:10276000CDB7DEB70F900F900F900F900F90DF91C5
:10277000CF910895CF93DF9300D000D000D0CDB794
:10278000DEB726960FB6F894DEBF0FBECDBFDF9141
:10279000CF9108951F93CF93DF93C091830316E0E9
:1027A00080918403C81799F0D0E01C9FF0011D9F11
:1027B000F00D1124EB57FC4F4081518162817381F0
:1027C000848195810E94BA132196C770E9CFDF9169
:1027D000CF911F9108954091B5035091B603609138
:1027E000B7037091B8038091B9039091BA030C9428
:1027F000BA130F931F93CF93DF938091BA038295FF
:102800008F7009F05DC08091B703882309F458C028
:1028100080918303109184036091B5037091B60396
:10282000C091B803D091B90391E06F3F09F090E0F7
:10283000292F06E0811709F443C0209721F07F3F3C
:1028400021F030E003C031E001C0322F90E030FDD4
:1028500034C0089FF001099FF00D1124DF01AB5730
:10286000BC4F11963C911197371327C03C913613FA
:1028700024C012963C91129731111FC013964D91AE
:102880005C9114974C1B5D0B483C5105B0F4809152
:10289000BA038F7080618093BA03E657FC4F808142
:1028A0008F708061808385EB93E00E943413DF9109
:1028B000CF911F910F910C94CA1301968770BACFD4
:1028C000DF91CF911F910F9108959F92AF92BF9288
:1028D000CF92DF92EF92FF920F931F93CF93DF93EC
:1028E000CDB7DEB761970FB6F894DEBF0FBECDBF90
:1028F0008C0185E0F801DE011D9601900D928A950C
:10290000E1F7F80140815181E2809091B503609137
:10291000B6032091B8033091B9032115310531F088
:102920006F3F31F481E09F3F19F403C081E001C0A3
:1029300080E0F82FF1709F2E80FD46C1F801A38042
:10294000B48085EBC82E83E0D82EF090B703F50154
:10295000E21BF30BFF2009F4DFC08091BA03E83CCF
:10296000F10508F09BC0282F207F09F052C05613B4
:1029700013C0491311C0FE2CE1100EC08F7080618E
:102980008093BA030E94EB13C6010E943413809116
:10299000BA03F801858358C1AB2831F05F3F31F4A9
:1029A00081E04F3F19F403C081E001C080E080FD69
:1029B00003C081E08E2502C080E090E0F82FF17026
:1029C000FF2E80FF1CC0809183032091840336E09A
:1029D000821709F417C190E0389FF001399FF00D7C
:1029E0001124EB57FC4F6181561306C060814613DA
:1029F00003C06281E61203C001968770E9CFFE2C06
:102A0000EE2009F421C18091BA0381608093BA035A
:102A10005AC0561306C0491304C0E11002C0F801A1
:102A20009FC04D875E878D859E850E94A613882353
:102A300079F1EE2069F12091BA03822F82958F708F
:102A400090E0029774F08091B5039091B603988757
:102A50008F831986BB86AA862C87CE0107960E9493
:102A6000341386E0F801A5EBB3E001900D928A954E
:102A7000E1F70E94F9130E94EB130DC0561729F1DC
:102A80004D875E878D859E850E94A61381112CC07F
:102A9000C8010E943413FF24F394D6C0282F207F4E
:102AA00069F77A2DB98AA88A6E2D89890E94AB139D
:102AB00085EB93E00E94341386E0F60111928A952B
:102AC000E9F70E94EB13F12CBFC04913D9CFE110F5
:102AD000D7CFF8018583C8010E94341386E0F60140
:102AE00011928A95E9F7B0C0EE2091F22091BA03D5
:102AF000822F82958F7090E002970CF4B2CF809174
:102B0000B5039091B6039A8389831B82BD82AC8200
:102B10002E83CE010196A3CFE83CF10508F047C013
:102B2000FE2CEE2009F4B4CF561330C049132EC04A
:102B30002091BA0320FD21C0822F82958F70482FEB
:102B400050E041155105C9F0F80125834F3051057A
:102B500041F08F5F982F9295907F822F8F70892BF5
:102B60008583C8010E94341386E0F801A5EBB3E029
:102B700001900D928A95E1F742C086E0F801A5EB3D
:102B8000B3E001900D928A95E1F75EC04D875E87B4
:102B90008D859E850E94A613811163CF8091BA0313
:102BA00081608093BA03C8010E9434134DC07A2D0E
:102BB000B98AA88A6E2D89890E94AB1386E0F60136
:102BC00011928A95E9F71BC0EE2009F461CF4D8779
:102BD0005E878D859E850E94A613F82E882309F4B2
:102BE00057CF86E0F801A5EBB3E001900D928A95EE
:102BF000E1F785EB93E00E9441100E94F9130E94D7
:102C0000EB1322C04D875E878D859E850E940B1930
:102C1000292F22952F70223028F49F7039F08111CE
:102C200005C00BC0243028F49F7049F4805E8830C2
:102C300020F0C8010E9434139F2CF92C05C0F80124
:102C40009581907F99F7F9CF8F2D61960FB6F89403
:102C5000DEBF0FBECDBFDF91CF911F910F91FF90CF
:102C6000EF90DF90CF90BF90AF909F9008951F930B
:102C7000CF93DF93CDB7DEB72C970FB6F894DEBFB6
:102C80000FBECDBF4F83588769877A878B879C8714
:102C9000CE0107960E9465148823D1F09F81888514
:102CA0002A853B85232B31F08F3F31F481E09F3F14
:102CB00019F403C081E001C080E080FD47C04F816E
:102CC000588569857A858B859C850E94BA133EC09C
:102CD00086E0FE013796DE01119601900D928A95ED
:102CE000E1F7FF81E8856A857B856115710531F023
:102CF000EF3F31F481E0FF3F19F403C081E001C0F0
:102D000080E080FD23C02091840330E0C90101965A
:102D1000877099274091830350E084179507F1F15C
:102D2000F983EA837D836C8396E0929FD001939F21
:102D3000B00D1124AB57BC4FFE01319601900D929E
:102D40009A95E1F7809384030E94CA1316E080915C
:102D5000830390918403891771F1189FC001112496
:102D60008B579C4F0E946514882329F1E0918303BF
:102D70001E9FF0011124EB57FC4F4081518162816D
:102D80007381848195810E94BA138091830390E0BE
:102D900001968770992780938303D9CF0E947E1371
:102DA0001092840310928303E5EBF3E086E0DF01E9
:102DB0001D928A95E9F72C960FB6F894DEBF0FBEE8
:102DC000CDBFDF91CF911F910895EF92FF920F93A6
:102DD0001F93CF93DF938C01892B09F46CC0F12CE6
:102DE000EE24E394E8012196F8018491843740F4BD
:102DF000843008F051C0813081F0823019F15BC01D
:102E0000853709F444C0A8F19CE7980F903708F083
:102E100052C08F770E949D1041C00E5F1F4FFE0170
:102E2000849190E2980F983050F48770FE2D01C085
:102E3000FF0F8A95EAF78F2F0E948E1914C00E9407
:102E400047102DC00E5F1F4FFE01849190E2980F36
:102E5000983060F48770FE2D01C0FF0F8A95EAF765
:102E60008F2F0E9494190E94BD1919C00E949D10B5
:102E700016C00E5F1F4FFE01C491CC2381F08FE975
:102E80009FE00197F1F700C00000C150F6CF0E5F40
:102E90001F4FFE01F49003C00E9447108E018F2D3A
:102EA000882309F49FCFEFE9FFE03197F1F700C0E5
:102EB00000008150F5CFDF91CF911F910F91FF90CE
:102EC000EF900895089508950C9463170C94641777
:102ED0000E9466176093DD037093DE038093DF0327
:102EE0009093E0030C9464130C9468170F931F9352
:102EF0000091DD031091DE032091DF033091E003A8
:102F0000602B712B822B932B1F910F910C946817C0
:102F10000F931F930091DD031091DE032091DF03D7
:102F20003091E00360237123822393231F910F913B
:102F30000C9468170F931F930091DD031091DE032B
:102F40002091DF033091E0036027712782279327C8
:102F50001F910F910C9468170C94B1050E94AC1747
:102F60006093D9037093DA038093DB039093DC03BF
:102F70000C94641360E070E0CB010C94AE170F93D7
:102F80001F9341E050E060E070E08A019B0104C0C3
:102F9000000F111F221F331F8A95D2F7C901B801F4
:102FA0001F910F910C94AE170F931F9341E050E0C7
:102FB00060E070E004C0440F551F661F771F8A95BC
:102FC000D2F78091D9039091DA03A091DB03B091FD
:102FD000DC038A019B01082B192B2A2B3B2BC901EF
:102FE000B8011F910F910C94AE170F931F9341E0FE
:102FF00050E060E070E004C0440F551F661F771F6B
:103000008A95D2F740955095609570958091D90337
:103010009091DA03A091DB03B091DC038A019B015C
:10302000082319232A233B23C901B8011F910F91BB
:103030000C94AE170F931F9341E050E060E070E0F6
:1030400004C0440F551F661F771F8A95D2F78091E1
:10305000D9039091DA03A091DB03B091DC038A01DC
:103060009B01082719272A273B27C901B8011F916F
:103070000F910C94AE170F931F930091D9031091E9
:10308000DA032091DB033091DC03602B712B822B60
:10309000932B1F910F910C94AE170F931F930091D8
:1030A000D9031091DA032091DB033091DC03602314
:1030B0007123822393231F910F910C94AE170F93CA
:1030C0001F930091D9031091DA032091DB03309113
:1030D000DC0360277127822793271F910F910C949F
:1030E000AE1708952CE0929F800D1124E82FE695ED
:1030F000E695E695877051E001C0550F8A95EAF78D
:1031000085E0E89FF0011124E554FC4F20E030E019
:1031100070E04081CB01022E02C0969587950A94FB
:10312000E2F78170819584278523842781932F5F1F
:103130003F4F2530310569F708952CE0929F800DAF
:103140001124682F669566956695982F977085E08F
:10315000689FB001112440E050E080E0FB01E40FE3
:10316000F51FE554FC4F208130E0092E02C0369552
:1031700027950A94E2F721703327042E01C0220F0D
:103180000A94EAF7822B4F5F5F4F4530510531F7C4
:103190000895BF92CF92DF92EF92FF920F931F9309
:1031A000CF93DF938C01C090D903D090DA03E090E5
:1031B000DB03F090DC038091DD039091DE03A091AE
:1031C000DF03B091E003C82AD92AEA2AFB2ACFE11B
:1031D000D0E0D701C6010C2E04C0B695A7959795EF
:1031E00087950A94D2F780FD04C0219790F7B12CFF
:1031F00007C0BC2EB8018C2F0E94B6060197A9F318
:103200008B2DDF91CF911F910F91FF90EF90DF9069
:10321000CF90BF900895CF93DF93EC010E94C9181F
:10322000BE010E94B606DF91CF9108951F93CF9300
:10323000DF93EB0190918203992321F0CB010E944F
:103240000B1913C0882349F0CB010E94C918182F0D
:10325000682FCE010E94721804C0CB010E949D18F5
:10326000182FBE01812F0E94B606DF91CF911F91CA
:1032700008958091E10385958595859508958091C0
:10328000E103877008959091E103977081E009F45C
:1032900080E0089590912B0492FB222720F92817B3
:1032A00051F080FB92F990932B0480912A04909125
:1032B0002B040C94501A089580912B0482FB8827CC
:1032C00080F991E089270C944A1981E00C944A19FD
:1032D00080E00C944A1980910504089590910504AA
:1032E000892B809305040895809590910504892386
:1032F00080930504089510920504089590910404A4
:10330000892B809304040895809590910404892367
:103310008093040408951092040408959091030486
:10332000892B809303040895809590910304892349
:103330008093030408951092030408958091E2039A
:10334000089508950C94A1190C94A21990912B043E
:1033500092FD08C09091E203981721F08093E20358
:103360000C94A41908958091E203882329F0109207
:10337000E20380E00C94A4190895E0912902F091F1
:103380002A02809105048083E0912902F0912A02AB
:10339000908180910404892B8083E0912902F0912F
:1033A0002A02908180910304892B80838091E2031B
:1033B000882381F0E0912902F0912A029081892BE3
:1033C00080838091290290912A020E94DB1A811148
:1033D0000E94B3198091290290912A020C94C40E84
:1033E0000C94A11990912B0492FD10C098E0899F34
:1033F00090011124262B2093E1030E94D417809181
:10340000E1038595859585950C94F0190C94D41756
:103410001092E10380E00C94F0192091E103809573
:1034200082238093E103982F977041F430E0482F76
:10343000082E000C550B2417350721F490912B040E
:1034400092FF07C08595859585950E94F5170C9488
:10345000081A089580E0089580E090E00E94B42367
:1034600021E08A3E9E4F09F020E0822F089582E0FD
:1034700090E00C94AC2383E090E00C94AC23CF93C9
:1034800084E090E00E94AC23C82F82E290E00E948A
:10349000AC232C2F30E0A901582BCA01CF910895FD
:1034A000CF93C92F682F84E090E00E94BA236C2F3D
:1034B00082E290E0CF910C94BA23AB01BC018FE083
:1034C00090E00C94CC23AB01BC0183E190E00C9420
:1034D000CC2360E070E0CB010C94631A60E070E0F4
:1034E000CB010E945D1A0C94691A6AEE7EEF80E0AF
:1034F00090E00E94D82360E082E090E00E94BA232E
:1035000060E083E090E00E94BA231092DD03109205
:10351000DE031092DF031092E00360E084E090E0AD
:103520000E94BA2360E082E290E00E94BA2360E049
:1035300085E090E00E94BA2360E086E090E00E947F
:10354000BA236FEF87E090E00E94BA2340E050E09A
:10355000BA0188E090E00E94CC2360E08DE090E02A
:103560000E94BA2340E050E0BA0188E190E00E9456
:10357000CC2360E087E190E00E94BA2340E050E075
:10358000BA018CE190E00E94CC2360E070E080E220
:1035900090E00E94D82340E050E0BA0188E190E03A
:1035A0000E94CC230C946E1A0C94751A682F8EE02E
:1035B00090E00C94BA23FC01329680913502882366
:1035C00031F080912A0487FF02C09EE101C096E09D
:1035D00080E0915028F021912223D9F38F5FF9CF19
:1035E0000895662351F1209135022223E9F02091BC
:1035F0002A0427FF19C0462F4695469546954E3119
:10360000E0F4677021E030E002C0220F331F6A95BA
:10361000E2F7FC01E40FF11D828190E028233923B9
:1036200081E0232B69F409C0FC01329608962191B0
:10363000621729F0E817F907D1F780E0089581E0D3
:1036400008959C01FC0132969FEF80E0419146175E
:1036500089F09F3F19F4411101C0982F8F5F863088
:10366000A9F79F3F39F0F901E90FF11D97FDFA9590
:103670006283089508959C012A5F3F4FFC014281B7
:10368000461301C01282019682179307B9F7089575
:10369000262F2695269526952E3168F4FC01E20FFB
:1036A000F11D677021E030E001C0220F6A95EAF752
:1036B0008281282B22830895262F269526952695EC
:1036C0002E3170F4FC01E20FF11D677021E030E053
:1036D00001C0220F6A95EAF7209582812823228370
:1036E000089520913502222329F020912A0427FDF4
:1036F0000C94481B0C94211B20913502222329F0A5
:1037000020912A0427FD0C945C1B0C943B1B2091F8
:103710003502FC013296222331F080912A0487FF82
:1037200002C08EE101C086E0DF011D928A95E9F7B3
:10373000089508950C94991B0C94991BCF930E94A3
:103740009C1B0E9436090E949A1BC0E08C2F0E948D
:10375000CA08892B29F4CF5FC430C1F780E001C0CB
:1037600081E0CF9108950C94991B0C94B31B809128
:103770004404843049F10E94B51B80E00E948E060B
:103780001092070420E488E190E00FB6F894A89521
:10379000809360000FBE2093600083B7817F8460B8
:1037A00083BF83B7816083BF7894889583B78E7F0A
:1037B00083BF0FB6F894A8958091600088618093CC
:1037C0006000109260000FBE08950C94991B0E9437
:1037D0007E130E94B80E0E948E060C94E51B1F9269
:1037E0000F920FB60F9211248F939F93AF93BF93B5
:1037F00080910704811113C080913C0490913D0495
:10380000A0913E04B0913F044196A11DB11D80934B
:103810003C0490933D04A0933E04B0933F04BF91B9
:10382000AF919F918F910F900FBE0F901F901895A1
:1038300082E084BD93E095BD9AEF97BD80936E00C2
:1038400008952FB7F89480913C0490913D04A09185
:103850003E04B0913F042FBF08952FB7F8946091B4
:103860003C0470913D0480913E0490913F042FBF31
:1038700008959C014FB7F89480913C0490913D04C9
:10388000A0913E04B0913F044FBF821B930B08955B
:1038900078941F920F920FB60F9211248F939F93DB
:1038A000AF93BF9380913C0490913D04A0913E045E
:1038B000B0913F040196A11DB11D80933C049093EB
:1038C0003D04A0933E04B0933F04BF91AF919F91FC
:1038D0008F910F900FBE0F901F901895F89481E074
:1038E0008093E00080E28093D800E9ECF0E0108261
:1038F0008FE19EE40197F1F700C000001DBA10921D
:1039000068001CBC10BE1FBA10927A0010926E00A4
:1039100010926F001092700010927100108210923D
:10392000BC0011B814B817B81AB81DB810BA12B83C
:1039300015B818B81BB81EB811BA0C9400FE08953B
:103940009093A9028093A802089580912804089575
:10395000CF93DF9300D01F92CDB7DEB79091440490
:10396000943019F589837B836A8382E08093E90030
:103970008FEF9091E800815095FD06C095ED9A95E6
:10398000F1F700008111F5CF8091E80085FF0DC0AF
:1039900040E050E063E070E0CE0101960E94D61E48
:1039A0008091E8008E778093E8000F900F900F9041
:1039B000DF91CF910895BC0184E00C94A81CBC0158
:1039C00083E00C94A81C22E02093E9002FEF3091B3
:1039D000E800215035FD06C035ED3A95F1F70000BD
:1039E0002111F5CF2091E80025FF0BC040E050E009
:1039F00066E070E00E94D61E8091E8008E7780938A
:103A0000E8000895CF93DF9320913502222339F007
:103A100020912A0427FF03C060E222E002C068E090
:103A200021E02093E9002FEF3091E800215035FD8F
:103A300006C035ED3A95F1F700002111F5CF209140
:103A4000E80025FF1DC0EC0180913502811105C001
:103A500040E050E068E070E003C070E040E050E01B
:103A6000CE010E94D61E8091E8008E778093E800F8
:103A700080E2FE01A8E0B4E001900D928A95E1F7A2
:103A8000DF91CF91089580914304811109C00E9474
:103A900063200E94C5208091E20084608093E20050
:103AA000089510924304089508950895089542E0FA
:103AB00061EC81E00E94DC1F42E261EC82E00C9448
:103AC000DC1F80914604833009F45EC030F48130FD
:103AD00071F0823009F497C008958A3009F483C0E8
:103AE0008B3009F469C0893009F0A5C020C08091ED
:103AF0004504813A09F09FC08091E800877F809358
:103B0000E8008091490490914A04892B21F460E2F5
:103B100088E094E003C060E080E090E070E00E9404
:103B2000211F8091E8008B778093E80008958091B1
:103B30004504813209F07FC08091490490914A0484
:103B4000029708F078C08091E800877F8093E800B2
:103B50008091E80082FD05C0809144048111F8CF76
:103B60006AC08091F2009091F300029729F480914D
:103B7000F1008B7F813021F48091F1008093280443
:103B80008091E8008B7753C080914504813A09F019
:103B900052C08091490490914A04892B09F04BC08E
:103BA0008091E800877F8093E8008091E80080FFA3
:103BB000FCCF8091350236C0809145048132D9F521
:103BC0008091490490914A04892BA9F58091E800DD
:103BD000877F8093E8000E941120809147048093A2
:103BE00035020C947E1380914504813221F5809139
:103BF000E800877F8093E8000E94112080914804AC
:103C000080932904089580914504813AA1F480911C
:103C1000E800877F8093E8008091E80080FFFCCF78
:103C2000809129048093F1008091E8008E77809341
:103C3000E8000C941120089584B7877F84BF0FB6E5
:103C4000F894A8958091600088618093600010923C
:103C500060000FBE90E080E80FB6F894809361009A
:103C6000909361000FBE0E94430F0E9463200E9448
:103C7000C5208091E20084608093E20078940E94E5
:103C800060230E94510F8BE292E00E94B30E80915C
:103C900044048530A9F480914404853079F40E946D
:103CA000B71B809142048823B1F30E949E1B882396
:103CB00091F30E94C01E0E947E13EDCF0E94E71B6D
:103CC0000E94570F0E944D0FE2CF0C94671E292FC0
:103CD000332723303105C9F060F42130310581F0FC
:103CE0002230310509F044C08BE390E028EE32E049
:103CF00043C021323105E1F02232310549F138C0AB
:103D000082E190E023E233E037C0992781309105CA
:103D100049F028F0029761F5E8ECF2E005C0E4EE26
:103D2000F2E002C0E8EDF2E0849190E09F0124C04F
:103D30006115710541F061307105D1F489E090E0C1
:103D400023E133E019C089E090E02AEF32E014C0AB
:103D50006115710541F06130710551F486EB90E019
:103D600025E333E009C080E490E02BEE33E004C0AB
:103D700080E090E020E030E0FA0131832083089574
:103D800084E189BD86E189BD09B400FEFDCF809143
:103D9000D8008F7D8093D8008091E000826080936E
:103DA000E0008091E00081FDFCCF0895CF92DF928A
:103DB000EF92FF920F931F93CF93DF93EC018B0150
:103DC0007A010E943020811133C0E114F10439F0EE
:103DD000F70180819181081B190BC80FD91FC12CD5
:103DE000D12C0115110519F18091E80085FD16C04F
:103DF0008091E8008E778093E800E114F10449F0A7
:103E0000F70180819181C80ED91ED182C08285E0E0
:103E10000FC00E943020882321F30AC0899180932B
:103E2000F10001501109FFEFCF1ADF0ADACF80E06D
:103E3000DF91CF911F910F91FF90EF90DF90CF9086
:103E4000089520914B0430914C042617370748F011
:103E50006115710539F42091E8002E772093E80070
:103E600001C0B901FC0120E06115710569F1809183
:103E700044048823E1F18530E1F18091E80083FD7D
:103E80003AC08091E80082FD2CC08091E80080FF5C
:103E9000EBCF8091F2009091F3006115710551F024
:103EA0008830910538F421912093F1006150710917
:103EB0000196F3CF21E0089709F020E08091E80017
:103EC0008E778093E800D0CF2111D1CF0AC08091A6
:103ED0004404882361F0853061F08091E80083FD1F
:103EE0000AC08091E80082FFF2CF80E0089582E06E
:103EF000089583E0089581E0089520914B04309166
:103F00004C042617370748F06115710539F42091E4
:103F1000E8002E772093E80001C0B901FC0120E001
:103F20006115710581F180914404882309F43EC034
:103F3000853009F43DC08091E80083FD3BC080914D
:103F4000E80082FD2DC08091E80080FFE9CF8091DC
:103F5000F2009091F3006115710559F088309105D8
:103F600040F424912093F10031966150710901963B
:103F7000F2CF21E0089709F020E08091E8008E77E9
:103F80008093E800CDCF2111CECF0AC080914404A8
:103F9000882361F0853061F08091E80083FD0AC0DC
:103FA0008091E80082FFF2CF80E0089582E00895DA
:103FB00083E0089581E00895982F973068F59093F5
:103FC000E900981739F07091EC002091ED005091C4
:103FD000F00003C0242F762F50E021FD02C09F5F28
:103FE000ECCF3091EB003E7F3093EB003091ED0051
:103FF0003D7F3093ED003091EB0031603093EB006A
:104000007093EC002093ED005093F0002091EE00AF
:1040100027FDE5CF80E008958F708093E90081E06F
:1040200008958091450487FF11C08091E80082FDCA
:1040300005C0809144048111F8CF11C08091E8003F
:104040008B770BC080914404882349F08091E8006D
:1040500080FFF8CF8091E8008E778093E800089584
:104060002091E4003091E50095E64091EC00842F2A
:10407000817040FF23C08091E80080FD1DC08091C9
:104080004404882399F0853099F08091EB0085FDF8
:1040900011C04091E4005091E5002417350729F341
:1040A000915011F09A01E1CF84E0089582E00895E3
:1040B00083E0089581E0089580E008954091E8004C
:1040C00042FFDDCF08950E94D4200E94DC20E0EE64
:1040D000F0E0808181608083E8EDF0E080818F777F
:1040E000808319BCA7EDB0E08C918E7F8C9380818A
:1040F0008F7E80831092430408950F931F93CF9374
:10410000DF930E94D4200E94DC20C8EDD0E088819B
:104110008F77888388818068888388818F7D888372
:10412000E7EDF0E080818068808319BC1092440440
:1041300010924004109242041092410400EE10E0EC
:10414000F80180818B7F808388818160888342E051
:1041500060E080E00E94DC1FE1EEF0E080818E7F75
:104160008083E2EEF0E080818160808380818860DE
:104170008083F80180818E7F80838881806188833D
:10418000DF91CF911F910F910895E8EDF0E08081CC
:104190008F7E8083E7EDF0E080818160808381E025
:1041A000809343040C947D20E8EDF0E080818C7FC7
:1041B00080831092E20008951092DA001092E100DC
:1041C00008951F920F920FB60F9211240BB60F9203
:1041D0002F933F934F935F936F937F938F939F930F
:1041E000AF93BF93EF93FF938091E10082FF0BC0E9
:1041F0008091E20082FF07C08091E1008B7F809375
:10420000E1000E945F238091DA0080FF1FC080914F
:10421000D80080FF1BC08091DA008E7F8093DA0087
:104220008091D90080FF0DC084E189BD86E189BD00
:1042300009B400FEFDCF81E0809344040E94431D39
:1042400005C019BC109244040E94511D8091E100E8
:1042500080FF19C08091E20080FF15C08091E200CC
:104260008E7F8093E2008091E20080618093E20083
:104270008091D80080628093D80019BC85E080933B
:1042800044040E94551D8091E10084FF30C080915C
:10429000E20084FF2CC084E189BD86E189BD09B4B8
:1042A00000FEFDCF8091D8008F7D8093D800809153
:1042B000E1008F7E8093E1008091E2008F7E809309
:1042C000E2008091E20081608093E20080914004EE
:1042D000882311F084E007C08091E30087FD02C0CD
:1042E00081E001C083E0809344040E94561D8091C8
:1042F000E10083FF29C08091E20083FF25C0809107
:10430000E100877F8093E10082E080934404109273
:1043100040048091E1008E7F8093E1008091E20073
:104320008E7F8093E2008091E20080618093E200C2
:1043300042E060E080E00E94DC1F8091F000886035
:104340008093F0000E94541DFF91EF91BF91AF91B7
:104350009F918F917F916F915F914F913F912F919D
:104360000F900BBE0F900FBE0F901F9018951F92CD
:104370000F920FB60F9211240BB60F922F933F930B
:104380004F935F936F937F938F939F93AF93BF935D
:10439000CF93DF93EF93FF93C091E900CF708091AB
:1043A000EC00D82FD17080FDD0E81092E900809108
:1043B000F000877F8093F00078940E94FF21109294
:1043C000E9008091F00088608093F000CD2BCF70E1
:1043D000C093E900FF91EF91DF91CF91BF91AF9131
:1043E0009F918F917F916F915F914F913F912F910D
:1043F0000F900BBE0F900FBE0F901F9018951F933C
:10440000CF93DF93CDB7DEB7AA970FB6F894DEBF90
:104410000FBECDBFE5E4F4E08091F100819324E08C
:10442000ED34F207C9F70E94611D8091E80083FF17
:104430002EC18091450490914604492F50E04A30A6
:10444000510508F024C1FA01E659FF4F0C948F235F
:10445000803821F0823809F01AC108C080914104E7
:1044600090914204992389F082600FC080914904A1
:104470008F70873008F00BC18093E9008091EB00CA
:1044800085FB882780F91092E9009091E800977FDA
:104490009093E8008093F1001092F100D1C0282F92
:1044A0002D7F09F0F4C0882319F0823061F0EFC04D
:1044B00080914704813009F0EAC0933009F080E030
:1044C000809342042EC08091470481112AC08091BC
:1044D00049048F702FEF280F263008F0D8C0809342
:1044E000E9002091EB0020FF1CC0933021F4809163
:1044F000EB00806214C09091EB0090619093EB0010
:1045000021E030E0A90102C0440F551F8A95E2F76F
:104510004093EA001092EA008091EB00886080935B
:10452000EB001092E9008091E800877F8093E8001B
:104530000E941120ACC08111AAC0109147041F77BE
:104540008091E3008078812B8093E3008091E800E4
:10455000877F8093E8000E9411208091E80080FF0F
:10456000FCCF8091E30080688093E300111102C0CA
:1045700082E001C083E08093440489C08058823087
:1045800008F085C080914704909148048C3D53E029
:10459000950779F583E08A838AE289834FB7F89497
:1045A000DE01139620E03EE051E2E32FF0E050936D
:1045B0005700E49120FF03C0E295EF703F5FEF707A
:1045C0008E2F90E0EA3010F0C79601C0C0968D9310
:1045D0009D932F5F243149F74FBF8091E800877F7B
:1045E0008093E8006AE270E0CE0101960E94211FEC
:1045F00016C06091490470914A04AE014F5F5F4F4D
:104600000E94651EBC01892B09F441C09091E8000D
:10461000977F9093E80089819A810E947D1F809105
:10462000E8008B778093E80032C0803881F5809174
:10463000E800877F8093E800809140048093F10038
:104640008091E8008E7772CF811121C0809147045C
:104650009091480499270297D4F48091E800877FCD
:104660008093E80080914704809340040E941120C9
:1046700080914004811106C08091E30087FD02C053
:1046800081E001C084E0809344040E94571D809122
:10469000E80083FF0AC08091E800877F8093E800EC
:1046A0008091EB0080628093EB00AA960FB6F8949D
:1046B000DEBF0FBECDBFDF91CF911F91089508954A
:1046C000CF93809144048823A1F0C091E900CF707A
:1046D0009091EC00892F817090FD80E8C82B10929A
:1046E000E9008091E80083FD0E94FF21CF70C09314
:1046F000E900CF91089597FB072E16F4009407D098
:1047000077FD09D00E94982307FC05D03EF49095D0
:1047100081959F4F0895709561957F4F0895EE0F95
:10472000FF1F0024001C0BBE0790F691E02D09949A
:10473000AA1BBB1B51E107C0AA1FBB1FA617B707C7
:1047400010F0A61BB70B881F991F5A95A9F78095E3
:104750009095BC01CD010895F999FECF92BD81BD20
:10476000F89A992780B50895A8E1B0E042E050E0BA
:104770000C94E023262FF999FECF92BD81BDF89AC3
:10478000019700B4021639F01FBA20BD0FB6F89495
:10479000FA9AF99A0FBE08950396272F0E94BB2319
:1047A0000E94BA23252F0E94BB23242F0C94BB23E5
:1047B0000196272F0E94BB230C94BA23DC01CB0166
:1047C000FC01F999FECF06C0F2BDE1BDF89A319621
:1047D00000B40D9241505040B8F70895F894FFCFBF
:1047E000FF000000000000000000000000000000CA
:1047F00000000000000000000000000000000000B9
:1048000000000000000000000000000000000000A8
:1048100001FFFFFFFFFFFFFFFFFFFFFFFFFFFFFFA6
:10482000FFFFFFFF00FFFFFFFFFFFFFFFFFFFFFF97
:10483000FFFFFFFFFFFFFFFFFFFFFFFFFFFFFFFF88
:10484000FFFFFFFFFFFFFFFF0F0F0FFFFFFFFFFF48
:10485000FFFFFFFF0F0F0FFFFFFFFFFFFFFFFFFF38
:104860000F0F0FFFFFFFFFFFFFFFFFFF0FFFFFFF18
:10487000FFFFFFFFFFFFFFFFFFFFFFFFFFFFFFFF48
:10488000FFFFFF0F0F0F0FFFFFFFFFFFFFFFFFFFF8
:10489000FFFFFFFFFFFFFFFFFFFFFFFFFFFFFFFF28
:1048A000FFFFFF0FFFFFFFFFFFFFFFFF0FFF0F0FD8
:1048B0000FFF0FFFFFFFFFFFFFFFFFFFFFFFFFFFE8
:1048C000FFFFFFFFFFFF0FFFFFFFFFFFFF0F0F0FB8
:1048D0000FFFFF0FFFFFFFFF0F0F0F0F0FFF0F0F58
:1048E0000FFFFFFF0F0F0F0FFFFFFFFFFFFFFFFF88
:1048F000FFFFFFFFFFFFFFFFFFFFFFFFFFFFFFFFC8
:10490000FF2808641E140A321EE303A51C021DE3DF
:104910001CDF1CDB1C01E200E900EA00B500B60068
:10492000B700CD008301CC008A01920194012102DD
:10493000230224022502260227022A02B300B40021
:104940006F007000818283939291903736353433B3
:1049500032313094959697E200E900EA00B500B64E
:1049600000B700CD008301CC008A0192019401219F
:1049700002230224022502260227022A02B300B4DF
:08498000006F007000818283CA
:00000001FF
